{
  "_format": "hh3-artifact-1",
  "contractName": "EscrowV2",
  "sourceName": "contracts/EscrowV2.sol",
  "abi": [
    {
      "inputs": [],
      "stateMutability": "nonpayable",
      "type": "constructor"
    },
    {
      "inputs": [],
      "name": "ECDSAInvalidSignature",
      "type": "error"
    },
    {
      "inputs": [
        {
          "internalType": "uint256",
          "name": "length",
          "type": "uint256"
        }
      ],
      "name": "ECDSAInvalidSignatureLength",
      "type": "error"
    },
    {
      "inputs": [
        {
          "internalType": "bytes32",
          "name": "s",
          "type": "bytes32"
        }
      ],
      "name": "ECDSAInvalidSignatureS",
      "type": "error"
    },
    {
      "inputs": [],
      "name": "InvalidInitialization",
      "type": "error"
    },
    {
      "inputs": [],
      "name": "NotInitializing",
      "type": "error"
    },
    {
      "inputs": [
        {
          "internalType": "address",
          "name": "owner",
          "type": "address"
        }
      ],
      "name": "OwnableInvalidOwner",
      "type": "error"
    },
    {
      "inputs": [
        {
          "internalType": "address",
          "name": "account",
          "type": "address"
        }
      ],
      "name": "OwnableUnauthorizedAccount",
      "type": "error"
    },
    {
      "inputs": [],
      "name": "ReentrancyGuardReentrantCall",
      "type": "error"
    },
    {
      "inputs": [
        {
          "internalType": "address",
          "name": "token",
          "type": "address"
        }
      ],
      "name": "SafeERC20FailedOperation",
      "type": "error"
    },
    {
      "anonymous": false,
      "inputs": [
        {
          "indexed": false,
          "internalType": "enum EscrowV1.ContractState",
          "name": "newState",
          "type": "uint8"
        }
      ],
      "name": "ContractStateChanged",
      "type": "event"
    },
    {
      "anonymous": false,
      "inputs": [],
      "name": "EIP712DomainChanged",
      "type": "event"
    },
    {
      "anonymous": false,
      "inputs": [
        {
          "indexed": true,
          "internalType": "bytes16",
          "name": "orderId",
          "type": "bytes16"
        },
        {
          "indexed": true,
          "internalType": "address",
          "name": "buyer",
          "type": "address"
        },
        {
          "indexed": true,
          "internalType": "enum EscrowV1.OrderState",
          "name": "state",
          "type": "uint8"
        },
        {
          "indexed": false,
          "internalType": "address",
          "name": "seller",
          "type": "address"
        }
      ],
      "name": "EscrowRegistered",
      "type": "event"
    },
    {
      "anonymous": false,
      "inputs": [
        {
          "indexed": false,
          "internalType": "uint64",
          "name": "version",
          "type": "uint64"
        }
      ],
      "name": "Initialized",
      "type": "event"
    },
    {
      "anonymous": false,
      "inputs": [
        {
          "indexed": true,
          "internalType": "bytes16",
          "name": "orderId",
          "type": "bytes16"
        }
      ],
      "name": "OrderDisputed",
      "type": "event"
    },
    {
      "anonymous": false,
      "inputs": [
        {
          "indexed": true,
          "internalType": "bytes16",
          "name": "orderId",
          "type": "bytes16"
        },
        {
          "indexed": true,
          "internalType": "address",
          "name": "buyer",
          "type": "address"
        },
        {
          "indexed": false,
          "internalType": "uint256",
          "name": "amount",
          "type": "uint256"
        }
      ],
      "name": "OrderRefunded",
      "type": "event"
    },
    {
      "anonymous": false,
      "inputs": [
        {
          "indexed": true,
          "internalType": "bytes16",
          "name": "orderId",
          "type": "bytes16"
        },
        {
          "indexed": true,
          "internalType": "address",
          "name": "seller",
          "type": "address"
        },
        {
          "indexed": false,
          "internalType": "uint256",
          "name": "sellerAmount",
          "type": "uint256"
        }
      ],
      "name": "OrderReleased",
      "type": "event"
    },
    {
      "anonymous": false,
      "inputs": [
        {
          "indexed": true,
          "internalType": "address",
          "name": "previousOwner",
          "type": "address"
        },
        {
          "indexed": true,
          "internalType": "address",
          "name": "newOwner",
          "type": "address"
        }
      ],
      "name": "OwnershipTransferred",
      "type": "event"
    },
    {
      "inputs": [
        {
          "internalType": "bytes16",
          "name": "orderId",
          "type": "bytes16"
        }
      ],
      "name": "confirmDelivery",
      "outputs": [],
      "stateMutability": "nonpayable",
      "type": "function"
    },
    {
      "inputs": [],
      "name": "contractState",
      "outputs": [
        {
          "internalType": "enum EscrowV1.ContractState",
          "name": "",
          "type": "uint8"
        }
      ],
      "stateMutability": "view",
      "type": "function"
    },
    {
      "inputs": [],
      "name": "eip712Domain",
      "outputs": [
        {
          "internalType": "bytes1",
          "name": "fields",
          "type": "bytes1"
        },
        {
          "internalType": "string",
          "name": "name",
          "type": "string"
        },
        {
          "internalType": "string",
          "name": "version",
          "type": "string"
        },
        {
          "internalType": "uint256",
          "name": "chainId",
          "type": "uint256"
        },
        {
          "internalType": "address",
          "name": "verifyingContract",
          "type": "address"
        },
        {
          "internalType": "bytes32",
          "name": "salt",
          "type": "bytes32"
        },
        {
          "internalType": "uint256[]",
          "name": "extensions",
          "type": "uint256[]"
        }
      ],
      "stateMutability": "view",
      "type": "function"
    },
    {
      "inputs": [
        {
          "internalType": "address",
          "name": "_serverSigner",
          "type": "address"
        },
        {
          "internalType": "address",
          "name": "_platformTaxTreasury",
          "type": "address"
        },
        {
          "internalType": "address",
          "name": "_platformFeeTreasury",
          "type": "address"
        },
        {
          "internalType": "uint24",
          "name": "_releaseDelay",
          "type": "uint24"
        }
      ],
      "name": "initialize",
      "outputs": [],
      "stateMutability": "nonpayable",
      "type": "function"
    },
    {
      "inputs": [
        {
          "internalType": "bytes16",
          "name": "orderId",
          "type": "bytes16"
        }
      ],
      "name": "openDispute",
      "outputs": [],
      "stateMutability": "nonpayable",
      "type": "function"
    },
    {
      "inputs": [
        {
          "internalType": "bytes16",
          "name": "",
          "type": "bytes16"
        }
      ],
      "name": "orders",
      "outputs": [
        {
          "internalType": "address",
          "name": "buyer",
          "type": "address"
        },
        {
          "internalType": "address",
          "name": "seller",
          "type": "address"
        },
        {
          "internalType": "address",
          "name": "paymentToken",
          "type": "address"
        },
        {
          "internalType": "uint256",
          "name": "total",
          "type": "uint256"
        },
        {
          "internalType": "uint256",
          "name": "taxes",
          "type": "uint256"
        },
        {
          "internalType": "uint256",
          "name": "platformFee",
          "type": "uint256"
        },
        {
          "internalType": "uint256",
          "name": "createdAt",
          "type": "uint256"
        },
        {
          "internalType": "enum EscrowV1.OrderState",
          "name": "state",
          "type": "uint8"
        }
      ],
      "stateMutability": "view",
      "type": "function"
    },
    {
      "inputs": [],
      "name": "ordersCount",
      "outputs": [
        {
          "internalType": "uint256",
          "name": "",
          "type": "uint256"
        }
      ],
      "stateMutability": "view",
      "type": "function"
    },
    {
      "inputs": [],
      "name": "owner",
      "outputs": [
        {
          "internalType": "address",
          "name": "",
          "type": "address"
        }
      ],
      "stateMutability": "view",
      "type": "function"
    },
    {
      "inputs": [],
      "name": "platformFeeTreasury",
      "outputs": [
        {
          "internalType": "address",
          "name": "",
          "type": "address"
        }
      ],
      "stateMutability": "view",
      "type": "function"
    },
    {
      "inputs": [],
      "name": "platformTaxTreasury",
      "outputs": [
        {
          "internalType": "address",
          "name": "",
          "type": "address"
        }
      ],
      "stateMutability": "view",
      "type": "function"
    },
    {
      "inputs": [
        {
          "components": [
            {
              "internalType": "bytes16",
              "name": "orderId",
              "type": "bytes16"
            },
            {
              "internalType": "address",
              "name": "buyer",
              "type": "address"
            },
            {
              "internalType": "address",
              "name": "seller",
              "type": "address"
            },
            {
              "internalType": "address",
              "name": "paymentToken",
              "type": "address"
            },
            {
              "internalType": "uint256",
              "name": "total",
              "type": "uint256"
            },
            {
              "internalType": "uint256",
              "name": "taxes",
              "type": "uint256"
            },
            {
              "internalType": "uint256",
              "name": "platformFee",
              "type": "uint256"
            },
            {
              "internalType": "uint256",
              "name": "deadline",
              "type": "uint256"
            }
          ],
          "internalType": "struct EscrowV1.OrderPayload",
          "name": "orderPayload",
          "type": "tuple"
        },
        {
          "internalType": "bytes",
          "name": "signature",
          "type": "bytes"
        }
      ],
      "name": "registerEscrow",
      "outputs": [],
      "stateMutability": "payable",
      "type": "function"
    },
    {
      "inputs": [
        {
          "components": [
            {
              "internalType": "bytes16",
              "name": "orderId",
              "type": "bytes16"
            },
            {
              "internalType": "address",
              "name": "buyer",
              "type": "address"
            },
            {
              "internalType": "address",
              "name": "seller",
              "type": "address"
            },
            {
              "internalType": "address",
              "name": "paymentToken",
              "type": "address"
            },
            {
              "internalType": "uint256",
              "name": "total",
              "type": "uint256"
            },
            {
              "internalType": "uint256",
              "name": "taxes",
              "type": "uint256"
            },
            {
              "internalType": "uint256",
              "name": "platformFee",
              "type": "uint256"
            },
            {
              "internalType": "uint256",
              "name": "deadline",
              "type": "uint256"
            }
          ],
          "internalType": "struct EscrowV1.OrderPayload",
          "name": "orderPayload",
          "type": "tuple"
        },
        {
          "internalType": "bytes",
          "name": "signature",
          "type": "bytes"
        }
      ],
      "name": "registerEscrowOrder",
      "outputs": [],
      "stateMutability": "payable",
      "type": "function"
    },
    {
      "inputs": [
        {
          "internalType": "bytes16",
          "name": "orderId",
          "type": "bytes16"
        }
      ],
      "name": "releaseAfterTimeout",
      "outputs": [],
      "stateMutability": "nonpayable",
      "type": "function"
    },
    {
      "inputs": [],
      "name": "releaseDelay",
      "outputs": [
        {
          "internalType": "uint24",
          "name": "",
          "type": "uint24"
        }
      ],
      "stateMutability": "view",
      "type": "function"
    },
    {
      "inputs": [],
      "name": "renounceOwnership",
      "outputs": [],
      "stateMutability": "nonpayable",
      "type": "function"
    },
    {
      "inputs": [
        {
          "internalType": "bytes16",
          "name": "orderId",
          "type": "bytes16"
        },
        {
          "internalType": "bool",
          "name": "refundBuyer",
          "type": "bool"
        }
      ],
      "name": "resolveDispute",
      "outputs": [],
      "stateMutability": "nonpayable",
      "type": "function"
    },
    {
      "inputs": [],
      "name": "serverSigner",
      "outputs": [
        {
          "internalType": "address",
          "name": "",
          "type": "address"
        }
      ],
      "stateMutability": "view",
      "type": "function"
    },
    {
      "inputs": [
        {
          "internalType": "enum EscrowV1.ContractState",
          "name": "newState",
          "type": "uint8"
        }
      ],
      "name": "setContractState",
      "outputs": [],
      "stateMutability": "nonpayable",
      "type": "function"
    },
    {
      "inputs": [
        {
          "internalType": "address",
          "name": "newOwner",
          "type": "address"
        }
      ],
      "name": "transferOwnership",
      "outputs": [],
      "stateMutability": "nonpayable",
      "type": "function"
    },
    {
      "inputs": [
        {
          "internalType": "bytes16",
          "name": "",
          "type": "bytes16"
        }
      ],
      "name": "usedOrderIds",
      "outputs": [
        {
          "internalType": "bool",
          "name": "",
          "type": "bool"
        }
      ],
      "stateMutability": "view",
      "type": "function"
    }
  ],
  "bytecode": "0x6080604052348015600e575f5ffd5b506015601f565b601b601f565b60cf565b7ff0c57e16840df040f15088dc2f81fe391c3923bec73e23a9662efc9c229c6a00805468010000000000000000900460ff1615606e5760405163f92ee8a960e01b815260040160405180910390fd5b80546001600160401b039081161460cc5780546001600160401b0319166001600160401b0390811782556040519081527fc7f505b2f371ae2175ee4913f4499e1f2633a7b5936321eed1cdaeb6115181d29060200160405180910390a15b50565b6126ae806100dc5f395ff3fe60806040526004361061011b575f3560e01c806384b0196e1161009d578063c462702311610062578063c462702314610365578063c5c7312414610384578063c75f396a14610405578063f2fde38b14610418578063f7b4c18714610437575f5ffd5b806384b0196e1461029757806385209ee0146102be5780638da5cb5b146102eb57806397c163a0146103275780639a0b79e514610346575f5ffd5b806350a4f0fe116100e357806350a4f0fe146101dd5780635ff93a75146101f0578063715018a61461020f5780637195bf231461022357806372907e9d14610259575f5ffd5b806311594e291461011f578063187a4bba1461014057806331af19081461017c57806335daa7311461019b57806350515d5a146101be575b5f5ffd5b34801561012a575f5ffd5b5061013e610139366004612159565b610456565b005b34801561014b575f5ffd5b5060045461015f906001600160a01b031681565b6040516001600160a01b0390911681526020015b60405180910390f35b348015610187575f5ffd5b5060035461015f906001600160a01b031681565b3480156101a6575f5ffd5b506101b060025481565b604051908152602001610173565b3480156101c9575f5ffd5b5061013e6101d8366004612186565b61055b565b61013e6101eb3660046121bb565b6106a3565b3480156101fb575f5ffd5b5061013e61020a366004612159565b610b75565b34801561021a575f5ffd5b5061013e610cae565b34801561022e575f5ffd5b5060055461024590600160a01b900462ffffff1681565b60405162ffffff9091168152602001610173565b348015610264575f5ffd5b50610287610273366004612159565b60016020525f908152604090205460ff1681565b6040519015158152602001610173565b3480156102a2575f5ffd5b506102ab610cc1565b6040516101739796959493929190612271565b3480156102c9575f5ffd5b506005546102de90600160b81b900460ff1681565b604051610173919061231b565b3480156102f6575f5ffd5b507f9016d09d72d40fdae2fd8ceac6b6234c7706214fd39c1cd1e609a0528c199300546001600160a01b031661015f565b348015610332575f5ffd5b5061013e610341366004612159565b610d6a565b348015610351575f5ffd5b5060055461015f906001600160a01b031681565b348015610370575f5ffd5b5061013e61037f36600461234b565b610e1b565b34801561038f575f5ffd5b506103f161039e366004612159565b5f60208190529081526040902080546001820154600283015460038401546004850154600586015460068701546007909701546001600160a01b0396871697958716969094169492939192909160ff1688565b6040516101739897969594939291906123a5565b61013e6104133660046121bb565b6110bc565b348015610423575f5ffd5b5061013e610432366004612405565b611525565b348015610442575f5ffd5b5061013e61045136600461241e565b61155f565b61045e6115cb565b5f600554600160b81b900460ff16600181111561047d5761047d612307565b146104a35760405162461bcd60e51b815260040161049a9061243c565b60405180910390fd5b6001600160801b031981165f90815260208190526040902080546001600160a01b031633146105005760405162461bcd60e51b81526020600482015260096024820152682737ba10313abcb2b960b91b604482015260640161049a565b6001600782015460ff16600481111561051b5761051b612307565b146105385760405162461bcd60e51b815260040161049a90612469565b61054182611602565b5061055860015f5160206126595f395f51905f5255565b50565b610563611957565b61056b6115cb565b6001600160801b031982165f9081526020819052604090206003600782015460ff16600481111561059e5761059e612307565b146105d85760405162461bcd60e51b815260206004820152600a6024820152694e6f206469737075746560b01b604482015260640161049a565b811561067f5760078101805460ff19166004179055805460038201546040516001600160a01b03909216916108fc82150291905f818181858888f19350505050158015610627573d5f5f3e3d5ffd5b50805460038201546040519081526001600160a01b03909116906001600160801b03198516907fafab81c7cff0515ab993a1cf55536d90f68cf5ec75deab830fd758b2a7f296ed9060200160405180910390a3610688565b61068883611602565b5061069f60015f5160206126595f395f51905f5255565b5050565b6106ab6115cb565b5f600554600160b81b900460ff1660018111156106ca576106ca612307565b146106e75760405162461bcd60e51b815260040161049a9061243c565b5f6106f96106f4856119b2565b611aad565b90505f61073d84848080601f0160208091040260200160405190810160405280939291908181526020018383808284375f920191909152508693925050611adf9050565b6003549091506001600160a01b038083169116146107915760405162461bcd60e51b8152602060048201526011602482015270496e76616c6964207369676e617475726560781b604482015260640161049a565b8460e001354211156107d55760405162461bcd60e51b815260206004820152600d60248201526c13dc99195c88195e1c1a5c9959609a1b604482015260640161049a565b60015f6107e56020880188612159565b6001600160801b031916815260208101919091526040015f205460ff161561084a5760405162461bcd60e51b815260206004820152601860248201527713dc99195c88185b1c9958591e481c9959da5cdd195c995960421b604482015260640161049a565b5f61085b6080870160608801612405565b90505f61086e6080880160608901612405565b6001600160a01b0316036108c957856080013534146108c45760405162461bcd60e51b8152602060048201526012602482015271125b98dbdc9c9958dd08115512081cd95b9d60721b604482015260640161049a565b61093a565b34156109215760405162461bcd60e51b815260206004820152602160248201527f446f206e6f742073656e642045544820666f72204552433230207061796d656e6044820152601d60fa1b606482015260840161049a565b61093a6001600160a01b038216333060808a0135611b07565b6040518061010001604052808760200160208101906109599190612405565b6001600160a01b031681526020016109776060890160408a01612405565b6001600160a01b03168152602001826001600160a01b03168152602001876080013581526020018760a0013581526020018760c001358152602001428152602001600160048111156109cb576109cb612307565b90525f806109dc60208a018a612159565b6001600160801b031916815260208082019290925260409081015f20835181546001600160a01b03199081166001600160a01b0392831617835593850151600180840180548716928416929092179091559285015160028301805490951691161790925560608301516003830155608083015160048084019190915560a0840151600584015560c0840151600684015560e08401516007840180549193909260ff19909216918490811115610a9357610a93612307565b0217905550600191508190505f610aad60208a018a612159565b6001600160801b031916815260208101919091526040015f908120805460ff1916921515929092179091556002805460019290610aeb9084906124a5565b909155506001905033610b016020890189612159565b6001600160801b0319167fcbe7ff8e0a8e9f1ba9fb95b23b654905e70f0c53d8a889472a60f00d25042228610b3c60608b0160408c01612405565b6040516001600160a01b03909116815260200160405180910390a4505050610b7060015f5160206126595f395f51905f5255565b505050565b5f600554600160b81b900460ff166001811115610b9457610b94612307565b14610bb15760405162461bcd60e51b815260040161049a9061243c565b6001600160801b031981165f90815260208190526040902080546001600160a01b03163314610c0e5760405162461bcd60e51b81526020600482015260096024820152682737ba10313abcb2b960b91b604482015260640161049a565b6001600782015460ff166004811115610c2957610c29612307565b14610c675760405162461bcd60e51b815260206004820152600e60248201526d43616e6e6f74206469737075746560901b604482015260640161049a565b60078101805460ff191660031790556040516001600160801b03198316907fdb1a1355b8cffea63b711aac689b380d6d3fa596333cf6a852d993988526e0ae905f90a25050565b610cb6611957565b610cbf5f611b67565b565b5f60608082808083815f5160206126395f395f51905f528054909150158015610cec57506001810154155b610d305760405162461bcd60e51b81526020600482015260156024820152741152540dcc4c8e88155b9a5b9a5d1a585b1a5e9959605a1b604482015260640161049a565b610d38611bd7565b610d40611c97565b604080515f80825260208201909252600f60f81b9c939b5091995046985030975095509350915050565b610d726115cb565b6001600160801b031981165f9081526020819052604090206001600782015460ff166004811115610da557610da5612307565b14610dc25760405162461bcd60e51b815260040161049a90612469565b6005546006820154610de091600160a01b900462ffffff16906124a5565b4210156105385760405162461bcd60e51b8152602060048201526009602482015268546f6f206561726c7960b81b604482015260640161049a565b5f610e24611cd5565b805490915060ff600160401b820416159067ffffffffffffffff165f81158015610e4b5750825b90505f8267ffffffffffffffff166001148015610e675750303b155b905081158015610e75575080155b15610e935760405163f92ee8a960e01b815260040160405180910390fd5b845467ffffffffffffffff191660011785558315610ebd57845460ff60401b1916600160401b1785555b610ec633611cfd565b610ece611d0e565b610f266040518060400160405280601881526020017f4d594150505f414d4f595f455343524f575f4f52444552530000000000000000815250604051806040016040528060018152602001603160f81b815250611d1e565b6001600160a01b038916610f745760405162461bcd60e51b815260206004820152601560248201527424b73b30b634b21039b2b93b32b91039b4b3b732b960591b604482015260640161049a565b6001600160a01b038816610fc25760405162461bcd60e51b8152602060048201526015602482015274496e76616c6964207461786573206164647265737360581b604482015260640161049a565b6001600160a01b03871661100f5760405162461bcd60e51b8152602060048201526014602482015273496e76616c69642066656573206164647265737360601b604482015260640161049a565b600380546001600160a01b03199081166001600160a01b038c811691909117909255600480549091168a8316179055600580549189166001600160b81b031990921691909117600160a01b62ffffff8916021760ff60b81b1916905583156110b157845460ff60401b19168555604051600181527fc7f505b2f371ae2175ee4913f4499e1f2633a7b5936321eed1cdaeb6115181d29060200160405180910390a15b505050505050505050565b6110c46115cb565b5f600554600160b81b900460ff1660018111156110e3576110e3612307565b146111005760405162461bcd60e51b815260040161049a9061243c565b5f34116111405760405162461bcd60e51b815260206004820152600e60248201526d125b9d985b1a5908185b5bdd5b9d60921b604482015260640161049a565b5f61114d6106f4856119b2565b90505f61119184848080601f0160208091040260200160405190810160405280939291908181526020018383808284375f920191909152508693925050611adf9050565b6003549091506001600160a01b038083169116146111e55760405162461bcd60e51b8152602060048201526011602482015270496e76616c6964207369676e617475726560781b604482015260640161049a565b8460e001354211156112295760405162461bcd60e51b815260206004820152600d60248201526c13dc99195c88195e1c1a5c9959609a1b604482015260640161049a565b60015f6112396020880188612159565b6001600160801b031916815260208101919091526040015f205460ff161561129e5760405162461bcd60e51b815260206004820152601860248201527713dc99195c88185b1c9958591e481c9959da5cdd195c995960421b604482015260640161049a565b6001805f6112af6020890189612159565b6001600160801b031916815260208101919091526040015f20805460ff19169115159190911790556080850135341461131f5760405162461bcd60e51b81526020600482015260126024820152715061792056616c75652069732077726f6e6760701b604482015260640161049a565b60405180610100016040528086602001602081019061133e9190612405565b6001600160a01b0316815260200161135c6060880160408901612405565b6001600160a01b0316815260200161137a6080880160608901612405565b6001600160a01b03168152602001866080013581526020018660a0013581526020018660c001358152602001428152602001600160048111156113bf576113bf612307565b90525f806113d06020890189612159565b6001600160801b031916815260208082019290925260409081015f20835181546001600160a01b03199081166001600160a01b0392831617835593850151600180840180548716928416929092179091559285015160028301805490951691161790925560608301516003830155608083015160048084019190915560a0840151600584015560c0840151600684015560e08401516007840180549193909260ff1990921691849081111561148757611487612307565b0217905550905050600160025f8282546114a191906124a5565b9091555060019050336114b76020880188612159565b6001600160801b0319167fcbe7ff8e0a8e9f1ba9fb95b23b654905e70f0c53d8a889472a60f00d250422286114f260608a0160408b01612405565b6040516001600160a01b03909116815260200160405180910390a45050610b7060015f5160206126595f395f51905f5255565b61152d611957565b6001600160a01b03811661155657604051631e4fbdf760e01b81525f600482015260240161049a565b61055881611b67565b611567611957565b6005805482919060ff60b81b1916600160b81b83600181111561158c5761158c612307565b02179055507fab540c1b3defd38d975e65aa0e06eeee132a55dd082be87b73f505ab57bed48c816040516115c0919061231b565b60405180910390a150565b5f5160206126595f395f51905f528054600119016115fc57604051633ee5aeb560e01b815260040160405180910390fd5b60029055565b6001600160801b031981165f9081526020819052604090206001600782015460ff16600481111561163557611635612307565b148061165957506003600782015460ff16600481111561165757611657612307565b145b6116755760405162461bcd60e51b815260040161049a90612469565b60078101805460ff191660021790556005810154600482015460038301545f929161169f916124cc565b6116a991906124cc565b60028301549091506001600160a01b03166117755760048054908301546040516001600160a01b039092169181156108fc0291905f818181858888f193505050501580156116f9573d5f5f3e3d5ffd5b5060058054908301546040516001600160a01b039092169181156108fc0291905f818181858888f19350505050158015611735573d5f5f3e3d5ffd5b5060018201546040516001600160a01b039091169082156108fc029083905f818181858888f1935050505015801561176f573d5f5f3e3d5ffd5b506118ef565b6002820154600480548185015460405163a9059cbb60e01b81526001600160a01b039283169381019390935260248301529091169063a9059cbb906044016020604051808303815f875af11580156117cf573d5f5f3e3d5ffd5b505050506040513d601f19601f820116820180604052508101906117f391906124df565b506002820154600580549084015460405163a9059cbb60e01b81526001600160a01b039283166004820152602481019190915291169063a9059cbb906044016020604051808303815f875af115801561184e573d5f5f3e3d5ffd5b505050506040513d601f19601f8201168201806040525081019061187291906124df565b506002820154600183015460405163a9059cbb60e01b81526001600160a01b0391821660048201526024810184905291169063a9059cbb906044016020604051808303815f875af11580156118c9573d5f5f3e3d5ffd5b505050506040513d601f19601f820116820180604052508101906118ed91906124df565b505b60018201546040518281526001600160a01b03909116906001600160801b03198516907fe60f924809ad7a86a6789604bdd4b0e09d0f5585dde8e7290b4a37759ca77d0b9060200160405180910390a3505050565b60015f5160206126595f395f51905f5255565b336119897f9016d09d72d40fdae2fd8ceac6b6234c7706214fd39c1cd1e609a0528c199300546001600160a01b031690565b6001600160a01b031614610cbf5760405163118cdaa760e01b815233600482015260240161049a565b5f7f0f832f8ed29ef6f26aaa79d65ff922fd572aedfa6dbd05bf3275aa667fe756506119e16020840184612159565b6119f16040850160208601612405565b611a016060860160408701612405565b611a116080870160608801612405565b86608001358760a001358860c001358960e00135604051602001611a90999897969594939291909889526001600160801b03199790971660208901526001600160a01b039586166040890152938516606088015291909316608086015260a085019290925260c084019190915260e08301526101008201526101200190565b604051602081830303815290604052805190602001209050919050565b5f611ad9611ab9611d30565b8360405161190160f01b8152600281019290925260228201526042902090565b92915050565b5f5f5f5f611aed8686611d3e565b925092509250611afd8282611d87565b5090949350505050565b604080516001600160a01b0385811660248301528416604482015260648082018490528251808303909101815260849091019091526020810180516001600160e01b03166323b872dd60e01b179052611b61908590611e3f565b50505050565b7f9016d09d72d40fdae2fd8ceac6b6234c7706214fd39c1cd1e609a0528c19930080546001600160a01b031981166001600160a01b03848116918217845560405192169182907f8be0079c531659141344cd1fd0a4f28419497f9722a3daafe3b4186f6b6457e0905f90a3505050565b7fa16a46d94261c7517cc8ff89f61c0ce93598e3c849801011dee649a6a557d10280546060915f5160206126395f395f51905f5291611c15906124fa565b80601f0160208091040260200160405190810160405280929190818152602001828054611c41906124fa565b8015611c8c5780601f10611c6357610100808354040283529160200191611c8c565b820191905f5260205f20905b815481529060010190602001808311611c6f57829003601f168201915b505050505091505090565b7fa16a46d94261c7517cc8ff89f61c0ce93598e3c849801011dee649a6a557d10380546060915f5160206126395f395f51905f5291611c15906124fa565b5f807ff0c57e16840df040f15088dc2f81fe391c3923bec73e23a9662efc9c229c6a00611ad9565b611d05611eab565b61055881611ed0565b611d16611eab565b610cbf611ed8565b611d26611eab565b61069f8282611ee0565b5f611d39611f3f565b905090565b5f5f5f8351604103611d75576020840151604085015160608601515f1a611d6788828585611fb2565b955095509550505050611d80565b505081515f91506002905b9250925092565b5f826003811115611d9a57611d9a612307565b03611da3575050565b6001826003811115611db757611db7612307565b03611dd55760405163f645eedf60e01b815260040160405180910390fd5b6002826003811115611de957611de9612307565b03611e0a5760405163fce698f760e01b81526004810182905260240161049a565b6003826003811115611e1e57611e1e612307565b0361069f576040516335e2f38360e21b81526004810182905260240161049a565b5f5f60205f8451602086015f885af180611e5e576040513d5f823e3d81fd5b50505f513d91508115611e75578060011415611e82565b6001600160a01b0384163b155b15611b6157604051635274afe760e01b81526001600160a01b038516600482015260240161049a565b611eb361207a565b610cbf57604051631afcd79f60e31b815260040160405180910390fd5b61152d611eab565b611944611eab565b611ee8611eab565b5f5160206126395f395f51905f527fa16a46d94261c7517cc8ff89f61c0ce93598e3c849801011dee649a6a557d102611f21848261257d565b5060038101611f30838261257d565b505f8082556001909101555050565b5f7f8b73c3c69bb8fe3d512ecc4cf759cc79239f7b179b0ffacaa9a75d522b39400f611f69612093565b611f716120fb565b60408051602081019490945283019190915260608201524660808201523060a082015260c00160405160208183030381529060405280519060200120905090565b5f80807f7fffffffffffffffffffffffffffffff5d576e7357a4501ddfe92f46681b20a0841115611feb57505f91506003905082612070565b604080515f808252602082018084528a905260ff891692820192909252606081018790526080810186905260019060a0016020604051602081039080840390855afa15801561203c573d5f5f3e3d5ffd5b5050604051601f1901519150506001600160a01b03811661206757505f925060019150829050612070565b92505f91508190505b9450945094915050565b5f612083611cd5565b54600160401b900460ff16919050565b5f5f5160206126395f395f51905f52816120ab611bd7565b8051909150156120c357805160209091012092915050565b815480156120d2579392505050565b7fc5d2460186f7233c927e7db2dcc703c0e500b653ca82273b7bfad8045d85a470935050505090565b5f5f5160206126395f395f51905f5281612113611c97565b80519091501561212b57805160209091012092915050565b600182015480156120d2579392505050565b80356001600160801b031981168114612154575f5ffd5b919050565b5f60208284031215612169575f5ffd5b6121728261213d565b9392505050565b8015158114610558575f5ffd5b5f5f60408385031215612197575f5ffd5b6121a08361213d565b915060208301356121b081612179565b809150509250929050565b5f5f5f8385036101208112156121cf575f5ffd5b6101008112156121dd575f5ffd5b5083925061010084013567ffffffffffffffff8111156121fb575f5ffd5b8401601f8101861361220b575f5ffd5b803567ffffffffffffffff811115612221575f5ffd5b866020828401011115612232575f5ffd5b939660209190910195509293505050565b5f81518084528060208401602086015e5f602082860101526020601f19601f83011685010191505092915050565b60ff60f81b8816815260e060208201525f61228f60e0830189612243565b82810360408401526122a18189612243565b606084018890526001600160a01b038716608085015260a0840186905283810360c0850152845180825260208087019350909101905f5b818110156122f65783518352602093840193909201916001016122d8565b50909b9a5050505050505050505050565b634e487b7160e01b5f52602160045260245ffd5b602081016002831061232f5761232f612307565b91905290565b80356001600160a01b0381168114612154575f5ffd5b5f5f5f5f6080858703121561235e575f5ffd5b61236785612335565b935061237560208601612335565b925061238360408601612335565b9150606085013562ffffff8116811461239a575f5ffd5b939692955090935050565b6001600160a01b038981168252888116602083015287166040820152606081018690526080810185905260a0810184905260c081018390526101008101600583106123f2576123f2612307565b8260e08301529998505050505050505050565b5f60208284031215612415575f5ffd5b61217282612335565b5f6020828403121561242e575f5ffd5b813560028110612172575f5ffd5b60208082526013908201527210dbdb9d1c9858dd0819195c1c9958d85d1959606a1b604082015260600190565b6020808252600e908201526d43616e6e6f742072656c6561736560901b604082015260600190565b634e487b7160e01b5f52601160045260245ffd5b80820180821115611ad957611ad9612491565b634e487b7160e01b5f52604160045260245ffd5b81810381811115611ad957611ad9612491565b5f602082840312156124ef575f5ffd5b815161217281612179565b600181811c9082168061250e57607f821691505b60208210810361252c57634e487b7160e01b5f52602260045260245ffd5b50919050565b601f821115610b7057805f5260205f20601f840160051c810160208510156125575750805b601f840160051c820191505b81811015612576575f8155600101612563565b5050505050565b815167ffffffffffffffff811115612597576125976124b8565b6125ab816125a584546124fa565b84612532565b6020601f8211600181146125dd575f83156125c65750848201515b5f19600385901b1c1916600184901b178455612576565b5f84815260208120601f198516915b8281101561260c57878501518255602094850194600190920191016125ec565b508482101561262957868401515f19600387901b60f8161c191681555b50505050600190811b0190555056fea16a46d94261c7517cc8ff89f61c0ce93598e3c849801011dee649a6a557d1009b779b17422d0df92223018b32b4d1fa46e071723d6817e2486d003becc55f00a2646970667358221220f79fd6b0cba135d8ee4db2452ea8c7db1062360c0dd80a6f546d3186da5b017364736f6c634300081c0033",
  "linkReferences": {},
  "deployedLinkReferences": {},
  "immutableReferences": {},
  "inputSourceName": "project/contracts/EscrowV2.sol",
  "buildInfoId": "solc-0_8_28-d61d7bb8957429f91eb98d6ed70bbcea30169d1e"
}