{"project/contracts/EscrowV1.sol":{"EscrowV1":{"abi":[{"inputs":[],"stateMutability":"nonpayable","type":"constructor"},{"inputs":[],"name":"InvalidInitialization","type":"error"},{"inputs":[],"name":"NotInitializing","type":"error"},{"inputs":[{"internalType":"address","name":"owner","type":"address"}],"name":"OwnableInvalidOwner","type":"error"},{"inputs":[{"internalType":"address","name":"account","type":"address"}],"name":"OwnableUnauthorizedAccount","type":"error"},{"inputs":[],"name":"ReentrancyGuardReentrantCall","type":"error"},{"anonymous":false,"inputs":[{"indexed":false,"internalType":"enum EscrowV1.ContractState","name":"newState","type":"uint8"}],"name":"ContractStateChanged","type":"event"},{"anonymous":false,"inputs":[{"indexed":true,"internalType":"bytes16","name":"orderId","type":"bytes16"},{"indexed":true,"internalType":"address","name":"buyer","type":"address"},{"indexed":true,"internalType":"address","name":"seller","type":"address"},{"indexed":false,"internalType":"uint256","name":"amount","type":"uint256"},{"indexed":false,"internalType":"uint16","name":"taxBps","type":"uint16"}],"name":"EscrowCreated","type":"event"},{"anonymous":false,"inputs":[{"indexed":false,"internalType":"uint64","name":"version","type":"uint64"}],"name":"Initialized","type":"event"},{"anonymous":false,"inputs":[{"indexed":true,"internalType":"bytes16","name":"orderId","type":"bytes16"}],"name":"OrderDisputed","type":"event"},{"anonymous":false,"inputs":[{"indexed":true,"internalType":"bytes16","name":"orderId","type":"bytes16"},{"indexed":true,"internalType":"address","name":"buyer","type":"address"},{"indexed":false,"internalType":"uint256","name":"amount","type":"uint256"}],"name":"OrderRefunded","type":"event"},{"anonymous":false,"inputs":[{"indexed":true,"internalType":"bytes16","name":"orderId","type":"bytes16"},{"indexed":true,"internalType":"address","name":"seller","type":"address"},{"indexed":false,"internalType":"uint256","name":"sellerAmount","type":"uint256"}],"name":"OrderReleased","type":"event"},{"anonymous":false,"inputs":[{"indexed":true,"internalType":"address","name":"previousOwner","type":"address"},{"indexed":true,"internalType":"address","name":"newOwner","type":"address"}],"name":"OwnershipTransferred","type":"event"},{"inputs":[{"internalType":"bytes16","name":"orderId","type":"bytes16"}],"name":"confirmDelivery","outputs":[],"stateMutability":"nonpayable","type":"function"},{"inputs":[],"name":"contractState","outputs":[{"internalType":"enum EscrowV1.ContractState","name":"","type":"uint8"}],"stateMutability":"view","type":"function"},{"inputs":[{"internalType":"bytes16","name":"orderId","type":"bytes16"},{"internalType":"address","name":"seller","type":"address"},{"internalType":"uint16","name":"taxBps","type":"uint16"}],"name":"createEscrow","outputs":[],"stateMutability":"payable","type":"function"},{"inputs":[{"internalType":"address","name":"_platformTreasury","type":"address"},{"internalType":"uint16","name":"_feeBps","type":"uint16"},{"internalType":"uint24","name":"_releaseDelay","type":"uint24"}],"name":"initialize","outputs":[],"stateMutability":"nonpayable","type":"function"},{"inputs":[{"internalType":"bytes16","name":"orderId","type":"bytes16"}],"name":"openDispute","outputs":[],"stateMutability":"nonpayable","type":"function"},{"inputs":[{"internalType":"bytes16","name":"","type":"bytes16"}],"name":"orders","outputs":[{"internalType":"address","name":"buyer","type":"address"},{"internalType":"address","name":"seller","type":"address"},{"internalType":"uint256","name":"amount","type":"uint256"},{"internalType":"uint16","name":"taxBps","type":"uint16"},{"internalType":"uint256","name":"createdAt","type":"uint256"},{"internalType":"enum EscrowV1.OrderState","name":"state","type":"uint8"}],"stateMutability":"view","type":"function"},{"inputs":[],"name":"owner","outputs":[{"internalType":"address","name":"","type":"address"}],"stateMutability":"view","type":"function"},{"inputs":[],"name":"platformFeeBps","outputs":[{"internalType":"uint16","name":"","type":"uint16"}],"stateMutability":"view","type":"function"},{"inputs":[],"name":"platformTreasury","outputs":[{"internalType":"address","name":"","type":"address"}],"stateMutability":"view","type":"function"},{"inputs":[{"internalType":"bytes16","name":"orderId","type":"bytes16"}],"name":"releaseAfterTimeout","outputs":[],"stateMutability":"nonpayable","type":"function"},{"inputs":[],"name":"releaseDelay","outputs":[{"internalType":"uint24","name":"","type":"uint24"}],"stateMutability":"view","type":"function"},{"inputs":[],"name":"renounceOwnership","outputs":[],"stateMutability":"nonpayable","type":"function"},{"inputs":[{"internalType":"bytes16","name":"orderId","type":"bytes16"},{"internalType":"bool","name":"refundBuyer","type":"bool"}],"name":"resolveDispute","outputs":[],"stateMutability":"nonpayable","type":"function"},{"inputs":[{"internalType":"enum EscrowV1.ContractState","name":"newState","type":"uint8"}],"name":"setContractState","outputs":[],"stateMutability":"nonpayable","type":"function"},{"inputs":[{"internalType":"address","name":"newOwner","type":"address"}],"name":"transferOwnership","outputs":[],"stateMutability":"nonpayable","type":"function"}],"evm":{"bytecode":{"linkReferences":{},"object":"608060405234801561000f575f5ffd5b5061001e61002360201b60201c565b61019e565b5f61003261012160201b60201c565b9050805f0160089054906101000a900460ff161561007c576040517ff92ee8a900000000000000000000000000000000000000000000000000000000815260040160405180910390fd5b67ffffffffffffffff8016815f015f9054906101000a900467ffffffffffffffff1667ffffffffffffffff161461011e5767ffffffffffffffff815f015f6101000a81548167ffffffffffffffff021916908367ffffffffffffffff1602179055507fc7f505b2f371ae2175ee4913f4499e1f2633a7b5936321eed1cdaeb6115181d267ffffffffffffffff6040516101159190610185565b60405180910390a15b50565b5f5f61013161013a60201b60201c565b90508091505090565b5f7ff0c57e16840df040f15088dc2f81fe391c3923bec73e23a9662efc9c229c6a005f1b905090565b5f67ffffffffffffffff82169050919050565b61017f81610163565b82525050565b5f6020820190506101985f830184610176565b92915050565b612543806101ab5f395ff3fe6080604052600436106100e7575f3560e01c80638da5cb5b11610089578063c619725b11610058578063c619725b146102a6578063e138818c146102ce578063f2fde38b146102f8578063f7b4c18714610320576100e7565b80638da5cb5b146101f757806397c163a014610221578063b91c051f14610249578063c5c7312414610265576100e7565b80635ff93a75116100c55780635ff93a7514610165578063715018a61461018d5780637195bf23146101a357806385209ee0146101cd576100e7565b806311594e29146100eb57806322dcd13e1461011357806350515d5a1461013d575b5f5ffd5b3480156100f6575f5ffd5b50610111600480360381019061010c9190611a30565b610348565b005b34801561011e575f5ffd5b5061012761051a565b6040516101349190611a77565b60405180910390f35b348015610148575f5ffd5b50610163600480360381019061015e9190611ac5565b61052e565b005b348015610170575f5ffd5b5061018b60048036038101906101869190611a30565b61072e565b005b348015610198575f5ffd5b506101a1610953565b005b3480156101ae575f5ffd5b506101b7610966565b6040516101c49190611b20565b60405180910390f35b3480156101d8575f5ffd5b506101e161097b565b6040516101ee9190611bac565b60405180910390f35b348015610202575f5ffd5b5061020b61098e565b6040516102189190611c04565b60405180910390f35b34801561022c575f5ffd5b5061024760048036038101906102429190611a30565b6109c3565b005b610263600480360381019061025e9190611c71565b610af8565b005b348015610270575f5ffd5b5061028b60048036038101906102869190611a30565b610e82565b60405161029d96959493929190611d1f565b60405180910390f35b3480156102b1575f5ffd5b506102cc60048036038101906102c79190611da8565b610f10565b005b3480156102d9575f5ffd5b506102e261121f565b6040516102ef9190611c04565b60405180910390f35b348015610303575f5ffd5b5061031e60048036038101906103199190611df8565b611244565b005b34801561032b575f5ffd5b5061034660048036038101906103419190611e46565b6112c8565b005b610350611334565b5f600181111561036357610362611b39565b5b600160199054906101000a900460ff16600181111561038557610384611b39565b5b146103c5576040517f08c379a00000000000000000000000000000000000000000000000000000000081526004016103bc90611ecb565b60405180910390fd5b5f5f5f836fffffffffffffffffffffffffffffffff19166fffffffffffffffffffffffffffffffff191681526020019081526020015f209050805f015f9054906101000a900473ffffffffffffffffffffffffffffffffffffffff1673ffffffffffffffffffffffffffffffffffffffff163373ffffffffffffffffffffffffffffffffffffffff161461048e576040517f08c379a000000000000000000000000000000000000000000000000000000000815260040161048590611f33565b60405180910390fd5b600160048111156104a2576104a1611b39565b5b816005015f9054906101000a900460ff1660048111156104c5576104c4611b39565b5b14610505576040517f08c379a00000000000000000000000000000000000000000000000000000000081526004016104fc90611f9b565b60405180910390fd5b61050e82611388565b50610517611620565b50565b600160149054906101000a900461ffff1681565b610536611637565b61053e611334565b5f5f5f846fffffffffffffffffffffffffffffffff19166fffffffffffffffffffffffffffffffff191681526020019081526020015f2090506003600481111561058b5761058a611b39565b5b816005015f9054906101000a900460ff1660048111156105ae576105ad611b39565b5b146105ee576040517f08c379a00000000000000000000000000000000000000000000000000000000081526004016105e590612003565b60405180910390fd5b8115610717576004816005015f6101000a81548160ff0219169083600481111561061b5761061a611b39565b5b0217905550805f015f9054906101000a900473ffffffffffffffffffffffffffffffffffffffff1673ffffffffffffffffffffffffffffffffffffffff166108fc826002015490811502906040515f60405180830381858888f19350505050158015610689573d5f5f3e3d5ffd5b50805f015f9054906101000a900473ffffffffffffffffffffffffffffffffffffffff1673ffffffffffffffffffffffffffffffffffffffff16836fffffffffffffffffffffffffffffffff19167fafab81c7cff0515ab993a1cf55536d90f68cf5ec75deab830fd758b2a7f296ed836002015460405161070a9190612021565b60405180910390a3610721565b61072083611388565b5b5061072a611620565b5050565b5f600181111561074157610740611b39565b5b600160199054906101000a900460ff16600181111561076357610762611b39565b5b146107a3576040517f08c379a000000000000000000000000000000000000000000000000000000000815260040161079a90611ecb565b60405180910390fd5b5f5f5f836fffffffffffffffffffffffffffffffff19166fffffffffffffffffffffffffffffffff191681526020019081526020015f209050805f015f9054906101000a900473ffffffffffffffffffffffffffffffffffffffff1673ffffffffffffffffffffffffffffffffffffffff163373ffffffffffffffffffffffffffffffffffffffff161461086c576040517f08c379a000000000000000000000000000000000000000000000000000000000815260040161086390611f33565b60405180910390fd5b600160048111156108805761087f611b39565b5b816005015f9054906101000a900460ff1660048111156108a3576108a2611b39565b5b146108e3576040517f08c379a00000000000000000000000000000000000000000000000000000000081526004016108da90612084565b60405180910390fd5b6003816005015f6101000a81548160ff0219169083600481111561090a57610909611b39565b5b0217905550816fffffffffffffffffffffffffffffffff19167fdb1a1355b8cffea63b711aac689b380d6d3fa596333cf6a852d993988526e0ae60405160405180910390a25050565b61095b611637565b6109645f6116be565b565b600160169054906101000a900462ffffff1681565b600160199054906101000a900460ff1681565b5f5f61099861178f565b9050805f015f9054906101000a900473ffffffffffffffffffffffffffffffffffffffff1691505090565b6109cb611334565b5f5f5f836fffffffffffffffffffffffffffffffff19166fffffffffffffffffffffffffffffffff191681526020019081526020015f20905060016004811115610a1857610a17611b39565b5b816005015f9054906101000a900460ff166004811115610a3b57610a3a611b39565b5b14610a7b576040517f08c379a0000000000000000000000000000000000000000000000000000000008152600401610a7290611f9b565b60405180910390fd5b600160169054906101000a900462ffffff1662ffffff168160040154610aa191906120cf565b421015610ae3576040517f08c379a0000000000000000000000000000000000000000000000000000000008152600401610ada9061214c565b60405180910390fd5b610aec82611388565b50610af5611620565b50565b610b00611334565b5f6001811115610b1357610b12611b39565b5b600160199054906101000a900460ff166001811115610b3557610b34611b39565b5b14610b75576040517f08c379a0000000000000000000000000000000000000000000000000000000008152600401610b6c90611ecb565b60405180910390fd5b5f3411610bb7576040517f08c379a0000000000000000000000000000000000000000000000000000000008152600401610bae906121b4565b60405180910390fd5b5f6004811115610bca57610bc9611b39565b5b5f5f856fffffffffffffffffffffffffffffffff19166fffffffffffffffffffffffffffffffff191681526020019081526020015f206005015f9054906101000a900460ff166004811115610c2257610c21611b39565b5b14610c62576040517f08c379a0000000000000000000000000000000000000000000000000000000008152600401610c599061221c565b60405180910390fd5b6040518060c001604052803373ffffffffffffffffffffffffffffffffffffffff1681526020018373ffffffffffffffffffffffffffffffffffffffff1681526020013481526020018261ffff16815260200142815260200160016004811115610ccf57610cce611b39565b5b8152505f5f856fffffffffffffffffffffffffffffffff19166fffffffffffffffffffffffffffffffff191681526020019081526020015f205f820151815f015f6101000a81548173ffffffffffffffffffffffffffffffffffffffff021916908373ffffffffffffffffffffffffffffffffffffffff1602179055506020820151816001015f6101000a81548173ffffffffffffffffffffffffffffffffffffffff021916908373ffffffffffffffffffffffffffffffffffffffff160217905550604082015181600201556060820151816003015f6101000a81548161ffff021916908361ffff1602179055506080820151816004015560a0820151816005015f6101000a81548160ff02191690836004811115610df257610df1611b39565b5b02179055509050508173ffffffffffffffffffffffffffffffffffffffff163373ffffffffffffffffffffffffffffffffffffffff16846fffffffffffffffffffffffffffffffff19167f14a657caf142c33a17ca3679b94eae3a656328ac085d3cebd578dee6ab96e1b83485604051610e6d92919061223a565b60405180910390a4610e7d611620565b505050565b5f602052805f5260405f205f91509050805f015f9054906101000a900473ffffffffffffffffffffffffffffffffffffffff1690806001015f9054906101000a900473ffffffffffffffffffffffffffffffffffffffff1690806002015490806003015f9054906101000a900461ffff1690806004015490806005015f9054906101000a900460ff16905086565b5f610f196117b6565b90505f815f0160089054906101000a900460ff161590505f825f015f9054906101000a900467ffffffffffffffff1690505f5f8267ffffffffffffffff16148015610f615750825b90505f60018367ffffffffffffffff16148015610f9457505f3073ffffffffffffffffffffffffffffffffffffffff163b145b905081158015610fa2575080155b15610fd9576040517ff92ee8a900000000000000000000000000000000000000000000000000000000815260040160405180910390fd5b6001855f015f6101000a81548167ffffffffffffffff021916908367ffffffffffffffff1602179055508315611026576001855f0160086101000a81548160ff0219169083151502179055505b61102f336117c9565b6110376117dd565b6103e88761ffff161115611080576040517f08c379a0000000000000000000000000000000000000000000000000000000008152600401611077906122ab565b60405180910390fd5b610e108662ffffff1610156110ca576040517f08c379a00000000000000000000000000000000000000000000000000000000081526004016110c190612313565b60405180910390fd5b62093a808662ffffff161115611115576040517f08c379a000000000000000000000000000000000000000000000000000000000815260040161110c9061237b565b60405180910390fd5b8760015f6101000a81548173ffffffffffffffffffffffffffffffffffffffff021916908373ffffffffffffffffffffffffffffffffffffffff16021790555086600160146101000a81548161ffff021916908361ffff16021790555085600160166101000a81548162ffffff021916908362ffffff1602179055505f600160196101000a81548160ff021916908360018111156111b6576111b5611b39565b5b02179055508315611215575f855f0160086101000a81548160ff0219169083151502179055507fc7f505b2f371ae2175ee4913f4499e1f2633a7b5936321eed1cdaeb6115181d2600160405161120c91906123ee565b60405180910390a15b5050505050505050565b60015f9054906101000a900473ffffffffffffffffffffffffffffffffffffffff1681565b61124c611637565b5f73ffffffffffffffffffffffffffffffffffffffff168173ffffffffffffffffffffffffffffffffffffffff16036112bc575f6040517f1e4fbdf70000000000000000000000000000000000000000000000000000000081526004016112b39190611c04565b60405180910390fd5b6112c5816116be565b50565b6112d0611637565b80600160196101000a81548160ff021916908360018111156112f5576112f4611b39565b5b02179055507fab540c1b3defd38d975e65aa0e06eeee132a55dd082be87b73f505ab57bed48c816040516113299190611bac565b60405180910390a150565b5f61133d6117ef565b90506002815f01540361137c576040517f3ee5aeb500000000000000000000000000000000000000000000000000000000815260040160405180910390fd5b6002815f018190555050565b5f5f5f836fffffffffffffffffffffffffffffffff19166fffffffffffffffffffffffffffffffff191681526020019081526020015f209050600160048111156113d5576113d4611b39565b5b816005015f9054906101000a900460ff1660048111156113f8576113f7611b39565b5b148061143857506003600481111561141357611412611b39565b5b816005015f9054906101000a900460ff16600481111561143657611435611b39565b5b145b611477576040517f08c379a000000000000000000000000000000000000000000000000000000000815260040161146e90611f9b565b60405180910390fd5b6002816005015f6101000a81548160ff0219169083600481111561149e5761149d611b39565b5b02179055505f5f6114c48360020154846003015f9054906101000a900461ffff16611816565b925092505060015f9054906101000a900473ffffffffffffffffffffffffffffffffffffffff1673ffffffffffffffffffffffffffffffffffffffff166108fc8390811502906040515f60405180830381858888f1935050505015801561152d573d5f5f3e3d5ffd5b50826001015f9054906101000a900473ffffffffffffffffffffffffffffffffffffffff1673ffffffffffffffffffffffffffffffffffffffff166108fc8290811502906040515f60405180830381858888f19350505050158015611594573d5f5f3e3d5ffd5b50826001015f9054906101000a900473ffffffffffffffffffffffffffffffffffffffff1673ffffffffffffffffffffffffffffffffffffffff16846fffffffffffffffffffffffffffffffff19167fe60f924809ad7a86a6789604bdd4b0e09d0f5585dde8e7290b4a37759ca77d0b836040516116129190612021565b60405180910390a350505050565b5f6116296117ef565b90506001815f018190555050565b61163f6118a6565b73ffffffffffffffffffffffffffffffffffffffff1661165d61098e565b73ffffffffffffffffffffffffffffffffffffffff16146116bc576116806118a6565b6040517f118cdaa70000000000000000000000000000000000000000000000000000000081526004016116b39190611c04565b60405180910390fd5b565b5f6116c761178f565b90505f815f015f9054906101000a900473ffffffffffffffffffffffffffffffffffffffff16905082825f015f6101000a81548173ffffffffffffffffffffffffffffffffffffffff021916908373ffffffffffffffffffffffffffffffffffffffff1602179055508273ffffffffffffffffffffffffffffffffffffffff168173ffffffffffffffffffffffffffffffffffffffff167f8be0079c531659141344cd1fd0a4f28419497f9722a3daafe3b4186f6b6457e060405160405180910390a3505050565b5f7f9016d09d72d40fdae2fd8ceac6b6234c7706214fd39c1cd1e609a0528c199300905090565b5f5f6117c06118ad565b90508091505090565b6117d16118d6565b6117da81611916565b50565b6117e56118d6565b6117ed61199a565b565b5f7f9b779b17422d0df92223018b32b4d1fa46e071723d6817e2486d003becc55f00905090565b5f5f5f836127106118279190612407565b61ffff168461ffff168661183b919061243c565b61184591906124aa565b92505f838661185491906124da565b9050612710600160149054906101000a900461ffff1661ffff1682611879919061243c565b61188391906124aa565b925083838261189291906124da565b61189c91906120cf565b9150509250925092565b5f33905090565b5f7ff0c57e16840df040f15088dc2f81fe391c3923bec73e23a9662efc9c229c6a005f1b905090565b6118de6119b9565b611914576040517fd7e6bcf800000000000000000000000000000000000000000000000000000000815260040160405180910390fd5b565b61191e6118d6565b5f73ffffffffffffffffffffffffffffffffffffffff168173ffffffffffffffffffffffffffffffffffffffff160361198e575f6040517f1e4fbdf70000000000000000000000000000000000000000000000000000000081526004016119859190611c04565b60405180910390fd5b611997816116be565b50565b6119a26118d6565b5f6119ab6117ef565b90506001815f018190555050565b5f6119c26117b6565b5f0160089054906101000a900460ff16905090565b5f5ffd5b5f7fffffffffffffffffffffffffffffffff0000000000000000000000000000000082169050919050565b611a0f816119db565b8114611a19575f5ffd5b50565b5f81359050611a2a81611a06565b92915050565b5f60208284031215611a4557611a446119d7565b5b5f611a5284828501611a1c565b91505092915050565b5f61ffff82169050919050565b611a7181611a5b565b82525050565b5f602082019050611a8a5f830184611a68565b92915050565b5f8115159050919050565b611aa481611a90565b8114611aae575f5ffd5b50565b5f81359050611abf81611a9b565b92915050565b5f5f60408385031215611adb57611ada6119d7565b5b5f611ae885828601611a1c565b9250506020611af985828601611ab1565b9150509250929050565b5f62ffffff82169050919050565b611b1a81611b03565b82525050565b5f602082019050611b335f830184611b11565b92915050565b7f4e487b71000000000000000000000000000000000000000000000000000000005f52602160045260245ffd5b60028110611b7757611b76611b39565b5b50565b5f819050611b8782611b66565b919050565b5f611b9682611b7a565b9050919050565b611ba681611b8c565b82525050565b5f602082019050611bbf5f830184611b9d565b92915050565b5f73ffffffffffffffffffffffffffffffffffffffff82169050919050565b5f611bee82611bc5565b9050919050565b611bfe81611be4565b82525050565b5f602082019050611c175f830184611bf5565b92915050565b611c2681611be4565b8114611c30575f5ffd5b50565b5f81359050611c4181611c1d565b92915050565b611c5081611a5b565b8114611c5a575f5ffd5b50565b5f81359050611c6b81611c47565b92915050565b5f5f5f60608486031215611c8857611c876119d7565b5b5f611c9586828701611a1c565b9350506020611ca686828701611c33565b9250506040611cb786828701611c5d565b9150509250925092565b5f819050919050565b611cd381611cc1565b82525050565b60058110611cea57611ce9611b39565b5b50565b5f819050611cfa82611cd9565b919050565b5f611d0982611ced565b9050919050565b611d1981611cff565b82525050565b5f60c082019050611d325f830189611bf5565b611d3f6020830188611bf5565b611d4c6040830187611cca565b611d596060830186611a68565b611d666080830185611cca565b611d7360a0830184611d10565b979650505050505050565b611d8781611b03565b8114611d91575f5ffd5b50565b5f81359050611da281611d7e565b92915050565b5f5f5f60608486031215611dbf57611dbe6119d7565b5b5f611dcc86828701611c33565b9350506020611ddd86828701611c5d565b9250506040611dee86828701611d94565b9150509250925092565b5f60208284031215611e0d57611e0c6119d7565b5b5f611e1a84828501611c33565b91505092915050565b60028110611e2f575f5ffd5b50565b5f81359050611e4081611e23565b92915050565b5f60208284031215611e5b57611e5a6119d7565b5b5f611e6884828501611e32565b91505092915050565b5f82825260208201905092915050565b7f436f6e74726163742064657072656361746564000000000000000000000000005f82015250565b5f611eb5601383611e71565b9150611ec082611e81565b602082019050919050565b5f6020820190508181035f830152611ee281611ea9565b9050919050565b7f4e6f7420627579657200000000000000000000000000000000000000000000005f82015250565b5f611f1d600983611e71565b9150611f2882611ee9565b602082019050919050565b5f6020820190508181035f830152611f4a81611f11565b9050919050565b7f43616e6e6f742072656c656173650000000000000000000000000000000000005f82015250565b5f611f85600e83611e71565b9150611f9082611f51565b602082019050919050565b5f6020820190508181035f830152611fb281611f79565b9050919050565b7f4e6f2064697370757465000000000000000000000000000000000000000000005f82015250565b5f611fed600a83611e71565b9150611ff882611fb9565b602082019050919050565b5f6020820190508181035f83015261201a81611fe1565b9050919050565b5f6020820190506120345f830184611cca565b92915050565b7f43616e6e6f7420646973707574650000000000000000000000000000000000005f82015250565b5f61206e600e83611e71565b91506120798261203a565b602082019050919050565b5f6020820190508181035f83015261209b81612062565b9050919050565b7f4e487b71000000000000000000000000000000000000000000000000000000005f52601160045260245ffd5b5f6120d982611cc1565b91506120e483611cc1565b92508282019050808211156120fc576120fb6120a2565b5b92915050565b7f546f6f206561726c7900000000000000000000000000000000000000000000005f82015250565b5f612136600983611e71565b915061214182612102565b602082019050919050565b5f6020820190508181035f8301526121638161212a565b9050919050565b7f496e76616c696420616d6f756e740000000000000000000000000000000000005f82015250565b5f61219e600e83611e71565b91506121a98261216a565b602082019050919050565b5f6020820190508181035f8301526121cb81612192565b9050919050565b7f4f726465722065786973747300000000000000000000000000000000000000005f82015250565b5f612206600c83611e71565b9150612211826121d2565b602082019050919050565b5f6020820190508181035f830152612233816121fa565b9050919050565b5f60408201905061224d5f830185611cca565b61225a6020830184611a68565b9392505050565b7f46656520746f6f206869676800000000000000000000000000000000000000005f82015250565b5f612295600c83611e71565b91506122a082612261565b602082019050919050565b5f6020820190508181035f8301526122c281612289565b9050919050565b7f44656c617920746f6f2073686f727400000000000000000000000000000000005f82015250565b5f6122fd600f83611e71565b9150612308826122c9565b602082019050919050565b5f6020820190508181035f83015261232a816122f1565b9050919050565b7f44656c617920746f6f206c6f6e670000000000000000000000000000000000005f82015250565b5f612365600e83611e71565b915061237082612331565b602082019050919050565b5f6020820190508181035f83015261239281612359565b9050919050565b5f819050919050565b5f67ffffffffffffffff82169050919050565b5f819050919050565b5f6123d86123d36123ce84612399565b6123b5565b6123a2565b9050919050565b6123e8816123be565b82525050565b5f6020820190506124015f8301846123df565b92915050565b5f61241182611a5b565b915061241c83611a5b565b9250828201905061ffff811115612436576124356120a2565b5b92915050565b5f61244682611cc1565b915061245183611cc1565b925082820261245f81611cc1565b91508282048414831517612476576124756120a2565b5b5092915050565b7f4e487b71000000000000000000000000000000000000000000000000000000005f52601260045260245ffd5b5f6124b482611cc1565b91506124bf83611cc1565b9250826124cf576124ce61247d565b5b828204905092915050565b5f6124e482611cc1565b91506124ef83611cc1565b9250828203905081811115612507576125066120a2565b5b9291505056fea26469706673582212200ecc37bb7b14e6a8705b2f2f77a395fea744c3c762da6d3dc09034e93139f37e64736f6c634300081c0033","opcodes":"PUSH1 0x80 PUSH1 0x40 MSTORE CALLVALUE DUP1 ISZERO PUSH2 0xF JUMPI PUSH0 PUSH0 REVERT JUMPDEST POP PUSH2 0x1E PUSH2 0x23 PUSH1 0x20 SHL PUSH1 0x20 SHR JUMP JUMPDEST PUSH2 0x19E JUMP JUMPDEST PUSH0 PUSH2 0x32 PUSH2 0x121 PUSH1 0x20 SHL PUSH1 0x20 SHR JUMP JUMPDEST SWAP1 POP DUP1 PUSH0 ADD PUSH1 0x8 SWAP1 SLOAD SWAP1 PUSH2 0x100 EXP SWAP1 DIV PUSH1 0xFF AND ISZERO PUSH2 0x7C JUMPI PUSH1 0x40 MLOAD PUSH32 0xF92EE8A900000000000000000000000000000000000000000000000000000000 DUP2 MSTORE PUSH1 0x4 ADD PUSH1 0x40 MLOAD DUP1 SWAP2 SUB SWAP1 REVERT JUMPDEST PUSH8 0xFFFFFFFFFFFFFFFF DUP1 AND DUP2 PUSH0 ADD PUSH0 SWAP1 SLOAD SWAP1 PUSH2 0x100 EXP SWAP1 DIV PUSH8 0xFFFFFFFFFFFFFFFF AND PUSH8 0xFFFFFFFFFFFFFFFF AND EQ PUSH2 0x11E JUMPI PUSH8 0xFFFFFFFFFFFFFFFF DUP2 PUSH0 ADD PUSH0 PUSH2 0x100 EXP DUP2 SLOAD DUP2 PUSH8 0xFFFFFFFFFFFFFFFF MUL NOT AND SWAP1 DUP4 PUSH8 0xFFFFFFFFFFFFFFFF AND MUL OR SWAP1 SSTORE POP PUSH32 0xC7F505B2F371AE2175EE4913F4499E1F2633A7B5936321EED1CDAEB6115181D2 PUSH8 0xFFFFFFFFFFFFFFFF PUSH1 0x40 MLOAD PUSH2 0x115 SWAP2 SWAP1 PUSH2 0x185 JUMP JUMPDEST PUSH1 0x40 MLOAD DUP1 SWAP2 SUB SWAP1 LOG1 JUMPDEST POP JUMP JUMPDEST PUSH0 PUSH0 PUSH2 0x131 PUSH2 0x13A PUSH1 0x20 SHL PUSH1 0x20 SHR JUMP JUMPDEST SWAP1 POP DUP1 SWAP2 POP POP SWAP1 JUMP JUMPDEST PUSH0 PUSH32 0xF0C57E16840DF040F15088DC2F81FE391C3923BEC73E23A9662EFC9C229C6A00 PUSH0 SHL SWAP1 POP SWAP1 JUMP JUMPDEST PUSH0 PUSH8 0xFFFFFFFFFFFFFFFF DUP3 AND SWAP1 POP SWAP2 SWAP1 POP JUMP JUMPDEST PUSH2 0x17F DUP2 PUSH2 0x163 JUMP JUMPDEST DUP3 MSTORE POP POP JUMP JUMPDEST PUSH0 PUSH1 0x20 DUP3 ADD SWAP1 POP PUSH2 0x198 PUSH0 DUP4 ADD DUP5 PUSH2 0x176 JUMP JUMPDEST SWAP3 SWAP2 POP POP JUMP JUMPDEST PUSH2 0x2543 DUP1 PUSH2 0x1AB PUSH0 CODECOPY PUSH0 RETURN INVALID PUSH1 0x80 PUSH1 0x40 MSTORE PUSH1 0x4 CALLDATASIZE LT PUSH2 0xE7 JUMPI PUSH0 CALLDATALOAD PUSH1 0xE0 SHR DUP1 PUSH4 0x8DA5CB5B GT PUSH2 0x89 JUMPI DUP1 PUSH4 0xC619725B GT PUSH2 0x58 JUMPI DUP1 PUSH4 0xC619725B EQ PUSH2 0x2A6 JUMPI DUP1 PUSH4 0xE138818C EQ PUSH2 0x2CE JUMPI DUP1 PUSH4 0xF2FDE38B EQ PUSH2 0x2F8 JUMPI DUP1 PUSH4 0xF7B4C187 EQ PUSH2 0x320 JUMPI PUSH2 0xE7 JUMP JUMPDEST DUP1 PUSH4 0x8DA5CB5B EQ PUSH2 0x1F7 JUMPI DUP1 PUSH4 0x97C163A0 EQ PUSH2 0x221 JUMPI DUP1 PUSH4 0xB91C051F EQ PUSH2 0x249 JUMPI DUP1 PUSH4 0xC5C73124 EQ PUSH2 0x265 JUMPI PUSH2 0xE7 JUMP JUMPDEST DUP1 PUSH4 0x5FF93A75 GT PUSH2 0xC5 JUMPI DUP1 PUSH4 0x5FF93A75 EQ PUSH2 0x165 JUMPI DUP1 PUSH4 0x715018A6 EQ PUSH2 0x18D JUMPI DUP1 PUSH4 0x7195BF23 EQ PUSH2 0x1A3 JUMPI DUP1 PUSH4 0x85209EE0 EQ PUSH2 0x1CD JUMPI PUSH2 0xE7 JUMP JUMPDEST DUP1 PUSH4 0x11594E29 EQ PUSH2 0xEB JUMPI DUP1 PUSH4 0x22DCD13E EQ PUSH2 0x113 JUMPI DUP1 PUSH4 0x50515D5A EQ PUSH2 0x13D JUMPI JUMPDEST PUSH0 PUSH0 REVERT JUMPDEST CALLVALUE DUP1 ISZERO PUSH2 0xF6 JUMPI PUSH0 PUSH0 REVERT JUMPDEST POP PUSH2 0x111 PUSH1 0x4 DUP1 CALLDATASIZE SUB DUP2 ADD SWAP1 PUSH2 0x10C SWAP2 SWAP1 PUSH2 0x1A30 JUMP JUMPDEST PUSH2 0x348 JUMP JUMPDEST STOP JUMPDEST CALLVALUE DUP1 ISZERO PUSH2 0x11E JUMPI PUSH0 PUSH0 REVERT JUMPDEST POP PUSH2 0x127 PUSH2 0x51A JUMP JUMPDEST PUSH1 0x40 MLOAD PUSH2 0x134 SWAP2 SWAP1 PUSH2 0x1A77 JUMP JUMPDEST PUSH1 0x40 MLOAD DUP1 SWAP2 SUB SWAP1 RETURN JUMPDEST CALLVALUE DUP1 ISZERO PUSH2 0x148 JUMPI PUSH0 PUSH0 REVERT JUMPDEST POP PUSH2 0x163 PUSH1 0x4 DUP1 CALLDATASIZE SUB DUP2 ADD SWAP1 PUSH2 0x15E SWAP2 SWAP1 PUSH2 0x1AC5 JUMP JUMPDEST PUSH2 0x52E JUMP JUMPDEST STOP JUMPDEST CALLVALUE DUP1 ISZERO PUSH2 0x170 JUMPI PUSH0 PUSH0 REVERT JUMPDEST POP PUSH2 0x18B PUSH1 0x4 DUP1 CALLDATASIZE SUB DUP2 ADD SWAP1 PUSH2 0x186 SWAP2 SWAP1 PUSH2 0x1A30 JUMP JUMPDEST PUSH2 0x72E JUMP JUMPDEST STOP JUMPDEST CALLVALUE DUP1 ISZERO PUSH2 0x198 JUMPI PUSH0 PUSH0 REVERT JUMPDEST POP PUSH2 0x1A1 PUSH2 0x953 JUMP JUMPDEST STOP JUMPDEST CALLVALUE DUP1 ISZERO PUSH2 0x1AE JUMPI PUSH0 PUSH0 REVERT JUMPDEST POP PUSH2 0x1B7 PUSH2 0x966 JUMP JUMPDEST PUSH1 0x40 MLOAD PUSH2 0x1C4 SWAP2 SWAP1 PUSH2 0x1B20 JUMP JUMPDEST PUSH1 0x40 MLOAD DUP1 SWAP2 SUB SWAP1 RETURN JUMPDEST CALLVALUE DUP1 ISZERO PUSH2 0x1D8 JUMPI PUSH0 PUSH0 REVERT JUMPDEST POP PUSH2 0x1E1 PUSH2 0x97B JUMP JUMPDEST PUSH1 0x40 MLOAD PUSH2 0x1EE SWAP2 SWAP1 PUSH2 0x1BAC JUMP JUMPDEST PUSH1 0x40 MLOAD DUP1 SWAP2 SUB SWAP1 RETURN JUMPDEST CALLVALUE DUP1 ISZERO PUSH2 0x202 JUMPI PUSH0 PUSH0 REVERT JUMPDEST POP PUSH2 0x20B PUSH2 0x98E JUMP JUMPDEST PUSH1 0x40 MLOAD PUSH2 0x218 SWAP2 SWAP1 PUSH2 0x1C04 JUMP JUMPDEST PUSH1 0x40 MLOAD DUP1 SWAP2 SUB SWAP1 RETURN JUMPDEST CALLVALUE DUP1 ISZERO PUSH2 0x22C JUMPI PUSH0 PUSH0 REVERT JUMPDEST POP PUSH2 0x247 PUSH1 0x4 DUP1 CALLDATASIZE SUB DUP2 ADD SWAP1 PUSH2 0x242 SWAP2 SWAP1 PUSH2 0x1A30 JUMP JUMPDEST PUSH2 0x9C3 JUMP JUMPDEST STOP JUMPDEST PUSH2 0x263 PUSH1 0x4 DUP1 CALLDATASIZE SUB DUP2 ADD SWAP1 PUSH2 0x25E SWAP2 SWAP1 PUSH2 0x1C71 JUMP JUMPDEST PUSH2 0xAF8 JUMP JUMPDEST STOP JUMPDEST CALLVALUE DUP1 ISZERO PUSH2 0x270 JUMPI PUSH0 PUSH0 REVERT JUMPDEST POP PUSH2 0x28B PUSH1 0x4 DUP1 CALLDATASIZE SUB DUP2 ADD SWAP1 PUSH2 0x286 SWAP2 SWAP1 PUSH2 0x1A30 JUMP JUMPDEST PUSH2 0xE82 JUMP JUMPDEST PUSH1 0x40 MLOAD PUSH2 0x29D SWAP7 SWAP6 SWAP5 SWAP4 SWAP3 SWAP2 SWAP1 PUSH2 0x1D1F JUMP JUMPDEST PUSH1 0x40 MLOAD DUP1 SWAP2 SUB SWAP1 RETURN JUMPDEST CALLVALUE DUP1 ISZERO PUSH2 0x2B1 JUMPI PUSH0 PUSH0 REVERT JUMPDEST POP PUSH2 0x2CC PUSH1 0x4 DUP1 CALLDATASIZE SUB DUP2 ADD SWAP1 PUSH2 0x2C7 SWAP2 SWAP1 PUSH2 0x1DA8 JUMP JUMPDEST PUSH2 0xF10 JUMP JUMPDEST STOP JUMPDEST CALLVALUE DUP1 ISZERO PUSH2 0x2D9 JUMPI PUSH0 PUSH0 REVERT JUMPDEST POP PUSH2 0x2E2 PUSH2 0x121F JUMP JUMPDEST PUSH1 0x40 MLOAD PUSH2 0x2EF SWAP2 SWAP1 PUSH2 0x1C04 JUMP JUMPDEST PUSH1 0x40 MLOAD DUP1 SWAP2 SUB SWAP1 RETURN JUMPDEST CALLVALUE DUP1 ISZERO PUSH2 0x303 JUMPI PUSH0 PUSH0 REVERT JUMPDEST POP PUSH2 0x31E PUSH1 0x4 DUP1 CALLDATASIZE SUB DUP2 ADD SWAP1 PUSH2 0x319 SWAP2 SWAP1 PUSH2 0x1DF8 JUMP JUMPDEST PUSH2 0x1244 JUMP JUMPDEST STOP JUMPDEST CALLVALUE DUP1 ISZERO PUSH2 0x32B JUMPI PUSH0 PUSH0 REVERT JUMPDEST POP PUSH2 0x346 PUSH1 0x4 DUP1 CALLDATASIZE SUB DUP2 ADD SWAP1 PUSH2 0x341 SWAP2 SWAP1 PUSH2 0x1E46 JUMP JUMPDEST PUSH2 0x12C8 JUMP JUMPDEST STOP JUMPDEST PUSH2 0x350 PUSH2 0x1334 JUMP JUMPDEST PUSH0 PUSH1 0x1 DUP2 GT ISZERO PUSH2 0x363 JUMPI PUSH2 0x362 PUSH2 0x1B39 JUMP JUMPDEST JUMPDEST PUSH1 0x1 PUSH1 0x19 SWAP1 SLOAD SWAP1 PUSH2 0x100 EXP SWAP1 DIV PUSH1 0xFF AND PUSH1 0x1 DUP2 GT ISZERO PUSH2 0x385 JUMPI PUSH2 0x384 PUSH2 0x1B39 JUMP JUMPDEST JUMPDEST EQ PUSH2 0x3C5 JUMPI PUSH1 0x40 MLOAD PUSH32 0x8C379A000000000000000000000000000000000000000000000000000000000 DUP2 MSTORE PUSH1 0x4 ADD PUSH2 0x3BC SWAP1 PUSH2 0x1ECB JUMP JUMPDEST PUSH1 0x40 MLOAD DUP1 SWAP2 SUB SWAP1 REVERT JUMPDEST PUSH0 PUSH0 PUSH0 DUP4 PUSH16 0xFFFFFFFFFFFFFFFFFFFFFFFFFFFFFFFF NOT AND PUSH16 0xFFFFFFFFFFFFFFFFFFFFFFFFFFFFFFFF NOT AND DUP2 MSTORE PUSH1 0x20 ADD SWAP1 DUP2 MSTORE PUSH1 0x20 ADD PUSH0 KECCAK256 SWAP1 POP DUP1 PUSH0 ADD PUSH0 SWAP1 SLOAD SWAP1 PUSH2 0x100 EXP SWAP1 DIV PUSH20 0xFFFFFFFFFFFFFFFFFFFFFFFFFFFFFFFFFFFFFFFF AND PUSH20 0xFFFFFFFFFFFFFFFFFFFFFFFFFFFFFFFFFFFFFFFF AND CALLER PUSH20 0xFFFFFFFFFFFFFFFFFFFFFFFFFFFFFFFFFFFFFFFF AND EQ PUSH2 0x48E JUMPI PUSH1 0x40 MLOAD PUSH32 0x8C379A000000000000000000000000000000000000000000000000000000000 DUP2 MSTORE PUSH1 0x4 ADD PUSH2 0x485 SWAP1 PUSH2 0x1F33 JUMP JUMPDEST PUSH1 0x40 MLOAD DUP1 SWAP2 SUB SWAP1 REVERT JUMPDEST PUSH1 0x1 PUSH1 0x4 DUP2 GT ISZERO PUSH2 0x4A2 JUMPI PUSH2 0x4A1 PUSH2 0x1B39 JUMP JUMPDEST JUMPDEST DUP2 PUSH1 0x5 ADD PUSH0 SWAP1 SLOAD SWAP1 PUSH2 0x100 EXP SWAP1 DIV PUSH1 0xFF AND PUSH1 0x4 DUP2 GT ISZERO PUSH2 0x4C5 JUMPI PUSH2 0x4C4 PUSH2 0x1B39 JUMP JUMPDEST JUMPDEST EQ PUSH2 0x505 JUMPI PUSH1 0x40 MLOAD PUSH32 0x8C379A000000000000000000000000000000000000000000000000000000000 DUP2 MSTORE PUSH1 0x4 ADD PUSH2 0x4FC SWAP1 PUSH2 0x1F9B JUMP JUMPDEST PUSH1 0x40 MLOAD DUP1 SWAP2 SUB SWAP1 REVERT JUMPDEST PUSH2 0x50E DUP3 PUSH2 0x1388 JUMP JUMPDEST POP PUSH2 0x517 PUSH2 0x1620 JUMP JUMPDEST POP JUMP JUMPDEST PUSH1 0x1 PUSH1 0x14 SWAP1 SLOAD SWAP1 PUSH2 0x100 EXP SWAP1 DIV PUSH2 0xFFFF AND DUP2 JUMP JUMPDEST PUSH2 0x536 PUSH2 0x1637 JUMP JUMPDEST PUSH2 0x53E PUSH2 0x1334 JUMP JUMPDEST PUSH0 PUSH0 PUSH0 DUP5 PUSH16 0xFFFFFFFFFFFFFFFFFFFFFFFFFFFFFFFF NOT AND PUSH16 0xFFFFFFFFFFFFFFFFFFFFFFFFFFFFFFFF NOT AND DUP2 MSTORE PUSH1 0x20 ADD SWAP1 DUP2 MSTORE PUSH1 0x20 ADD PUSH0 KECCAK256 SWAP1 POP PUSH1 0x3 PUSH1 0x4 DUP2 GT ISZERO PUSH2 0x58B JUMPI PUSH2 0x58A PUSH2 0x1B39 JUMP JUMPDEST JUMPDEST DUP2 PUSH1 0x5 ADD PUSH0 SWAP1 SLOAD SWAP1 PUSH2 0x100 EXP SWAP1 DIV PUSH1 0xFF AND PUSH1 0x4 DUP2 GT ISZERO PUSH2 0x5AE JUMPI PUSH2 0x5AD PUSH2 0x1B39 JUMP JUMPDEST JUMPDEST EQ PUSH2 0x5EE JUMPI PUSH1 0x40 MLOAD PUSH32 0x8C379A000000000000000000000000000000000000000000000000000000000 DUP2 MSTORE PUSH1 0x4 ADD PUSH2 0x5E5 SWAP1 PUSH2 0x2003 JUMP JUMPDEST PUSH1 0x40 MLOAD DUP1 SWAP2 SUB SWAP1 REVERT JUMPDEST DUP2 ISZERO PUSH2 0x717 JUMPI PUSH1 0x4 DUP2 PUSH1 0x5 ADD PUSH0 PUSH2 0x100 EXP DUP2 SLOAD DUP2 PUSH1 0xFF MUL NOT AND SWAP1 DUP4 PUSH1 0x4 DUP2 GT ISZERO PUSH2 0x61B JUMPI PUSH2 0x61A PUSH2 0x1B39 JUMP JUMPDEST JUMPDEST MUL OR SWAP1 SSTORE POP DUP1 PUSH0 ADD PUSH0 SWAP1 SLOAD SWAP1 PUSH2 0x100 EXP SWAP1 DIV PUSH20 0xFFFFFFFFFFFFFFFFFFFFFFFFFFFFFFFFFFFFFFFF AND PUSH20 0xFFFFFFFFFFFFFFFFFFFFFFFFFFFFFFFFFFFFFFFF AND PUSH2 0x8FC DUP3 PUSH1 0x2 ADD SLOAD SWAP1 DUP2 ISZERO MUL SWAP1 PUSH1 0x40 MLOAD PUSH0 PUSH1 0x40 MLOAD DUP1 DUP4 SUB DUP2 DUP6 DUP9 DUP9 CALL SWAP4 POP POP POP POP ISZERO DUP1 ISZERO PUSH2 0x689 JUMPI RETURNDATASIZE PUSH0 PUSH0 RETURNDATACOPY RETURNDATASIZE PUSH0 REVERT JUMPDEST POP DUP1 PUSH0 ADD PUSH0 SWAP1 SLOAD SWAP1 PUSH2 0x100 EXP SWAP1 DIV PUSH20 0xFFFFFFFFFFFFFFFFFFFFFFFFFFFFFFFFFFFFFFFF AND PUSH20 0xFFFFFFFFFFFFFFFFFFFFFFFFFFFFFFFFFFFFFFFF AND DUP4 PUSH16 0xFFFFFFFFFFFFFFFFFFFFFFFFFFFFFFFF NOT AND PUSH32 0xAFAB81C7CFF0515AB993A1CF55536D90F68CF5EC75DEAB830FD758B2A7F296ED DUP4 PUSH1 0x2 ADD SLOAD PUSH1 0x40 MLOAD PUSH2 0x70A SWAP2 SWAP1 PUSH2 0x2021 JUMP JUMPDEST PUSH1 0x40 MLOAD DUP1 SWAP2 SUB SWAP1 LOG3 PUSH2 0x721 JUMP JUMPDEST PUSH2 0x720 DUP4 PUSH2 0x1388 JUMP JUMPDEST JUMPDEST POP PUSH2 0x72A PUSH2 0x1620 JUMP JUMPDEST POP POP JUMP JUMPDEST PUSH0 PUSH1 0x1 DUP2 GT ISZERO PUSH2 0x741 JUMPI PUSH2 0x740 PUSH2 0x1B39 JUMP JUMPDEST JUMPDEST PUSH1 0x1 PUSH1 0x19 SWAP1 SLOAD SWAP1 PUSH2 0x100 EXP SWAP1 DIV PUSH1 0xFF AND PUSH1 0x1 DUP2 GT ISZERO PUSH2 0x763 JUMPI PUSH2 0x762 PUSH2 0x1B39 JUMP JUMPDEST JUMPDEST EQ PUSH2 0x7A3 JUMPI PUSH1 0x40 MLOAD PUSH32 0x8C379A000000000000000000000000000000000000000000000000000000000 DUP2 MSTORE PUSH1 0x4 ADD PUSH2 0x79A SWAP1 PUSH2 0x1ECB JUMP JUMPDEST PUSH1 0x40 MLOAD DUP1 SWAP2 SUB SWAP1 REVERT JUMPDEST PUSH0 PUSH0 PUSH0 DUP4 PUSH16 0xFFFFFFFFFFFFFFFFFFFFFFFFFFFFFFFF NOT AND PUSH16 0xFFFFFFFFFFFFFFFFFFFFFFFFFFFFFFFF NOT AND DUP2 MSTORE PUSH1 0x20 ADD SWAP1 DUP2 MSTORE PUSH1 0x20 ADD PUSH0 KECCAK256 SWAP1 POP DUP1 PUSH0 ADD PUSH0 SWAP1 SLOAD SWAP1 PUSH2 0x100 EXP SWAP1 DIV PUSH20 0xFFFFFFFFFFFFFFFFFFFFFFFFFFFFFFFFFFFFFFFF AND PUSH20 0xFFFFFFFFFFFFFFFFFFFFFFFFFFFFFFFFFFFFFFFF AND CALLER PUSH20 0xFFFFFFFFFFFFFFFFFFFFFFFFFFFFFFFFFFFFFFFF AND EQ PUSH2 0x86C JUMPI PUSH1 0x40 MLOAD PUSH32 0x8C379A000000000000000000000000000000000000000000000000000000000 DUP2 MSTORE PUSH1 0x4 ADD PUSH2 0x863 SWAP1 PUSH2 0x1F33 JUMP JUMPDEST PUSH1 0x40 MLOAD DUP1 SWAP2 SUB SWAP1 REVERT JUMPDEST PUSH1 0x1 PUSH1 0x4 DUP2 GT ISZERO PUSH2 0x880 JUMPI PUSH2 0x87F PUSH2 0x1B39 JUMP JUMPDEST JUMPDEST DUP2 PUSH1 0x5 ADD PUSH0 SWAP1 SLOAD SWAP1 PUSH2 0x100 EXP SWAP1 DIV PUSH1 0xFF AND PUSH1 0x4 DUP2 GT ISZERO PUSH2 0x8A3 JUMPI PUSH2 0x8A2 PUSH2 0x1B39 JUMP JUMPDEST JUMPDEST EQ PUSH2 0x8E3 JUMPI PUSH1 0x40 MLOAD PUSH32 0x8C379A000000000000000000000000000000000000000000000000000000000 DUP2 MSTORE PUSH1 0x4 ADD PUSH2 0x8DA SWAP1 PUSH2 0x2084 JUMP JUMPDEST PUSH1 0x40 MLOAD DUP1 SWAP2 SUB SWAP1 REVERT JUMPDEST PUSH1 0x3 DUP2 PUSH1 0x5 ADD PUSH0 PUSH2 0x100 EXP DUP2 SLOAD DUP2 PUSH1 0xFF MUL NOT AND SWAP1 DUP4 PUSH1 0x4 DUP2 GT ISZERO PUSH2 0x90A JUMPI PUSH2 0x909 PUSH2 0x1B39 JUMP JUMPDEST JUMPDEST MUL OR SWAP1 SSTORE POP DUP2 PUSH16 0xFFFFFFFFFFFFFFFFFFFFFFFFFFFFFFFF NOT AND PUSH32 0xDB1A1355B8CFFEA63B711AAC689B380D6D3FA596333CF6A852D993988526E0AE PUSH1 0x40 MLOAD PUSH1 0x40 MLOAD DUP1 SWAP2 SUB SWAP1 LOG2 POP POP JUMP JUMPDEST PUSH2 0x95B PUSH2 0x1637 JUMP JUMPDEST PUSH2 0x964 PUSH0 PUSH2 0x16BE JUMP JUMPDEST JUMP JUMPDEST PUSH1 0x1 PUSH1 0x16 SWAP1 SLOAD SWAP1 PUSH2 0x100 EXP SWAP1 DIV PUSH3 0xFFFFFF AND DUP2 JUMP JUMPDEST PUSH1 0x1 PUSH1 0x19 SWAP1 SLOAD SWAP1 PUSH2 0x100 EXP SWAP1 DIV PUSH1 0xFF AND DUP2 JUMP JUMPDEST PUSH0 PUSH0 PUSH2 0x998 PUSH2 0x178F JUMP JUMPDEST SWAP1 POP DUP1 PUSH0 ADD PUSH0 SWAP1 SLOAD SWAP1 PUSH2 0x100 EXP SWAP1 DIV PUSH20 0xFFFFFFFFFFFFFFFFFFFFFFFFFFFFFFFFFFFFFFFF AND SWAP2 POP POP SWAP1 JUMP JUMPDEST PUSH2 0x9CB PUSH2 0x1334 JUMP JUMPDEST PUSH0 PUSH0 PUSH0 DUP4 PUSH16 0xFFFFFFFFFFFFFFFFFFFFFFFFFFFFFFFF NOT AND PUSH16 0xFFFFFFFFFFFFFFFFFFFFFFFFFFFFFFFF NOT AND DUP2 MSTORE PUSH1 0x20 ADD SWAP1 DUP2 MSTORE PUSH1 0x20 ADD PUSH0 KECCAK256 SWAP1 POP PUSH1 0x1 PUSH1 0x4 DUP2 GT ISZERO PUSH2 0xA18 JUMPI PUSH2 0xA17 PUSH2 0x1B39 JUMP JUMPDEST JUMPDEST DUP2 PUSH1 0x5 ADD PUSH0 SWAP1 SLOAD SWAP1 PUSH2 0x100 EXP SWAP1 DIV PUSH1 0xFF AND PUSH1 0x4 DUP2 GT ISZERO PUSH2 0xA3B JUMPI PUSH2 0xA3A PUSH2 0x1B39 JUMP JUMPDEST JUMPDEST EQ PUSH2 0xA7B JUMPI PUSH1 0x40 MLOAD PUSH32 0x8C379A000000000000000000000000000000000000000000000000000000000 DUP2 MSTORE PUSH1 0x4 ADD PUSH2 0xA72 SWAP1 PUSH2 0x1F9B JUMP JUMPDEST PUSH1 0x40 MLOAD DUP1 SWAP2 SUB SWAP1 REVERT JUMPDEST PUSH1 0x1 PUSH1 0x16 SWAP1 SLOAD SWAP1 PUSH2 0x100 EXP SWAP1 DIV PUSH3 0xFFFFFF AND PUSH3 0xFFFFFF AND DUP2 PUSH1 0x4 ADD SLOAD PUSH2 0xAA1 SWAP2 SWAP1 PUSH2 0x20CF JUMP JUMPDEST TIMESTAMP LT ISZERO PUSH2 0xAE3 JUMPI PUSH1 0x40 MLOAD PUSH32 0x8C379A000000000000000000000000000000000000000000000000000000000 DUP2 MSTORE PUSH1 0x4 ADD PUSH2 0xADA SWAP1 PUSH2 0x214C JUMP JUMPDEST PUSH1 0x40 MLOAD DUP1 SWAP2 SUB SWAP1 REVERT JUMPDEST PUSH2 0xAEC DUP3 PUSH2 0x1388 JUMP JUMPDEST POP PUSH2 0xAF5 PUSH2 0x1620 JUMP JUMPDEST POP JUMP JUMPDEST PUSH2 0xB00 PUSH2 0x1334 JUMP JUMPDEST PUSH0 PUSH1 0x1 DUP2 GT ISZERO PUSH2 0xB13 JUMPI PUSH2 0xB12 PUSH2 0x1B39 JUMP JUMPDEST JUMPDEST PUSH1 0x1 PUSH1 0x19 SWAP1 SLOAD SWAP1 PUSH2 0x100 EXP SWAP1 DIV PUSH1 0xFF AND PUSH1 0x1 DUP2 GT ISZERO PUSH2 0xB35 JUMPI PUSH2 0xB34 PUSH2 0x1B39 JUMP JUMPDEST JUMPDEST EQ PUSH2 0xB75 JUMPI PUSH1 0x40 MLOAD PUSH32 0x8C379A000000000000000000000000000000000000000000000000000000000 DUP2 MSTORE PUSH1 0x4 ADD PUSH2 0xB6C SWAP1 PUSH2 0x1ECB JUMP JUMPDEST PUSH1 0x40 MLOAD DUP1 SWAP2 SUB SWAP1 REVERT JUMPDEST PUSH0 CALLVALUE GT PUSH2 0xBB7 JUMPI PUSH1 0x40 MLOAD PUSH32 0x8C379A000000000000000000000000000000000000000000000000000000000 DUP2 MSTORE PUSH1 0x4 ADD PUSH2 0xBAE SWAP1 PUSH2 0x21B4 JUMP JUMPDEST PUSH1 0x40 MLOAD DUP1 SWAP2 SUB SWAP1 REVERT JUMPDEST PUSH0 PUSH1 0x4 DUP2 GT ISZERO PUSH2 0xBCA JUMPI PUSH2 0xBC9 PUSH2 0x1B39 JUMP JUMPDEST JUMPDEST PUSH0 PUSH0 DUP6 PUSH16 0xFFFFFFFFFFFFFFFFFFFFFFFFFFFFFFFF NOT AND PUSH16 0xFFFFFFFFFFFFFFFFFFFFFFFFFFFFFFFF NOT AND DUP2 MSTORE PUSH1 0x20 ADD SWAP1 DUP2 MSTORE PUSH1 0x20 ADD PUSH0 KECCAK256 PUSH1 0x5 ADD PUSH0 SWAP1 SLOAD SWAP1 PUSH2 0x100 EXP SWAP1 DIV PUSH1 0xFF AND PUSH1 0x4 DUP2 GT ISZERO PUSH2 0xC22 JUMPI PUSH2 0xC21 PUSH2 0x1B39 JUMP JUMPDEST JUMPDEST EQ PUSH2 0xC62 JUMPI PUSH1 0x40 MLOAD PUSH32 0x8C379A000000000000000000000000000000000000000000000000000000000 DUP2 MSTORE PUSH1 0x4 ADD PUSH2 0xC59 SWAP1 PUSH2 0x221C JUMP JUMPDEST PUSH1 0x40 MLOAD DUP1 SWAP2 SUB SWAP1 REVERT JUMPDEST PUSH1 0x40 MLOAD DUP1 PUSH1 0xC0 ADD PUSH1 0x40 MSTORE DUP1 CALLER PUSH20 0xFFFFFFFFFFFFFFFFFFFFFFFFFFFFFFFFFFFFFFFF AND DUP2 MSTORE PUSH1 0x20 ADD DUP4 PUSH20 0xFFFFFFFFFFFFFFFFFFFFFFFFFFFFFFFFFFFFFFFF AND DUP2 MSTORE PUSH1 0x20 ADD CALLVALUE DUP2 MSTORE PUSH1 0x20 ADD DUP3 PUSH2 0xFFFF AND DUP2 MSTORE PUSH1 0x20 ADD TIMESTAMP DUP2 MSTORE PUSH1 0x20 ADD PUSH1 0x1 PUSH1 0x4 DUP2 GT ISZERO PUSH2 0xCCF JUMPI PUSH2 0xCCE PUSH2 0x1B39 JUMP JUMPDEST JUMPDEST DUP2 MSTORE POP PUSH0 PUSH0 DUP6 PUSH16 0xFFFFFFFFFFFFFFFFFFFFFFFFFFFFFFFF NOT AND PUSH16 0xFFFFFFFFFFFFFFFFFFFFFFFFFFFFFFFF NOT AND DUP2 MSTORE PUSH1 0x20 ADD SWAP1 DUP2 MSTORE PUSH1 0x20 ADD PUSH0 KECCAK256 PUSH0 DUP3 ADD MLOAD DUP2 PUSH0 ADD PUSH0 PUSH2 0x100 EXP DUP2 SLOAD DUP2 PUSH20 0xFFFFFFFFFFFFFFFFFFFFFFFFFFFFFFFFFFFFFFFF MUL NOT AND SWAP1 DUP4 PUSH20 0xFFFFFFFFFFFFFFFFFFFFFFFFFFFFFFFFFFFFFFFF AND MUL OR SWAP1 SSTORE POP PUSH1 0x20 DUP3 ADD MLOAD DUP2 PUSH1 0x1 ADD PUSH0 PUSH2 0x100 EXP DUP2 SLOAD DUP2 PUSH20 0xFFFFFFFFFFFFFFFFFFFFFFFFFFFFFFFFFFFFFFFF MUL NOT AND SWAP1 DUP4 PUSH20 0xFFFFFFFFFFFFFFFFFFFFFFFFFFFFFFFFFFFFFFFF AND MUL OR SWAP1 SSTORE POP PUSH1 0x40 DUP3 ADD MLOAD DUP2 PUSH1 0x2 ADD SSTORE PUSH1 0x60 DUP3 ADD MLOAD DUP2 PUSH1 0x3 ADD PUSH0 PUSH2 0x100 EXP DUP2 SLOAD DUP2 PUSH2 0xFFFF MUL NOT AND SWAP1 DUP4 PUSH2 0xFFFF AND MUL OR SWAP1 SSTORE POP PUSH1 0x80 DUP3 ADD MLOAD DUP2 PUSH1 0x4 ADD SSTORE PUSH1 0xA0 DUP3 ADD MLOAD DUP2 PUSH1 0x5 ADD PUSH0 PUSH2 0x100 EXP DUP2 SLOAD DUP2 PUSH1 0xFF MUL NOT AND SWAP1 DUP4 PUSH1 0x4 DUP2 GT ISZERO PUSH2 0xDF2 JUMPI PUSH2 0xDF1 PUSH2 0x1B39 JUMP JUMPDEST JUMPDEST MUL OR SWAP1 SSTORE POP SWAP1 POP POP DUP2 PUSH20 0xFFFFFFFFFFFFFFFFFFFFFFFFFFFFFFFFFFFFFFFF AND CALLER PUSH20 0xFFFFFFFFFFFFFFFFFFFFFFFFFFFFFFFFFFFFFFFF AND DUP5 PUSH16 0xFFFFFFFFFFFFFFFFFFFFFFFFFFFFFFFF NOT AND PUSH32 0x14A657CAF142C33A17CA3679B94EAE3A656328AC085D3CEBD578DEE6AB96E1B8 CALLVALUE DUP6 PUSH1 0x40 MLOAD PUSH2 0xE6D SWAP3 SWAP2 SWAP1 PUSH2 0x223A JUMP JUMPDEST PUSH1 0x40 MLOAD DUP1 SWAP2 SUB SWAP1 LOG4 PUSH2 0xE7D PUSH2 0x1620 JUMP JUMPDEST POP POP POP JUMP JUMPDEST PUSH0 PUSH1 0x20 MSTORE DUP1 PUSH0 MSTORE PUSH1 0x40 PUSH0 KECCAK256 PUSH0 SWAP2 POP SWAP1 POP DUP1 PUSH0 ADD PUSH0 SWAP1 SLOAD SWAP1 PUSH2 0x100 EXP SWAP1 DIV PUSH20 0xFFFFFFFFFFFFFFFFFFFFFFFFFFFFFFFFFFFFFFFF AND SWAP1 DUP1 PUSH1 0x1 ADD PUSH0 SWAP1 SLOAD SWAP1 PUSH2 0x100 EXP SWAP1 DIV PUSH20 0xFFFFFFFFFFFFFFFFFFFFFFFFFFFFFFFFFFFFFFFF AND SWAP1 DUP1 PUSH1 0x2 ADD SLOAD SWAP1 DUP1 PUSH1 0x3 ADD PUSH0 SWAP1 SLOAD SWAP1 PUSH2 0x100 EXP SWAP1 DIV PUSH2 0xFFFF AND SWAP1 DUP1 PUSH1 0x4 ADD SLOAD SWAP1 DUP1 PUSH1 0x5 ADD PUSH0 SWAP1 SLOAD SWAP1 PUSH2 0x100 EXP SWAP1 DIV PUSH1 0xFF AND SWAP1 POP DUP7 JUMP JUMPDEST PUSH0 PUSH2 0xF19 PUSH2 0x17B6 JUMP JUMPDEST SWAP1 POP PUSH0 DUP2 PUSH0 ADD PUSH1 0x8 SWAP1 SLOAD SWAP1 PUSH2 0x100 EXP SWAP1 DIV PUSH1 0xFF AND ISZERO SWAP1 POP PUSH0 DUP3 PUSH0 ADD PUSH0 SWAP1 SLOAD SWAP1 PUSH2 0x100 EXP SWAP1 DIV PUSH8 0xFFFFFFFFFFFFFFFF AND SWAP1 POP PUSH0 PUSH0 DUP3 PUSH8 0xFFFFFFFFFFFFFFFF AND EQ DUP1 ISZERO PUSH2 0xF61 JUMPI POP DUP3 JUMPDEST SWAP1 POP PUSH0 PUSH1 0x1 DUP4 PUSH8 0xFFFFFFFFFFFFFFFF AND EQ DUP1 ISZERO PUSH2 0xF94 JUMPI POP PUSH0 ADDRESS PUSH20 0xFFFFFFFFFFFFFFFFFFFFFFFFFFFFFFFFFFFFFFFF AND EXTCODESIZE EQ JUMPDEST SWAP1 POP DUP2 ISZERO DUP1 ISZERO PUSH2 0xFA2 JUMPI POP DUP1 ISZERO JUMPDEST ISZERO PUSH2 0xFD9 JUMPI PUSH1 0x40 MLOAD PUSH32 0xF92EE8A900000000000000000000000000000000000000000000000000000000 DUP2 MSTORE PUSH1 0x4 ADD PUSH1 0x40 MLOAD DUP1 SWAP2 SUB SWAP1 REVERT JUMPDEST PUSH1 0x1 DUP6 PUSH0 ADD PUSH0 PUSH2 0x100 EXP DUP2 SLOAD DUP2 PUSH8 0xFFFFFFFFFFFFFFFF MUL NOT AND SWAP1 DUP4 PUSH8 0xFFFFFFFFFFFFFFFF AND MUL OR SWAP1 SSTORE POP DUP4 ISZERO PUSH2 0x1026 JUMPI PUSH1 0x1 DUP6 PUSH0 ADD PUSH1 0x8 PUSH2 0x100 EXP DUP2 SLOAD DUP2 PUSH1 0xFF MUL NOT AND SWAP1 DUP4 ISZERO ISZERO MUL OR SWAP1 SSTORE POP JUMPDEST PUSH2 0x102F CALLER PUSH2 0x17C9 JUMP JUMPDEST PUSH2 0x1037 PUSH2 0x17DD JUMP JUMPDEST PUSH2 0x3E8 DUP8 PUSH2 0xFFFF AND GT ISZERO PUSH2 0x1080 JUMPI PUSH1 0x40 MLOAD PUSH32 0x8C379A000000000000000000000000000000000000000000000000000000000 DUP2 MSTORE PUSH1 0x4 ADD PUSH2 0x1077 SWAP1 PUSH2 0x22AB JUMP JUMPDEST PUSH1 0x40 MLOAD DUP1 SWAP2 SUB SWAP1 REVERT JUMPDEST PUSH2 0xE10 DUP7 PUSH3 0xFFFFFF AND LT ISZERO PUSH2 0x10CA JUMPI PUSH1 0x40 MLOAD PUSH32 0x8C379A000000000000000000000000000000000000000000000000000000000 DUP2 MSTORE PUSH1 0x4 ADD PUSH2 0x10C1 SWAP1 PUSH2 0x2313 JUMP JUMPDEST PUSH1 0x40 MLOAD DUP1 SWAP2 SUB SWAP1 REVERT JUMPDEST PUSH3 0x93A80 DUP7 PUSH3 0xFFFFFF AND GT ISZERO PUSH2 0x1115 JUMPI PUSH1 0x40 MLOAD PUSH32 0x8C379A000000000000000000000000000000000000000000000000000000000 DUP2 MSTORE PUSH1 0x4 ADD PUSH2 0x110C SWAP1 PUSH2 0x237B JUMP JUMPDEST PUSH1 0x40 MLOAD DUP1 SWAP2 SUB SWAP1 REVERT JUMPDEST DUP8 PUSH1 0x1 PUSH0 PUSH2 0x100 EXP DUP2 SLOAD DUP2 PUSH20 0xFFFFFFFFFFFFFFFFFFFFFFFFFFFFFFFFFFFFFFFF MUL NOT AND SWAP1 DUP4 PUSH20 0xFFFFFFFFFFFFFFFFFFFFFFFFFFFFFFFFFFFFFFFF AND MUL OR SWAP1 SSTORE POP DUP7 PUSH1 0x1 PUSH1 0x14 PUSH2 0x100 EXP DUP2 SLOAD DUP2 PUSH2 0xFFFF MUL NOT AND SWAP1 DUP4 PUSH2 0xFFFF AND MUL OR SWAP1 SSTORE POP DUP6 PUSH1 0x1 PUSH1 0x16 PUSH2 0x100 EXP DUP2 SLOAD DUP2 PUSH3 0xFFFFFF MUL NOT AND SWAP1 DUP4 PUSH3 0xFFFFFF AND MUL OR SWAP1 SSTORE POP PUSH0 PUSH1 0x1 PUSH1 0x19 PUSH2 0x100 EXP DUP2 SLOAD DUP2 PUSH1 0xFF MUL NOT AND SWAP1 DUP4 PUSH1 0x1 DUP2 GT ISZERO PUSH2 0x11B6 JUMPI PUSH2 0x11B5 PUSH2 0x1B39 JUMP JUMPDEST JUMPDEST MUL OR SWAP1 SSTORE POP DUP4 ISZERO PUSH2 0x1215 JUMPI PUSH0 DUP6 PUSH0 ADD PUSH1 0x8 PUSH2 0x100 EXP DUP2 SLOAD DUP2 PUSH1 0xFF MUL NOT AND SWAP1 DUP4 ISZERO ISZERO MUL OR SWAP1 SSTORE POP PUSH32 0xC7F505B2F371AE2175EE4913F4499E1F2633A7B5936321EED1CDAEB6115181D2 PUSH1 0x1 PUSH1 0x40 MLOAD PUSH2 0x120C SWAP2 SWAP1 PUSH2 0x23EE JUMP JUMPDEST PUSH1 0x40 MLOAD DUP1 SWAP2 SUB SWAP1 LOG1 JUMPDEST POP POP POP POP POP POP POP POP JUMP JUMPDEST PUSH1 0x1 PUSH0 SWAP1 SLOAD SWAP1 PUSH2 0x100 EXP SWAP1 DIV PUSH20 0xFFFFFFFFFFFFFFFFFFFFFFFFFFFFFFFFFFFFFFFF AND DUP2 JUMP JUMPDEST PUSH2 0x124C PUSH2 0x1637 JUMP JUMPDEST PUSH0 PUSH20 0xFFFFFFFFFFFFFFFFFFFFFFFFFFFFFFFFFFFFFFFF AND DUP2 PUSH20 0xFFFFFFFFFFFFFFFFFFFFFFFFFFFFFFFFFFFFFFFF AND SUB PUSH2 0x12BC JUMPI PUSH0 PUSH1 0x40 MLOAD PUSH32 0x1E4FBDF700000000000000000000000000000000000000000000000000000000 DUP2 MSTORE PUSH1 0x4 ADD PUSH2 0x12B3 SWAP2 SWAP1 PUSH2 0x1C04 JUMP JUMPDEST PUSH1 0x40 MLOAD DUP1 SWAP2 SUB SWAP1 REVERT JUMPDEST PUSH2 0x12C5 DUP2 PUSH2 0x16BE JUMP JUMPDEST POP JUMP JUMPDEST PUSH2 0x12D0 PUSH2 0x1637 JUMP JUMPDEST DUP1 PUSH1 0x1 PUSH1 0x19 PUSH2 0x100 EXP DUP2 SLOAD DUP2 PUSH1 0xFF MUL NOT AND SWAP1 DUP4 PUSH1 0x1 DUP2 GT ISZERO PUSH2 0x12F5 JUMPI PUSH2 0x12F4 PUSH2 0x1B39 JUMP JUMPDEST JUMPDEST MUL OR SWAP1 SSTORE POP PUSH32 0xAB540C1B3DEFD38D975E65AA0E06EEEE132A55DD082BE87B73F505AB57BED48C DUP2 PUSH1 0x40 MLOAD PUSH2 0x1329 SWAP2 SWAP1 PUSH2 0x1BAC JUMP JUMPDEST PUSH1 0x40 MLOAD DUP1 SWAP2 SUB SWAP1 LOG1 POP JUMP JUMPDEST PUSH0 PUSH2 0x133D PUSH2 0x17EF JUMP JUMPDEST SWAP1 POP PUSH1 0x2 DUP2 PUSH0 ADD SLOAD SUB PUSH2 0x137C JUMPI PUSH1 0x40 MLOAD PUSH32 0x3EE5AEB500000000000000000000000000000000000000000000000000000000 DUP2 MSTORE PUSH1 0x4 ADD PUSH1 0x40 MLOAD DUP1 SWAP2 SUB SWAP1 REVERT JUMPDEST PUSH1 0x2 DUP2 PUSH0 ADD DUP2 SWAP1 SSTORE POP POP JUMP JUMPDEST PUSH0 PUSH0 PUSH0 DUP4 PUSH16 0xFFFFFFFFFFFFFFFFFFFFFFFFFFFFFFFF NOT AND PUSH16 0xFFFFFFFFFFFFFFFFFFFFFFFFFFFFFFFF NOT AND DUP2 MSTORE PUSH1 0x20 ADD SWAP1 DUP2 MSTORE PUSH1 0x20 ADD PUSH0 KECCAK256 SWAP1 POP PUSH1 0x1 PUSH1 0x4 DUP2 GT ISZERO PUSH2 0x13D5 JUMPI PUSH2 0x13D4 PUSH2 0x1B39 JUMP JUMPDEST JUMPDEST DUP2 PUSH1 0x5 ADD PUSH0 SWAP1 SLOAD SWAP1 PUSH2 0x100 EXP SWAP1 DIV PUSH1 0xFF AND PUSH1 0x4 DUP2 GT ISZERO PUSH2 0x13F8 JUMPI PUSH2 0x13F7 PUSH2 0x1B39 JUMP JUMPDEST JUMPDEST EQ DUP1 PUSH2 0x1438 JUMPI POP PUSH1 0x3 PUSH1 0x4 DUP2 GT ISZERO PUSH2 0x1413 JUMPI PUSH2 0x1412 PUSH2 0x1B39 JUMP JUMPDEST JUMPDEST DUP2 PUSH1 0x5 ADD PUSH0 SWAP1 SLOAD SWAP1 PUSH2 0x100 EXP SWAP1 DIV PUSH1 0xFF AND PUSH1 0x4 DUP2 GT ISZERO PUSH2 0x1436 JUMPI PUSH2 0x1435 PUSH2 0x1B39 JUMP JUMPDEST JUMPDEST EQ JUMPDEST PUSH2 0x1477 JUMPI PUSH1 0x40 MLOAD PUSH32 0x8C379A000000000000000000000000000000000000000000000000000000000 DUP2 MSTORE PUSH1 0x4 ADD PUSH2 0x146E SWAP1 PUSH2 0x1F9B JUMP JUMPDEST PUSH1 0x40 MLOAD DUP1 SWAP2 SUB SWAP1 REVERT JUMPDEST PUSH1 0x2 DUP2 PUSH1 0x5 ADD PUSH0 PUSH2 0x100 EXP DUP2 SLOAD DUP2 PUSH1 0xFF MUL NOT AND SWAP1 DUP4 PUSH1 0x4 DUP2 GT ISZERO PUSH2 0x149E JUMPI PUSH2 0x149D PUSH2 0x1B39 JUMP JUMPDEST JUMPDEST MUL OR SWAP1 SSTORE POP PUSH0 PUSH0 PUSH2 0x14C4 DUP4 PUSH1 0x2 ADD SLOAD DUP5 PUSH1 0x3 ADD PUSH0 SWAP1 SLOAD SWAP1 PUSH2 0x100 EXP SWAP1 DIV PUSH2 0xFFFF AND PUSH2 0x1816 JUMP JUMPDEST SWAP3 POP SWAP3 POP POP PUSH1 0x1 PUSH0 SWAP1 SLOAD SWAP1 PUSH2 0x100 EXP SWAP1 DIV PUSH20 0xFFFFFFFFFFFFFFFFFFFFFFFFFFFFFFFFFFFFFFFF AND PUSH20 0xFFFFFFFFFFFFFFFFFFFFFFFFFFFFFFFFFFFFFFFF AND PUSH2 0x8FC DUP4 SWAP1 DUP2 ISZERO MUL SWAP1 PUSH1 0x40 MLOAD PUSH0 PUSH1 0x40 MLOAD DUP1 DUP4 SUB DUP2 DUP6 DUP9 DUP9 CALL SWAP4 POP POP POP POP ISZERO DUP1 ISZERO PUSH2 0x152D JUMPI RETURNDATASIZE PUSH0 PUSH0 RETURNDATACOPY RETURNDATASIZE PUSH0 REVERT JUMPDEST POP DUP3 PUSH1 0x1 ADD PUSH0 SWAP1 SLOAD SWAP1 PUSH2 0x100 EXP SWAP1 DIV PUSH20 0xFFFFFFFFFFFFFFFFFFFFFFFFFFFFFFFFFFFFFFFF AND PUSH20 0xFFFFFFFFFFFFFFFFFFFFFFFFFFFFFFFFFFFFFFFF AND PUSH2 0x8FC DUP3 SWAP1 DUP2 ISZERO MUL SWAP1 PUSH1 0x40 MLOAD PUSH0 PUSH1 0x40 MLOAD DUP1 DUP4 SUB DUP2 DUP6 DUP9 DUP9 CALL SWAP4 POP POP POP POP ISZERO DUP1 ISZERO PUSH2 0x1594 JUMPI RETURNDATASIZE PUSH0 PUSH0 RETURNDATACOPY RETURNDATASIZE PUSH0 REVERT JUMPDEST POP DUP3 PUSH1 0x1 ADD PUSH0 SWAP1 SLOAD SWAP1 PUSH2 0x100 EXP SWAP1 DIV PUSH20 0xFFFFFFFFFFFFFFFFFFFFFFFFFFFFFFFFFFFFFFFF AND PUSH20 0xFFFFFFFFFFFFFFFFFFFFFFFFFFFFFFFFFFFFFFFF AND DUP5 PUSH16 0xFFFFFFFFFFFFFFFFFFFFFFFFFFFFFFFF NOT AND PUSH32 0xE60F924809AD7A86A6789604BDD4B0E09D0F5585DDE8E7290B4A37759CA77D0B DUP4 PUSH1 0x40 MLOAD PUSH2 0x1612 SWAP2 SWAP1 PUSH2 0x2021 JUMP JUMPDEST PUSH1 0x40 MLOAD DUP1 SWAP2 SUB SWAP1 LOG3 POP POP POP POP JUMP JUMPDEST PUSH0 PUSH2 0x1629 PUSH2 0x17EF JUMP JUMPDEST SWAP1 POP PUSH1 0x1 DUP2 PUSH0 ADD DUP2 SWAP1 SSTORE POP POP JUMP JUMPDEST PUSH2 0x163F PUSH2 0x18A6 JUMP JUMPDEST PUSH20 0xFFFFFFFFFFFFFFFFFFFFFFFFFFFFFFFFFFFFFFFF AND PUSH2 0x165D PUSH2 0x98E JUMP JUMPDEST PUSH20 0xFFFFFFFFFFFFFFFFFFFFFFFFFFFFFFFFFFFFFFFF AND EQ PUSH2 0x16BC JUMPI PUSH2 0x1680 PUSH2 0x18A6 JUMP JUMPDEST PUSH1 0x40 MLOAD PUSH32 0x118CDAA700000000000000000000000000000000000000000000000000000000 DUP2 MSTORE PUSH1 0x4 ADD PUSH2 0x16B3 SWAP2 SWAP1 PUSH2 0x1C04 JUMP JUMPDEST PUSH1 0x40 MLOAD DUP1 SWAP2 SUB SWAP1 REVERT JUMPDEST JUMP JUMPDEST PUSH0 PUSH2 0x16C7 PUSH2 0x178F JUMP JUMPDEST SWAP1 POP PUSH0 DUP2 PUSH0 ADD PUSH0 SWAP1 SLOAD SWAP1 PUSH2 0x100 EXP SWAP1 DIV PUSH20 0xFFFFFFFFFFFFFFFFFFFFFFFFFFFFFFFFFFFFFFFF AND SWAP1 POP DUP3 DUP3 PUSH0 ADD PUSH0 PUSH2 0x100 EXP DUP2 SLOAD DUP2 PUSH20 0xFFFFFFFFFFFFFFFFFFFFFFFFFFFFFFFFFFFFFFFF MUL NOT AND SWAP1 DUP4 PUSH20 0xFFFFFFFFFFFFFFFFFFFFFFFFFFFFFFFFFFFFFFFF AND MUL OR SWAP1 SSTORE POP DUP3 PUSH20 0xFFFFFFFFFFFFFFFFFFFFFFFFFFFFFFFFFFFFFFFF AND DUP2 PUSH20 0xFFFFFFFFFFFFFFFFFFFFFFFFFFFFFFFFFFFFFFFF AND PUSH32 0x8BE0079C531659141344CD1FD0A4F28419497F9722A3DAAFE3B4186F6B6457E0 PUSH1 0x40 MLOAD PUSH1 0x40 MLOAD DUP1 SWAP2 SUB SWAP1 LOG3 POP POP POP JUMP JUMPDEST PUSH0 PUSH32 0x9016D09D72D40FDAE2FD8CEAC6B6234C7706214FD39C1CD1E609A0528C199300 SWAP1 POP SWAP1 JUMP JUMPDEST PUSH0 PUSH0 PUSH2 0x17C0 PUSH2 0x18AD JUMP JUMPDEST SWAP1 POP DUP1 SWAP2 POP POP SWAP1 JUMP JUMPDEST PUSH2 0x17D1 PUSH2 0x18D6 JUMP JUMPDEST PUSH2 0x17DA DUP2 PUSH2 0x1916 JUMP JUMPDEST POP JUMP JUMPDEST PUSH2 0x17E5 PUSH2 0x18D6 JUMP JUMPDEST PUSH2 0x17ED PUSH2 0x199A JUMP JUMPDEST JUMP JUMPDEST PUSH0 PUSH32 0x9B779B17422D0DF92223018B32B4D1FA46E071723D6817E2486D003BECC55F00 SWAP1 POP SWAP1 JUMP JUMPDEST PUSH0 PUSH0 PUSH0 DUP4 PUSH2 0x2710 PUSH2 0x1827 SWAP2 SWAP1 PUSH2 0x2407 JUMP JUMPDEST PUSH2 0xFFFF AND DUP5 PUSH2 0xFFFF AND DUP7 PUSH2 0x183B SWAP2 SWAP1 PUSH2 0x243C JUMP JUMPDEST PUSH2 0x1845 SWAP2 SWAP1 PUSH2 0x24AA JUMP JUMPDEST SWAP3 POP PUSH0 DUP4 DUP7 PUSH2 0x1854 SWAP2 SWAP1 PUSH2 0x24DA JUMP JUMPDEST SWAP1 POP PUSH2 0x2710 PUSH1 0x1 PUSH1 0x14 SWAP1 SLOAD SWAP1 PUSH2 0x100 EXP SWAP1 DIV PUSH2 0xFFFF AND PUSH2 0xFFFF AND DUP3 PUSH2 0x1879 SWAP2 SWAP1 PUSH2 0x243C JUMP JUMPDEST PUSH2 0x1883 SWAP2 SWAP1 PUSH2 0x24AA JUMP JUMPDEST SWAP3 POP DUP4 DUP4 DUP3 PUSH2 0x1892 SWAP2 SWAP1 PUSH2 0x24DA JUMP JUMPDEST PUSH2 0x189C SWAP2 SWAP1 PUSH2 0x20CF JUMP JUMPDEST SWAP2 POP POP SWAP3 POP SWAP3 POP SWAP3 JUMP JUMPDEST PUSH0 CALLER SWAP1 POP SWAP1 JUMP JUMPDEST PUSH0 PUSH32 0xF0C57E16840DF040F15088DC2F81FE391C3923BEC73E23A9662EFC9C229C6A00 PUSH0 SHL SWAP1 POP SWAP1 JUMP JUMPDEST PUSH2 0x18DE PUSH2 0x19B9 JUMP JUMPDEST PUSH2 0x1914 JUMPI PUSH1 0x40 MLOAD PUSH32 0xD7E6BCF800000000000000000000000000000000000000000000000000000000 DUP2 MSTORE PUSH1 0x4 ADD PUSH1 0x40 MLOAD DUP1 SWAP2 SUB SWAP1 REVERT JUMPDEST JUMP JUMPDEST PUSH2 0x191E PUSH2 0x18D6 JUMP JUMPDEST PUSH0 PUSH20 0xFFFFFFFFFFFFFFFFFFFFFFFFFFFFFFFFFFFFFFFF AND DUP2 PUSH20 0xFFFFFFFFFFFFFFFFFFFFFFFFFFFFFFFFFFFFFFFF AND SUB PUSH2 0x198E JUMPI PUSH0 PUSH1 0x40 MLOAD PUSH32 0x1E4FBDF700000000000000000000000000000000000000000000000000000000 DUP2 MSTORE PUSH1 0x4 ADD PUSH2 0x1985 SWAP2 SWAP1 PUSH2 0x1C04 JUMP JUMPDEST PUSH1 0x40 MLOAD DUP1 SWAP2 SUB SWAP1 REVERT JUMPDEST PUSH2 0x1997 DUP2 PUSH2 0x16BE JUMP JUMPDEST POP JUMP JUMPDEST PUSH2 0x19A2 PUSH2 0x18D6 JUMP JUMPDEST PUSH0 PUSH2 0x19AB PUSH2 0x17EF JUMP JUMPDEST SWAP1 POP PUSH1 0x1 DUP2 PUSH0 ADD DUP2 SWAP1 SSTORE POP POP JUMP JUMPDEST PUSH0 PUSH2 0x19C2 PUSH2 0x17B6 JUMP JUMPDEST PUSH0 ADD PUSH1 0x8 SWAP1 SLOAD SWAP1 PUSH2 0x100 EXP SWAP1 DIV PUSH1 0xFF AND SWAP1 POP SWAP1 JUMP JUMPDEST PUSH0 PUSH0 REVERT JUMPDEST PUSH0 PUSH32 0xFFFFFFFFFFFFFFFFFFFFFFFFFFFFFFFF00000000000000000000000000000000 DUP3 AND SWAP1 POP SWAP2 SWAP1 POP JUMP JUMPDEST PUSH2 0x1A0F DUP2 PUSH2 0x19DB JUMP JUMPDEST DUP2 EQ PUSH2 0x1A19 JUMPI PUSH0 PUSH0 REVERT JUMPDEST POP JUMP JUMPDEST PUSH0 DUP2 CALLDATALOAD SWAP1 POP PUSH2 0x1A2A DUP2 PUSH2 0x1A06 JUMP JUMPDEST SWAP3 SWAP2 POP POP JUMP JUMPDEST PUSH0 PUSH1 0x20 DUP3 DUP5 SUB SLT ISZERO PUSH2 0x1A45 JUMPI PUSH2 0x1A44 PUSH2 0x19D7 JUMP JUMPDEST JUMPDEST PUSH0 PUSH2 0x1A52 DUP5 DUP3 DUP6 ADD PUSH2 0x1A1C JUMP JUMPDEST SWAP2 POP POP SWAP3 SWAP2 POP POP JUMP JUMPDEST PUSH0 PUSH2 0xFFFF DUP3 AND SWAP1 POP SWAP2 SWAP1 POP JUMP JUMPDEST PUSH2 0x1A71 DUP2 PUSH2 0x1A5B JUMP JUMPDEST DUP3 MSTORE POP POP JUMP JUMPDEST PUSH0 PUSH1 0x20 DUP3 ADD SWAP1 POP PUSH2 0x1A8A PUSH0 DUP4 ADD DUP5 PUSH2 0x1A68 JUMP JUMPDEST SWAP3 SWAP2 POP POP JUMP JUMPDEST PUSH0 DUP2 ISZERO ISZERO SWAP1 POP SWAP2 SWAP1 POP JUMP JUMPDEST PUSH2 0x1AA4 DUP2 PUSH2 0x1A90 JUMP JUMPDEST DUP2 EQ PUSH2 0x1AAE JUMPI PUSH0 PUSH0 REVERT JUMPDEST POP JUMP JUMPDEST PUSH0 DUP2 CALLDATALOAD SWAP1 POP PUSH2 0x1ABF DUP2 PUSH2 0x1A9B JUMP JUMPDEST SWAP3 SWAP2 POP POP JUMP JUMPDEST PUSH0 PUSH0 PUSH1 0x40 DUP4 DUP6 SUB SLT ISZERO PUSH2 0x1ADB JUMPI PUSH2 0x1ADA PUSH2 0x19D7 JUMP JUMPDEST JUMPDEST PUSH0 PUSH2 0x1AE8 DUP6 DUP3 DUP7 ADD PUSH2 0x1A1C JUMP JUMPDEST SWAP3 POP POP PUSH1 0x20 PUSH2 0x1AF9 DUP6 DUP3 DUP7 ADD PUSH2 0x1AB1 JUMP JUMPDEST SWAP2 POP POP SWAP3 POP SWAP3 SWAP1 POP JUMP JUMPDEST PUSH0 PUSH3 0xFFFFFF DUP3 AND SWAP1 POP SWAP2 SWAP1 POP JUMP JUMPDEST PUSH2 0x1B1A DUP2 PUSH2 0x1B03 JUMP JUMPDEST DUP3 MSTORE POP POP JUMP JUMPDEST PUSH0 PUSH1 0x20 DUP3 ADD SWAP1 POP PUSH2 0x1B33 PUSH0 DUP4 ADD DUP5 PUSH2 0x1B11 JUMP JUMPDEST SWAP3 SWAP2 POP POP JUMP JUMPDEST PUSH32 0x4E487B7100000000000000000000000000000000000000000000000000000000 PUSH0 MSTORE PUSH1 0x21 PUSH1 0x4 MSTORE PUSH1 0x24 PUSH0 REVERT JUMPDEST PUSH1 0x2 DUP2 LT PUSH2 0x1B77 JUMPI PUSH2 0x1B76 PUSH2 0x1B39 JUMP JUMPDEST JUMPDEST POP JUMP JUMPDEST PUSH0 DUP2 SWAP1 POP PUSH2 0x1B87 DUP3 PUSH2 0x1B66 JUMP JUMPDEST SWAP2 SWAP1 POP JUMP JUMPDEST PUSH0 PUSH2 0x1B96 DUP3 PUSH2 0x1B7A JUMP JUMPDEST SWAP1 POP SWAP2 SWAP1 POP JUMP JUMPDEST PUSH2 0x1BA6 DUP2 PUSH2 0x1B8C JUMP JUMPDEST DUP3 MSTORE POP POP JUMP JUMPDEST PUSH0 PUSH1 0x20 DUP3 ADD SWAP1 POP PUSH2 0x1BBF PUSH0 DUP4 ADD DUP5 PUSH2 0x1B9D JUMP JUMPDEST SWAP3 SWAP2 POP POP JUMP JUMPDEST PUSH0 PUSH20 0xFFFFFFFFFFFFFFFFFFFFFFFFFFFFFFFFFFFFFFFF DUP3 AND SWAP1 POP SWAP2 SWAP1 POP JUMP JUMPDEST PUSH0 PUSH2 0x1BEE DUP3 PUSH2 0x1BC5 JUMP JUMPDEST SWAP1 POP SWAP2 SWAP1 POP JUMP JUMPDEST PUSH2 0x1BFE DUP2 PUSH2 0x1BE4 JUMP JUMPDEST DUP3 MSTORE POP POP JUMP JUMPDEST PUSH0 PUSH1 0x20 DUP3 ADD SWAP1 POP PUSH2 0x1C17 PUSH0 DUP4 ADD DUP5 PUSH2 0x1BF5 JUMP JUMPDEST SWAP3 SWAP2 POP POP JUMP JUMPDEST PUSH2 0x1C26 DUP2 PUSH2 0x1BE4 JUMP JUMPDEST DUP2 EQ PUSH2 0x1C30 JUMPI PUSH0 PUSH0 REVERT JUMPDEST POP JUMP JUMPDEST PUSH0 DUP2 CALLDATALOAD SWAP1 POP PUSH2 0x1C41 DUP2 PUSH2 0x1C1D JUMP JUMPDEST SWAP3 SWAP2 POP POP JUMP JUMPDEST PUSH2 0x1C50 DUP2 PUSH2 0x1A5B JUMP JUMPDEST DUP2 EQ PUSH2 0x1C5A JUMPI PUSH0 PUSH0 REVERT JUMPDEST POP JUMP JUMPDEST PUSH0 DUP2 CALLDATALOAD SWAP1 POP PUSH2 0x1C6B DUP2 PUSH2 0x1C47 JUMP JUMPDEST SWAP3 SWAP2 POP POP JUMP JUMPDEST PUSH0 PUSH0 PUSH0 PUSH1 0x60 DUP5 DUP7 SUB SLT ISZERO PUSH2 0x1C88 JUMPI PUSH2 0x1C87 PUSH2 0x19D7 JUMP JUMPDEST JUMPDEST PUSH0 PUSH2 0x1C95 DUP7 DUP3 DUP8 ADD PUSH2 0x1A1C JUMP JUMPDEST SWAP4 POP POP PUSH1 0x20 PUSH2 0x1CA6 DUP7 DUP3 DUP8 ADD PUSH2 0x1C33 JUMP JUMPDEST SWAP3 POP POP PUSH1 0x40 PUSH2 0x1CB7 DUP7 DUP3 DUP8 ADD PUSH2 0x1C5D JUMP JUMPDEST SWAP2 POP POP SWAP3 POP SWAP3 POP SWAP3 JUMP JUMPDEST PUSH0 DUP2 SWAP1 POP SWAP2 SWAP1 POP JUMP JUMPDEST PUSH2 0x1CD3 DUP2 PUSH2 0x1CC1 JUMP JUMPDEST DUP3 MSTORE POP POP JUMP JUMPDEST PUSH1 0x5 DUP2 LT PUSH2 0x1CEA JUMPI PUSH2 0x1CE9 PUSH2 0x1B39 JUMP JUMPDEST JUMPDEST POP JUMP JUMPDEST PUSH0 DUP2 SWAP1 POP PUSH2 0x1CFA DUP3 PUSH2 0x1CD9 JUMP JUMPDEST SWAP2 SWAP1 POP JUMP JUMPDEST PUSH0 PUSH2 0x1D09 DUP3 PUSH2 0x1CED JUMP JUMPDEST SWAP1 POP SWAP2 SWAP1 POP JUMP JUMPDEST PUSH2 0x1D19 DUP2 PUSH2 0x1CFF JUMP JUMPDEST DUP3 MSTORE POP POP JUMP JUMPDEST PUSH0 PUSH1 0xC0 DUP3 ADD SWAP1 POP PUSH2 0x1D32 PUSH0 DUP4 ADD DUP10 PUSH2 0x1BF5 JUMP JUMPDEST PUSH2 0x1D3F PUSH1 0x20 DUP4 ADD DUP9 PUSH2 0x1BF5 JUMP JUMPDEST PUSH2 0x1D4C PUSH1 0x40 DUP4 ADD DUP8 PUSH2 0x1CCA JUMP JUMPDEST PUSH2 0x1D59 PUSH1 0x60 DUP4 ADD DUP7 PUSH2 0x1A68 JUMP JUMPDEST PUSH2 0x1D66 PUSH1 0x80 DUP4 ADD DUP6 PUSH2 0x1CCA JUMP JUMPDEST PUSH2 0x1D73 PUSH1 0xA0 DUP4 ADD DUP5 PUSH2 0x1D10 JUMP JUMPDEST SWAP8 SWAP7 POP POP POP POP POP POP POP JUMP JUMPDEST PUSH2 0x1D87 DUP2 PUSH2 0x1B03 JUMP JUMPDEST DUP2 EQ PUSH2 0x1D91 JUMPI PUSH0 PUSH0 REVERT JUMPDEST POP JUMP JUMPDEST PUSH0 DUP2 CALLDATALOAD SWAP1 POP PUSH2 0x1DA2 DUP2 PUSH2 0x1D7E JUMP JUMPDEST SWAP3 SWAP2 POP POP JUMP JUMPDEST PUSH0 PUSH0 PUSH0 PUSH1 0x60 DUP5 DUP7 SUB SLT ISZERO PUSH2 0x1DBF JUMPI PUSH2 0x1DBE PUSH2 0x19D7 JUMP JUMPDEST JUMPDEST PUSH0 PUSH2 0x1DCC DUP7 DUP3 DUP8 ADD PUSH2 0x1C33 JUMP JUMPDEST SWAP4 POP POP PUSH1 0x20 PUSH2 0x1DDD DUP7 DUP3 DUP8 ADD PUSH2 0x1C5D JUMP JUMPDEST SWAP3 POP POP PUSH1 0x40 PUSH2 0x1DEE DUP7 DUP3 DUP8 ADD PUSH2 0x1D94 JUMP JUMPDEST SWAP2 POP POP SWAP3 POP SWAP3 POP SWAP3 JUMP JUMPDEST PUSH0 PUSH1 0x20 DUP3 DUP5 SUB SLT ISZERO PUSH2 0x1E0D JUMPI PUSH2 0x1E0C PUSH2 0x19D7 JUMP JUMPDEST JUMPDEST PUSH0 PUSH2 0x1E1A DUP5 DUP3 DUP6 ADD PUSH2 0x1C33 JUMP JUMPDEST SWAP2 POP POP SWAP3 SWAP2 POP POP JUMP JUMPDEST PUSH1 0x2 DUP2 LT PUSH2 0x1E2F JUMPI PUSH0 PUSH0 REVERT JUMPDEST POP JUMP JUMPDEST PUSH0 DUP2 CALLDATALOAD SWAP1 POP PUSH2 0x1E40 DUP2 PUSH2 0x1E23 JUMP JUMPDEST SWAP3 SWAP2 POP POP JUMP JUMPDEST PUSH0 PUSH1 0x20 DUP3 DUP5 SUB SLT ISZERO PUSH2 0x1E5B JUMPI PUSH2 0x1E5A PUSH2 0x19D7 JUMP JUMPDEST JUMPDEST PUSH0 PUSH2 0x1E68 DUP5 DUP3 DUP6 ADD PUSH2 0x1E32 JUMP JUMPDEST SWAP2 POP POP SWAP3 SWAP2 POP POP JUMP JUMPDEST PUSH0 DUP3 DUP3 MSTORE PUSH1 0x20 DUP3 ADD SWAP1 POP SWAP3 SWAP2 POP POP JUMP JUMPDEST PUSH32 0x436F6E7472616374206465707265636174656400000000000000000000000000 PUSH0 DUP3 ADD MSTORE POP JUMP JUMPDEST PUSH0 PUSH2 0x1EB5 PUSH1 0x13 DUP4 PUSH2 0x1E71 JUMP JUMPDEST SWAP2 POP PUSH2 0x1EC0 DUP3 PUSH2 0x1E81 JUMP JUMPDEST PUSH1 0x20 DUP3 ADD SWAP1 POP SWAP2 SWAP1 POP JUMP JUMPDEST PUSH0 PUSH1 0x20 DUP3 ADD SWAP1 POP DUP2 DUP2 SUB PUSH0 DUP4 ADD MSTORE PUSH2 0x1EE2 DUP2 PUSH2 0x1EA9 JUMP JUMPDEST SWAP1 POP SWAP2 SWAP1 POP JUMP JUMPDEST PUSH32 0x4E6F742062757965720000000000000000000000000000000000000000000000 PUSH0 DUP3 ADD MSTORE POP JUMP JUMPDEST PUSH0 PUSH2 0x1F1D PUSH1 0x9 DUP4 PUSH2 0x1E71 JUMP JUMPDEST SWAP2 POP PUSH2 0x1F28 DUP3 PUSH2 0x1EE9 JUMP JUMPDEST PUSH1 0x20 DUP3 ADD SWAP1 POP SWAP2 SWAP1 POP JUMP JUMPDEST PUSH0 PUSH1 0x20 DUP3 ADD SWAP1 POP DUP2 DUP2 SUB PUSH0 DUP4 ADD MSTORE PUSH2 0x1F4A DUP2 PUSH2 0x1F11 JUMP JUMPDEST SWAP1 POP SWAP2 SWAP1 POP JUMP JUMPDEST PUSH32 0x43616E6E6F742072656C65617365000000000000000000000000000000000000 PUSH0 DUP3 ADD MSTORE POP JUMP JUMPDEST PUSH0 PUSH2 0x1F85 PUSH1 0xE DUP4 PUSH2 0x1E71 JUMP JUMPDEST SWAP2 POP PUSH2 0x1F90 DUP3 PUSH2 0x1F51 JUMP JUMPDEST PUSH1 0x20 DUP3 ADD SWAP1 POP SWAP2 SWAP1 POP JUMP JUMPDEST PUSH0 PUSH1 0x20 DUP3 ADD SWAP1 POP DUP2 DUP2 SUB PUSH0 DUP4 ADD MSTORE PUSH2 0x1FB2 DUP2 PUSH2 0x1F79 JUMP JUMPDEST SWAP1 POP SWAP2 SWAP1 POP JUMP JUMPDEST PUSH32 0x4E6F206469737075746500000000000000000000000000000000000000000000 PUSH0 DUP3 ADD MSTORE POP JUMP JUMPDEST PUSH0 PUSH2 0x1FED PUSH1 0xA DUP4 PUSH2 0x1E71 JUMP JUMPDEST SWAP2 POP PUSH2 0x1FF8 DUP3 PUSH2 0x1FB9 JUMP JUMPDEST PUSH1 0x20 DUP3 ADD SWAP1 POP SWAP2 SWAP1 POP JUMP JUMPDEST PUSH0 PUSH1 0x20 DUP3 ADD SWAP1 POP DUP2 DUP2 SUB PUSH0 DUP4 ADD MSTORE PUSH2 0x201A DUP2 PUSH2 0x1FE1 JUMP JUMPDEST SWAP1 POP SWAP2 SWAP1 POP JUMP JUMPDEST PUSH0 PUSH1 0x20 DUP3 ADD SWAP1 POP PUSH2 0x2034 PUSH0 DUP4 ADD DUP5 PUSH2 0x1CCA JUMP JUMPDEST SWAP3 SWAP2 POP POP JUMP JUMPDEST PUSH32 0x43616E6E6F742064697370757465000000000000000000000000000000000000 PUSH0 DUP3 ADD MSTORE POP JUMP JUMPDEST PUSH0 PUSH2 0x206E PUSH1 0xE DUP4 PUSH2 0x1E71 JUMP JUMPDEST SWAP2 POP PUSH2 0x2079 DUP3 PUSH2 0x203A JUMP JUMPDEST PUSH1 0x20 DUP3 ADD SWAP1 POP SWAP2 SWAP1 POP JUMP JUMPDEST PUSH0 PUSH1 0x20 DUP3 ADD SWAP1 POP DUP2 DUP2 SUB PUSH0 DUP4 ADD MSTORE PUSH2 0x209B DUP2 PUSH2 0x2062 JUMP JUMPDEST SWAP1 POP SWAP2 SWAP1 POP JUMP JUMPDEST PUSH32 0x4E487B7100000000000000000000000000000000000000000000000000000000 PUSH0 MSTORE PUSH1 0x11 PUSH1 0x4 MSTORE PUSH1 0x24 PUSH0 REVERT JUMPDEST PUSH0 PUSH2 0x20D9 DUP3 PUSH2 0x1CC1 JUMP JUMPDEST SWAP2 POP PUSH2 0x20E4 DUP4 PUSH2 0x1CC1 JUMP JUMPDEST SWAP3 POP DUP3 DUP3 ADD SWAP1 POP DUP1 DUP3 GT ISZERO PUSH2 0x20FC JUMPI PUSH2 0x20FB PUSH2 0x20A2 JUMP JUMPDEST JUMPDEST SWAP3 SWAP2 POP POP JUMP JUMPDEST PUSH32 0x546F6F206561726C790000000000000000000000000000000000000000000000 PUSH0 DUP3 ADD MSTORE POP JUMP JUMPDEST PUSH0 PUSH2 0x2136 PUSH1 0x9 DUP4 PUSH2 0x1E71 JUMP JUMPDEST SWAP2 POP PUSH2 0x2141 DUP3 PUSH2 0x2102 JUMP JUMPDEST PUSH1 0x20 DUP3 ADD SWAP1 POP SWAP2 SWAP1 POP JUMP JUMPDEST PUSH0 PUSH1 0x20 DUP3 ADD SWAP1 POP DUP2 DUP2 SUB PUSH0 DUP4 ADD MSTORE PUSH2 0x2163 DUP2 PUSH2 0x212A JUMP JUMPDEST SWAP1 POP SWAP2 SWAP1 POP JUMP JUMPDEST PUSH32 0x496E76616C696420616D6F756E74000000000000000000000000000000000000 PUSH0 DUP3 ADD MSTORE POP JUMP JUMPDEST PUSH0 PUSH2 0x219E PUSH1 0xE DUP4 PUSH2 0x1E71 JUMP JUMPDEST SWAP2 POP PUSH2 0x21A9 DUP3 PUSH2 0x216A JUMP JUMPDEST PUSH1 0x20 DUP3 ADD SWAP1 POP SWAP2 SWAP1 POP JUMP JUMPDEST PUSH0 PUSH1 0x20 DUP3 ADD SWAP1 POP DUP2 DUP2 SUB PUSH0 DUP4 ADD MSTORE PUSH2 0x21CB DUP2 PUSH2 0x2192 JUMP JUMPDEST SWAP1 POP SWAP2 SWAP1 POP JUMP JUMPDEST PUSH32 0x4F72646572206578697374730000000000000000000000000000000000000000 PUSH0 DUP3 ADD MSTORE POP JUMP JUMPDEST PUSH0 PUSH2 0x2206 PUSH1 0xC DUP4 PUSH2 0x1E71 JUMP JUMPDEST SWAP2 POP PUSH2 0x2211 DUP3 PUSH2 0x21D2 JUMP JUMPDEST PUSH1 0x20 DUP3 ADD SWAP1 POP SWAP2 SWAP1 POP JUMP JUMPDEST PUSH0 PUSH1 0x20 DUP3 ADD SWAP1 POP DUP2 DUP2 SUB PUSH0 DUP4 ADD MSTORE PUSH2 0x2233 DUP2 PUSH2 0x21FA JUMP JUMPDEST SWAP1 POP SWAP2 SWAP1 POP JUMP JUMPDEST PUSH0 PUSH1 0x40 DUP3 ADD SWAP1 POP PUSH2 0x224D PUSH0 DUP4 ADD DUP6 PUSH2 0x1CCA JUMP JUMPDEST PUSH2 0x225A PUSH1 0x20 DUP4 ADD DUP5 PUSH2 0x1A68 JUMP JUMPDEST SWAP4 SWAP3 POP POP POP JUMP JUMPDEST PUSH32 0x46656520746F6F20686967680000000000000000000000000000000000000000 PUSH0 DUP3 ADD MSTORE POP JUMP JUMPDEST PUSH0 PUSH2 0x2295 PUSH1 0xC DUP4 PUSH2 0x1E71 JUMP JUMPDEST SWAP2 POP PUSH2 0x22A0 DUP3 PUSH2 0x2261 JUMP JUMPDEST PUSH1 0x20 DUP3 ADD SWAP1 POP SWAP2 SWAP1 POP JUMP JUMPDEST PUSH0 PUSH1 0x20 DUP3 ADD SWAP1 POP DUP2 DUP2 SUB PUSH0 DUP4 ADD MSTORE PUSH2 0x22C2 DUP2 PUSH2 0x2289 JUMP JUMPDEST SWAP1 POP SWAP2 SWAP1 POP JUMP JUMPDEST PUSH32 0x44656C617920746F6F2073686F72740000000000000000000000000000000000 PUSH0 DUP3 ADD MSTORE POP JUMP JUMPDEST PUSH0 PUSH2 0x22FD PUSH1 0xF DUP4 PUSH2 0x1E71 JUMP JUMPDEST SWAP2 POP PUSH2 0x2308 DUP3 PUSH2 0x22C9 JUMP JUMPDEST PUSH1 0x20 DUP3 ADD SWAP1 POP SWAP2 SWAP1 POP JUMP JUMPDEST PUSH0 PUSH1 0x20 DUP3 ADD SWAP1 POP DUP2 DUP2 SUB PUSH0 DUP4 ADD MSTORE PUSH2 0x232A DUP2 PUSH2 0x22F1 JUMP JUMPDEST SWAP1 POP SWAP2 SWAP1 POP JUMP JUMPDEST PUSH32 0x44656C617920746F6F206C6F6E67000000000000000000000000000000000000 PUSH0 DUP3 ADD MSTORE POP JUMP JUMPDEST PUSH0 PUSH2 0x2365 PUSH1 0xE DUP4 PUSH2 0x1E71 JUMP JUMPDEST SWAP2 POP PUSH2 0x2370 DUP3 PUSH2 0x2331 JUMP JUMPDEST PUSH1 0x20 DUP3 ADD SWAP1 POP SWAP2 SWAP1 POP JUMP JUMPDEST PUSH0 PUSH1 0x20 DUP3 ADD SWAP1 POP DUP2 DUP2 SUB PUSH0 DUP4 ADD MSTORE PUSH2 0x2392 DUP2 PUSH2 0x2359 JUMP JUMPDEST SWAP1 POP SWAP2 SWAP1 POP JUMP JUMPDEST PUSH0 DUP2 SWAP1 POP SWAP2 SWAP1 POP JUMP JUMPDEST PUSH0 PUSH8 0xFFFFFFFFFFFFFFFF DUP3 AND SWAP1 POP SWAP2 SWAP1 POP JUMP JUMPDEST PUSH0 DUP2 SWAP1 POP SWAP2 SWAP1 POP JUMP JUMPDEST PUSH0 PUSH2 0x23D8 PUSH2 0x23D3 PUSH2 0x23CE DUP5 PUSH2 0x2399 JUMP JUMPDEST PUSH2 0x23B5 JUMP JUMPDEST PUSH2 0x23A2 JUMP JUMPDEST SWAP1 POP SWAP2 SWAP1 POP JUMP JUMPDEST PUSH2 0x23E8 DUP2 PUSH2 0x23BE JUMP JUMPDEST DUP3 MSTORE POP POP JUMP JUMPDEST PUSH0 PUSH1 0x20 DUP3 ADD SWAP1 POP PUSH2 0x2401 PUSH0 DUP4 ADD DUP5 PUSH2 0x23DF JUMP JUMPDEST SWAP3 SWAP2 POP POP JUMP JUMPDEST PUSH0 PUSH2 0x2411 DUP3 PUSH2 0x1A5B JUMP JUMPDEST SWAP2 POP PUSH2 0x241C DUP4 PUSH2 0x1A5B JUMP JUMPDEST SWAP3 POP DUP3 DUP3 ADD SWAP1 POP PUSH2 0xFFFF DUP2 GT ISZERO PUSH2 0x2436 JUMPI PUSH2 0x2435 PUSH2 0x20A2 JUMP JUMPDEST JUMPDEST SWAP3 SWAP2 POP POP JUMP JUMPDEST PUSH0 PUSH2 0x2446 DUP3 PUSH2 0x1CC1 JUMP JUMPDEST SWAP2 POP PUSH2 0x2451 DUP4 PUSH2 0x1CC1 JUMP JUMPDEST SWAP3 POP DUP3 DUP3 MUL PUSH2 0x245F DUP2 PUSH2 0x1CC1 JUMP JUMPDEST SWAP2 POP DUP3 DUP3 DIV DUP5 EQ DUP4 ISZERO OR PUSH2 0x2476 JUMPI PUSH2 0x2475 PUSH2 0x20A2 JUMP JUMPDEST JUMPDEST POP SWAP3 SWAP2 POP POP JUMP JUMPDEST PUSH32 0x4E487B7100000000000000000000000000000000000000000000000000000000 PUSH0 MSTORE PUSH1 0x12 PUSH1 0x4 MSTORE PUSH1 0x24 PUSH0 REVERT JUMPDEST PUSH0 PUSH2 0x24B4 DUP3 PUSH2 0x1CC1 JUMP JUMPDEST SWAP2 POP PUSH2 0x24BF DUP4 PUSH2 0x1CC1 JUMP JUMPDEST SWAP3 POP DUP3 PUSH2 0x24CF JUMPI PUSH2 0x24CE PUSH2 0x247D JUMP JUMPDEST JUMPDEST DUP3 DUP3 DIV SWAP1 POP SWAP3 SWAP2 POP POP JUMP JUMPDEST PUSH0 PUSH2 0x24E4 DUP3 PUSH2 0x1CC1 JUMP JUMPDEST SWAP2 POP PUSH2 0x24EF DUP4 PUSH2 0x1CC1 JUMP JUMPDEST SWAP3 POP DUP3 DUP3 SUB SWAP1 POP DUP2 DUP2 GT ISZERO PUSH2 0x2507 JUMPI PUSH2 0x2506 PUSH2 0x20A2 JUMP JUMPDEST JUMPDEST SWAP3 SWAP2 POP POP JUMP INVALID LOG2 PUSH5 0x6970667358 0x22 SLT KECCAK256 0xE 0xCC CALLDATACOPY 0xBB PUSH28 0x14E6A8705B2F2F77A395FEA744C3C762DA6D3DC09034E93139F37E64 PUSH20 0x6F6C634300081C00330000000000000000000000 "},"methodIdentifiers":{"confirmDelivery(bytes16)":"11594e29","contractState()":"85209ee0","createEscrow(bytes16,address,uint16)":"b91c051f","initialize(address,uint16,uint24)":"c619725b","openDispute(bytes16)":"5ff93a75","orders(bytes16)":"c5c73124","owner()":"8da5cb5b","platformFeeBps()":"22dcd13e","platformTreasury()":"e138818c","releaseAfterTimeout(bytes16)":"97c163a0","releaseDelay()":"7195bf23","renounceOwnership()":"715018a6","resolveDispute(bytes16,bool)":"50515d5a","setContractState(uint8)":"f7b4c187","transferOwnership(address)":"f2fde38b"}}}}}