{"project/contracts/EscrowV2_full.sol":{"EscrowV21":{"abi":[{"inputs":[],"stateMutability":"nonpayable","type":"constructor"},{"inputs":[],"name":"ECDSAInvalidSignature","type":"error"},{"inputs":[{"internalType":"uint256","name":"length","type":"uint256"}],"name":"ECDSAInvalidSignatureLength","type":"error"},{"inputs":[{"internalType":"bytes32","name":"s","type":"bytes32"}],"name":"ECDSAInvalidSignatureS","type":"error"},{"inputs":[],"name":"InvalidInitialization","type":"error"},{"inputs":[],"name":"NotInitializing","type":"error"},{"inputs":[{"internalType":"address","name":"owner","type":"address"}],"name":"OwnableInvalidOwner","type":"error"},{"inputs":[{"internalType":"address","name":"account","type":"address"}],"name":"OwnableUnauthorizedAccount","type":"error"},{"inputs":[],"name":"ReentrancyGuardReentrantCall","type":"error"},{"inputs":[{"internalType":"address","name":"token","type":"address"}],"name":"SafeERC20FailedOperation","type":"error"},{"anonymous":false,"inputs":[{"indexed":false,"internalType":"enum EscrowV21.ContractState","name":"newState","type":"uint8"}],"name":"ContractStateChanged","type":"event"},{"anonymous":false,"inputs":[],"name":"EIP712DomainChanged","type":"event"},{"anonymous":false,"inputs":[{"indexed":true,"internalType":"bytes16","name":"orderId","type":"bytes16"},{"indexed":true,"internalType":"address","name":"buyer","type":"address"},{"indexed":true,"internalType":"enum EscrowV21.OrderState","name":"state","type":"uint8"},{"indexed":false,"internalType":"address","name":"seller","type":"address"}],"name":"EscrowRegistered","type":"event"},{"anonymous":false,"inputs":[{"indexed":false,"internalType":"uint64","name":"version","type":"uint64"}],"name":"Initialized","type":"event"},{"anonymous":false,"inputs":[{"indexed":true,"internalType":"bytes16","name":"orderId","type":"bytes16"}],"name":"OrderDisputed","type":"event"},{"anonymous":false,"inputs":[{"indexed":true,"internalType":"bytes16","name":"orderId","type":"bytes16"},{"indexed":true,"internalType":"address","name":"buyer","type":"address"},{"indexed":false,"internalType":"uint256","name":"amount","type":"uint256"}],"name":"OrderRefunded","type":"event"},{"anonymous":false,"inputs":[{"indexed":true,"internalType":"bytes16","name":"orderId","type":"bytes16"},{"indexed":true,"internalType":"address","name":"seller","type":"address"},{"indexed":false,"internalType":"uint256","name":"sellerAmount","type":"uint256"}],"name":"OrderReleased","type":"event"},{"anonymous":false,"inputs":[{"indexed":true,"internalType":"address","name":"previousOwner","type":"address"},{"indexed":true,"internalType":"address","name":"newOwner","type":"address"}],"name":"OwnershipTransferred","type":"event"},{"inputs":[{"internalType":"bytes16","name":"orderId","type":"bytes16"}],"name":"confirmDelivery","outputs":[],"stateMutability":"nonpayable","type":"function"},{"inputs":[],"name":"contractState","outputs":[{"internalType":"enum EscrowV21.ContractState","name":"","type":"uint8"}],"stateMutability":"view","type":"function"},{"inputs":[],"name":"eip712Domain","outputs":[{"internalType":"bytes1","name":"fields","type":"bytes1"},{"internalType":"string","name":"name","type":"string"},{"internalType":"string","name":"version","type":"string"},{"internalType":"uint256","name":"chainId","type":"uint256"},{"internalType":"address","name":"verifyingContract","type":"address"},{"internalType":"bytes32","name":"salt","type":"bytes32"},{"internalType":"uint256[]","name":"extensions","type":"uint256[]"}],"stateMutability":"view","type":"function"},{"inputs":[{"internalType":"address","name":"_serverSigner","type":"address"},{"internalType":"address","name":"_platformTaxTreasury","type":"address"},{"internalType":"address","name":"_platformFeeTreasury","type":"address"},{"internalType":"uint24","name":"_releaseDelay","type":"uint24"}],"name":"initialize","outputs":[],"stateMutability":"nonpayable","type":"function"},{"inputs":[{"internalType":"bytes16","name":"orderId","type":"bytes16"}],"name":"openDispute","outputs":[],"stateMutability":"nonpayable","type":"function"},{"inputs":[{"internalType":"bytes16","name":"","type":"bytes16"}],"name":"orders","outputs":[{"internalType":"address","name":"buyer","type":"address"},{"internalType":"address","name":"seller","type":"address"},{"internalType":"contract IERC20","name":"token","type":"address"},{"internalType":"uint256","name":"total","type":"uint256"},{"internalType":"uint256","name":"taxes","type":"uint256"},{"internalType":"uint256","name":"platformFee","type":"uint256"},{"internalType":"uint256","name":"createdAt","type":"uint256"},{"internalType":"enum EscrowV21.OrderState","name":"state","type":"uint8"}],"stateMutability":"view","type":"function"},{"inputs":[],"name":"ordersCount","outputs":[{"internalType":"uint256","name":"","type":"uint256"}],"stateMutability":"view","type":"function"},{"inputs":[],"name":"owner","outputs":[{"internalType":"address","name":"","type":"address"}],"stateMutability":"view","type":"function"},{"inputs":[],"name":"platformFeeTreasury","outputs":[{"internalType":"address","name":"","type":"address"}],"stateMutability":"view","type":"function"},{"inputs":[],"name":"platformTaxTreasury","outputs":[{"internalType":"address","name":"","type":"address"}],"stateMutability":"view","type":"function"},{"inputs":[{"components":[{"internalType":"bytes16","name":"orderId","type":"bytes16"},{"internalType":"address","name":"buyer","type":"address"},{"internalType":"address","name":"seller","type":"address"},{"internalType":"address","name":"paymentToken","type":"address"},{"internalType":"uint256","name":"total","type":"uint256"},{"internalType":"uint256","name":"taxes","type":"uint256"},{"internalType":"uint256","name":"platformFee","type":"uint256"},{"internalType":"uint256","name":"deadline","type":"uint256"}],"internalType":"struct EscrowV21.OrderPayload","name":"orderPayload","type":"tuple"},{"internalType":"bytes","name":"signature","type":"bytes"}],"name":"registerEscrow","outputs":[],"stateMutability":"payable","type":"function"},{"inputs":[{"internalType":"bytes16","name":"orderId","type":"bytes16"}],"name":"releaseAfterTimeout","outputs":[],"stateMutability":"nonpayable","type":"function"},{"inputs":[],"name":"releaseDelay","outputs":[{"internalType":"uint24","name":"","type":"uint24"}],"stateMutability":"view","type":"function"},{"inputs":[],"name":"renounceOwnership","outputs":[],"stateMutability":"nonpayable","type":"function"},{"inputs":[{"internalType":"bytes16","name":"orderId","type":"bytes16"},{"internalType":"bool","name":"refundBuyer","type":"bool"}],"name":"resolveDispute","outputs":[],"stateMutability":"nonpayable","type":"function"},{"inputs":[],"name":"serverSigner","outputs":[{"internalType":"address","name":"","type":"address"}],"stateMutability":"view","type":"function"},{"inputs":[{"internalType":"enum EscrowV21.ContractState","name":"newState","type":"uint8"}],"name":"setContractState","outputs":[],"stateMutability":"nonpayable","type":"function"},{"inputs":[{"internalType":"address","name":"newOwner","type":"address"}],"name":"transferOwnership","outputs":[],"stateMutability":"nonpayable","type":"function"},{"inputs":[{"internalType":"bytes16","name":"","type":"bytes16"}],"name":"usedOrderIds","outputs":[{"internalType":"bool","name":"","type":"bool"}],"stateMutability":"view","type":"function"}],"evm":{"bytecode":{"linkReferences":{},"object":"6080604052348015600e575f5ffd5b5060156019565b60c9565b7ff0c57e16840df040f15088dc2f81fe391c3923bec73e23a9662efc9c229c6a00805468010000000000000000900460ff161560685760405163f92ee8a960e01b815260040160405180910390fd5b80546001600160401b039081161460c65780546001600160401b0319166001600160401b0390811782556040519081527fc7f505b2f371ae2175ee4913f4499e1f2633a7b5936321eed1cdaeb6115181d29060200160405180910390a15b50565b612228806100d65f395ff3fe608060405260043610610110575f3560e01c806384b0196e1161009d578063c462702311610062578063c462702314610347578063c5c7312414610366578063c75f396a146103e7578063f2fde38b146103fa578063f7b4c18714610419575f5ffd5b806384b0196e1461027957806385209ee0146102a05780638da5cb5b146102cd57806397c163a0146103095780639a0b79e514610328575f5ffd5b806350515d5a116100e357806350515d5a146101b35780635ff93a75146101d2578063715018a6146101f15780637195bf231461020557806372907e9d1461023b575f5ffd5b806311594e2914610114578063187a4bba1461013557806331af19081461017157806335daa73114610190575b5f5ffd5b34801561011f575f5ffd5b5061013361012e366004611cd3565b610438565b005b348015610140575f5ffd5b50600454610154906001600160a01b031681565b6040516001600160a01b0390911681526020015b60405180910390f35b34801561017c575f5ffd5b50600354610154906001600160a01b031681565b34801561019b575f5ffd5b506101a560025481565b604051908152602001610168565b3480156101be575f5ffd5b506101336101cd366004611d00565b61053d565b3480156101dd575f5ffd5b506101336101ec366004611cd3565b610685565b3480156101fc575f5ffd5b506101336107be565b348015610210575f5ffd5b5060055461022790600160a01b900462ffffff1681565b60405162ffffff9091168152602001610168565b348015610246575f5ffd5b50610269610255366004611cd3565b60016020525f908152604090205460ff1681565b6040519015158152602001610168565b348015610284575f5ffd5b5061028d6107d1565b6040516101689796959493929190611d63565b3480156102ab575f5ffd5b506005546102c090600160b81b900460ff1681565b6040516101689190611e0d565b3480156102d8575f5ffd5b507f9016d09d72d40fdae2fd8ceac6b6234c7706214fd39c1cd1e609a0528c199300546001600160a01b0316610154565b348015610314575f5ffd5b50610133610323366004611cd3565b61087a565b348015610333575f5ffd5b50600554610154906001600160a01b031681565b348015610352575f5ffd5b50610133610361366004611e3d565b61092b565b348015610371575f5ffd5b506103d3610380366004611cd3565b5f60208190529081526040902080546001820154600283015460038401546004850154600586015460068701546007909701546001600160a01b0396871697958716969094169492939192909160ff1688565b604051610168989796959493929190611e97565b6101336103f5366004611ef7565b610bcc565b348015610405575f5ffd5b50610133610414366004611f7f565b6110a3565b348015610424575f5ffd5b50610133610433366004611f98565b6110dd565b610440611149565b5f600554600160b81b900460ff16600181111561045f5761045f611df9565b146104855760405162461bcd60e51b815260040161047c90611fb6565b60405180910390fd5b6001600160801b031981165f90815260208190526040902080546001600160a01b031633146104e25760405162461bcd60e51b81526020600482015260096024820152682737ba10313abcb2b960b91b604482015260640161047c565b6001600782015460ff1660048111156104fd576104fd611df9565b1461051a5760405162461bcd60e51b815260040161047c90611fe3565b61052382611180565b5061053a60015f5160206121d35f395f51905f5255565b50565b6105456114d5565b61054d611149565b6001600160801b031982165f9081526020819052604090206003600782015460ff16600481111561058057610580611df9565b146105ba5760405162461bcd60e51b815260206004820152600a6024820152694e6f206469737075746560b01b604482015260640161047c565b81156106615760078101805460ff19166004179055805460038201546040516001600160a01b03909216916108fc82150291905f818181858888f19350505050158015610609573d5f5f3e3d5ffd5b50805460038201546040519081526001600160a01b03909116906001600160801b03198516907fafab81c7cff0515ab993a1cf55536d90f68cf5ec75deab830fd758b2a7f296ed9060200160405180910390a361066a565b61066a83611180565b5061068160015f5160206121d35f395f51905f5255565b5050565b5f600554600160b81b900460ff1660018111156106a4576106a4611df9565b146106c15760405162461bcd60e51b815260040161047c90611fb6565b6001600160801b031981165f90815260208190526040902080546001600160a01b0316331461071e5760405162461bcd60e51b81526020600482015260096024820152682737ba10313abcb2b960b91b604482015260640161047c565b6001600782015460ff16600481111561073957610739611df9565b146107775760405162461bcd60e51b815260206004820152600e60248201526d43616e6e6f74206469737075746560901b604482015260640161047c565b60078101805460ff191660031790556040516001600160801b03198316907fdb1a1355b8cffea63b711aac689b380d6d3fa596333cf6a852d993988526e0ae905f90a25050565b6107c66114d5565b6107cf5f611530565b565b5f60608082808083815f5160206121b35f395f51905f5280549091501580156107fc57506001810154155b6108405760405162461bcd60e51b81526020600482015260156024820152741152540dcc4c8e88155b9a5b9a5d1a585b1a5e9959605a1b604482015260640161047c565b6108486115a0565b610850611660565b604080515f80825260208201909252600f60f81b9c939b5091995046985030975095509350915050565b610882611149565b6001600160801b031981165f9081526020819052604090206001600782015460ff1660048111156108b5576108b5611df9565b146108d25760405162461bcd60e51b815260040161047c90611fe3565b60055460068201546108f091600160a01b900462ffffff1690612033565b42101561051a5760405162461bcd60e51b8152602060048201526009602482015268546f6f206561726c7960b81b604482015260640161047c565b5f61093461169e565b805490915060ff600160401b820416159067ffffffffffffffff165f8115801561095b5750825b90505f8267ffffffffffffffff1660011480156109775750303b155b905081158015610985575080155b156109a35760405163f92ee8a960e01b815260040160405180910390fd5b845467ffffffffffffffff1916600117855583156109cd57845460ff60401b1916600160401b1785555b6109d6336116c8565b6109de6116d9565b610a366040518060400160405280601881526020017f4d594150505f414d4f595f455343524f575f4f52444552530000000000000000815250604051806040016040528060018152602001603160f81b8152506116e9565b6001600160a01b038916610a845760405162461bcd60e51b815260206004820152601560248201527424b73b30b634b21039b2b93b32b91039b4b3b732b960591b604482015260640161047c565b6001600160a01b038816610ad25760405162461bcd60e51b8152602060048201526015602482015274496e76616c6964207461786573206164647265737360581b604482015260640161047c565b6001600160a01b038716610b1f5760405162461bcd60e51b8152602060048201526014602482015273496e76616c69642066656573206164647265737360601b604482015260640161047c565b600380546001600160a01b03199081166001600160a01b038c811691909117909255600480549091168a8316179055600580549189166001600160b81b031990921691909117600160a01b62ffffff8916021760ff60b81b191690558315610bc157845460ff60401b19168555604051600181527fc7f505b2f371ae2175ee4913f4499e1f2633a7b5936321eed1cdaeb6115181d29060200160405180910390a15b505050505050505050565b610bd4611149565b5f600554600160b81b900460ff166001811115610bf357610bf3611df9565b14610c105760405162461bcd60e51b815260040161047c90611fb6565b5f610c22610c1d856116fb565b6117f6565b90505f610c6684848080601f0160208091040260200160405190810160405280939291908181526020018383808284375f9201919091525086939250506118229050565b6003549091506001600160a01b03808316911614610cba5760405162461bcd60e51b8152602060048201526011602482015270496e76616c6964207369676e617475726560781b604482015260640161047c565b8460e00135421115610cfe5760405162461bcd60e51b815260206004820152600d60248201526c13dc99195c88195e1c1a5c9959609a1b604482015260640161047c565b60015f610d0e6020880188611cd3565b6001600160801b031916815260208101919091526040015f205460ff1615610d785760405162461bcd60e51b815260206004820152601860248201527f4f7264657220616c726561647920726567697374657265640000000000000000604482015260640161047c565b5f610d896080870160608801611f7f565b90505f610d9c6080880160608901611f7f565b6001600160a01b031603610df75785608001353414610df25760405162461bcd60e51b8152602060048201526012602482015271125b98dbdc9c9958dd08115512081cd95b9d60721b604482015260640161047c565b610e68565b3415610e4f5760405162461bcd60e51b815260206004820152602160248201527f446f206e6f742073656e642045544820666f72204552433230207061796d656e6044820152601d60fa1b606482015260840161047c565b610e686001600160a01b038216333060808a013561184a565b604051806101000160405280876020016020810190610e879190611f7f565b6001600160a01b03168152602001610ea56060890160408a01611f7f565b6001600160a01b03168152602001826001600160a01b03168152602001876080013581526020018760a0013581526020018760c00135815260200142815260200160016004811115610ef957610ef9611df9565b90525f80610f0a60208a018a611cd3565b6001600160801b031916815260208082019290925260409081015f20835181546001600160a01b03199081166001600160a01b0392831617835593850151600180840180548716928416929092179091559285015160028301805490951691161790925560608301516003830155608083015160048084019190915560a0840151600584015560c0840151600684015560e08401516007840180549193909260ff19909216918490811115610fc157610fc1611df9565b0217905550600191508190505f610fdb60208a018a611cd3565b6001600160801b031916815260208101919091526040015f908120805460ff1916921515929092179091556002805460019290611019908490612033565b90915550600190503361102f6020890189611cd3565b6001600160801b0319167fcbe7ff8e0a8e9f1ba9fb95b23b654905e70f0c53d8a889472a60f00d2504222861106a60608b0160408c01611f7f565b6040516001600160a01b03909116815260200160405180910390a450505061109e60015f5160206121d35f395f51905f5255565b505050565b6110ab6114d5565b6001600160a01b0381166110d457604051631e4fbdf760e01b81525f600482015260240161047c565b61053a81611530565b6110e56114d5565b6005805482919060ff60b81b1916600160b81b83600181111561110a5761110a611df9565b02179055507fab540c1b3defd38d975e65aa0e06eeee132a55dd082be87b73f505ab57bed48c8160405161113e9190611e0d565b60405180910390a150565b5f5160206121d35f395f51905f5280546001190161117a57604051633ee5aeb560e01b815260040160405180910390fd5b60029055565b6001600160801b031981165f9081526020819052604090206001600782015460ff1660048111156111b3576111b3611df9565b14806111d757506003600782015460ff1660048111156111d5576111d5611df9565b145b6111f35760405162461bcd60e51b815260040161047c90611fe3565b60078101805460ff191660021790556005810154600482015460038301545f929161121d91612046565b6112279190612046565b60028301549091506001600160a01b03166112f35760048054908301546040516001600160a01b039092169181156108fc0291905f818181858888f19350505050158015611277573d5f5f3e3d5ffd5b5060058054908301546040516001600160a01b039092169181156108fc0291905f818181858888f193505050501580156112b3573d5f5f3e3d5ffd5b5060018201546040516001600160a01b039091169082156108fc029083905f818181858888f193505050501580156112ed573d5f5f3e3d5ffd5b5061146d565b6002820154600480548185015460405163a9059cbb60e01b81526001600160a01b039283169381019390935260248301529091169063a9059cbb906044016020604051808303815f875af115801561134d573d5f5f3e3d5ffd5b505050506040513d601f19601f820116820180604052508101906113719190612059565b506002820154600580549084015460405163a9059cbb60e01b81526001600160a01b039283166004820152602481019190915291169063a9059cbb906044016020604051808303815f875af11580156113cc573d5f5f3e3d5ffd5b505050506040513d601f19601f820116820180604052508101906113f09190612059565b506002820154600183015460405163a9059cbb60e01b81526001600160a01b0391821660048201526024810184905291169063a9059cbb906044016020604051808303815f875af1158015611447573d5f5f3e3d5ffd5b505050506040513d601f19601f8201168201806040525081019061146b9190612059565b505b60018201546040518281526001600160a01b03909116906001600160801b03198516907fe60f924809ad7a86a6789604bdd4b0e09d0f5585dde8e7290b4a37759ca77d0b9060200160405180910390a3505050565b60015f5160206121d35f395f51905f5255565b336115077f9016d09d72d40fdae2fd8ceac6b6234c7706214fd39c1cd1e609a0528c199300546001600160a01b031690565b6001600160a01b0316146107cf5760405163118cdaa760e01b815233600482015260240161047c565b7f9016d09d72d40fdae2fd8ceac6b6234c7706214fd39c1cd1e609a0528c19930080546001600160a01b031981166001600160a01b03848116918217845560405192169182907f8be0079c531659141344cd1fd0a4f28419497f9722a3daafe3b4186f6b6457e0905f90a3505050565b7fa16a46d94261c7517cc8ff89f61c0ce93598e3c849801011dee649a6a557d10280546060915f5160206121b35f395f51905f52916115de90612074565b80601f016020809104026020016040519081016040528092919081815260200182805461160a90612074565b80156116555780601f1061162c57610100808354040283529160200191611655565b820191905f5260205f20905b81548152906001019060200180831161163857829003601f168201915b505050505091505090565b7fa16a46d94261c7517cc8ff89f61c0ce93598e3c849801011dee649a6a557d10380546060915f5160206121b35f395f51905f52916115de90612074565b5f807ff0c57e16840df040f15088dc2f81fe391c3923bec73e23a9662efc9c229c6a005b92915050565b6116d06118aa565b61053a816118cf565b6116e16118aa565b6107cf6118d7565b6116f16118aa565b61068182826118df565b5f7f0f832f8ed29ef6f26aaa79d65ff922fd572aedfa6dbd05bf3275aa667fe7565061172a6020840184611cd3565b61173a6040850160208601611f7f565b61174a6060860160408701611f7f565b61175a6080870160608801611f7f565b86608001358760a001358860c001358960e001356040516020016117d9999897969594939291909889526001600160801b03199790971660208901526001600160a01b039586166040890152938516606088015291909316608086015260a085019290925260c084019190915260e08301526101008201526101200190565b604051602081830303815290604052805190602001209050919050565b5f6116c261180261193e565b8360405161190160f01b8152600281019290925260228201526042902090565b5f5f5f5f611830868661194c565b9250925092506118408282611995565b5090949350505050565b604080516001600160a01b0385811660248301528416604482015260648082018490528251808303909101815260849091019091526020810180516001600160e01b03166323b872dd60e01b1790526118a4908590611a4d565b50505050565b6118b2611ab9565b6107cf57604051631afcd79f60e31b815260040160405180910390fd5b6110ab6118aa565b6114c26118aa565b6118e76118aa565b5f5160206121b35f395f51905f527fa16a46d94261c7517cc8ff89f61c0ce93598e3c849801011dee649a6a557d10261192084826120f7565b506003810161192f83826120f7565b505f8082556001909101555050565b5f611947611ad2565b905090565b5f5f5f8351604103611983576020840151604085015160608601515f1a61197588828585611b45565b95509550955050505061198e565b505081515f91506002905b9250925092565b5f8260038111156119a8576119a8611df9565b036119b1575050565b60018260038111156119c5576119c5611df9565b036119e35760405163f645eedf60e01b815260040160405180910390fd5b60028260038111156119f7576119f7611df9565b03611a185760405163fce698f760e01b81526004810182905260240161047c565b6003826003811115611a2c57611a2c611df9565b03610681576040516335e2f38360e21b81526004810182905260240161047c565b5f5f60205f8451602086015f885af180611a6c576040513d5f823e3d81fd5b50505f513d91508115611a83578060011415611a90565b6001600160a01b0384163b155b156118a457604051635274afe760e01b81526001600160a01b038516600482015260240161047c565b5f611ac261169e565b54600160401b900460ff16919050565b5f7f8b73c3c69bb8fe3d512ecc4cf759cc79239f7b179b0ffacaa9a75d522b39400f611afc611c0d565b611b04611c75565b60408051602081019490945283019190915260608201524660808201523060a082015260c00160405160208183030381529060405280519060200120905090565b5f80807f7fffffffffffffffffffffffffffffff5d576e7357a4501ddfe92f46681b20a0841115611b7e57505f91506003905082611c03565b604080515f808252602082018084528a905260ff891692820192909252606081018790526080810186905260019060a0016020604051602081039080840390855afa158015611bcf573d5f5f3e3d5ffd5b5050604051601f1901519150506001600160a01b038116611bfa57505f925060019150829050611c03565b92505f91508190505b9450945094915050565b5f5f5160206121b35f395f51905f5281611c256115a0565b805190915015611c3d57805160209091012092915050565b81548015611c4c579392505050565b7fc5d2460186f7233c927e7db2dcc703c0e500b653ca82273b7bfad8045d85a470935050505090565b5f5f5160206121b35f395f51905f5281611c8d611660565b805190915015611ca557805160209091012092915050565b60018201548015611c4c579392505050565b80356001600160801b031981168114611cce575f5ffd5b919050565b5f60208284031215611ce3575f5ffd5b611cec82611cb7565b9392505050565b801515811461053a575f5ffd5b5f5f60408385031215611d11575f5ffd5b611d1a83611cb7565b91506020830135611d2a81611cf3565b809150509250929050565b5f81518084528060208401602086015e5f602082860101526020601f19601f83011685010191505092915050565b60ff60f81b8816815260e060208201525f611d8160e0830189611d35565b8281036040840152611d938189611d35565b606084018890526001600160a01b038716608085015260a0840186905283810360c0850152845180825260208087019350909101905f5b81811015611de8578351835260209384019390920191600101611dca565b50909b9a5050505050505050505050565b634e487b7160e01b5f52602160045260245ffd5b6020810160028310611e2157611e21611df9565b91905290565b80356001600160a01b0381168114611cce575f5ffd5b5f5f5f5f60808587031215611e50575f5ffd5b611e5985611e27565b9350611e6760208601611e27565b9250611e7560408601611e27565b9150606085013562ffffff81168114611e8c575f5ffd5b939692955090935050565b6001600160a01b038981168252888116602083015287166040820152606081018690526080810185905260a0810184905260c08101839052610100810160058310611ee457611ee4611df9565b8260e08301529998505050505050505050565b5f5f5f838503610120811215611f0b575f5ffd5b610100811215611f19575f5ffd5b5083925061010084013567ffffffffffffffff811115611f37575f5ffd5b8401601f81018613611f47575f5ffd5b803567ffffffffffffffff811115611f5d575f5ffd5b866020828401011115611f6e575f5ffd5b939660209190910195509293505050565b5f60208284031215611f8f575f5ffd5b611cec82611e27565b5f60208284031215611fa8575f5ffd5b813560028110611cec575f5ffd5b60208082526013908201527210dbdb9d1c9858dd0819195c1c9958d85d1959606a1b604082015260600190565b6020808252600e908201526d43616e6e6f742072656c6561736560901b604082015260600190565b634e487b7160e01b5f52604160045260245ffd5b634e487b7160e01b5f52601160045260245ffd5b808201808211156116c2576116c261201f565b818103818111156116c2576116c261201f565b5f60208284031215612069575f5ffd5b8151611cec81611cf3565b600181811c9082168061208857607f821691505b6020821081036120a657634e487b7160e01b5f52602260045260245ffd5b50919050565b601f82111561109e57805f5260205f20601f840160051c810160208510156120d15750805b601f840160051c820191505b818110156120f0575f81556001016120dd565b5050505050565b815167ffffffffffffffff8111156121115761211161200b565b6121258161211f8454612074565b846120ac565b6020601f821160018114612157575f83156121405750848201515b5f19600385901b1c1916600184901b1784556120f0565b5f84815260208120601f198516915b828110156121865787850151825560209485019460019092019101612166565b50848210156121a357868401515f19600387901b60f8161c191681555b50505050600190811b0190555056fea16a46d94261c7517cc8ff89f61c0ce93598e3c849801011dee649a6a557d1009b779b17422d0df92223018b32b4d1fa46e071723d6817e2486d003becc55f00a26469706673582212206ff8998eb6e4f0d87298400e0e856e22959f48235a3d51f5efaf19151dbc5dab64736f6c634300081c0033","opcodes":"PUSH1 0x80 PUSH1 0x40 MSTORE CALLVALUE DUP1 ISZERO PUSH1 0xE JUMPI PUSH0 PUSH0 REVERT JUMPDEST POP PUSH1 0x15 PUSH1 0x19 JUMP JUMPDEST PUSH1 0xC9 JUMP JUMPDEST PUSH32 0xF0C57E16840DF040F15088DC2F81FE391C3923BEC73E23A9662EFC9C229C6A00 DUP1 SLOAD PUSH9 0x10000000000000000 SWAP1 DIV PUSH1 0xFF AND ISZERO PUSH1 0x68 JUMPI PUSH1 0x40 MLOAD PUSH4 0xF92EE8A9 PUSH1 0xE0 SHL DUP2 MSTORE PUSH1 0x4 ADD PUSH1 0x40 MLOAD DUP1 SWAP2 SUB SWAP1 REVERT JUMPDEST DUP1 SLOAD PUSH1 0x1 PUSH1 0x1 PUSH1 0x40 SHL SUB SWAP1 DUP2 AND EQ PUSH1 0xC6 JUMPI DUP1 SLOAD PUSH1 0x1 PUSH1 0x1 PUSH1 0x40 SHL SUB NOT AND PUSH1 0x1 PUSH1 0x1 PUSH1 0x40 SHL SUB SWAP1 DUP2 OR DUP3 SSTORE PUSH1 0x40 MLOAD SWAP1 DUP2 MSTORE PUSH32 0xC7F505B2F371AE2175EE4913F4499E1F2633A7B5936321EED1CDAEB6115181D2 SWAP1 PUSH1 0x20 ADD PUSH1 0x40 MLOAD DUP1 SWAP2 SUB SWAP1 LOG1 JUMPDEST POP JUMP JUMPDEST PUSH2 0x2228 DUP1 PUSH2 0xD6 PUSH0 CODECOPY PUSH0 RETURN INVALID PUSH1 0x80 PUSH1 0x40 MSTORE PUSH1 0x4 CALLDATASIZE LT PUSH2 0x110 JUMPI PUSH0 CALLDATALOAD PUSH1 0xE0 SHR DUP1 PUSH4 0x84B0196E GT PUSH2 0x9D JUMPI DUP1 PUSH4 0xC4627023 GT PUSH2 0x62 JUMPI DUP1 PUSH4 0xC4627023 EQ PUSH2 0x347 JUMPI DUP1 PUSH4 0xC5C73124 EQ PUSH2 0x366 JUMPI DUP1 PUSH4 0xC75F396A EQ PUSH2 0x3E7 JUMPI DUP1 PUSH4 0xF2FDE38B EQ PUSH2 0x3FA JUMPI DUP1 PUSH4 0xF7B4C187 EQ PUSH2 0x419 JUMPI PUSH0 PUSH0 REVERT JUMPDEST DUP1 PUSH4 0x84B0196E EQ PUSH2 0x279 JUMPI DUP1 PUSH4 0x85209EE0 EQ PUSH2 0x2A0 JUMPI DUP1 PUSH4 0x8DA5CB5B EQ PUSH2 0x2CD JUMPI DUP1 PUSH4 0x97C163A0 EQ PUSH2 0x309 JUMPI DUP1 PUSH4 0x9A0B79E5 EQ PUSH2 0x328 JUMPI PUSH0 PUSH0 REVERT JUMPDEST DUP1 PUSH4 0x50515D5A GT PUSH2 0xE3 JUMPI DUP1 PUSH4 0x50515D5A EQ PUSH2 0x1B3 JUMPI DUP1 PUSH4 0x5FF93A75 EQ PUSH2 0x1D2 JUMPI DUP1 PUSH4 0x715018A6 EQ PUSH2 0x1F1 JUMPI DUP1 PUSH4 0x7195BF23 EQ PUSH2 0x205 JUMPI DUP1 PUSH4 0x72907E9D EQ PUSH2 0x23B JUMPI PUSH0 PUSH0 REVERT JUMPDEST DUP1 PUSH4 0x11594E29 EQ PUSH2 0x114 JUMPI DUP1 PUSH4 0x187A4BBA EQ PUSH2 0x135 JUMPI DUP1 PUSH4 0x31AF1908 EQ PUSH2 0x171 JUMPI DUP1 PUSH4 0x35DAA731 EQ PUSH2 0x190 JUMPI JUMPDEST PUSH0 PUSH0 REVERT JUMPDEST CALLVALUE DUP1 ISZERO PUSH2 0x11F JUMPI PUSH0 PUSH0 REVERT JUMPDEST POP PUSH2 0x133 PUSH2 0x12E CALLDATASIZE PUSH1 0x4 PUSH2 0x1CD3 JUMP JUMPDEST PUSH2 0x438 JUMP JUMPDEST STOP JUMPDEST CALLVALUE DUP1 ISZERO PUSH2 0x140 JUMPI PUSH0 PUSH0 REVERT JUMPDEST POP PUSH1 0x4 SLOAD PUSH2 0x154 SWAP1 PUSH1 0x1 PUSH1 0x1 PUSH1 0xA0 SHL SUB AND DUP2 JUMP JUMPDEST PUSH1 0x40 MLOAD PUSH1 0x1 PUSH1 0x1 PUSH1 0xA0 SHL SUB SWAP1 SWAP2 AND DUP2 MSTORE PUSH1 0x20 ADD JUMPDEST PUSH1 0x40 MLOAD DUP1 SWAP2 SUB SWAP1 RETURN JUMPDEST CALLVALUE DUP1 ISZERO PUSH2 0x17C JUMPI PUSH0 PUSH0 REVERT JUMPDEST POP PUSH1 0x3 SLOAD PUSH2 0x154 SWAP1 PUSH1 0x1 PUSH1 0x1 PUSH1 0xA0 SHL SUB AND DUP2 JUMP JUMPDEST CALLVALUE DUP1 ISZERO PUSH2 0x19B JUMPI PUSH0 PUSH0 REVERT JUMPDEST POP PUSH2 0x1A5 PUSH1 0x2 SLOAD DUP2 JUMP JUMPDEST PUSH1 0x40 MLOAD SWAP1 DUP2 MSTORE PUSH1 0x20 ADD PUSH2 0x168 JUMP JUMPDEST CALLVALUE DUP1 ISZERO PUSH2 0x1BE JUMPI PUSH0 PUSH0 REVERT JUMPDEST POP PUSH2 0x133 PUSH2 0x1CD CALLDATASIZE PUSH1 0x4 PUSH2 0x1D00 JUMP JUMPDEST PUSH2 0x53D JUMP JUMPDEST CALLVALUE DUP1 ISZERO PUSH2 0x1DD JUMPI PUSH0 PUSH0 REVERT JUMPDEST POP PUSH2 0x133 PUSH2 0x1EC CALLDATASIZE PUSH1 0x4 PUSH2 0x1CD3 JUMP JUMPDEST PUSH2 0x685 JUMP JUMPDEST CALLVALUE DUP1 ISZERO PUSH2 0x1FC JUMPI PUSH0 PUSH0 REVERT JUMPDEST POP PUSH2 0x133 PUSH2 0x7BE JUMP JUMPDEST CALLVALUE DUP1 ISZERO PUSH2 0x210 JUMPI PUSH0 PUSH0 REVERT JUMPDEST POP PUSH1 0x5 SLOAD PUSH2 0x227 SWAP1 PUSH1 0x1 PUSH1 0xA0 SHL SWAP1 DIV PUSH3 0xFFFFFF AND DUP2 JUMP JUMPDEST PUSH1 0x40 MLOAD PUSH3 0xFFFFFF SWAP1 SWAP2 AND DUP2 MSTORE PUSH1 0x20 ADD PUSH2 0x168 JUMP JUMPDEST CALLVALUE DUP1 ISZERO PUSH2 0x246 JUMPI PUSH0 PUSH0 REVERT JUMPDEST POP PUSH2 0x269 PUSH2 0x255 CALLDATASIZE PUSH1 0x4 PUSH2 0x1CD3 JUMP JUMPDEST PUSH1 0x1 PUSH1 0x20 MSTORE PUSH0 SWAP1 DUP2 MSTORE PUSH1 0x40 SWAP1 KECCAK256 SLOAD PUSH1 0xFF AND DUP2 JUMP JUMPDEST PUSH1 0x40 MLOAD SWAP1 ISZERO ISZERO DUP2 MSTORE PUSH1 0x20 ADD PUSH2 0x168 JUMP JUMPDEST CALLVALUE DUP1 ISZERO PUSH2 0x284 JUMPI PUSH0 PUSH0 REVERT JUMPDEST POP PUSH2 0x28D PUSH2 0x7D1 JUMP JUMPDEST PUSH1 0x40 MLOAD PUSH2 0x168 SWAP8 SWAP7 SWAP6 SWAP5 SWAP4 SWAP3 SWAP2 SWAP1 PUSH2 0x1D63 JUMP JUMPDEST CALLVALUE DUP1 ISZERO PUSH2 0x2AB JUMPI PUSH0 PUSH0 REVERT JUMPDEST POP PUSH1 0x5 SLOAD PUSH2 0x2C0 SWAP1 PUSH1 0x1 PUSH1 0xB8 SHL SWAP1 DIV PUSH1 0xFF AND DUP2 JUMP JUMPDEST PUSH1 0x40 MLOAD PUSH2 0x168 SWAP2 SWAP1 PUSH2 0x1E0D JUMP JUMPDEST CALLVALUE DUP1 ISZERO PUSH2 0x2D8 JUMPI PUSH0 PUSH0 REVERT JUMPDEST POP PUSH32 0x9016D09D72D40FDAE2FD8CEAC6B6234C7706214FD39C1CD1E609A0528C199300 SLOAD PUSH1 0x1 PUSH1 0x1 PUSH1 0xA0 SHL SUB AND PUSH2 0x154 JUMP JUMPDEST CALLVALUE DUP1 ISZERO PUSH2 0x314 JUMPI PUSH0 PUSH0 REVERT JUMPDEST POP PUSH2 0x133 PUSH2 0x323 CALLDATASIZE PUSH1 0x4 PUSH2 0x1CD3 JUMP JUMPDEST PUSH2 0x87A JUMP JUMPDEST CALLVALUE DUP1 ISZERO PUSH2 0x333 JUMPI PUSH0 PUSH0 REVERT JUMPDEST POP PUSH1 0x5 SLOAD PUSH2 0x154 SWAP1 PUSH1 0x1 PUSH1 0x1 PUSH1 0xA0 SHL SUB AND DUP2 JUMP JUMPDEST CALLVALUE DUP1 ISZERO PUSH2 0x352 JUMPI PUSH0 PUSH0 REVERT JUMPDEST POP PUSH2 0x133 PUSH2 0x361 CALLDATASIZE PUSH1 0x4 PUSH2 0x1E3D JUMP JUMPDEST PUSH2 0x92B JUMP JUMPDEST CALLVALUE DUP1 ISZERO PUSH2 0x371 JUMPI PUSH0 PUSH0 REVERT JUMPDEST POP PUSH2 0x3D3 PUSH2 0x380 CALLDATASIZE PUSH1 0x4 PUSH2 0x1CD3 JUMP JUMPDEST PUSH0 PUSH1 0x20 DUP2 SWAP1 MSTORE SWAP1 DUP2 MSTORE PUSH1 0x40 SWAP1 KECCAK256 DUP1 SLOAD PUSH1 0x1 DUP3 ADD SLOAD PUSH1 0x2 DUP4 ADD SLOAD PUSH1 0x3 DUP5 ADD SLOAD PUSH1 0x4 DUP6 ADD SLOAD PUSH1 0x5 DUP7 ADD SLOAD PUSH1 0x6 DUP8 ADD SLOAD PUSH1 0x7 SWAP1 SWAP8 ADD SLOAD PUSH1 0x1 PUSH1 0x1 PUSH1 0xA0 SHL SUB SWAP7 DUP8 AND SWAP8 SWAP6 DUP8 AND SWAP7 SWAP1 SWAP5 AND SWAP5 SWAP3 SWAP4 SWAP2 SWAP3 SWAP1 SWAP2 PUSH1 0xFF AND DUP9 JUMP JUMPDEST PUSH1 0x40 MLOAD PUSH2 0x168 SWAP9 SWAP8 SWAP7 SWAP6 SWAP5 SWAP4 SWAP3 SWAP2 SWAP1 PUSH2 0x1E97 JUMP JUMPDEST PUSH2 0x133 PUSH2 0x3F5 CALLDATASIZE PUSH1 0x4 PUSH2 0x1EF7 JUMP JUMPDEST PUSH2 0xBCC JUMP JUMPDEST CALLVALUE DUP1 ISZERO PUSH2 0x405 JUMPI PUSH0 PUSH0 REVERT JUMPDEST POP PUSH2 0x133 PUSH2 0x414 CALLDATASIZE PUSH1 0x4 PUSH2 0x1F7F JUMP JUMPDEST PUSH2 0x10A3 JUMP JUMPDEST CALLVALUE DUP1 ISZERO PUSH2 0x424 JUMPI PUSH0 PUSH0 REVERT JUMPDEST POP PUSH2 0x133 PUSH2 0x433 CALLDATASIZE PUSH1 0x4 PUSH2 0x1F98 JUMP JUMPDEST PUSH2 0x10DD JUMP JUMPDEST PUSH2 0x440 PUSH2 0x1149 JUMP JUMPDEST PUSH0 PUSH1 0x5 SLOAD PUSH1 0x1 PUSH1 0xB8 SHL SWAP1 DIV PUSH1 0xFF AND PUSH1 0x1 DUP2 GT ISZERO PUSH2 0x45F JUMPI PUSH2 0x45F PUSH2 0x1DF9 JUMP JUMPDEST EQ PUSH2 0x485 JUMPI PUSH1 0x40 MLOAD PUSH3 0x461BCD PUSH1 0xE5 SHL DUP2 MSTORE PUSH1 0x4 ADD PUSH2 0x47C SWAP1 PUSH2 0x1FB6 JUMP JUMPDEST PUSH1 0x40 MLOAD DUP1 SWAP2 SUB SWAP1 REVERT JUMPDEST PUSH1 0x1 PUSH1 0x1 PUSH1 0x80 SHL SUB NOT DUP2 AND PUSH0 SWAP1 DUP2 MSTORE PUSH1 0x20 DUP2 SWAP1 MSTORE PUSH1 0x40 SWAP1 KECCAK256 DUP1 SLOAD PUSH1 0x1 PUSH1 0x1 PUSH1 0xA0 SHL SUB AND CALLER EQ PUSH2 0x4E2 JUMPI PUSH1 0x40 MLOAD PUSH3 0x461BCD PUSH1 0xE5 SHL DUP2 MSTORE PUSH1 0x20 PUSH1 0x4 DUP3 ADD MSTORE PUSH1 0x9 PUSH1 0x24 DUP3 ADD MSTORE PUSH9 0x2737BA10313ABCB2B9 PUSH1 0xB9 SHL PUSH1 0x44 DUP3 ADD MSTORE PUSH1 0x64 ADD PUSH2 0x47C JUMP JUMPDEST PUSH1 0x1 PUSH1 0x7 DUP3 ADD SLOAD PUSH1 0xFF AND PUSH1 0x4 DUP2 GT ISZERO PUSH2 0x4FD JUMPI PUSH2 0x4FD PUSH2 0x1DF9 JUMP JUMPDEST EQ PUSH2 0x51A JUMPI PUSH1 0x40 MLOAD PUSH3 0x461BCD PUSH1 0xE5 SHL DUP2 MSTORE PUSH1 0x4 ADD PUSH2 0x47C SWAP1 PUSH2 0x1FE3 JUMP JUMPDEST PUSH2 0x523 DUP3 PUSH2 0x1180 JUMP JUMPDEST POP PUSH2 0x53A PUSH1 0x1 PUSH0 MLOAD PUSH1 0x20 PUSH2 0x21D3 PUSH0 CODECOPY PUSH0 MLOAD SWAP1 PUSH0 MSTORE SSTORE JUMP JUMPDEST POP JUMP JUMPDEST PUSH2 0x545 PUSH2 0x14D5 JUMP JUMPDEST PUSH2 0x54D PUSH2 0x1149 JUMP JUMPDEST PUSH1 0x1 PUSH1 0x1 PUSH1 0x80 SHL SUB NOT DUP3 AND PUSH0 SWAP1 DUP2 MSTORE PUSH1 0x20 DUP2 SWAP1 MSTORE PUSH1 0x40 SWAP1 KECCAK256 PUSH1 0x3 PUSH1 0x7 DUP3 ADD SLOAD PUSH1 0xFF AND PUSH1 0x4 DUP2 GT ISZERO PUSH2 0x580 JUMPI PUSH2 0x580 PUSH2 0x1DF9 JUMP JUMPDEST EQ PUSH2 0x5BA JUMPI PUSH1 0x40 MLOAD PUSH3 0x461BCD PUSH1 0xE5 SHL DUP2 MSTORE PUSH1 0x20 PUSH1 0x4 DUP3 ADD MSTORE PUSH1 0xA PUSH1 0x24 DUP3 ADD MSTORE PUSH10 0x4E6F2064697370757465 PUSH1 0xB0 SHL PUSH1 0x44 DUP3 ADD MSTORE PUSH1 0x64 ADD PUSH2 0x47C JUMP JUMPDEST DUP2 ISZERO PUSH2 0x661 JUMPI PUSH1 0x7 DUP2 ADD DUP1 SLOAD PUSH1 0xFF NOT AND PUSH1 0x4 OR SWAP1 SSTORE DUP1 SLOAD PUSH1 0x3 DUP3 ADD SLOAD PUSH1 0x40 MLOAD PUSH1 0x1 PUSH1 0x1 PUSH1 0xA0 SHL SUB SWAP1 SWAP3 AND SWAP2 PUSH2 0x8FC DUP3 ISZERO MUL SWAP2 SWAP1 PUSH0 DUP2 DUP2 DUP2 DUP6 DUP9 DUP9 CALL SWAP4 POP POP POP POP ISZERO DUP1 ISZERO PUSH2 0x609 JUMPI RETURNDATASIZE PUSH0 PUSH0 RETURNDATACOPY RETURNDATASIZE PUSH0 REVERT JUMPDEST POP DUP1 SLOAD PUSH1 0x3 DUP3 ADD SLOAD PUSH1 0x40 MLOAD SWAP1 DUP2 MSTORE PUSH1 0x1 PUSH1 0x1 PUSH1 0xA0 SHL SUB SWAP1 SWAP2 AND SWAP1 PUSH1 0x1 PUSH1 0x1 PUSH1 0x80 SHL SUB NOT DUP6 AND SWAP1 PUSH32 0xAFAB81C7CFF0515AB993A1CF55536D90F68CF5EC75DEAB830FD758B2A7F296ED SWAP1 PUSH1 0x20 ADD PUSH1 0x40 MLOAD DUP1 SWAP2 SUB SWAP1 LOG3 PUSH2 0x66A JUMP JUMPDEST PUSH2 0x66A DUP4 PUSH2 0x1180 JUMP JUMPDEST POP PUSH2 0x681 PUSH1 0x1 PUSH0 MLOAD PUSH1 0x20 PUSH2 0x21D3 PUSH0 CODECOPY PUSH0 MLOAD SWAP1 PUSH0 MSTORE SSTORE JUMP JUMPDEST POP POP JUMP JUMPDEST PUSH0 PUSH1 0x5 SLOAD PUSH1 0x1 PUSH1 0xB8 SHL SWAP1 DIV PUSH1 0xFF AND PUSH1 0x1 DUP2 GT ISZERO PUSH2 0x6A4 JUMPI PUSH2 0x6A4 PUSH2 0x1DF9 JUMP JUMPDEST EQ PUSH2 0x6C1 JUMPI PUSH1 0x40 MLOAD PUSH3 0x461BCD PUSH1 0xE5 SHL DUP2 MSTORE PUSH1 0x4 ADD PUSH2 0x47C SWAP1 PUSH2 0x1FB6 JUMP JUMPDEST PUSH1 0x1 PUSH1 0x1 PUSH1 0x80 SHL SUB NOT DUP2 AND PUSH0 SWAP1 DUP2 MSTORE PUSH1 0x20 DUP2 SWAP1 MSTORE PUSH1 0x40 SWAP1 KECCAK256 DUP1 SLOAD PUSH1 0x1 PUSH1 0x1 PUSH1 0xA0 SHL SUB AND CALLER EQ PUSH2 0x71E JUMPI PUSH1 0x40 MLOAD PUSH3 0x461BCD PUSH1 0xE5 SHL DUP2 MSTORE PUSH1 0x20 PUSH1 0x4 DUP3 ADD MSTORE PUSH1 0x9 PUSH1 0x24 DUP3 ADD MSTORE PUSH9 0x2737BA10313ABCB2B9 PUSH1 0xB9 SHL PUSH1 0x44 DUP3 ADD MSTORE PUSH1 0x64 ADD PUSH2 0x47C JUMP JUMPDEST PUSH1 0x1 PUSH1 0x7 DUP3 ADD SLOAD PUSH1 0xFF AND PUSH1 0x4 DUP2 GT ISZERO PUSH2 0x739 JUMPI PUSH2 0x739 PUSH2 0x1DF9 JUMP JUMPDEST EQ PUSH2 0x777 JUMPI PUSH1 0x40 MLOAD PUSH3 0x461BCD PUSH1 0xE5 SHL DUP2 MSTORE PUSH1 0x20 PUSH1 0x4 DUP3 ADD MSTORE PUSH1 0xE PUSH1 0x24 DUP3 ADD MSTORE PUSH14 0x43616E6E6F742064697370757465 PUSH1 0x90 SHL PUSH1 0x44 DUP3 ADD MSTORE PUSH1 0x64 ADD PUSH2 0x47C JUMP JUMPDEST PUSH1 0x7 DUP2 ADD DUP1 SLOAD PUSH1 0xFF NOT AND PUSH1 0x3 OR SWAP1 SSTORE PUSH1 0x40 MLOAD PUSH1 0x1 PUSH1 0x1 PUSH1 0x80 SHL SUB NOT DUP4 AND SWAP1 PUSH32 0xDB1A1355B8CFFEA63B711AAC689B380D6D3FA596333CF6A852D993988526E0AE SWAP1 PUSH0 SWAP1 LOG2 POP POP JUMP JUMPDEST PUSH2 0x7C6 PUSH2 0x14D5 JUMP JUMPDEST PUSH2 0x7CF PUSH0 PUSH2 0x1530 JUMP JUMPDEST JUMP JUMPDEST PUSH0 PUSH1 0x60 DUP1 DUP3 DUP1 DUP1 DUP4 DUP2 PUSH0 MLOAD PUSH1 0x20 PUSH2 0x21B3 PUSH0 CODECOPY PUSH0 MLOAD SWAP1 PUSH0 MSTORE DUP1 SLOAD SWAP1 SWAP2 POP ISZERO DUP1 ISZERO PUSH2 0x7FC JUMPI POP PUSH1 0x1 DUP2 ADD SLOAD ISZERO JUMPDEST PUSH2 0x840 JUMPI PUSH1 0x40 MLOAD PUSH3 0x461BCD PUSH1 0xE5 SHL DUP2 MSTORE PUSH1 0x20 PUSH1 0x4 DUP3 ADD MSTORE PUSH1 0x15 PUSH1 0x24 DUP3 ADD MSTORE PUSH21 0x1152540DCC4C8E88155B9A5B9A5D1A585B1A5E9959 PUSH1 0x5A SHL PUSH1 0x44 DUP3 ADD MSTORE PUSH1 0x64 ADD PUSH2 0x47C JUMP JUMPDEST PUSH2 0x848 PUSH2 0x15A0 JUMP JUMPDEST PUSH2 0x850 PUSH2 0x1660 JUMP JUMPDEST PUSH1 0x40 DUP1 MLOAD PUSH0 DUP1 DUP3 MSTORE PUSH1 0x20 DUP3 ADD SWAP1 SWAP3 MSTORE PUSH1 0xF PUSH1 0xF8 SHL SWAP13 SWAP4 SWAP12 POP SWAP2 SWAP10 POP CHAINID SWAP9 POP ADDRESS SWAP8 POP SWAP6 POP SWAP4 POP SWAP2 POP POP JUMP JUMPDEST PUSH2 0x882 PUSH2 0x1149 JUMP JUMPDEST PUSH1 0x1 PUSH1 0x1 PUSH1 0x80 SHL SUB NOT DUP2 AND PUSH0 SWAP1 DUP2 MSTORE PUSH1 0x20 DUP2 SWAP1 MSTORE PUSH1 0x40 SWAP1 KECCAK256 PUSH1 0x1 PUSH1 0x7 DUP3 ADD SLOAD PUSH1 0xFF AND PUSH1 0x4 DUP2 GT ISZERO PUSH2 0x8B5 JUMPI PUSH2 0x8B5 PUSH2 0x1DF9 JUMP JUMPDEST EQ PUSH2 0x8D2 JUMPI PUSH1 0x40 MLOAD PUSH3 0x461BCD PUSH1 0xE5 SHL DUP2 MSTORE PUSH1 0x4 ADD PUSH2 0x47C SWAP1 PUSH2 0x1FE3 JUMP JUMPDEST PUSH1 0x5 SLOAD PUSH1 0x6 DUP3 ADD SLOAD PUSH2 0x8F0 SWAP2 PUSH1 0x1 PUSH1 0xA0 SHL SWAP1 DIV PUSH3 0xFFFFFF AND SWAP1 PUSH2 0x2033 JUMP JUMPDEST TIMESTAMP LT ISZERO PUSH2 0x51A JUMPI PUSH1 0x40 MLOAD PUSH3 0x461BCD PUSH1 0xE5 SHL DUP2 MSTORE PUSH1 0x20 PUSH1 0x4 DUP3 ADD MSTORE PUSH1 0x9 PUSH1 0x24 DUP3 ADD MSTORE PUSH9 0x546F6F206561726C79 PUSH1 0xB8 SHL PUSH1 0x44 DUP3 ADD MSTORE PUSH1 0x64 ADD PUSH2 0x47C JUMP JUMPDEST PUSH0 PUSH2 0x934 PUSH2 0x169E JUMP JUMPDEST DUP1 SLOAD SWAP1 SWAP2 POP PUSH1 0xFF PUSH1 0x1 PUSH1 0x40 SHL DUP3 DIV AND ISZERO SWAP1 PUSH8 0xFFFFFFFFFFFFFFFF AND PUSH0 DUP2 ISZERO DUP1 ISZERO PUSH2 0x95B JUMPI POP DUP3 JUMPDEST SWAP1 POP PUSH0 DUP3 PUSH8 0xFFFFFFFFFFFFFFFF AND PUSH1 0x1 EQ DUP1 ISZERO PUSH2 0x977 JUMPI POP ADDRESS EXTCODESIZE ISZERO JUMPDEST SWAP1 POP DUP2 ISZERO DUP1 ISZERO PUSH2 0x985 JUMPI POP DUP1 ISZERO JUMPDEST ISZERO PUSH2 0x9A3 JUMPI PUSH1 0x40 MLOAD PUSH4 0xF92EE8A9 PUSH1 0xE0 SHL DUP2 MSTORE PUSH1 0x4 ADD PUSH1 0x40 MLOAD DUP1 SWAP2 SUB SWAP1 REVERT JUMPDEST DUP5 SLOAD PUSH8 0xFFFFFFFFFFFFFFFF NOT AND PUSH1 0x1 OR DUP6 SSTORE DUP4 ISZERO PUSH2 0x9CD JUMPI DUP5 SLOAD PUSH1 0xFF PUSH1 0x40 SHL NOT AND PUSH1 0x1 PUSH1 0x40 SHL OR DUP6 SSTORE JUMPDEST PUSH2 0x9D6 CALLER PUSH2 0x16C8 JUMP JUMPDEST PUSH2 0x9DE PUSH2 0x16D9 JUMP JUMPDEST PUSH2 0xA36 PUSH1 0x40 MLOAD DUP1 PUSH1 0x40 ADD PUSH1 0x40 MSTORE DUP1 PUSH1 0x18 DUP2 MSTORE PUSH1 0x20 ADD PUSH32 0x4D594150505F414D4F595F455343524F575F4F52444552530000000000000000 DUP2 MSTORE POP PUSH1 0x40 MLOAD DUP1 PUSH1 0x40 ADD PUSH1 0x40 MSTORE DUP1 PUSH1 0x1 DUP2 MSTORE PUSH1 0x20 ADD PUSH1 0x31 PUSH1 0xF8 SHL DUP2 MSTORE POP PUSH2 0x16E9 JUMP JUMPDEST PUSH1 0x1 PUSH1 0x1 PUSH1 0xA0 SHL SUB DUP10 AND PUSH2 0xA84 JUMPI PUSH1 0x40 MLOAD PUSH3 0x461BCD PUSH1 0xE5 SHL DUP2 MSTORE PUSH1 0x20 PUSH1 0x4 DUP3 ADD MSTORE PUSH1 0x15 PUSH1 0x24 DUP3 ADD MSTORE PUSH21 0x24B73B30B634B21039B2B93B32B91039B4B3B732B9 PUSH1 0x59 SHL PUSH1 0x44 DUP3 ADD MSTORE PUSH1 0x64 ADD PUSH2 0x47C JUMP JUMPDEST PUSH1 0x1 PUSH1 0x1 PUSH1 0xA0 SHL SUB DUP9 AND PUSH2 0xAD2 JUMPI PUSH1 0x40 MLOAD PUSH3 0x461BCD PUSH1 0xE5 SHL DUP2 MSTORE PUSH1 0x20 PUSH1 0x4 DUP3 ADD MSTORE PUSH1 0x15 PUSH1 0x24 DUP3 ADD MSTORE PUSH21 0x496E76616C69642074617865732061646472657373 PUSH1 0x58 SHL PUSH1 0x44 DUP3 ADD MSTORE PUSH1 0x64 ADD PUSH2 0x47C JUMP JUMPDEST PUSH1 0x1 PUSH1 0x1 PUSH1 0xA0 SHL SUB DUP8 AND PUSH2 0xB1F JUMPI PUSH1 0x40 MLOAD PUSH3 0x461BCD PUSH1 0xE5 SHL DUP2 MSTORE PUSH1 0x20 PUSH1 0x4 DUP3 ADD MSTORE PUSH1 0x14 PUSH1 0x24 DUP3 ADD MSTORE PUSH20 0x496E76616C696420666565732061646472657373 PUSH1 0x60 SHL PUSH1 0x44 DUP3 ADD MSTORE PUSH1 0x64 ADD PUSH2 0x47C JUMP JUMPDEST PUSH1 0x3 DUP1 SLOAD PUSH1 0x1 PUSH1 0x1 PUSH1 0xA0 SHL SUB NOT SWAP1 DUP2 AND PUSH1 0x1 PUSH1 0x1 PUSH1 0xA0 SHL SUB DUP13 DUP2 AND SWAP2 SWAP1 SWAP2 OR SWAP1 SWAP3 SSTORE PUSH1 0x4 DUP1 SLOAD SWAP1 SWAP2 AND DUP11 DUP4 AND OR SWAP1 SSTORE PUSH1 0x5 DUP1 SLOAD SWAP2 DUP10 AND PUSH1 0x1 PUSH1 0x1 PUSH1 0xB8 SHL SUB NOT SWAP1 SWAP3 AND SWAP2 SWAP1 SWAP2 OR PUSH1 0x1 PUSH1 0xA0 SHL PUSH3 0xFFFFFF DUP10 AND MUL OR PUSH1 0xFF PUSH1 0xB8 SHL NOT AND SWAP1 SSTORE DUP4 ISZERO PUSH2 0xBC1 JUMPI DUP5 SLOAD PUSH1 0xFF PUSH1 0x40 SHL NOT AND DUP6 SSTORE PUSH1 0x40 MLOAD PUSH1 0x1 DUP2 MSTORE PUSH32 0xC7F505B2F371AE2175EE4913F4499E1F2633A7B5936321EED1CDAEB6115181D2 SWAP1 PUSH1 0x20 ADD PUSH1 0x40 MLOAD DUP1 SWAP2 SUB SWAP1 LOG1 JUMPDEST POP POP POP POP POP POP POP POP POP JUMP JUMPDEST PUSH2 0xBD4 PUSH2 0x1149 JUMP JUMPDEST PUSH0 PUSH1 0x5 SLOAD PUSH1 0x1 PUSH1 0xB8 SHL SWAP1 DIV PUSH1 0xFF AND PUSH1 0x1 DUP2 GT ISZERO PUSH2 0xBF3 JUMPI PUSH2 0xBF3 PUSH2 0x1DF9 JUMP JUMPDEST EQ PUSH2 0xC10 JUMPI PUSH1 0x40 MLOAD PUSH3 0x461BCD PUSH1 0xE5 SHL DUP2 MSTORE PUSH1 0x4 ADD PUSH2 0x47C SWAP1 PUSH2 0x1FB6 JUMP JUMPDEST PUSH0 PUSH2 0xC22 PUSH2 0xC1D DUP6 PUSH2 0x16FB JUMP JUMPDEST PUSH2 0x17F6 JUMP JUMPDEST SWAP1 POP PUSH0 PUSH2 0xC66 DUP5 DUP5 DUP1 DUP1 PUSH1 0x1F ADD PUSH1 0x20 DUP1 SWAP2 DIV MUL PUSH1 0x20 ADD PUSH1 0x40 MLOAD SWAP1 DUP2 ADD PUSH1 0x40 MSTORE DUP1 SWAP4 SWAP3 SWAP2 SWAP1 DUP2 DUP2 MSTORE PUSH1 0x20 ADD DUP4 DUP4 DUP1 DUP3 DUP5 CALLDATACOPY PUSH0 SWAP3 ADD SWAP2 SWAP1 SWAP2 MSTORE POP DUP7 SWAP4 SWAP3 POP POP PUSH2 0x1822 SWAP1 POP JUMP JUMPDEST PUSH1 0x3 SLOAD SWAP1 SWAP2 POP PUSH1 0x1 PUSH1 0x1 PUSH1 0xA0 SHL SUB DUP1 DUP4 AND SWAP2 AND EQ PUSH2 0xCBA JUMPI PUSH1 0x40 MLOAD PUSH3 0x461BCD PUSH1 0xE5 SHL DUP2 MSTORE PUSH1 0x20 PUSH1 0x4 DUP3 ADD MSTORE PUSH1 0x11 PUSH1 0x24 DUP3 ADD MSTORE PUSH17 0x496E76616C6964207369676E6174757265 PUSH1 0x78 SHL PUSH1 0x44 DUP3 ADD MSTORE PUSH1 0x64 ADD PUSH2 0x47C JUMP JUMPDEST DUP5 PUSH1 0xE0 ADD CALLDATALOAD TIMESTAMP GT ISZERO PUSH2 0xCFE JUMPI PUSH1 0x40 MLOAD PUSH3 0x461BCD PUSH1 0xE5 SHL DUP2 MSTORE PUSH1 0x20 PUSH1 0x4 DUP3 ADD MSTORE PUSH1 0xD PUSH1 0x24 DUP3 ADD MSTORE PUSH13 0x13DC99195C88195E1C1A5C9959 PUSH1 0x9A SHL PUSH1 0x44 DUP3 ADD MSTORE PUSH1 0x64 ADD PUSH2 0x47C JUMP JUMPDEST PUSH1 0x1 PUSH0 PUSH2 0xD0E PUSH1 0x20 DUP9 ADD DUP9 PUSH2 0x1CD3 JUMP JUMPDEST PUSH1 0x1 PUSH1 0x1 PUSH1 0x80 SHL SUB NOT AND DUP2 MSTORE PUSH1 0x20 DUP2 ADD SWAP2 SWAP1 SWAP2 MSTORE PUSH1 0x40 ADD PUSH0 KECCAK256 SLOAD PUSH1 0xFF AND ISZERO PUSH2 0xD78 JUMPI PUSH1 0x40 MLOAD PUSH3 0x461BCD PUSH1 0xE5 SHL DUP2 MSTORE PUSH1 0x20 PUSH1 0x4 DUP3 ADD MSTORE PUSH1 0x18 PUSH1 0x24 DUP3 ADD MSTORE PUSH32 0x4F7264657220616C726561647920726567697374657265640000000000000000 PUSH1 0x44 DUP3 ADD MSTORE PUSH1 0x64 ADD PUSH2 0x47C JUMP JUMPDEST PUSH0 PUSH2 0xD89 PUSH1 0x80 DUP8 ADD PUSH1 0x60 DUP9 ADD PUSH2 0x1F7F JUMP JUMPDEST SWAP1 POP PUSH0 PUSH2 0xD9C PUSH1 0x80 DUP9 ADD PUSH1 0x60 DUP10 ADD PUSH2 0x1F7F JUMP JUMPDEST PUSH1 0x1 PUSH1 0x1 PUSH1 0xA0 SHL SUB AND SUB PUSH2 0xDF7 JUMPI DUP6 PUSH1 0x80 ADD CALLDATALOAD CALLVALUE EQ PUSH2 0xDF2 JUMPI PUSH1 0x40 MLOAD PUSH3 0x461BCD PUSH1 0xE5 SHL DUP2 MSTORE PUSH1 0x20 PUSH1 0x4 DUP3 ADD MSTORE PUSH1 0x12 PUSH1 0x24 DUP3 ADD MSTORE PUSH18 0x125B98DBDC9C9958DD08115512081CD95B9D PUSH1 0x72 SHL PUSH1 0x44 DUP3 ADD MSTORE PUSH1 0x64 ADD PUSH2 0x47C JUMP JUMPDEST PUSH2 0xE68 JUMP JUMPDEST CALLVALUE ISZERO PUSH2 0xE4F JUMPI PUSH1 0x40 MLOAD PUSH3 0x461BCD PUSH1 0xE5 SHL DUP2 MSTORE PUSH1 0x20 PUSH1 0x4 DUP3 ADD MSTORE PUSH1 0x21 PUSH1 0x24 DUP3 ADD MSTORE PUSH32 0x446F206E6F742073656E642045544820666F72204552433230207061796D656E PUSH1 0x44 DUP3 ADD MSTORE PUSH1 0x1D PUSH1 0xFA SHL PUSH1 0x64 DUP3 ADD MSTORE PUSH1 0x84 ADD PUSH2 0x47C JUMP JUMPDEST PUSH2 0xE68 PUSH1 0x1 PUSH1 0x1 PUSH1 0xA0 SHL SUB DUP3 AND CALLER ADDRESS PUSH1 0x80 DUP11 ADD CALLDATALOAD PUSH2 0x184A JUMP JUMPDEST PUSH1 0x40 MLOAD DUP1 PUSH2 0x100 ADD PUSH1 0x40 MSTORE DUP1 DUP8 PUSH1 0x20 ADD PUSH1 0x20 DUP2 ADD SWAP1 PUSH2 0xE87 SWAP2 SWAP1 PUSH2 0x1F7F JUMP JUMPDEST PUSH1 0x1 PUSH1 0x1 PUSH1 0xA0 SHL SUB AND DUP2 MSTORE PUSH1 0x20 ADD PUSH2 0xEA5 PUSH1 0x60 DUP10 ADD PUSH1 0x40 DUP11 ADD PUSH2 0x1F7F JUMP JUMPDEST PUSH1 0x1 PUSH1 0x1 PUSH1 0xA0 SHL SUB AND DUP2 MSTORE PUSH1 0x20 ADD DUP3 PUSH1 0x1 PUSH1 0x1 PUSH1 0xA0 SHL SUB AND DUP2 MSTORE PUSH1 0x20 ADD DUP8 PUSH1 0x80 ADD CALLDATALOAD DUP2 MSTORE PUSH1 0x20 ADD DUP8 PUSH1 0xA0 ADD CALLDATALOAD DUP2 MSTORE PUSH1 0x20 ADD DUP8 PUSH1 0xC0 ADD CALLDATALOAD DUP2 MSTORE PUSH1 0x20 ADD TIMESTAMP DUP2 MSTORE PUSH1 0x20 ADD PUSH1 0x1 PUSH1 0x4 DUP2 GT ISZERO PUSH2 0xEF9 JUMPI PUSH2 0xEF9 PUSH2 0x1DF9 JUMP JUMPDEST SWAP1 MSTORE PUSH0 DUP1 PUSH2 0xF0A PUSH1 0x20 DUP11 ADD DUP11 PUSH2 0x1CD3 JUMP JUMPDEST PUSH1 0x1 PUSH1 0x1 PUSH1 0x80 SHL SUB NOT AND DUP2 MSTORE PUSH1 0x20 DUP1 DUP3 ADD SWAP3 SWAP1 SWAP3 MSTORE PUSH1 0x40 SWAP1 DUP2 ADD PUSH0 KECCAK256 DUP4 MLOAD DUP2 SLOAD PUSH1 0x1 PUSH1 0x1 PUSH1 0xA0 SHL SUB NOT SWAP1 DUP2 AND PUSH1 0x1 PUSH1 0x1 PUSH1 0xA0 SHL SUB SWAP3 DUP4 AND OR DUP4 SSTORE SWAP4 DUP6 ADD MLOAD PUSH1 0x1 DUP1 DUP5 ADD DUP1 SLOAD DUP8 AND SWAP3 DUP5 AND SWAP3 SWAP1 SWAP3 OR SWAP1 SWAP2 SSTORE SWAP3 DUP6 ADD MLOAD PUSH1 0x2 DUP4 ADD DUP1 SLOAD SWAP1 SWAP6 AND SWAP2 AND OR SWAP1 SWAP3 SSTORE PUSH1 0x60 DUP4 ADD MLOAD PUSH1 0x3 DUP4 ADD SSTORE PUSH1 0x80 DUP4 ADD MLOAD PUSH1 0x4 DUP1 DUP5 ADD SWAP2 SWAP1 SWAP2 SSTORE PUSH1 0xA0 DUP5 ADD MLOAD PUSH1 0x5 DUP5 ADD SSTORE PUSH1 0xC0 DUP5 ADD MLOAD PUSH1 0x6 DUP5 ADD SSTORE PUSH1 0xE0 DUP5 ADD MLOAD PUSH1 0x7 DUP5 ADD DUP1 SLOAD SWAP2 SWAP4 SWAP1 SWAP3 PUSH1 0xFF NOT SWAP1 SWAP3 AND SWAP2 DUP5 SWAP1 DUP2 GT ISZERO PUSH2 0xFC1 JUMPI PUSH2 0xFC1 PUSH2 0x1DF9 JUMP JUMPDEST MUL OR SWAP1 SSTORE POP PUSH1 0x1 SWAP2 POP DUP2 SWAP1 POP PUSH0 PUSH2 0xFDB PUSH1 0x20 DUP11 ADD DUP11 PUSH2 0x1CD3 JUMP JUMPDEST PUSH1 0x1 PUSH1 0x1 PUSH1 0x80 SHL SUB NOT AND DUP2 MSTORE PUSH1 0x20 DUP2 ADD SWAP2 SWAP1 SWAP2 MSTORE PUSH1 0x40 ADD PUSH0 SWAP1 DUP2 KECCAK256 DUP1 SLOAD PUSH1 0xFF NOT AND SWAP3 ISZERO ISZERO SWAP3 SWAP1 SWAP3 OR SWAP1 SWAP2 SSTORE PUSH1 0x2 DUP1 SLOAD PUSH1 0x1 SWAP3 SWAP1 PUSH2 0x1019 SWAP1 DUP5 SWAP1 PUSH2 0x2033 JUMP JUMPDEST SWAP1 SWAP2 SSTORE POP PUSH1 0x1 SWAP1 POP CALLER PUSH2 0x102F PUSH1 0x20 DUP10 ADD DUP10 PUSH2 0x1CD3 JUMP JUMPDEST PUSH1 0x1 PUSH1 0x1 PUSH1 0x80 SHL SUB NOT AND PUSH32 0xCBE7FF8E0A8E9F1BA9FB95B23B654905E70F0C53D8A889472A60F00D25042228 PUSH2 0x106A PUSH1 0x60 DUP12 ADD PUSH1 0x40 DUP13 ADD PUSH2 0x1F7F JUMP JUMPDEST PUSH1 0x40 MLOAD PUSH1 0x1 PUSH1 0x1 PUSH1 0xA0 SHL SUB SWAP1 SWAP2 AND DUP2 MSTORE PUSH1 0x20 ADD PUSH1 0x40 MLOAD DUP1 SWAP2 SUB SWAP1 LOG4 POP POP POP PUSH2 0x109E PUSH1 0x1 PUSH0 MLOAD PUSH1 0x20 PUSH2 0x21D3 PUSH0 CODECOPY PUSH0 MLOAD SWAP1 PUSH0 MSTORE SSTORE JUMP JUMPDEST POP POP POP JUMP JUMPDEST PUSH2 0x10AB PUSH2 0x14D5 JUMP JUMPDEST PUSH1 0x1 PUSH1 0x1 PUSH1 0xA0 SHL SUB DUP2 AND PUSH2 0x10D4 JUMPI PUSH1 0x40 MLOAD PUSH4 0x1E4FBDF7 PUSH1 0xE0 SHL DUP2 MSTORE PUSH0 PUSH1 0x4 DUP3 ADD MSTORE PUSH1 0x24 ADD PUSH2 0x47C JUMP JUMPDEST PUSH2 0x53A DUP2 PUSH2 0x1530 JUMP JUMPDEST PUSH2 0x10E5 PUSH2 0x14D5 JUMP JUMPDEST PUSH1 0x5 DUP1 SLOAD DUP3 SWAP2 SWAP1 PUSH1 0xFF PUSH1 0xB8 SHL NOT AND PUSH1 0x1 PUSH1 0xB8 SHL DUP4 PUSH1 0x1 DUP2 GT ISZERO PUSH2 0x110A JUMPI PUSH2 0x110A PUSH2 0x1DF9 JUMP JUMPDEST MUL OR SWAP1 SSTORE POP PUSH32 0xAB540C1B3DEFD38D975E65AA0E06EEEE132A55DD082BE87B73F505AB57BED48C DUP2 PUSH1 0x40 MLOAD PUSH2 0x113E SWAP2 SWAP1 PUSH2 0x1E0D JUMP JUMPDEST PUSH1 0x40 MLOAD DUP1 SWAP2 SUB SWAP1 LOG1 POP JUMP JUMPDEST PUSH0 MLOAD PUSH1 0x20 PUSH2 0x21D3 PUSH0 CODECOPY PUSH0 MLOAD SWAP1 PUSH0 MSTORE DUP1 SLOAD PUSH1 0x1 NOT ADD PUSH2 0x117A JUMPI PUSH1 0x40 MLOAD PUSH4 0x3EE5AEB5 PUSH1 0xE0 SHL DUP2 MSTORE PUSH1 0x4 ADD PUSH1 0x40 MLOAD DUP1 SWAP2 SUB SWAP1 REVERT JUMPDEST PUSH1 0x2 SWAP1 SSTORE JUMP JUMPDEST PUSH1 0x1 PUSH1 0x1 PUSH1 0x80 SHL SUB NOT DUP2 AND PUSH0 SWAP1 DUP2 MSTORE PUSH1 0x20 DUP2 SWAP1 MSTORE PUSH1 0x40 SWAP1 KECCAK256 PUSH1 0x1 PUSH1 0x7 DUP3 ADD SLOAD PUSH1 0xFF AND PUSH1 0x4 DUP2 GT ISZERO PUSH2 0x11B3 JUMPI PUSH2 0x11B3 PUSH2 0x1DF9 JUMP JUMPDEST EQ DUP1 PUSH2 0x11D7 JUMPI POP PUSH1 0x3 PUSH1 0x7 DUP3 ADD SLOAD PUSH1 0xFF AND PUSH1 0x4 DUP2 GT ISZERO PUSH2 0x11D5 JUMPI PUSH2 0x11D5 PUSH2 0x1DF9 JUMP JUMPDEST EQ JUMPDEST PUSH2 0x11F3 JUMPI PUSH1 0x40 MLOAD PUSH3 0x461BCD PUSH1 0xE5 SHL DUP2 MSTORE PUSH1 0x4 ADD PUSH2 0x47C SWAP1 PUSH2 0x1FE3 JUMP JUMPDEST PUSH1 0x7 DUP2 ADD DUP1 SLOAD PUSH1 0xFF NOT AND PUSH1 0x2 OR SWAP1 SSTORE PUSH1 0x5 DUP2 ADD SLOAD PUSH1 0x4 DUP3 ADD SLOAD PUSH1 0x3 DUP4 ADD SLOAD PUSH0 SWAP3 SWAP2 PUSH2 0x121D SWAP2 PUSH2 0x2046 JUMP JUMPDEST PUSH2 0x1227 SWAP2 SWAP1 PUSH2 0x2046 JUMP JUMPDEST PUSH1 0x2 DUP4 ADD SLOAD SWAP1 SWAP2 POP PUSH1 0x1 PUSH1 0x1 PUSH1 0xA0 SHL SUB AND PUSH2 0x12F3 JUMPI PUSH1 0x4 DUP1 SLOAD SWAP1 DUP4 ADD SLOAD PUSH1 0x40 MLOAD PUSH1 0x1 PUSH1 0x1 PUSH1 0xA0 SHL SUB SWAP1 SWAP3 AND SWAP2 DUP2 ISZERO PUSH2 0x8FC MUL SWAP2 SWAP1 PUSH0 DUP2 DUP2 DUP2 DUP6 DUP9 DUP9 CALL SWAP4 POP POP POP POP ISZERO DUP1 ISZERO PUSH2 0x1277 JUMPI RETURNDATASIZE PUSH0 PUSH0 RETURNDATACOPY RETURNDATASIZE PUSH0 REVERT JUMPDEST POP PUSH1 0x5 DUP1 SLOAD SWAP1 DUP4 ADD SLOAD PUSH1 0x40 MLOAD PUSH1 0x1 PUSH1 0x1 PUSH1 0xA0 SHL SUB SWAP1 SWAP3 AND SWAP2 DUP2 ISZERO PUSH2 0x8FC MUL SWAP2 SWAP1 PUSH0 DUP2 DUP2 DUP2 DUP6 DUP9 DUP9 CALL SWAP4 POP POP POP POP ISZERO DUP1 ISZERO PUSH2 0x12B3 JUMPI RETURNDATASIZE PUSH0 PUSH0 RETURNDATACOPY RETURNDATASIZE PUSH0 REVERT JUMPDEST POP PUSH1 0x1 DUP3 ADD SLOAD PUSH1 0x40 MLOAD PUSH1 0x1 PUSH1 0x1 PUSH1 0xA0 SHL SUB SWAP1 SWAP2 AND SWAP1 DUP3 ISZERO PUSH2 0x8FC MUL SWAP1 DUP4 SWAP1 PUSH0 DUP2 DUP2 DUP2 DUP6 DUP9 DUP9 CALL SWAP4 POP POP POP POP ISZERO DUP1 ISZERO PUSH2 0x12ED JUMPI RETURNDATASIZE PUSH0 PUSH0 RETURNDATACOPY RETURNDATASIZE PUSH0 REVERT JUMPDEST POP PUSH2 0x146D JUMP JUMPDEST PUSH1 0x2 DUP3 ADD SLOAD PUSH1 0x4 DUP1 SLOAD DUP2 DUP6 ADD SLOAD PUSH1 0x40 MLOAD PUSH4 0xA9059CBB PUSH1 0xE0 SHL DUP2 MSTORE PUSH1 0x1 PUSH1 0x1 PUSH1 0xA0 SHL SUB SWAP3 DUP4 AND SWAP4 DUP2 ADD SWAP4 SWAP1 SWAP4 MSTORE PUSH1 0x24 DUP4 ADD MSTORE SWAP1 SWAP2 AND SWAP1 PUSH4 0xA9059CBB SWAP1 PUSH1 0x44 ADD PUSH1 0x20 PUSH1 0x40 MLOAD DUP1 DUP4 SUB DUP2 PUSH0 DUP8 GAS CALL ISZERO DUP1 ISZERO PUSH2 0x134D JUMPI RETURNDATASIZE PUSH0 PUSH0 RETURNDATACOPY RETURNDATASIZE PUSH0 REVERT JUMPDEST POP POP POP POP PUSH1 0x40 MLOAD RETURNDATASIZE PUSH1 0x1F NOT PUSH1 0x1F DUP3 ADD AND DUP3 ADD DUP1 PUSH1 0x40 MSTORE POP DUP2 ADD SWAP1 PUSH2 0x1371 SWAP2 SWAP1 PUSH2 0x2059 JUMP JUMPDEST POP PUSH1 0x2 DUP3 ADD SLOAD PUSH1 0x5 DUP1 SLOAD SWAP1 DUP5 ADD SLOAD PUSH1 0x40 MLOAD PUSH4 0xA9059CBB PUSH1 0xE0 SHL DUP2 MSTORE PUSH1 0x1 PUSH1 0x1 PUSH1 0xA0 SHL SUB SWAP3 DUP4 AND PUSH1 0x4 DUP3 ADD MSTORE PUSH1 0x24 DUP2 ADD SWAP2 SWAP1 SWAP2 MSTORE SWAP2 AND SWAP1 PUSH4 0xA9059CBB SWAP1 PUSH1 0x44 ADD PUSH1 0x20 PUSH1 0x40 MLOAD DUP1 DUP4 SUB DUP2 PUSH0 DUP8 GAS CALL ISZERO DUP1 ISZERO PUSH2 0x13CC JUMPI RETURNDATASIZE PUSH0 PUSH0 RETURNDATACOPY RETURNDATASIZE PUSH0 REVERT JUMPDEST POP POP POP POP PUSH1 0x40 MLOAD RETURNDATASIZE PUSH1 0x1F NOT PUSH1 0x1F DUP3 ADD AND DUP3 ADD DUP1 PUSH1 0x40 MSTORE POP DUP2 ADD SWAP1 PUSH2 0x13F0 SWAP2 SWAP1 PUSH2 0x2059 JUMP JUMPDEST POP PUSH1 0x2 DUP3 ADD SLOAD PUSH1 0x1 DUP4 ADD SLOAD PUSH1 0x40 MLOAD PUSH4 0xA9059CBB PUSH1 0xE0 SHL DUP2 MSTORE PUSH1 0x1 PUSH1 0x1 PUSH1 0xA0 SHL SUB SWAP2 DUP3 AND PUSH1 0x4 DUP3 ADD MSTORE PUSH1 0x24 DUP2 ADD DUP5 SWAP1 MSTORE SWAP2 AND SWAP1 PUSH4 0xA9059CBB SWAP1 PUSH1 0x44 ADD PUSH1 0x20 PUSH1 0x40 MLOAD DUP1 DUP4 SUB DUP2 PUSH0 DUP8 GAS CALL ISZERO DUP1 ISZERO PUSH2 0x1447 JUMPI RETURNDATASIZE PUSH0 PUSH0 RETURNDATACOPY RETURNDATASIZE PUSH0 REVERT JUMPDEST POP POP POP POP PUSH1 0x40 MLOAD RETURNDATASIZE PUSH1 0x1F NOT PUSH1 0x1F DUP3 ADD AND DUP3 ADD DUP1 PUSH1 0x40 MSTORE POP DUP2 ADD SWAP1 PUSH2 0x146B SWAP2 SWAP1 PUSH2 0x2059 JUMP JUMPDEST POP JUMPDEST PUSH1 0x1 DUP3 ADD SLOAD PUSH1 0x40 MLOAD DUP3 DUP2 MSTORE PUSH1 0x1 PUSH1 0x1 PUSH1 0xA0 SHL SUB SWAP1 SWAP2 AND SWAP1 PUSH1 0x1 PUSH1 0x1 PUSH1 0x80 SHL SUB NOT DUP6 AND SWAP1 PUSH32 0xE60F924809AD7A86A6789604BDD4B0E09D0F5585DDE8E7290B4A37759CA77D0B SWAP1 PUSH1 0x20 ADD PUSH1 0x40 MLOAD DUP1 SWAP2 SUB SWAP1 LOG3 POP POP POP JUMP JUMPDEST PUSH1 0x1 PUSH0 MLOAD PUSH1 0x20 PUSH2 0x21D3 PUSH0 CODECOPY PUSH0 MLOAD SWAP1 PUSH0 MSTORE SSTORE JUMP JUMPDEST CALLER PUSH2 0x1507 PUSH32 0x9016D09D72D40FDAE2FD8CEAC6B6234C7706214FD39C1CD1E609A0528C199300 SLOAD PUSH1 0x1 PUSH1 0x1 PUSH1 0xA0 SHL SUB AND SWAP1 JUMP JUMPDEST PUSH1 0x1 PUSH1 0x1 PUSH1 0xA0 SHL SUB AND EQ PUSH2 0x7CF JUMPI PUSH1 0x40 MLOAD PUSH4 0x118CDAA7 PUSH1 0xE0 SHL DUP2 MSTORE CALLER PUSH1 0x4 DUP3 ADD MSTORE PUSH1 0x24 ADD PUSH2 0x47C JUMP JUMPDEST PUSH32 0x9016D09D72D40FDAE2FD8CEAC6B6234C7706214FD39C1CD1E609A0528C199300 DUP1 SLOAD PUSH1 0x1 PUSH1 0x1 PUSH1 0xA0 SHL SUB NOT DUP2 AND PUSH1 0x1 PUSH1 0x1 PUSH1 0xA0 SHL SUB DUP5 DUP2 AND SWAP2 DUP3 OR DUP5 SSTORE PUSH1 0x40 MLOAD SWAP3 AND SWAP2 DUP3 SWAP1 PUSH32 0x8BE0079C531659141344CD1FD0A4F28419497F9722A3DAAFE3B4186F6B6457E0 SWAP1 PUSH0 SWAP1 LOG3 POP POP POP JUMP JUMPDEST PUSH32 0xA16A46D94261C7517CC8FF89F61C0CE93598E3C849801011DEE649A6A557D102 DUP1 SLOAD PUSH1 0x60 SWAP2 PUSH0 MLOAD PUSH1 0x20 PUSH2 0x21B3 PUSH0 CODECOPY PUSH0 MLOAD SWAP1 PUSH0 MSTORE SWAP2 PUSH2 0x15DE SWAP1 PUSH2 0x2074 JUMP JUMPDEST DUP1 PUSH1 0x1F ADD PUSH1 0x20 DUP1 SWAP2 DIV MUL PUSH1 0x20 ADD PUSH1 0x40 MLOAD SWAP1 DUP2 ADD PUSH1 0x40 MSTORE DUP1 SWAP3 SWAP2 SWAP1 DUP2 DUP2 MSTORE PUSH1 0x20 ADD DUP3 DUP1 SLOAD PUSH2 0x160A SWAP1 PUSH2 0x2074 JUMP JUMPDEST DUP1 ISZERO PUSH2 0x1655 JUMPI DUP1 PUSH1 0x1F LT PUSH2 0x162C JUMPI PUSH2 0x100 DUP1 DUP4 SLOAD DIV MUL DUP4 MSTORE SWAP2 PUSH1 0x20 ADD SWAP2 PUSH2 0x1655 JUMP JUMPDEST DUP3 ADD SWAP2 SWAP1 PUSH0 MSTORE PUSH1 0x20 PUSH0 KECCAK256 SWAP1 JUMPDEST DUP2 SLOAD DUP2 MSTORE SWAP1 PUSH1 0x1 ADD SWAP1 PUSH1 0x20 ADD DUP1 DUP4 GT PUSH2 0x1638 JUMPI DUP3 SWAP1 SUB PUSH1 0x1F AND DUP3 ADD SWAP2 JUMPDEST POP POP POP POP POP SWAP2 POP POP SWAP1 JUMP JUMPDEST PUSH32 0xA16A46D94261C7517CC8FF89F61C0CE93598E3C849801011DEE649A6A557D103 DUP1 SLOAD PUSH1 0x60 SWAP2 PUSH0 MLOAD PUSH1 0x20 PUSH2 0x21B3 PUSH0 CODECOPY PUSH0 MLOAD SWAP1 PUSH0 MSTORE SWAP2 PUSH2 0x15DE SWAP1 PUSH2 0x2074 JUMP JUMPDEST PUSH0 DUP1 PUSH32 0xF0C57E16840DF040F15088DC2F81FE391C3923BEC73E23A9662EFC9C229C6A00 JUMPDEST SWAP3 SWAP2 POP POP JUMP JUMPDEST PUSH2 0x16D0 PUSH2 0x18AA JUMP JUMPDEST PUSH2 0x53A DUP2 PUSH2 0x18CF JUMP JUMPDEST PUSH2 0x16E1 PUSH2 0x18AA JUMP JUMPDEST PUSH2 0x7CF PUSH2 0x18D7 JUMP JUMPDEST PUSH2 0x16F1 PUSH2 0x18AA JUMP JUMPDEST PUSH2 0x681 DUP3 DUP3 PUSH2 0x18DF JUMP JUMPDEST PUSH0 PUSH32 0xF832F8ED29EF6F26AAA79D65FF922FD572AEDFA6DBD05BF3275AA667FE75650 PUSH2 0x172A PUSH1 0x20 DUP5 ADD DUP5 PUSH2 0x1CD3 JUMP JUMPDEST PUSH2 0x173A PUSH1 0x40 DUP6 ADD PUSH1 0x20 DUP7 ADD PUSH2 0x1F7F JUMP JUMPDEST PUSH2 0x174A PUSH1 0x60 DUP7 ADD PUSH1 0x40 DUP8 ADD PUSH2 0x1F7F JUMP JUMPDEST PUSH2 0x175A PUSH1 0x80 DUP8 ADD PUSH1 0x60 DUP9 ADD PUSH2 0x1F7F JUMP JUMPDEST DUP7 PUSH1 0x80 ADD CALLDATALOAD DUP8 PUSH1 0xA0 ADD CALLDATALOAD DUP9 PUSH1 0xC0 ADD CALLDATALOAD DUP10 PUSH1 0xE0 ADD CALLDATALOAD PUSH1 0x40 MLOAD PUSH1 0x20 ADD PUSH2 0x17D9 SWAP10 SWAP9 SWAP8 SWAP7 SWAP6 SWAP5 SWAP4 SWAP3 SWAP2 SWAP1 SWAP9 DUP10 MSTORE PUSH1 0x1 PUSH1 0x1 PUSH1 0x80 SHL SUB NOT SWAP8 SWAP1 SWAP8 AND PUSH1 0x20 DUP10 ADD MSTORE PUSH1 0x1 PUSH1 0x1 PUSH1 0xA0 SHL SUB SWAP6 DUP7 AND PUSH1 0x40 DUP10 ADD MSTORE SWAP4 DUP6 AND PUSH1 0x60 DUP9 ADD MSTORE SWAP2 SWAP1 SWAP4 AND PUSH1 0x80 DUP7 ADD MSTORE PUSH1 0xA0 DUP6 ADD SWAP3 SWAP1 SWAP3 MSTORE PUSH1 0xC0 DUP5 ADD SWAP2 SWAP1 SWAP2 MSTORE PUSH1 0xE0 DUP4 ADD MSTORE PUSH2 0x100 DUP3 ADD MSTORE PUSH2 0x120 ADD SWAP1 JUMP JUMPDEST PUSH1 0x40 MLOAD PUSH1 0x20 DUP2 DUP4 SUB SUB DUP2 MSTORE SWAP1 PUSH1 0x40 MSTORE DUP1 MLOAD SWAP1 PUSH1 0x20 ADD KECCAK256 SWAP1 POP SWAP2 SWAP1 POP JUMP JUMPDEST PUSH0 PUSH2 0x16C2 PUSH2 0x1802 PUSH2 0x193E JUMP JUMPDEST DUP4 PUSH1 0x40 MLOAD PUSH2 0x1901 PUSH1 0xF0 SHL DUP2 MSTORE PUSH1 0x2 DUP2 ADD SWAP3 SWAP1 SWAP3 MSTORE PUSH1 0x22 DUP3 ADD MSTORE PUSH1 0x42 SWAP1 KECCAK256 SWAP1 JUMP JUMPDEST PUSH0 PUSH0 PUSH0 PUSH0 PUSH2 0x1830 DUP7 DUP7 PUSH2 0x194C JUMP JUMPDEST SWAP3 POP SWAP3 POP SWAP3 POP PUSH2 0x1840 DUP3 DUP3 PUSH2 0x1995 JUMP JUMPDEST POP SWAP1 SWAP5 SWAP4 POP POP POP POP JUMP JUMPDEST PUSH1 0x40 DUP1 MLOAD PUSH1 0x1 PUSH1 0x1 PUSH1 0xA0 SHL SUB DUP6 DUP2 AND PUSH1 0x24 DUP4 ADD MSTORE DUP5 AND PUSH1 0x44 DUP3 ADD MSTORE PUSH1 0x64 DUP1 DUP3 ADD DUP5 SWAP1 MSTORE DUP3 MLOAD DUP1 DUP4 SUB SWAP1 SWAP2 ADD DUP2 MSTORE PUSH1 0x84 SWAP1 SWAP2 ADD SWAP1 SWAP2 MSTORE PUSH1 0x20 DUP2 ADD DUP1 MLOAD PUSH1 0x1 PUSH1 0x1 PUSH1 0xE0 SHL SUB AND PUSH4 0x23B872DD PUSH1 0xE0 SHL OR SWAP1 MSTORE PUSH2 0x18A4 SWAP1 DUP6 SWAP1 PUSH2 0x1A4D JUMP JUMPDEST POP POP POP POP JUMP JUMPDEST PUSH2 0x18B2 PUSH2 0x1AB9 JUMP JUMPDEST PUSH2 0x7CF JUMPI PUSH1 0x40 MLOAD PUSH4 0x1AFCD79F PUSH1 0xE3 SHL DUP2 MSTORE PUSH1 0x4 ADD PUSH1 0x40 MLOAD DUP1 SWAP2 SUB SWAP1 REVERT JUMPDEST PUSH2 0x10AB PUSH2 0x18AA JUMP JUMPDEST PUSH2 0x14C2 PUSH2 0x18AA JUMP JUMPDEST PUSH2 0x18E7 PUSH2 0x18AA JUMP JUMPDEST PUSH0 MLOAD PUSH1 0x20 PUSH2 0x21B3 PUSH0 CODECOPY PUSH0 MLOAD SWAP1 PUSH0 MSTORE PUSH32 0xA16A46D94261C7517CC8FF89F61C0CE93598E3C849801011DEE649A6A557D102 PUSH2 0x1920 DUP5 DUP3 PUSH2 0x20F7 JUMP JUMPDEST POP PUSH1 0x3 DUP2 ADD PUSH2 0x192F DUP4 DUP3 PUSH2 0x20F7 JUMP JUMPDEST POP PUSH0 DUP1 DUP3 SSTORE PUSH1 0x1 SWAP1 SWAP2 ADD SSTORE POP POP JUMP JUMPDEST PUSH0 PUSH2 0x1947 PUSH2 0x1AD2 JUMP JUMPDEST SWAP1 POP SWAP1 JUMP JUMPDEST PUSH0 PUSH0 PUSH0 DUP4 MLOAD PUSH1 0x41 SUB PUSH2 0x1983 JUMPI PUSH1 0x20 DUP5 ADD MLOAD PUSH1 0x40 DUP6 ADD MLOAD PUSH1 0x60 DUP7 ADD MLOAD PUSH0 BYTE PUSH2 0x1975 DUP9 DUP3 DUP6 DUP6 PUSH2 0x1B45 JUMP JUMPDEST SWAP6 POP SWAP6 POP SWAP6 POP POP POP POP PUSH2 0x198E JUMP JUMPDEST POP POP DUP2 MLOAD PUSH0 SWAP2 POP PUSH1 0x2 SWAP1 JUMPDEST SWAP3 POP SWAP3 POP SWAP3 JUMP JUMPDEST PUSH0 DUP3 PUSH1 0x3 DUP2 GT ISZERO PUSH2 0x19A8 JUMPI PUSH2 0x19A8 PUSH2 0x1DF9 JUMP JUMPDEST SUB PUSH2 0x19B1 JUMPI POP POP JUMP JUMPDEST PUSH1 0x1 DUP3 PUSH1 0x3 DUP2 GT ISZERO PUSH2 0x19C5 JUMPI PUSH2 0x19C5 PUSH2 0x1DF9 JUMP JUMPDEST SUB PUSH2 0x19E3 JUMPI PUSH1 0x40 MLOAD PUSH4 0xF645EEDF PUSH1 0xE0 SHL DUP2 MSTORE PUSH1 0x4 ADD PUSH1 0x40 MLOAD DUP1 SWAP2 SUB SWAP1 REVERT JUMPDEST PUSH1 0x2 DUP3 PUSH1 0x3 DUP2 GT ISZERO PUSH2 0x19F7 JUMPI PUSH2 0x19F7 PUSH2 0x1DF9 JUMP JUMPDEST SUB PUSH2 0x1A18 JUMPI PUSH1 0x40 MLOAD PUSH4 0xFCE698F7 PUSH1 0xE0 SHL DUP2 MSTORE PUSH1 0x4 DUP2 ADD DUP3 SWAP1 MSTORE PUSH1 0x24 ADD PUSH2 0x47C JUMP JUMPDEST PUSH1 0x3 DUP3 PUSH1 0x3 DUP2 GT ISZERO PUSH2 0x1A2C JUMPI PUSH2 0x1A2C PUSH2 0x1DF9 JUMP JUMPDEST SUB PUSH2 0x681 JUMPI PUSH1 0x40 MLOAD PUSH4 0x35E2F383 PUSH1 0xE2 SHL DUP2 MSTORE PUSH1 0x4 DUP2 ADD DUP3 SWAP1 MSTORE PUSH1 0x24 ADD PUSH2 0x47C JUMP JUMPDEST PUSH0 PUSH0 PUSH1 0x20 PUSH0 DUP5 MLOAD PUSH1 0x20 DUP7 ADD PUSH0 DUP9 GAS CALL DUP1 PUSH2 0x1A6C JUMPI PUSH1 0x40 MLOAD RETURNDATASIZE PUSH0 DUP3 RETURNDATACOPY RETURNDATASIZE DUP2 REVERT JUMPDEST POP POP PUSH0 MLOAD RETURNDATASIZE SWAP2 POP DUP2 ISZERO PUSH2 0x1A83 JUMPI DUP1 PUSH1 0x1 EQ ISZERO PUSH2 0x1A90 JUMP JUMPDEST PUSH1 0x1 PUSH1 0x1 PUSH1 0xA0 SHL SUB DUP5 AND EXTCODESIZE ISZERO JUMPDEST ISZERO PUSH2 0x18A4 JUMPI PUSH1 0x40 MLOAD PUSH4 0x5274AFE7 PUSH1 0xE0 SHL DUP2 MSTORE PUSH1 0x1 PUSH1 0x1 PUSH1 0xA0 SHL SUB DUP6 AND PUSH1 0x4 DUP3 ADD MSTORE PUSH1 0x24 ADD PUSH2 0x47C JUMP JUMPDEST PUSH0 PUSH2 0x1AC2 PUSH2 0x169E JUMP JUMPDEST SLOAD PUSH1 0x1 PUSH1 0x40 SHL SWAP1 DIV PUSH1 0xFF AND SWAP2 SWAP1 POP JUMP JUMPDEST PUSH0 PUSH32 0x8B73C3C69BB8FE3D512ECC4CF759CC79239F7B179B0FFACAA9A75D522B39400F PUSH2 0x1AFC PUSH2 0x1C0D JUMP JUMPDEST PUSH2 0x1B04 PUSH2 0x1C75 JUMP JUMPDEST PUSH1 0x40 DUP1 MLOAD PUSH1 0x20 DUP2 ADD SWAP5 SWAP1 SWAP5 MSTORE DUP4 ADD SWAP2 SWAP1 SWAP2 MSTORE PUSH1 0x60 DUP3 ADD MSTORE CHAINID PUSH1 0x80 DUP3 ADD MSTORE ADDRESS PUSH1 0xA0 DUP3 ADD MSTORE PUSH1 0xC0 ADD PUSH1 0x40 MLOAD PUSH1 0x20 DUP2 DUP4 SUB SUB DUP2 MSTORE SWAP1 PUSH1 0x40 MSTORE DUP1 MLOAD SWAP1 PUSH1 0x20 ADD KECCAK256 SWAP1 POP SWAP1 JUMP JUMPDEST PUSH0 DUP1 DUP1 PUSH32 0x7FFFFFFFFFFFFFFFFFFFFFFFFFFFFFFF5D576E7357A4501DDFE92F46681B20A0 DUP5 GT ISZERO PUSH2 0x1B7E JUMPI POP PUSH0 SWAP2 POP PUSH1 0x3 SWAP1 POP DUP3 PUSH2 0x1C03 JUMP JUMPDEST PUSH1 0x40 DUP1 MLOAD PUSH0 DUP1 DUP3 MSTORE PUSH1 0x20 DUP3 ADD DUP1 DUP5 MSTORE DUP11 SWAP1 MSTORE PUSH1 0xFF DUP10 AND SWAP3 DUP3 ADD SWAP3 SWAP1 SWAP3 MSTORE PUSH1 0x60 DUP2 ADD DUP8 SWAP1 MSTORE PUSH1 0x80 DUP2 ADD DUP7 SWAP1 MSTORE PUSH1 0x1 SWAP1 PUSH1 0xA0 ADD PUSH1 0x20 PUSH1 0x40 MLOAD PUSH1 0x20 DUP2 SUB SWAP1 DUP1 DUP5 SUB SWAP1 DUP6 GAS STATICCALL ISZERO DUP1 ISZERO PUSH2 0x1BCF JUMPI RETURNDATASIZE PUSH0 PUSH0 RETURNDATACOPY RETURNDATASIZE PUSH0 REVERT JUMPDEST POP POP PUSH1 0x40 MLOAD PUSH1 0x1F NOT ADD MLOAD SWAP2 POP POP PUSH1 0x1 PUSH1 0x1 PUSH1 0xA0 SHL SUB DUP2 AND PUSH2 0x1BFA JUMPI POP PUSH0 SWAP3 POP PUSH1 0x1 SWAP2 POP DUP3 SWAP1 POP PUSH2 0x1C03 JUMP JUMPDEST SWAP3 POP PUSH0 SWAP2 POP DUP2 SWAP1 POP JUMPDEST SWAP5 POP SWAP5 POP SWAP5 SWAP2 POP POP JUMP JUMPDEST PUSH0 PUSH0 MLOAD PUSH1 0x20 PUSH2 0x21B3 PUSH0 CODECOPY PUSH0 MLOAD SWAP1 PUSH0 MSTORE DUP2 PUSH2 0x1C25 PUSH2 0x15A0 JUMP JUMPDEST DUP1 MLOAD SWAP1 SWAP2 POP ISZERO PUSH2 0x1C3D JUMPI DUP1 MLOAD PUSH1 0x20 SWAP1 SWAP2 ADD KECCAK256 SWAP3 SWAP2 POP POP JUMP JUMPDEST DUP2 SLOAD DUP1 ISZERO PUSH2 0x1C4C JUMPI SWAP4 SWAP3 POP POP POP JUMP JUMPDEST PUSH32 0xC5D2460186F7233C927E7DB2DCC703C0E500B653CA82273B7BFAD8045D85A470 SWAP4 POP POP POP POP SWAP1 JUMP JUMPDEST PUSH0 PUSH0 MLOAD PUSH1 0x20 PUSH2 0x21B3 PUSH0 CODECOPY PUSH0 MLOAD SWAP1 PUSH0 MSTORE DUP2 PUSH2 0x1C8D PUSH2 0x1660 JUMP JUMPDEST DUP1 MLOAD SWAP1 SWAP2 POP ISZERO PUSH2 0x1CA5 JUMPI DUP1 MLOAD PUSH1 0x20 SWAP1 SWAP2 ADD KECCAK256 SWAP3 SWAP2 POP POP JUMP JUMPDEST PUSH1 0x1 DUP3 ADD SLOAD DUP1 ISZERO PUSH2 0x1C4C JUMPI SWAP4 SWAP3 POP POP POP JUMP JUMPDEST DUP1 CALLDATALOAD PUSH1 0x1 PUSH1 0x1 PUSH1 0x80 SHL SUB NOT DUP2 AND DUP2 EQ PUSH2 0x1CCE JUMPI PUSH0 PUSH0 REVERT JUMPDEST SWAP2 SWAP1 POP JUMP JUMPDEST PUSH0 PUSH1 0x20 DUP3 DUP5 SUB SLT ISZERO PUSH2 0x1CE3 JUMPI PUSH0 PUSH0 REVERT JUMPDEST PUSH2 0x1CEC DUP3 PUSH2 0x1CB7 JUMP JUMPDEST SWAP4 SWAP3 POP POP POP JUMP JUMPDEST DUP1 ISZERO ISZERO DUP2 EQ PUSH2 0x53A JUMPI PUSH0 PUSH0 REVERT JUMPDEST PUSH0 PUSH0 PUSH1 0x40 DUP4 DUP6 SUB SLT ISZERO PUSH2 0x1D11 JUMPI PUSH0 PUSH0 REVERT JUMPDEST PUSH2 0x1D1A DUP4 PUSH2 0x1CB7 JUMP JUMPDEST SWAP2 POP PUSH1 0x20 DUP4 ADD CALLDATALOAD PUSH2 0x1D2A DUP2 PUSH2 0x1CF3 JUMP JUMPDEST DUP1 SWAP2 POP POP SWAP3 POP SWAP3 SWAP1 POP JUMP JUMPDEST PUSH0 DUP2 MLOAD DUP1 DUP5 MSTORE DUP1 PUSH1 0x20 DUP5 ADD PUSH1 0x20 DUP7 ADD MCOPY PUSH0 PUSH1 0x20 DUP3 DUP7 ADD ADD MSTORE PUSH1 0x20 PUSH1 0x1F NOT PUSH1 0x1F DUP4 ADD AND DUP6 ADD ADD SWAP2 POP POP SWAP3 SWAP2 POP POP JUMP JUMPDEST PUSH1 0xFF PUSH1 0xF8 SHL DUP9 AND DUP2 MSTORE PUSH1 0xE0 PUSH1 0x20 DUP3 ADD MSTORE PUSH0 PUSH2 0x1D81 PUSH1 0xE0 DUP4 ADD DUP10 PUSH2 0x1D35 JUMP JUMPDEST DUP3 DUP2 SUB PUSH1 0x40 DUP5 ADD MSTORE PUSH2 0x1D93 DUP2 DUP10 PUSH2 0x1D35 JUMP JUMPDEST PUSH1 0x60 DUP5 ADD DUP9 SWAP1 MSTORE PUSH1 0x1 PUSH1 0x1 PUSH1 0xA0 SHL SUB DUP8 AND PUSH1 0x80 DUP6 ADD MSTORE PUSH1 0xA0 DUP5 ADD DUP7 SWAP1 MSTORE DUP4 DUP2 SUB PUSH1 0xC0 DUP6 ADD MSTORE DUP5 MLOAD DUP1 DUP3 MSTORE PUSH1 0x20 DUP1 DUP8 ADD SWAP4 POP SWAP1 SWAP2 ADD SWAP1 PUSH0 JUMPDEST DUP2 DUP2 LT ISZERO PUSH2 0x1DE8 JUMPI DUP4 MLOAD DUP4 MSTORE PUSH1 0x20 SWAP4 DUP5 ADD SWAP4 SWAP1 SWAP3 ADD SWAP2 PUSH1 0x1 ADD PUSH2 0x1DCA JUMP JUMPDEST POP SWAP1 SWAP12 SWAP11 POP POP POP POP POP POP POP POP POP POP POP JUMP JUMPDEST PUSH4 0x4E487B71 PUSH1 0xE0 SHL PUSH0 MSTORE PUSH1 0x21 PUSH1 0x4 MSTORE PUSH1 0x24 PUSH0 REVERT JUMPDEST PUSH1 0x20 DUP2 ADD PUSH1 0x2 DUP4 LT PUSH2 0x1E21 JUMPI PUSH2 0x1E21 PUSH2 0x1DF9 JUMP JUMPDEST SWAP2 SWAP1 MSTORE SWAP1 JUMP JUMPDEST DUP1 CALLDATALOAD PUSH1 0x1 PUSH1 0x1 PUSH1 0xA0 SHL SUB DUP2 AND DUP2 EQ PUSH2 0x1CCE JUMPI PUSH0 PUSH0 REVERT JUMPDEST PUSH0 PUSH0 PUSH0 PUSH0 PUSH1 0x80 DUP6 DUP8 SUB SLT ISZERO PUSH2 0x1E50 JUMPI PUSH0 PUSH0 REVERT JUMPDEST PUSH2 0x1E59 DUP6 PUSH2 0x1E27 JUMP JUMPDEST SWAP4 POP PUSH2 0x1E67 PUSH1 0x20 DUP7 ADD PUSH2 0x1E27 JUMP JUMPDEST SWAP3 POP PUSH2 0x1E75 PUSH1 0x40 DUP7 ADD PUSH2 0x1E27 JUMP JUMPDEST SWAP2 POP PUSH1 0x60 DUP6 ADD CALLDATALOAD PUSH3 0xFFFFFF DUP2 AND DUP2 EQ PUSH2 0x1E8C JUMPI PUSH0 PUSH0 REVERT JUMPDEST SWAP4 SWAP7 SWAP3 SWAP6 POP SWAP1 SWAP4 POP POP JUMP JUMPDEST PUSH1 0x1 PUSH1 0x1 PUSH1 0xA0 SHL SUB DUP10 DUP2 AND DUP3 MSTORE DUP9 DUP2 AND PUSH1 0x20 DUP4 ADD MSTORE DUP8 AND PUSH1 0x40 DUP3 ADD MSTORE PUSH1 0x60 DUP2 ADD DUP7 SWAP1 MSTORE PUSH1 0x80 DUP2 ADD DUP6 SWAP1 MSTORE PUSH1 0xA0 DUP2 ADD DUP5 SWAP1 MSTORE PUSH1 0xC0 DUP2 ADD DUP4 SWAP1 MSTORE PUSH2 0x100 DUP2 ADD PUSH1 0x5 DUP4 LT PUSH2 0x1EE4 JUMPI PUSH2 0x1EE4 PUSH2 0x1DF9 JUMP JUMPDEST DUP3 PUSH1 0xE0 DUP4 ADD MSTORE SWAP10 SWAP9 POP POP POP POP POP POP POP POP POP JUMP JUMPDEST PUSH0 PUSH0 PUSH0 DUP4 DUP6 SUB PUSH2 0x120 DUP2 SLT ISZERO PUSH2 0x1F0B JUMPI PUSH0 PUSH0 REVERT JUMPDEST PUSH2 0x100 DUP2 SLT ISZERO PUSH2 0x1F19 JUMPI PUSH0 PUSH0 REVERT JUMPDEST POP DUP4 SWAP3 POP PUSH2 0x100 DUP5 ADD CALLDATALOAD PUSH8 0xFFFFFFFFFFFFFFFF DUP2 GT ISZERO PUSH2 0x1F37 JUMPI PUSH0 PUSH0 REVERT JUMPDEST DUP5 ADD PUSH1 0x1F DUP2 ADD DUP7 SGT PUSH2 0x1F47 JUMPI PUSH0 PUSH0 REVERT JUMPDEST DUP1 CALLDATALOAD PUSH8 0xFFFFFFFFFFFFFFFF DUP2 GT ISZERO PUSH2 0x1F5D JUMPI PUSH0 PUSH0 REVERT JUMPDEST DUP7 PUSH1 0x20 DUP3 DUP5 ADD ADD GT ISZERO PUSH2 0x1F6E JUMPI PUSH0 PUSH0 REVERT JUMPDEST SWAP4 SWAP7 PUSH1 0x20 SWAP2 SWAP1 SWAP2 ADD SWAP6 POP SWAP3 SWAP4 POP POP POP JUMP JUMPDEST PUSH0 PUSH1 0x20 DUP3 DUP5 SUB SLT ISZERO PUSH2 0x1F8F JUMPI PUSH0 PUSH0 REVERT JUMPDEST PUSH2 0x1CEC DUP3 PUSH2 0x1E27 JUMP JUMPDEST PUSH0 PUSH1 0x20 DUP3 DUP5 SUB SLT ISZERO PUSH2 0x1FA8 JUMPI PUSH0 PUSH0 REVERT JUMPDEST DUP2 CALLDATALOAD PUSH1 0x2 DUP2 LT PUSH2 0x1CEC JUMPI PUSH0 PUSH0 REVERT JUMPDEST PUSH1 0x20 DUP1 DUP3 MSTORE PUSH1 0x13 SWAP1 DUP3 ADD MSTORE PUSH19 0x10DBDB9D1C9858DD0819195C1C9958D85D1959 PUSH1 0x6A SHL PUSH1 0x40 DUP3 ADD MSTORE PUSH1 0x60 ADD SWAP1 JUMP JUMPDEST PUSH1 0x20 DUP1 DUP3 MSTORE PUSH1 0xE SWAP1 DUP3 ADD MSTORE PUSH14 0x43616E6E6F742072656C65617365 PUSH1 0x90 SHL PUSH1 0x40 DUP3 ADD MSTORE PUSH1 0x60 ADD SWAP1 JUMP JUMPDEST PUSH4 0x4E487B71 PUSH1 0xE0 SHL PUSH0 MSTORE PUSH1 0x41 PUSH1 0x4 MSTORE PUSH1 0x24 PUSH0 REVERT JUMPDEST PUSH4 0x4E487B71 PUSH1 0xE0 SHL PUSH0 MSTORE PUSH1 0x11 PUSH1 0x4 MSTORE PUSH1 0x24 PUSH0 REVERT JUMPDEST DUP1 DUP3 ADD DUP1 DUP3 GT ISZERO PUSH2 0x16C2 JUMPI PUSH2 0x16C2 PUSH2 0x201F JUMP JUMPDEST DUP2 DUP2 SUB DUP2 DUP2 GT ISZERO PUSH2 0x16C2 JUMPI PUSH2 0x16C2 PUSH2 0x201F JUMP JUMPDEST PUSH0 PUSH1 0x20 DUP3 DUP5 SUB SLT ISZERO PUSH2 0x2069 JUMPI PUSH0 PUSH0 REVERT JUMPDEST DUP2 MLOAD PUSH2 0x1CEC DUP2 PUSH2 0x1CF3 JUMP JUMPDEST PUSH1 0x1 DUP2 DUP2 SHR SWAP1 DUP3 AND DUP1 PUSH2 0x2088 JUMPI PUSH1 0x7F DUP3 AND SWAP2 POP JUMPDEST PUSH1 0x20 DUP3 LT DUP2 SUB PUSH2 0x20A6 JUMPI PUSH4 0x4E487B71 PUSH1 0xE0 SHL PUSH0 MSTORE PUSH1 0x22 PUSH1 0x4 MSTORE PUSH1 0x24 PUSH0 REVERT JUMPDEST POP SWAP2 SWAP1 POP JUMP JUMPDEST PUSH1 0x1F DUP3 GT ISZERO PUSH2 0x109E JUMPI DUP1 PUSH0 MSTORE PUSH1 0x20 PUSH0 KECCAK256 PUSH1 0x1F DUP5 ADD PUSH1 0x5 SHR DUP2 ADD PUSH1 0x20 DUP6 LT ISZERO PUSH2 0x20D1 JUMPI POP DUP1 JUMPDEST PUSH1 0x1F DUP5 ADD PUSH1 0x5 SHR DUP3 ADD SWAP2 POP JUMPDEST DUP2 DUP2 LT ISZERO PUSH2 0x20F0 JUMPI PUSH0 DUP2 SSTORE PUSH1 0x1 ADD PUSH2 0x20DD JUMP JUMPDEST POP POP POP POP POP JUMP JUMPDEST DUP2 MLOAD PUSH8 0xFFFFFFFFFFFFFFFF DUP2 GT ISZERO PUSH2 0x2111 JUMPI PUSH2 0x2111 PUSH2 0x200B JUMP JUMPDEST PUSH2 0x2125 DUP2 PUSH2 0x211F DUP5 SLOAD PUSH2 0x2074 JUMP JUMPDEST DUP5 PUSH2 0x20AC JUMP JUMPDEST PUSH1 0x20 PUSH1 0x1F DUP3 GT PUSH1 0x1 DUP2 EQ PUSH2 0x2157 JUMPI PUSH0 DUP4 ISZERO PUSH2 0x2140 JUMPI POP DUP5 DUP3 ADD MLOAD JUMPDEST PUSH0 NOT PUSH1 0x3 DUP6 SWAP1 SHL SHR NOT AND PUSH1 0x1 DUP5 SWAP1 SHL OR DUP5 SSTORE PUSH2 0x20F0 JUMP JUMPDEST PUSH0 DUP5 DUP2 MSTORE PUSH1 0x20 DUP2 KECCAK256 PUSH1 0x1F NOT DUP6 AND SWAP2 JUMPDEST DUP3 DUP2 LT ISZERO PUSH2 0x2186 JUMPI DUP8 DUP6 ADD MLOAD DUP3 SSTORE PUSH1 0x20 SWAP5 DUP6 ADD SWAP5 PUSH1 0x1 SWAP1 SWAP3 ADD SWAP2 ADD PUSH2 0x2166 JUMP JUMPDEST POP DUP5 DUP3 LT ISZERO PUSH2 0x21A3 JUMPI DUP7 DUP5 ADD MLOAD PUSH0 NOT PUSH1 0x3 DUP8 SWAP1 SHL PUSH1 0xF8 AND SHR NOT AND DUP2 SSTORE JUMPDEST POP POP POP POP PUSH1 0x1 SWAP1 DUP2 SHL ADD SWAP1 SSTORE POP JUMP INVALID LOG1 PUSH11 0x46D94261C7517CC8FF89F6 SHR 0xC 0xE9 CALLDATALOAD SWAP9 0xE3 0xC8 BLOBHASH DUP1 LT GT 0xDE 0xE6 BLOBHASH 0xA6 0xA5 JUMPI 0xD1 STOP SWAP12 PUSH24 0x9B17422D0DF92223018B32B4D1FA46E071723D6817E2486D STOP EXTCODESIZE 0xEC 0xC5 PUSH0 STOP LOG2 PUSH5 0x6970667358 0x22 SLT KECCAK256 PUSH16 0xF8998EB6E4F0D87298400E0E856E2295 SWAP16 BASEFEE 0x23 GAS RETURNDATASIZE MLOAD CREATE2 0xEF 0xAF NOT ISZERO SAR 0xBC TSTORE 0xAB PUSH5 0x736F6C6343 STOP ADDMOD SHR STOP CALLER "},"methodIdentifiers":{"confirmDelivery(bytes16)":"11594e29","contractState()":"85209ee0","eip712Domain()":"84b0196e","initialize(address,address,address,uint24)":"c4627023","openDispute(bytes16)":"5ff93a75","orders(bytes16)":"c5c73124","ordersCount()":"35daa731","owner()":"8da5cb5b","platformFeeTreasury()":"9a0b79e5","platformTaxTreasury()":"187a4bba","registerEscrow((bytes16,address,address,address,uint256,uint256,uint256,uint256),bytes)":"c75f396a","releaseAfterTimeout(bytes16)":"97c163a0","releaseDelay()":"7195bf23","renounceOwnership()":"715018a6","resolveDispute(bytes16,bool)":"50515d5a","serverSigner()":"31af1908","setContractState(uint8)":"f7b4c187","transferOwnership(address)":"f2fde38b","usedOrderIds(bytes16)":"72907e9d"}}}}}