{"project/contracts/EscrowV2.sol":{"EscrowV2":{"abi":[{"inputs":[],"stateMutability":"nonpayable","type":"constructor"},{"inputs":[],"name":"ECDSAInvalidSignature","type":"error"},{"inputs":[{"internalType":"uint256","name":"length","type":"uint256"}],"name":"ECDSAInvalidSignatureLength","type":"error"},{"inputs":[{"internalType":"bytes32","name":"s","type":"bytes32"}],"name":"ECDSAInvalidSignatureS","type":"error"},{"inputs":[],"name":"InvalidInitialization","type":"error"},{"inputs":[],"name":"NotInitializing","type":"error"},{"inputs":[{"internalType":"address","name":"owner","type":"address"}],"name":"OwnableInvalidOwner","type":"error"},{"inputs":[{"internalType":"address","name":"account","type":"address"}],"name":"OwnableUnauthorizedAccount","type":"error"},{"inputs":[],"name":"ReentrancyGuardReentrantCall","type":"error"},{"inputs":[{"internalType":"address","name":"token","type":"address"}],"name":"SafeERC20FailedOperation","type":"error"},{"anonymous":false,"inputs":[{"indexed":false,"internalType":"enum EscrowV1.ContractState","name":"newState","type":"uint8"}],"name":"ContractStateChanged","type":"event"},{"anonymous":false,"inputs":[],"name":"EIP712DomainChanged","type":"event"},{"anonymous":false,"inputs":[{"indexed":true,"internalType":"bytes16","name":"orderId","type":"bytes16"},{"indexed":true,"internalType":"address","name":"buyer","type":"address"},{"indexed":true,"internalType":"enum EscrowV1.OrderState","name":"state","type":"uint8"},{"indexed":false,"internalType":"address","name":"seller","type":"address"}],"name":"EscrowRegistered","type":"event"},{"anonymous":false,"inputs":[{"indexed":false,"internalType":"uint64","name":"version","type":"uint64"}],"name":"Initialized","type":"event"},{"anonymous":false,"inputs":[{"indexed":true,"internalType":"bytes16","name":"orderId","type":"bytes16"}],"name":"OrderDisputed","type":"event"},{"anonymous":false,"inputs":[{"indexed":true,"internalType":"bytes16","name":"orderId","type":"bytes16"},{"indexed":true,"internalType":"address","name":"buyer","type":"address"},{"indexed":false,"internalType":"uint256","name":"amount","type":"uint256"}],"name":"OrderRefunded","type":"event"},{"anonymous":false,"inputs":[{"indexed":true,"internalType":"bytes16","name":"orderId","type":"bytes16"},{"indexed":true,"internalType":"address","name":"seller","type":"address"},{"indexed":false,"internalType":"uint256","name":"sellerAmount","type":"uint256"}],"name":"OrderReleased","type":"event"},{"anonymous":false,"inputs":[{"indexed":true,"internalType":"address","name":"previousOwner","type":"address"},{"indexed":true,"internalType":"address","name":"newOwner","type":"address"}],"name":"OwnershipTransferred","type":"event"},{"inputs":[{"internalType":"bytes16","name":"orderId","type":"bytes16"}],"name":"confirmDelivery","outputs":[],"stateMutability":"nonpayable","type":"function"},{"inputs":[],"name":"contractState","outputs":[{"internalType":"enum EscrowV1.ContractState","name":"","type":"uint8"}],"stateMutability":"view","type":"function"},{"inputs":[],"name":"eip712Domain","outputs":[{"internalType":"bytes1","name":"fields","type":"bytes1"},{"internalType":"string","name":"name","type":"string"},{"internalType":"string","name":"version","type":"string"},{"internalType":"uint256","name":"chainId","type":"uint256"},{"internalType":"address","name":"verifyingContract","type":"address"},{"internalType":"bytes32","name":"salt","type":"bytes32"},{"internalType":"uint256[]","name":"extensions","type":"uint256[]"}],"stateMutability":"view","type":"function"},{"inputs":[{"internalType":"address","name":"_serverSigner","type":"address"},{"internalType":"address","name":"_platformTaxTreasury","type":"address"},{"internalType":"address","name":"_platformFeeTreasury","type":"address"},{"internalType":"uint24","name":"_releaseDelay","type":"uint24"}],"name":"initialize","outputs":[],"stateMutability":"nonpayable","type":"function"},{"inputs":[{"internalType":"bytes16","name":"orderId","type":"bytes16"}],"name":"openDispute","outputs":[],"stateMutability":"nonpayable","type":"function"},{"inputs":[{"internalType":"bytes16","name":"","type":"bytes16"}],"name":"orders","outputs":[{"internalType":"address","name":"buyer","type":"address"},{"internalType":"address","name":"seller","type":"address"},{"internalType":"address","name":"paymentToken","type":"address"},{"internalType":"uint256","name":"total","type":"uint256"},{"internalType":"uint256","name":"taxes","type":"uint256"},{"internalType":"uint256","name":"platformFee","type":"uint256"},{"internalType":"uint256","name":"createdAt","type":"uint256"},{"internalType":"enum EscrowV1.OrderState","name":"state","type":"uint8"}],"stateMutability":"view","type":"function"},{"inputs":[],"name":"ordersCount","outputs":[{"internalType":"uint256","name":"","type":"uint256"}],"stateMutability":"view","type":"function"},{"inputs":[],"name":"owner","outputs":[{"internalType":"address","name":"","type":"address"}],"stateMutability":"view","type":"function"},{"inputs":[],"name":"platformFeeTreasury","outputs":[{"internalType":"address","name":"","type":"address"}],"stateMutability":"view","type":"function"},{"inputs":[],"name":"platformTaxTreasury","outputs":[{"internalType":"address","name":"","type":"address"}],"stateMutability":"view","type":"function"},{"inputs":[{"components":[{"internalType":"bytes16","name":"orderId","type":"bytes16"},{"internalType":"address","name":"buyer","type":"address"},{"internalType":"address","name":"seller","type":"address"},{"internalType":"address","name":"paymentToken","type":"address"},{"internalType":"uint256","name":"total","type":"uint256"},{"internalType":"uint256","name":"taxes","type":"uint256"},{"internalType":"uint256","name":"platformFee","type":"uint256"},{"internalType":"uint256","name":"deadline","type":"uint256"}],"internalType":"struct EscrowV1.OrderPayload","name":"orderPayload","type":"tuple"},{"internalType":"bytes","name":"signature","type":"bytes"}],"name":"registerEscrow","outputs":[],"stateMutability":"payable","type":"function"},{"inputs":[{"components":[{"internalType":"bytes16","name":"orderId","type":"bytes16"},{"internalType":"address","name":"buyer","type":"address"},{"internalType":"address","name":"seller","type":"address"},{"internalType":"address","name":"paymentToken","type":"address"},{"internalType":"uint256","name":"total","type":"uint256"},{"internalType":"uint256","name":"taxes","type":"uint256"},{"internalType":"uint256","name":"platformFee","type":"uint256"},{"internalType":"uint256","name":"deadline","type":"uint256"}],"internalType":"struct EscrowV1.OrderPayload","name":"orderPayload","type":"tuple"},{"internalType":"bytes","name":"signature","type":"bytes"}],"name":"registerEscrowOrder","outputs":[],"stateMutability":"payable","type":"function"},{"inputs":[{"internalType":"bytes16","name":"orderId","type":"bytes16"}],"name":"releaseAfterTimeout","outputs":[],"stateMutability":"nonpayable","type":"function"},{"inputs":[],"name":"releaseDelay","outputs":[{"internalType":"uint24","name":"","type":"uint24"}],"stateMutability":"view","type":"function"},{"inputs":[],"name":"renounceOwnership","outputs":[],"stateMutability":"nonpayable","type":"function"},{"inputs":[{"internalType":"bytes16","name":"orderId","type":"bytes16"},{"internalType":"bool","name":"refundBuyer","type":"bool"}],"name":"resolveDispute","outputs":[],"stateMutability":"nonpayable","type":"function"},{"inputs":[],"name":"serverSigner","outputs":[{"internalType":"address","name":"","type":"address"}],"stateMutability":"view","type":"function"},{"inputs":[{"internalType":"enum EscrowV1.ContractState","name":"newState","type":"uint8"}],"name":"setContractState","outputs":[],"stateMutability":"nonpayable","type":"function"},{"inputs":[{"internalType":"address","name":"newOwner","type":"address"}],"name":"transferOwnership","outputs":[],"stateMutability":"nonpayable","type":"function"},{"inputs":[{"internalType":"bytes16","name":"","type":"bytes16"}],"name":"usedOrderIds","outputs":[{"internalType":"bool","name":"","type":"bool"}],"stateMutability":"view","type":"function"}],"evm":{"bytecode":{"linkReferences":{},"object":"6080604052348015600e575f5ffd5b506015601f565b601b601f565b60cf565b7ff0c57e16840df040f15088dc2f81fe391c3923bec73e23a9662efc9c229c6a00805468010000000000000000900460ff1615606e5760405163f92ee8a960e01b815260040160405180910390fd5b80546001600160401b039081161460cc5780546001600160401b0319166001600160401b0390811782556040519081527fc7f505b2f371ae2175ee4913f4499e1f2633a7b5936321eed1cdaeb6115181d29060200160405180910390a15b50565b6126ae806100dc5f395ff3fe60806040526004361061011b575f3560e01c806384b0196e1161009d578063c462702311610062578063c462702314610365578063c5c7312414610384578063c75f396a14610405578063f2fde38b14610418578063f7b4c18714610437575f5ffd5b806384b0196e1461029757806385209ee0146102be5780638da5cb5b146102eb57806397c163a0146103275780639a0b79e514610346575f5ffd5b806350a4f0fe116100e357806350a4f0fe146101dd5780635ff93a75146101f0578063715018a61461020f5780637195bf231461022357806372907e9d14610259575f5ffd5b806311594e291461011f578063187a4bba1461014057806331af19081461017c57806335daa7311461019b57806350515d5a146101be575b5f5ffd5b34801561012a575f5ffd5b5061013e610139366004612159565b610456565b005b34801561014b575f5ffd5b5060045461015f906001600160a01b031681565b6040516001600160a01b0390911681526020015b60405180910390f35b348015610187575f5ffd5b5060035461015f906001600160a01b031681565b3480156101a6575f5ffd5b506101b060025481565b604051908152602001610173565b3480156101c9575f5ffd5b5061013e6101d8366004612186565b61055b565b61013e6101eb3660046121bb565b6106a3565b3480156101fb575f5ffd5b5061013e61020a366004612159565b610b75565b34801561021a575f5ffd5b5061013e610cae565b34801561022e575f5ffd5b5060055461024590600160a01b900462ffffff1681565b60405162ffffff9091168152602001610173565b348015610264575f5ffd5b50610287610273366004612159565b60016020525f908152604090205460ff1681565b6040519015158152602001610173565b3480156102a2575f5ffd5b506102ab610cc1565b6040516101739796959493929190612271565b3480156102c9575f5ffd5b506005546102de90600160b81b900460ff1681565b604051610173919061231b565b3480156102f6575f5ffd5b507f9016d09d72d40fdae2fd8ceac6b6234c7706214fd39c1cd1e609a0528c199300546001600160a01b031661015f565b348015610332575f5ffd5b5061013e610341366004612159565b610d6a565b348015610351575f5ffd5b5060055461015f906001600160a01b031681565b348015610370575f5ffd5b5061013e61037f36600461234b565b610e1b565b34801561038f575f5ffd5b506103f161039e366004612159565b5f60208190529081526040902080546001820154600283015460038401546004850154600586015460068701546007909701546001600160a01b0396871697958716969094169492939192909160ff1688565b6040516101739897969594939291906123a5565b61013e6104133660046121bb565b6110bc565b348015610423575f5ffd5b5061013e610432366004612405565b611525565b348015610442575f5ffd5b5061013e61045136600461241e565b61155f565b61045e6115cb565b5f600554600160b81b900460ff16600181111561047d5761047d612307565b146104a35760405162461bcd60e51b815260040161049a9061243c565b60405180910390fd5b6001600160801b031981165f90815260208190526040902080546001600160a01b031633146105005760405162461bcd60e51b81526020600482015260096024820152682737ba10313abcb2b960b91b604482015260640161049a565b6001600782015460ff16600481111561051b5761051b612307565b146105385760405162461bcd60e51b815260040161049a90612469565b61054182611602565b5061055860015f5160206126595f395f51905f5255565b50565b610563611957565b61056b6115cb565b6001600160801b031982165f9081526020819052604090206003600782015460ff16600481111561059e5761059e612307565b146105d85760405162461bcd60e51b815260206004820152600a6024820152694e6f206469737075746560b01b604482015260640161049a565b811561067f5760078101805460ff19166004179055805460038201546040516001600160a01b03909216916108fc82150291905f818181858888f19350505050158015610627573d5f5f3e3d5ffd5b50805460038201546040519081526001600160a01b03909116906001600160801b03198516907fafab81c7cff0515ab993a1cf55536d90f68cf5ec75deab830fd758b2a7f296ed9060200160405180910390a3610688565b61068883611602565b5061069f60015f5160206126595f395f51905f5255565b5050565b6106ab6115cb565b5f600554600160b81b900460ff1660018111156106ca576106ca612307565b146106e75760405162461bcd60e51b815260040161049a9061243c565b5f6106f96106f4856119b2565b611aad565b90505f61073d84848080601f0160208091040260200160405190810160405280939291908181526020018383808284375f920191909152508693925050611adf9050565b6003549091506001600160a01b038083169116146107915760405162461bcd60e51b8152602060048201526011602482015270496e76616c6964207369676e617475726560781b604482015260640161049a565b8460e001354211156107d55760405162461bcd60e51b815260206004820152600d60248201526c13dc99195c88195e1c1a5c9959609a1b604482015260640161049a565b60015f6107e56020880188612159565b6001600160801b031916815260208101919091526040015f205460ff161561084a5760405162461bcd60e51b815260206004820152601860248201527713dc99195c88185b1c9958591e481c9959da5cdd195c995960421b604482015260640161049a565b5f61085b6080870160608801612405565b90505f61086e6080880160608901612405565b6001600160a01b0316036108c957856080013534146108c45760405162461bcd60e51b8152602060048201526012602482015271125b98dbdc9c9958dd08115512081cd95b9d60721b604482015260640161049a565b61093a565b34156109215760405162461bcd60e51b815260206004820152602160248201527f446f206e6f742073656e642045544820666f72204552433230207061796d656e6044820152601d60fa1b606482015260840161049a565b61093a6001600160a01b038216333060808a0135611b07565b6040518061010001604052808760200160208101906109599190612405565b6001600160a01b031681526020016109776060890160408a01612405565b6001600160a01b03168152602001826001600160a01b03168152602001876080013581526020018760a0013581526020018760c001358152602001428152602001600160048111156109cb576109cb612307565b90525f806109dc60208a018a612159565b6001600160801b031916815260208082019290925260409081015f20835181546001600160a01b03199081166001600160a01b0392831617835593850151600180840180548716928416929092179091559285015160028301805490951691161790925560608301516003830155608083015160048084019190915560a0840151600584015560c0840151600684015560e08401516007840180549193909260ff19909216918490811115610a9357610a93612307565b0217905550600191508190505f610aad60208a018a612159565b6001600160801b031916815260208101919091526040015f908120805460ff1916921515929092179091556002805460019290610aeb9084906124a5565b909155506001905033610b016020890189612159565b6001600160801b0319167fcbe7ff8e0a8e9f1ba9fb95b23b654905e70f0c53d8a889472a60f00d25042228610b3c60608b0160408c01612405565b6040516001600160a01b03909116815260200160405180910390a4505050610b7060015f5160206126595f395f51905f5255565b505050565b5f600554600160b81b900460ff166001811115610b9457610b94612307565b14610bb15760405162461bcd60e51b815260040161049a9061243c565b6001600160801b031981165f90815260208190526040902080546001600160a01b03163314610c0e5760405162461bcd60e51b81526020600482015260096024820152682737ba10313abcb2b960b91b604482015260640161049a565b6001600782015460ff166004811115610c2957610c29612307565b14610c675760405162461bcd60e51b815260206004820152600e60248201526d43616e6e6f74206469737075746560901b604482015260640161049a565b60078101805460ff191660031790556040516001600160801b03198316907fdb1a1355b8cffea63b711aac689b380d6d3fa596333cf6a852d993988526e0ae905f90a25050565b610cb6611957565b610cbf5f611b67565b565b5f60608082808083815f5160206126395f395f51905f528054909150158015610cec57506001810154155b610d305760405162461bcd60e51b81526020600482015260156024820152741152540dcc4c8e88155b9a5b9a5d1a585b1a5e9959605a1b604482015260640161049a565b610d38611bd7565b610d40611c97565b604080515f80825260208201909252600f60f81b9c939b5091995046985030975095509350915050565b610d726115cb565b6001600160801b031981165f9081526020819052604090206001600782015460ff166004811115610da557610da5612307565b14610dc25760405162461bcd60e51b815260040161049a90612469565b6005546006820154610de091600160a01b900462ffffff16906124a5565b4210156105385760405162461bcd60e51b8152602060048201526009602482015268546f6f206561726c7960b81b604482015260640161049a565b5f610e24611cd5565b805490915060ff600160401b820416159067ffffffffffffffff165f81158015610e4b5750825b90505f8267ffffffffffffffff166001148015610e675750303b155b905081158015610e75575080155b15610e935760405163f92ee8a960e01b815260040160405180910390fd5b845467ffffffffffffffff191660011785558315610ebd57845460ff60401b1916600160401b1785555b610ec633611cfd565b610ece611d0e565b610f266040518060400160405280601881526020017f4d594150505f414d4f595f455343524f575f4f52444552530000000000000000815250604051806040016040528060018152602001603160f81b815250611d1e565b6001600160a01b038916610f745760405162461bcd60e51b815260206004820152601560248201527424b73b30b634b21039b2b93b32b91039b4b3b732b960591b604482015260640161049a565b6001600160a01b038816610fc25760405162461bcd60e51b8152602060048201526015602482015274496e76616c6964207461786573206164647265737360581b604482015260640161049a565b6001600160a01b03871661100f5760405162461bcd60e51b8152602060048201526014602482015273496e76616c69642066656573206164647265737360601b604482015260640161049a565b600380546001600160a01b03199081166001600160a01b038c811691909117909255600480549091168a8316179055600580549189166001600160b81b031990921691909117600160a01b62ffffff8916021760ff60b81b1916905583156110b157845460ff60401b19168555604051600181527fc7f505b2f371ae2175ee4913f4499e1f2633a7b5936321eed1cdaeb6115181d29060200160405180910390a15b505050505050505050565b6110c46115cb565b5f600554600160b81b900460ff1660018111156110e3576110e3612307565b146111005760405162461bcd60e51b815260040161049a9061243c565b5f34116111405760405162461bcd60e51b815260206004820152600e60248201526d125b9d985b1a5908185b5bdd5b9d60921b604482015260640161049a565b5f61114d6106f4856119b2565b90505f61119184848080601f0160208091040260200160405190810160405280939291908181526020018383808284375f920191909152508693925050611adf9050565b6003549091506001600160a01b038083169116146111e55760405162461bcd60e51b8152602060048201526011602482015270496e76616c6964207369676e617475726560781b604482015260640161049a565b8460e001354211156112295760405162461bcd60e51b815260206004820152600d60248201526c13dc99195c88195e1c1a5c9959609a1b604482015260640161049a565b60015f6112396020880188612159565b6001600160801b031916815260208101919091526040015f205460ff161561129e5760405162461bcd60e51b815260206004820152601860248201527713dc99195c88185b1c9958591e481c9959da5cdd195c995960421b604482015260640161049a565b6001805f6112af6020890189612159565b6001600160801b031916815260208101919091526040015f20805460ff19169115159190911790556080850135341461131f5760405162461bcd60e51b81526020600482015260126024820152715061792056616c75652069732077726f6e6760701b604482015260640161049a565b60405180610100016040528086602001602081019061133e9190612405565b6001600160a01b0316815260200161135c6060880160408901612405565b6001600160a01b0316815260200161137a6080880160608901612405565b6001600160a01b03168152602001866080013581526020018660a0013581526020018660c001358152602001428152602001600160048111156113bf576113bf612307565b90525f806113d06020890189612159565b6001600160801b031916815260208082019290925260409081015f20835181546001600160a01b03199081166001600160a01b0392831617835593850151600180840180548716928416929092179091559285015160028301805490951691161790925560608301516003830155608083015160048084019190915560a0840151600584015560c0840151600684015560e08401516007840180549193909260ff1990921691849081111561148757611487612307565b0217905550905050600160025f8282546114a191906124a5565b9091555060019050336114b76020880188612159565b6001600160801b0319167fcbe7ff8e0a8e9f1ba9fb95b23b654905e70f0c53d8a889472a60f00d250422286114f260608a0160408b01612405565b6040516001600160a01b03909116815260200160405180910390a45050610b7060015f5160206126595f395f51905f5255565b61152d611957565b6001600160a01b03811661155657604051631e4fbdf760e01b81525f600482015260240161049a565b61055881611b67565b611567611957565b6005805482919060ff60b81b1916600160b81b83600181111561158c5761158c612307565b02179055507fab540c1b3defd38d975e65aa0e06eeee132a55dd082be87b73f505ab57bed48c816040516115c0919061231b565b60405180910390a150565b5f5160206126595f395f51905f528054600119016115fc57604051633ee5aeb560e01b815260040160405180910390fd5b60029055565b6001600160801b031981165f9081526020819052604090206001600782015460ff16600481111561163557611635612307565b148061165957506003600782015460ff16600481111561165757611657612307565b145b6116755760405162461bcd60e51b815260040161049a90612469565b60078101805460ff191660021790556005810154600482015460038301545f929161169f916124cc565b6116a991906124cc565b60028301549091506001600160a01b03166117755760048054908301546040516001600160a01b039092169181156108fc0291905f818181858888f193505050501580156116f9573d5f5f3e3d5ffd5b5060058054908301546040516001600160a01b039092169181156108fc0291905f818181858888f19350505050158015611735573d5f5f3e3d5ffd5b5060018201546040516001600160a01b039091169082156108fc029083905f818181858888f1935050505015801561176f573d5f5f3e3d5ffd5b506118ef565b6002820154600480548185015460405163a9059cbb60e01b81526001600160a01b039283169381019390935260248301529091169063a9059cbb906044016020604051808303815f875af11580156117cf573d5f5f3e3d5ffd5b505050506040513d601f19601f820116820180604052508101906117f391906124df565b506002820154600580549084015460405163a9059cbb60e01b81526001600160a01b039283166004820152602481019190915291169063a9059cbb906044016020604051808303815f875af115801561184e573d5f5f3e3d5ffd5b505050506040513d601f19601f8201168201806040525081019061187291906124df565b506002820154600183015460405163a9059cbb60e01b81526001600160a01b0391821660048201526024810184905291169063a9059cbb906044016020604051808303815f875af11580156118c9573d5f5f3e3d5ffd5b505050506040513d601f19601f820116820180604052508101906118ed91906124df565b505b60018201546040518281526001600160a01b03909116906001600160801b03198516907fe60f924809ad7a86a6789604bdd4b0e09d0f5585dde8e7290b4a37759ca77d0b9060200160405180910390a3505050565b60015f5160206126595f395f51905f5255565b336119897f9016d09d72d40fdae2fd8ceac6b6234c7706214fd39c1cd1e609a0528c199300546001600160a01b031690565b6001600160a01b031614610cbf5760405163118cdaa760e01b815233600482015260240161049a565b5f7f0f832f8ed29ef6f26aaa79d65ff922fd572aedfa6dbd05bf3275aa667fe756506119e16020840184612159565b6119f16040850160208601612405565b611a016060860160408701612405565b611a116080870160608801612405565b86608001358760a001358860c001358960e00135604051602001611a90999897969594939291909889526001600160801b03199790971660208901526001600160a01b039586166040890152938516606088015291909316608086015260a085019290925260c084019190915260e08301526101008201526101200190565b604051602081830303815290604052805190602001209050919050565b5f611ad9611ab9611d30565b8360405161190160f01b8152600281019290925260228201526042902090565b92915050565b5f5f5f5f611aed8686611d3e565b925092509250611afd8282611d87565b5090949350505050565b604080516001600160a01b0385811660248301528416604482015260648082018490528251808303909101815260849091019091526020810180516001600160e01b03166323b872dd60e01b179052611b61908590611e3f565b50505050565b7f9016d09d72d40fdae2fd8ceac6b6234c7706214fd39c1cd1e609a0528c19930080546001600160a01b031981166001600160a01b03848116918217845560405192169182907f8be0079c531659141344cd1fd0a4f28419497f9722a3daafe3b4186f6b6457e0905f90a3505050565b7fa16a46d94261c7517cc8ff89f61c0ce93598e3c849801011dee649a6a557d10280546060915f5160206126395f395f51905f5291611c15906124fa565b80601f0160208091040260200160405190810160405280929190818152602001828054611c41906124fa565b8015611c8c5780601f10611c6357610100808354040283529160200191611c8c565b820191905f5260205f20905b815481529060010190602001808311611c6f57829003601f168201915b505050505091505090565b7fa16a46d94261c7517cc8ff89f61c0ce93598e3c849801011dee649a6a557d10380546060915f5160206126395f395f51905f5291611c15906124fa565b5f807ff0c57e16840df040f15088dc2f81fe391c3923bec73e23a9662efc9c229c6a00611ad9565b611d05611eab565b61055881611ed0565b611d16611eab565b610cbf611ed8565b611d26611eab565b61069f8282611ee0565b5f611d39611f3f565b905090565b5f5f5f8351604103611d75576020840151604085015160608601515f1a611d6788828585611fb2565b955095509550505050611d80565b505081515f91506002905b9250925092565b5f826003811115611d9a57611d9a612307565b03611da3575050565b6001826003811115611db757611db7612307565b03611dd55760405163f645eedf60e01b815260040160405180910390fd5b6002826003811115611de957611de9612307565b03611e0a5760405163fce698f760e01b81526004810182905260240161049a565b6003826003811115611e1e57611e1e612307565b0361069f576040516335e2f38360e21b81526004810182905260240161049a565b5f5f60205f8451602086015f885af180611e5e576040513d5f823e3d81fd5b50505f513d91508115611e75578060011415611e82565b6001600160a01b0384163b155b15611b6157604051635274afe760e01b81526001600160a01b038516600482015260240161049a565b611eb361207a565b610cbf57604051631afcd79f60e31b815260040160405180910390fd5b61152d611eab565b611944611eab565b611ee8611eab565b5f5160206126395f395f51905f527fa16a46d94261c7517cc8ff89f61c0ce93598e3c849801011dee649a6a557d102611f21848261257d565b5060038101611f30838261257d565b505f8082556001909101555050565b5f7f8b73c3c69bb8fe3d512ecc4cf759cc79239f7b179b0ffacaa9a75d522b39400f611f69612093565b611f716120fb565b60408051602081019490945283019190915260608201524660808201523060a082015260c00160405160208183030381529060405280519060200120905090565b5f80807f7fffffffffffffffffffffffffffffff5d576e7357a4501ddfe92f46681b20a0841115611feb57505f91506003905082612070565b604080515f808252602082018084528a905260ff891692820192909252606081018790526080810186905260019060a0016020604051602081039080840390855afa15801561203c573d5f5f3e3d5ffd5b5050604051601f1901519150506001600160a01b03811661206757505f925060019150829050612070565b92505f91508190505b9450945094915050565b5f612083611cd5565b54600160401b900460ff16919050565b5f5f5160206126395f395f51905f52816120ab611bd7565b8051909150156120c357805160209091012092915050565b815480156120d2579392505050565b7fc5d2460186f7233c927e7db2dcc703c0e500b653ca82273b7bfad8045d85a470935050505090565b5f5f5160206126395f395f51905f5281612113611c97565b80519091501561212b57805160209091012092915050565b600182015480156120d2579392505050565b80356001600160801b031981168114612154575f5ffd5b919050565b5f60208284031215612169575f5ffd5b6121728261213d565b9392505050565b8015158114610558575f5ffd5b5f5f60408385031215612197575f5ffd5b6121a08361213d565b915060208301356121b081612179565b809150509250929050565b5f5f5f8385036101208112156121cf575f5ffd5b6101008112156121dd575f5ffd5b5083925061010084013567ffffffffffffffff8111156121fb575f5ffd5b8401601f8101861361220b575f5ffd5b803567ffffffffffffffff811115612221575f5ffd5b866020828401011115612232575f5ffd5b939660209190910195509293505050565b5f81518084528060208401602086015e5f602082860101526020601f19601f83011685010191505092915050565b60ff60f81b8816815260e060208201525f61228f60e0830189612243565b82810360408401526122a18189612243565b606084018890526001600160a01b038716608085015260a0840186905283810360c0850152845180825260208087019350909101905f5b818110156122f65783518352602093840193909201916001016122d8565b50909b9a5050505050505050505050565b634e487b7160e01b5f52602160045260245ffd5b602081016002831061232f5761232f612307565b91905290565b80356001600160a01b0381168114612154575f5ffd5b5f5f5f5f6080858703121561235e575f5ffd5b61236785612335565b935061237560208601612335565b925061238360408601612335565b9150606085013562ffffff8116811461239a575f5ffd5b939692955090935050565b6001600160a01b038981168252888116602083015287166040820152606081018690526080810185905260a0810184905260c081018390526101008101600583106123f2576123f2612307565b8260e08301529998505050505050505050565b5f60208284031215612415575f5ffd5b61217282612335565b5f6020828403121561242e575f5ffd5b813560028110612172575f5ffd5b60208082526013908201527210dbdb9d1c9858dd0819195c1c9958d85d1959606a1b604082015260600190565b6020808252600e908201526d43616e6e6f742072656c6561736560901b604082015260600190565b634e487b7160e01b5f52601160045260245ffd5b80820180821115611ad957611ad9612491565b634e487b7160e01b5f52604160045260245ffd5b81810381811115611ad957611ad9612491565b5f602082840312156124ef575f5ffd5b815161217281612179565b600181811c9082168061250e57607f821691505b60208210810361252c57634e487b7160e01b5f52602260045260245ffd5b50919050565b601f821115610b7057805f5260205f20601f840160051c810160208510156125575750805b601f840160051c820191505b81811015612576575f8155600101612563565b5050505050565b815167ffffffffffffffff811115612597576125976124b8565b6125ab816125a584546124fa565b84612532565b6020601f8211600181146125dd575f83156125c65750848201515b5f19600385901b1c1916600184901b178455612576565b5f84815260208120601f198516915b8281101561260c57878501518255602094850194600190920191016125ec565b508482101561262957868401515f19600387901b60f8161c191681555b50505050600190811b0190555056fea16a46d94261c7517cc8ff89f61c0ce93598e3c849801011dee649a6a557d1009b779b17422d0df92223018b32b4d1fa46e071723d6817e2486d003becc55f00a2646970667358221220f79fd6b0cba135d8ee4db2452ea8c7db1062360c0dd80a6f546d3186da5b017364736f6c634300081c0033","opcodes":"PUSH1 0x80 PUSH1 0x40 MSTORE CALLVALUE DUP1 ISZERO PUSH1 0xE JUMPI PUSH0 PUSH0 REVERT JUMPDEST POP PUSH1 0x15 PUSH1 0x1F JUMP JUMPDEST PUSH1 0x1B PUSH1 0x1F JUMP JUMPDEST PUSH1 0xCF JUMP JUMPDEST PUSH32 0xF0C57E16840DF040F15088DC2F81FE391C3923BEC73E23A9662EFC9C229C6A00 DUP1 SLOAD PUSH9 0x10000000000000000 SWAP1 DIV PUSH1 0xFF AND ISZERO PUSH1 0x6E JUMPI PUSH1 0x40 MLOAD PUSH4 0xF92EE8A9 PUSH1 0xE0 SHL DUP2 MSTORE PUSH1 0x4 ADD PUSH1 0x40 MLOAD DUP1 SWAP2 SUB SWAP1 REVERT JUMPDEST DUP1 SLOAD PUSH1 0x1 PUSH1 0x1 PUSH1 0x40 SHL SUB SWAP1 DUP2 AND EQ PUSH1 0xCC JUMPI DUP1 SLOAD PUSH1 0x1 PUSH1 0x1 PUSH1 0x40 SHL SUB NOT AND PUSH1 0x1 PUSH1 0x1 PUSH1 0x40 SHL SUB SWAP1 DUP2 OR DUP3 SSTORE PUSH1 0x40 MLOAD SWAP1 DUP2 MSTORE PUSH32 0xC7F505B2F371AE2175EE4913F4499E1F2633A7B5936321EED1CDAEB6115181D2 SWAP1 PUSH1 0x20 ADD PUSH1 0x40 MLOAD DUP1 SWAP2 SUB SWAP1 LOG1 JUMPDEST POP JUMP JUMPDEST PUSH2 0x26AE DUP1 PUSH2 0xDC PUSH0 CODECOPY PUSH0 RETURN INVALID PUSH1 0x80 PUSH1 0x40 MSTORE PUSH1 0x4 CALLDATASIZE LT PUSH2 0x11B JUMPI PUSH0 CALLDATALOAD PUSH1 0xE0 SHR DUP1 PUSH4 0x84B0196E GT PUSH2 0x9D JUMPI DUP1 PUSH4 0xC4627023 GT PUSH2 0x62 JUMPI DUP1 PUSH4 0xC4627023 EQ PUSH2 0x365 JUMPI DUP1 PUSH4 0xC5C73124 EQ PUSH2 0x384 JUMPI DUP1 PUSH4 0xC75F396A EQ PUSH2 0x405 JUMPI DUP1 PUSH4 0xF2FDE38B EQ PUSH2 0x418 JUMPI DUP1 PUSH4 0xF7B4C187 EQ PUSH2 0x437 JUMPI PUSH0 PUSH0 REVERT JUMPDEST DUP1 PUSH4 0x84B0196E EQ PUSH2 0x297 JUMPI DUP1 PUSH4 0x85209EE0 EQ PUSH2 0x2BE JUMPI DUP1 PUSH4 0x8DA5CB5B EQ PUSH2 0x2EB JUMPI DUP1 PUSH4 0x97C163A0 EQ PUSH2 0x327 JUMPI DUP1 PUSH4 0x9A0B79E5 EQ PUSH2 0x346 JUMPI PUSH0 PUSH0 REVERT JUMPDEST DUP1 PUSH4 0x50A4F0FE GT PUSH2 0xE3 JUMPI DUP1 PUSH4 0x50A4F0FE EQ PUSH2 0x1DD JUMPI DUP1 PUSH4 0x5FF93A75 EQ PUSH2 0x1F0 JUMPI DUP1 PUSH4 0x715018A6 EQ PUSH2 0x20F JUMPI DUP1 PUSH4 0x7195BF23 EQ PUSH2 0x223 JUMPI DUP1 PUSH4 0x72907E9D EQ PUSH2 0x259 JUMPI PUSH0 PUSH0 REVERT JUMPDEST DUP1 PUSH4 0x11594E29 EQ PUSH2 0x11F JUMPI DUP1 PUSH4 0x187A4BBA EQ PUSH2 0x140 JUMPI DUP1 PUSH4 0x31AF1908 EQ PUSH2 0x17C JUMPI DUP1 PUSH4 0x35DAA731 EQ PUSH2 0x19B JUMPI DUP1 PUSH4 0x50515D5A EQ PUSH2 0x1BE JUMPI JUMPDEST PUSH0 PUSH0 REVERT JUMPDEST CALLVALUE DUP1 ISZERO PUSH2 0x12A JUMPI PUSH0 PUSH0 REVERT JUMPDEST POP PUSH2 0x13E PUSH2 0x139 CALLDATASIZE PUSH1 0x4 PUSH2 0x2159 JUMP JUMPDEST PUSH2 0x456 JUMP JUMPDEST STOP JUMPDEST CALLVALUE DUP1 ISZERO PUSH2 0x14B JUMPI PUSH0 PUSH0 REVERT JUMPDEST POP PUSH1 0x4 SLOAD PUSH2 0x15F SWAP1 PUSH1 0x1 PUSH1 0x1 PUSH1 0xA0 SHL SUB AND DUP2 JUMP JUMPDEST PUSH1 0x40 MLOAD PUSH1 0x1 PUSH1 0x1 PUSH1 0xA0 SHL SUB SWAP1 SWAP2 AND DUP2 MSTORE PUSH1 0x20 ADD JUMPDEST PUSH1 0x40 MLOAD DUP1 SWAP2 SUB SWAP1 RETURN JUMPDEST CALLVALUE DUP1 ISZERO PUSH2 0x187 JUMPI PUSH0 PUSH0 REVERT JUMPDEST POP PUSH1 0x3 SLOAD PUSH2 0x15F SWAP1 PUSH1 0x1 PUSH1 0x1 PUSH1 0xA0 SHL SUB AND DUP2 JUMP JUMPDEST CALLVALUE DUP1 ISZERO PUSH2 0x1A6 JUMPI PUSH0 PUSH0 REVERT JUMPDEST POP PUSH2 0x1B0 PUSH1 0x2 SLOAD DUP2 JUMP JUMPDEST PUSH1 0x40 MLOAD SWAP1 DUP2 MSTORE PUSH1 0x20 ADD PUSH2 0x173 JUMP JUMPDEST CALLVALUE DUP1 ISZERO PUSH2 0x1C9 JUMPI PUSH0 PUSH0 REVERT JUMPDEST POP PUSH2 0x13E PUSH2 0x1D8 CALLDATASIZE PUSH1 0x4 PUSH2 0x2186 JUMP JUMPDEST PUSH2 0x55B JUMP JUMPDEST PUSH2 0x13E PUSH2 0x1EB CALLDATASIZE PUSH1 0x4 PUSH2 0x21BB JUMP JUMPDEST PUSH2 0x6A3 JUMP JUMPDEST CALLVALUE DUP1 ISZERO PUSH2 0x1FB JUMPI PUSH0 PUSH0 REVERT JUMPDEST POP PUSH2 0x13E PUSH2 0x20A CALLDATASIZE PUSH1 0x4 PUSH2 0x2159 JUMP JUMPDEST PUSH2 0xB75 JUMP JUMPDEST CALLVALUE DUP1 ISZERO PUSH2 0x21A JUMPI PUSH0 PUSH0 REVERT JUMPDEST POP PUSH2 0x13E PUSH2 0xCAE JUMP JUMPDEST CALLVALUE DUP1 ISZERO PUSH2 0x22E JUMPI PUSH0 PUSH0 REVERT JUMPDEST POP PUSH1 0x5 SLOAD PUSH2 0x245 SWAP1 PUSH1 0x1 PUSH1 0xA0 SHL SWAP1 DIV PUSH3 0xFFFFFF AND DUP2 JUMP JUMPDEST PUSH1 0x40 MLOAD PUSH3 0xFFFFFF SWAP1 SWAP2 AND DUP2 MSTORE PUSH1 0x20 ADD PUSH2 0x173 JUMP JUMPDEST CALLVALUE DUP1 ISZERO PUSH2 0x264 JUMPI PUSH0 PUSH0 REVERT JUMPDEST POP PUSH2 0x287 PUSH2 0x273 CALLDATASIZE PUSH1 0x4 PUSH2 0x2159 JUMP JUMPDEST PUSH1 0x1 PUSH1 0x20 MSTORE PUSH0 SWAP1 DUP2 MSTORE PUSH1 0x40 SWAP1 KECCAK256 SLOAD PUSH1 0xFF AND DUP2 JUMP JUMPDEST PUSH1 0x40 MLOAD SWAP1 ISZERO ISZERO DUP2 MSTORE PUSH1 0x20 ADD PUSH2 0x173 JUMP JUMPDEST CALLVALUE DUP1 ISZERO PUSH2 0x2A2 JUMPI PUSH0 PUSH0 REVERT JUMPDEST POP PUSH2 0x2AB PUSH2 0xCC1 JUMP JUMPDEST PUSH1 0x40 MLOAD PUSH2 0x173 SWAP8 SWAP7 SWAP6 SWAP5 SWAP4 SWAP3 SWAP2 SWAP1 PUSH2 0x2271 JUMP JUMPDEST CALLVALUE DUP1 ISZERO PUSH2 0x2C9 JUMPI PUSH0 PUSH0 REVERT JUMPDEST POP PUSH1 0x5 SLOAD PUSH2 0x2DE SWAP1 PUSH1 0x1 PUSH1 0xB8 SHL SWAP1 DIV PUSH1 0xFF AND DUP2 JUMP JUMPDEST PUSH1 0x40 MLOAD PUSH2 0x173 SWAP2 SWAP1 PUSH2 0x231B JUMP JUMPDEST CALLVALUE DUP1 ISZERO PUSH2 0x2F6 JUMPI PUSH0 PUSH0 REVERT JUMPDEST POP PUSH32 0x9016D09D72D40FDAE2FD8CEAC6B6234C7706214FD39C1CD1E609A0528C199300 SLOAD PUSH1 0x1 PUSH1 0x1 PUSH1 0xA0 SHL SUB AND PUSH2 0x15F JUMP JUMPDEST CALLVALUE DUP1 ISZERO PUSH2 0x332 JUMPI PUSH0 PUSH0 REVERT JUMPDEST POP PUSH2 0x13E PUSH2 0x341 CALLDATASIZE PUSH1 0x4 PUSH2 0x2159 JUMP JUMPDEST PUSH2 0xD6A JUMP JUMPDEST CALLVALUE DUP1 ISZERO PUSH2 0x351 JUMPI PUSH0 PUSH0 REVERT JUMPDEST POP PUSH1 0x5 SLOAD PUSH2 0x15F SWAP1 PUSH1 0x1 PUSH1 0x1 PUSH1 0xA0 SHL SUB AND DUP2 JUMP JUMPDEST CALLVALUE DUP1 ISZERO PUSH2 0x370 JUMPI PUSH0 PUSH0 REVERT JUMPDEST POP PUSH2 0x13E PUSH2 0x37F CALLDATASIZE PUSH1 0x4 PUSH2 0x234B JUMP JUMPDEST PUSH2 0xE1B JUMP JUMPDEST CALLVALUE DUP1 ISZERO PUSH2 0x38F JUMPI PUSH0 PUSH0 REVERT JUMPDEST POP PUSH2 0x3F1 PUSH2 0x39E CALLDATASIZE PUSH1 0x4 PUSH2 0x2159 JUMP JUMPDEST PUSH0 PUSH1 0x20 DUP2 SWAP1 MSTORE SWAP1 DUP2 MSTORE PUSH1 0x40 SWAP1 KECCAK256 DUP1 SLOAD PUSH1 0x1 DUP3 ADD SLOAD PUSH1 0x2 DUP4 ADD SLOAD PUSH1 0x3 DUP5 ADD SLOAD PUSH1 0x4 DUP6 ADD SLOAD PUSH1 0x5 DUP7 ADD SLOAD PUSH1 0x6 DUP8 ADD SLOAD PUSH1 0x7 SWAP1 SWAP8 ADD SLOAD PUSH1 0x1 PUSH1 0x1 PUSH1 0xA0 SHL SUB SWAP7 DUP8 AND SWAP8 SWAP6 DUP8 AND SWAP7 SWAP1 SWAP5 AND SWAP5 SWAP3 SWAP4 SWAP2 SWAP3 SWAP1 SWAP2 PUSH1 0xFF AND DUP9 JUMP JUMPDEST PUSH1 0x40 MLOAD PUSH2 0x173 SWAP9 SWAP8 SWAP7 SWAP6 SWAP5 SWAP4 SWAP3 SWAP2 SWAP1 PUSH2 0x23A5 JUMP JUMPDEST PUSH2 0x13E PUSH2 0x413 CALLDATASIZE PUSH1 0x4 PUSH2 0x21BB JUMP JUMPDEST PUSH2 0x10BC JUMP JUMPDEST CALLVALUE DUP1 ISZERO PUSH2 0x423 JUMPI PUSH0 PUSH0 REVERT JUMPDEST POP PUSH2 0x13E PUSH2 0x432 CALLDATASIZE PUSH1 0x4 PUSH2 0x2405 JUMP JUMPDEST PUSH2 0x1525 JUMP JUMPDEST CALLVALUE DUP1 ISZERO PUSH2 0x442 JUMPI PUSH0 PUSH0 REVERT JUMPDEST POP PUSH2 0x13E PUSH2 0x451 CALLDATASIZE PUSH1 0x4 PUSH2 0x241E JUMP JUMPDEST PUSH2 0x155F JUMP JUMPDEST PUSH2 0x45E PUSH2 0x15CB JUMP JUMPDEST PUSH0 PUSH1 0x5 SLOAD PUSH1 0x1 PUSH1 0xB8 SHL SWAP1 DIV PUSH1 0xFF AND PUSH1 0x1 DUP2 GT ISZERO PUSH2 0x47D JUMPI PUSH2 0x47D PUSH2 0x2307 JUMP JUMPDEST EQ PUSH2 0x4A3 JUMPI PUSH1 0x40 MLOAD PUSH3 0x461BCD PUSH1 0xE5 SHL DUP2 MSTORE PUSH1 0x4 ADD PUSH2 0x49A SWAP1 PUSH2 0x243C JUMP JUMPDEST PUSH1 0x40 MLOAD DUP1 SWAP2 SUB SWAP1 REVERT JUMPDEST PUSH1 0x1 PUSH1 0x1 PUSH1 0x80 SHL SUB NOT DUP2 AND PUSH0 SWAP1 DUP2 MSTORE PUSH1 0x20 DUP2 SWAP1 MSTORE PUSH1 0x40 SWAP1 KECCAK256 DUP1 SLOAD PUSH1 0x1 PUSH1 0x1 PUSH1 0xA0 SHL SUB AND CALLER EQ PUSH2 0x500 JUMPI PUSH1 0x40 MLOAD PUSH3 0x461BCD PUSH1 0xE5 SHL DUP2 MSTORE PUSH1 0x20 PUSH1 0x4 DUP3 ADD MSTORE PUSH1 0x9 PUSH1 0x24 DUP3 ADD MSTORE PUSH9 0x2737BA10313ABCB2B9 PUSH1 0xB9 SHL PUSH1 0x44 DUP3 ADD MSTORE PUSH1 0x64 ADD PUSH2 0x49A JUMP JUMPDEST PUSH1 0x1 PUSH1 0x7 DUP3 ADD SLOAD PUSH1 0xFF AND PUSH1 0x4 DUP2 GT ISZERO PUSH2 0x51B JUMPI PUSH2 0x51B PUSH2 0x2307 JUMP JUMPDEST EQ PUSH2 0x538 JUMPI PUSH1 0x40 MLOAD PUSH3 0x461BCD PUSH1 0xE5 SHL DUP2 MSTORE PUSH1 0x4 ADD PUSH2 0x49A SWAP1 PUSH2 0x2469 JUMP JUMPDEST PUSH2 0x541 DUP3 PUSH2 0x1602 JUMP JUMPDEST POP PUSH2 0x558 PUSH1 0x1 PUSH0 MLOAD PUSH1 0x20 PUSH2 0x2659 PUSH0 CODECOPY PUSH0 MLOAD SWAP1 PUSH0 MSTORE SSTORE JUMP JUMPDEST POP JUMP JUMPDEST PUSH2 0x563 PUSH2 0x1957 JUMP JUMPDEST PUSH2 0x56B PUSH2 0x15CB JUMP JUMPDEST PUSH1 0x1 PUSH1 0x1 PUSH1 0x80 SHL SUB NOT DUP3 AND PUSH0 SWAP1 DUP2 MSTORE PUSH1 0x20 DUP2 SWAP1 MSTORE PUSH1 0x40 SWAP1 KECCAK256 PUSH1 0x3 PUSH1 0x7 DUP3 ADD SLOAD PUSH1 0xFF AND PUSH1 0x4 DUP2 GT ISZERO PUSH2 0x59E JUMPI PUSH2 0x59E PUSH2 0x2307 JUMP JUMPDEST EQ PUSH2 0x5D8 JUMPI PUSH1 0x40 MLOAD PUSH3 0x461BCD PUSH1 0xE5 SHL DUP2 MSTORE PUSH1 0x20 PUSH1 0x4 DUP3 ADD MSTORE PUSH1 0xA PUSH1 0x24 DUP3 ADD MSTORE PUSH10 0x4E6F2064697370757465 PUSH1 0xB0 SHL PUSH1 0x44 DUP3 ADD MSTORE PUSH1 0x64 ADD PUSH2 0x49A JUMP JUMPDEST DUP2 ISZERO PUSH2 0x67F JUMPI PUSH1 0x7 DUP2 ADD DUP1 SLOAD PUSH1 0xFF NOT AND PUSH1 0x4 OR SWAP1 SSTORE DUP1 SLOAD PUSH1 0x3 DUP3 ADD SLOAD PUSH1 0x40 MLOAD PUSH1 0x1 PUSH1 0x1 PUSH1 0xA0 SHL SUB SWAP1 SWAP3 AND SWAP2 PUSH2 0x8FC DUP3 ISZERO MUL SWAP2 SWAP1 PUSH0 DUP2 DUP2 DUP2 DUP6 DUP9 DUP9 CALL SWAP4 POP POP POP POP ISZERO DUP1 ISZERO PUSH2 0x627 JUMPI RETURNDATASIZE PUSH0 PUSH0 RETURNDATACOPY RETURNDATASIZE PUSH0 REVERT JUMPDEST POP DUP1 SLOAD PUSH1 0x3 DUP3 ADD SLOAD PUSH1 0x40 MLOAD SWAP1 DUP2 MSTORE PUSH1 0x1 PUSH1 0x1 PUSH1 0xA0 SHL SUB SWAP1 SWAP2 AND SWAP1 PUSH1 0x1 PUSH1 0x1 PUSH1 0x80 SHL SUB NOT DUP6 AND SWAP1 PUSH32 0xAFAB81C7CFF0515AB993A1CF55536D90F68CF5EC75DEAB830FD758B2A7F296ED SWAP1 PUSH1 0x20 ADD PUSH1 0x40 MLOAD DUP1 SWAP2 SUB SWAP1 LOG3 PUSH2 0x688 JUMP JUMPDEST PUSH2 0x688 DUP4 PUSH2 0x1602 JUMP JUMPDEST POP PUSH2 0x69F PUSH1 0x1 PUSH0 MLOAD PUSH1 0x20 PUSH2 0x2659 PUSH0 CODECOPY PUSH0 MLOAD SWAP1 PUSH0 MSTORE SSTORE JUMP JUMPDEST POP POP JUMP JUMPDEST PUSH2 0x6AB PUSH2 0x15CB JUMP JUMPDEST PUSH0 PUSH1 0x5 SLOAD PUSH1 0x1 PUSH1 0xB8 SHL SWAP1 DIV PUSH1 0xFF AND PUSH1 0x1 DUP2 GT ISZERO PUSH2 0x6CA JUMPI PUSH2 0x6CA PUSH2 0x2307 JUMP JUMPDEST EQ PUSH2 0x6E7 JUMPI PUSH1 0x40 MLOAD PUSH3 0x461BCD PUSH1 0xE5 SHL DUP2 MSTORE PUSH1 0x4 ADD PUSH2 0x49A SWAP1 PUSH2 0x243C JUMP JUMPDEST PUSH0 PUSH2 0x6F9 PUSH2 0x6F4 DUP6 PUSH2 0x19B2 JUMP JUMPDEST PUSH2 0x1AAD JUMP JUMPDEST SWAP1 POP PUSH0 PUSH2 0x73D DUP5 DUP5 DUP1 DUP1 PUSH1 0x1F ADD PUSH1 0x20 DUP1 SWAP2 DIV MUL PUSH1 0x20 ADD PUSH1 0x40 MLOAD SWAP1 DUP2 ADD PUSH1 0x40 MSTORE DUP1 SWAP4 SWAP3 SWAP2 SWAP1 DUP2 DUP2 MSTORE PUSH1 0x20 ADD DUP4 DUP4 DUP1 DUP3 DUP5 CALLDATACOPY PUSH0 SWAP3 ADD SWAP2 SWAP1 SWAP2 MSTORE POP DUP7 SWAP4 SWAP3 POP POP PUSH2 0x1ADF SWAP1 POP JUMP JUMPDEST PUSH1 0x3 SLOAD SWAP1 SWAP2 POP PUSH1 0x1 PUSH1 0x1 PUSH1 0xA0 SHL SUB DUP1 DUP4 AND SWAP2 AND EQ PUSH2 0x791 JUMPI PUSH1 0x40 MLOAD PUSH3 0x461BCD PUSH1 0xE5 SHL DUP2 MSTORE PUSH1 0x20 PUSH1 0x4 DUP3 ADD MSTORE PUSH1 0x11 PUSH1 0x24 DUP3 ADD MSTORE PUSH17 0x496E76616C6964207369676E6174757265 PUSH1 0x78 SHL PUSH1 0x44 DUP3 ADD MSTORE PUSH1 0x64 ADD PUSH2 0x49A JUMP JUMPDEST DUP5 PUSH1 0xE0 ADD CALLDATALOAD TIMESTAMP GT ISZERO PUSH2 0x7D5 JUMPI PUSH1 0x40 MLOAD PUSH3 0x461BCD PUSH1 0xE5 SHL DUP2 MSTORE PUSH1 0x20 PUSH1 0x4 DUP3 ADD MSTORE PUSH1 0xD PUSH1 0x24 DUP3 ADD MSTORE PUSH13 0x13DC99195C88195E1C1A5C9959 PUSH1 0x9A SHL PUSH1 0x44 DUP3 ADD MSTORE PUSH1 0x64 ADD PUSH2 0x49A JUMP JUMPDEST PUSH1 0x1 PUSH0 PUSH2 0x7E5 PUSH1 0x20 DUP9 ADD DUP9 PUSH2 0x2159 JUMP JUMPDEST PUSH1 0x1 PUSH1 0x1 PUSH1 0x80 SHL SUB NOT AND DUP2 MSTORE PUSH1 0x20 DUP2 ADD SWAP2 SWAP1 SWAP2 MSTORE PUSH1 0x40 ADD PUSH0 KECCAK256 SLOAD PUSH1 0xFF AND ISZERO PUSH2 0x84A JUMPI PUSH1 0x40 MLOAD PUSH3 0x461BCD PUSH1 0xE5 SHL DUP2 MSTORE PUSH1 0x20 PUSH1 0x4 DUP3 ADD MSTORE PUSH1 0x18 PUSH1 0x24 DUP3 ADD MSTORE PUSH24 0x13DC99195C88185B1C9958591E481C9959DA5CDD195C9959 PUSH1 0x42 SHL PUSH1 0x44 DUP3 ADD MSTORE PUSH1 0x64 ADD PUSH2 0x49A JUMP JUMPDEST PUSH0 PUSH2 0x85B PUSH1 0x80 DUP8 ADD PUSH1 0x60 DUP9 ADD PUSH2 0x2405 JUMP JUMPDEST SWAP1 POP PUSH0 PUSH2 0x86E PUSH1 0x80 DUP9 ADD PUSH1 0x60 DUP10 ADD PUSH2 0x2405 JUMP JUMPDEST PUSH1 0x1 PUSH1 0x1 PUSH1 0xA0 SHL SUB AND SUB PUSH2 0x8C9 JUMPI DUP6 PUSH1 0x80 ADD CALLDATALOAD CALLVALUE EQ PUSH2 0x8C4 JUMPI PUSH1 0x40 MLOAD PUSH3 0x461BCD PUSH1 0xE5 SHL DUP2 MSTORE PUSH1 0x20 PUSH1 0x4 DUP3 ADD MSTORE PUSH1 0x12 PUSH1 0x24 DUP3 ADD MSTORE PUSH18 0x125B98DBDC9C9958DD08115512081CD95B9D PUSH1 0x72 SHL PUSH1 0x44 DUP3 ADD MSTORE PUSH1 0x64 ADD PUSH2 0x49A JUMP JUMPDEST PUSH2 0x93A JUMP JUMPDEST CALLVALUE ISZERO PUSH2 0x921 JUMPI PUSH1 0x40 MLOAD PUSH3 0x461BCD PUSH1 0xE5 SHL DUP2 MSTORE PUSH1 0x20 PUSH1 0x4 DUP3 ADD MSTORE PUSH1 0x21 PUSH1 0x24 DUP3 ADD MSTORE PUSH32 0x446F206E6F742073656E642045544820666F72204552433230207061796D656E PUSH1 0x44 DUP3 ADD MSTORE PUSH1 0x1D PUSH1 0xFA SHL PUSH1 0x64 DUP3 ADD MSTORE PUSH1 0x84 ADD PUSH2 0x49A JUMP JUMPDEST PUSH2 0x93A PUSH1 0x1 PUSH1 0x1 PUSH1 0xA0 SHL SUB DUP3 AND CALLER ADDRESS PUSH1 0x80 DUP11 ADD CALLDATALOAD PUSH2 0x1B07 JUMP JUMPDEST PUSH1 0x40 MLOAD DUP1 PUSH2 0x100 ADD PUSH1 0x40 MSTORE DUP1 DUP8 PUSH1 0x20 ADD PUSH1 0x20 DUP2 ADD SWAP1 PUSH2 0x959 SWAP2 SWAP1 PUSH2 0x2405 JUMP JUMPDEST PUSH1 0x1 PUSH1 0x1 PUSH1 0xA0 SHL SUB AND DUP2 MSTORE PUSH1 0x20 ADD PUSH2 0x977 PUSH1 0x60 DUP10 ADD PUSH1 0x40 DUP11 ADD PUSH2 0x2405 JUMP JUMPDEST PUSH1 0x1 PUSH1 0x1 PUSH1 0xA0 SHL SUB AND DUP2 MSTORE PUSH1 0x20 ADD DUP3 PUSH1 0x1 PUSH1 0x1 PUSH1 0xA0 SHL SUB AND DUP2 MSTORE PUSH1 0x20 ADD DUP8 PUSH1 0x80 ADD CALLDATALOAD DUP2 MSTORE PUSH1 0x20 ADD DUP8 PUSH1 0xA0 ADD CALLDATALOAD DUP2 MSTORE PUSH1 0x20 ADD DUP8 PUSH1 0xC0 ADD CALLDATALOAD DUP2 MSTORE PUSH1 0x20 ADD TIMESTAMP DUP2 MSTORE PUSH1 0x20 ADD PUSH1 0x1 PUSH1 0x4 DUP2 GT ISZERO PUSH2 0x9CB JUMPI PUSH2 0x9CB PUSH2 0x2307 JUMP JUMPDEST SWAP1 MSTORE PUSH0 DUP1 PUSH2 0x9DC PUSH1 0x20 DUP11 ADD DUP11 PUSH2 0x2159 JUMP JUMPDEST PUSH1 0x1 PUSH1 0x1 PUSH1 0x80 SHL SUB NOT AND DUP2 MSTORE PUSH1 0x20 DUP1 DUP3 ADD SWAP3 SWAP1 SWAP3 MSTORE PUSH1 0x40 SWAP1 DUP2 ADD PUSH0 KECCAK256 DUP4 MLOAD DUP2 SLOAD PUSH1 0x1 PUSH1 0x1 PUSH1 0xA0 SHL SUB NOT SWAP1 DUP2 AND PUSH1 0x1 PUSH1 0x1 PUSH1 0xA0 SHL SUB SWAP3 DUP4 AND OR DUP4 SSTORE SWAP4 DUP6 ADD MLOAD PUSH1 0x1 DUP1 DUP5 ADD DUP1 SLOAD DUP8 AND SWAP3 DUP5 AND SWAP3 SWAP1 SWAP3 OR SWAP1 SWAP2 SSTORE SWAP3 DUP6 ADD MLOAD PUSH1 0x2 DUP4 ADD DUP1 SLOAD SWAP1 SWAP6 AND SWAP2 AND OR SWAP1 SWAP3 SSTORE PUSH1 0x60 DUP4 ADD MLOAD PUSH1 0x3 DUP4 ADD SSTORE PUSH1 0x80 DUP4 ADD MLOAD PUSH1 0x4 DUP1 DUP5 ADD SWAP2 SWAP1 SWAP2 SSTORE PUSH1 0xA0 DUP5 ADD MLOAD PUSH1 0x5 DUP5 ADD SSTORE PUSH1 0xC0 DUP5 ADD MLOAD PUSH1 0x6 DUP5 ADD SSTORE PUSH1 0xE0 DUP5 ADD MLOAD PUSH1 0x7 DUP5 ADD DUP1 SLOAD SWAP2 SWAP4 SWAP1 SWAP3 PUSH1 0xFF NOT SWAP1 SWAP3 AND SWAP2 DUP5 SWAP1 DUP2 GT ISZERO PUSH2 0xA93 JUMPI PUSH2 0xA93 PUSH2 0x2307 JUMP JUMPDEST MUL OR SWAP1 SSTORE POP PUSH1 0x1 SWAP2 POP DUP2 SWAP1 POP PUSH0 PUSH2 0xAAD PUSH1 0x20 DUP11 ADD DUP11 PUSH2 0x2159 JUMP JUMPDEST PUSH1 0x1 PUSH1 0x1 PUSH1 0x80 SHL SUB NOT AND DUP2 MSTORE PUSH1 0x20 DUP2 ADD SWAP2 SWAP1 SWAP2 MSTORE PUSH1 0x40 ADD PUSH0 SWAP1 DUP2 KECCAK256 DUP1 SLOAD PUSH1 0xFF NOT AND SWAP3 ISZERO ISZERO SWAP3 SWAP1 SWAP3 OR SWAP1 SWAP2 SSTORE PUSH1 0x2 DUP1 SLOAD PUSH1 0x1 SWAP3 SWAP1 PUSH2 0xAEB SWAP1 DUP5 SWAP1 PUSH2 0x24A5 JUMP JUMPDEST SWAP1 SWAP2 SSTORE POP PUSH1 0x1 SWAP1 POP CALLER PUSH2 0xB01 PUSH1 0x20 DUP10 ADD DUP10 PUSH2 0x2159 JUMP JUMPDEST PUSH1 0x1 PUSH1 0x1 PUSH1 0x80 SHL SUB NOT AND PUSH32 0xCBE7FF8E0A8E9F1BA9FB95B23B654905E70F0C53D8A889472A60F00D25042228 PUSH2 0xB3C PUSH1 0x60 DUP12 ADD PUSH1 0x40 DUP13 ADD PUSH2 0x2405 JUMP JUMPDEST PUSH1 0x40 MLOAD PUSH1 0x1 PUSH1 0x1 PUSH1 0xA0 SHL SUB SWAP1 SWAP2 AND DUP2 MSTORE PUSH1 0x20 ADD PUSH1 0x40 MLOAD DUP1 SWAP2 SUB SWAP1 LOG4 POP POP POP PUSH2 0xB70 PUSH1 0x1 PUSH0 MLOAD PUSH1 0x20 PUSH2 0x2659 PUSH0 CODECOPY PUSH0 MLOAD SWAP1 PUSH0 MSTORE SSTORE JUMP JUMPDEST POP POP POP JUMP JUMPDEST PUSH0 PUSH1 0x5 SLOAD PUSH1 0x1 PUSH1 0xB8 SHL SWAP1 DIV PUSH1 0xFF AND PUSH1 0x1 DUP2 GT ISZERO PUSH2 0xB94 JUMPI PUSH2 0xB94 PUSH2 0x2307 JUMP JUMPDEST EQ PUSH2 0xBB1 JUMPI PUSH1 0x40 MLOAD PUSH3 0x461BCD PUSH1 0xE5 SHL DUP2 MSTORE PUSH1 0x4 ADD PUSH2 0x49A SWAP1 PUSH2 0x243C JUMP JUMPDEST PUSH1 0x1 PUSH1 0x1 PUSH1 0x80 SHL SUB NOT DUP2 AND PUSH0 SWAP1 DUP2 MSTORE PUSH1 0x20 DUP2 SWAP1 MSTORE PUSH1 0x40 SWAP1 KECCAK256 DUP1 SLOAD PUSH1 0x1 PUSH1 0x1 PUSH1 0xA0 SHL SUB AND CALLER EQ PUSH2 0xC0E JUMPI PUSH1 0x40 MLOAD PUSH3 0x461BCD PUSH1 0xE5 SHL DUP2 MSTORE PUSH1 0x20 PUSH1 0x4 DUP3 ADD MSTORE PUSH1 0x9 PUSH1 0x24 DUP3 ADD MSTORE PUSH9 0x2737BA10313ABCB2B9 PUSH1 0xB9 SHL PUSH1 0x44 DUP3 ADD MSTORE PUSH1 0x64 ADD PUSH2 0x49A JUMP JUMPDEST PUSH1 0x1 PUSH1 0x7 DUP3 ADD SLOAD PUSH1 0xFF AND PUSH1 0x4 DUP2 GT ISZERO PUSH2 0xC29 JUMPI PUSH2 0xC29 PUSH2 0x2307 JUMP JUMPDEST EQ PUSH2 0xC67 JUMPI PUSH1 0x40 MLOAD PUSH3 0x461BCD PUSH1 0xE5 SHL DUP2 MSTORE PUSH1 0x20 PUSH1 0x4 DUP3 ADD MSTORE PUSH1 0xE PUSH1 0x24 DUP3 ADD MSTORE PUSH14 0x43616E6E6F742064697370757465 PUSH1 0x90 SHL PUSH1 0x44 DUP3 ADD MSTORE PUSH1 0x64 ADD PUSH2 0x49A JUMP JUMPDEST PUSH1 0x7 DUP2 ADD DUP1 SLOAD PUSH1 0xFF NOT AND PUSH1 0x3 OR SWAP1 SSTORE PUSH1 0x40 MLOAD PUSH1 0x1 PUSH1 0x1 PUSH1 0x80 SHL SUB NOT DUP4 AND SWAP1 PUSH32 0xDB1A1355B8CFFEA63B711AAC689B380D6D3FA596333CF6A852D993988526E0AE SWAP1 PUSH0 SWAP1 LOG2 POP POP JUMP JUMPDEST PUSH2 0xCB6 PUSH2 0x1957 JUMP JUMPDEST PUSH2 0xCBF PUSH0 PUSH2 0x1B67 JUMP JUMPDEST JUMP JUMPDEST PUSH0 PUSH1 0x60 DUP1 DUP3 DUP1 DUP1 DUP4 DUP2 PUSH0 MLOAD PUSH1 0x20 PUSH2 0x2639 PUSH0 CODECOPY PUSH0 MLOAD SWAP1 PUSH0 MSTORE DUP1 SLOAD SWAP1 SWAP2 POP ISZERO DUP1 ISZERO PUSH2 0xCEC JUMPI POP PUSH1 0x1 DUP2 ADD SLOAD ISZERO JUMPDEST PUSH2 0xD30 JUMPI PUSH1 0x40 MLOAD PUSH3 0x461BCD PUSH1 0xE5 SHL DUP2 MSTORE PUSH1 0x20 PUSH1 0x4 DUP3 ADD MSTORE PUSH1 0x15 PUSH1 0x24 DUP3 ADD MSTORE PUSH21 0x1152540DCC4C8E88155B9A5B9A5D1A585B1A5E9959 PUSH1 0x5A SHL PUSH1 0x44 DUP3 ADD MSTORE PUSH1 0x64 ADD PUSH2 0x49A JUMP JUMPDEST PUSH2 0xD38 PUSH2 0x1BD7 JUMP JUMPDEST PUSH2 0xD40 PUSH2 0x1C97 JUMP JUMPDEST PUSH1 0x40 DUP1 MLOAD PUSH0 DUP1 DUP3 MSTORE PUSH1 0x20 DUP3 ADD SWAP1 SWAP3 MSTORE PUSH1 0xF PUSH1 0xF8 SHL SWAP13 SWAP4 SWAP12 POP SWAP2 SWAP10 POP CHAINID SWAP9 POP ADDRESS SWAP8 POP SWAP6 POP SWAP4 POP SWAP2 POP POP JUMP JUMPDEST PUSH2 0xD72 PUSH2 0x15CB JUMP JUMPDEST PUSH1 0x1 PUSH1 0x1 PUSH1 0x80 SHL SUB NOT DUP2 AND PUSH0 SWAP1 DUP2 MSTORE PUSH1 0x20 DUP2 SWAP1 MSTORE PUSH1 0x40 SWAP1 KECCAK256 PUSH1 0x1 PUSH1 0x7 DUP3 ADD SLOAD PUSH1 0xFF AND PUSH1 0x4 DUP2 GT ISZERO PUSH2 0xDA5 JUMPI PUSH2 0xDA5 PUSH2 0x2307 JUMP JUMPDEST EQ PUSH2 0xDC2 JUMPI PUSH1 0x40 MLOAD PUSH3 0x461BCD PUSH1 0xE5 SHL DUP2 MSTORE PUSH1 0x4 ADD PUSH2 0x49A SWAP1 PUSH2 0x2469 JUMP JUMPDEST PUSH1 0x5 SLOAD PUSH1 0x6 DUP3 ADD SLOAD PUSH2 0xDE0 SWAP2 PUSH1 0x1 PUSH1 0xA0 SHL SWAP1 DIV PUSH3 0xFFFFFF AND SWAP1 PUSH2 0x24A5 JUMP JUMPDEST TIMESTAMP LT ISZERO PUSH2 0x538 JUMPI PUSH1 0x40 MLOAD PUSH3 0x461BCD PUSH1 0xE5 SHL DUP2 MSTORE PUSH1 0x20 PUSH1 0x4 DUP3 ADD MSTORE PUSH1 0x9 PUSH1 0x24 DUP3 ADD MSTORE PUSH9 0x546F6F206561726C79 PUSH1 0xB8 SHL PUSH1 0x44 DUP3 ADD MSTORE PUSH1 0x64 ADD PUSH2 0x49A JUMP JUMPDEST PUSH0 PUSH2 0xE24 PUSH2 0x1CD5 JUMP JUMPDEST DUP1 SLOAD SWAP1 SWAP2 POP PUSH1 0xFF PUSH1 0x1 PUSH1 0x40 SHL DUP3 DIV AND ISZERO SWAP1 PUSH8 0xFFFFFFFFFFFFFFFF AND PUSH0 DUP2 ISZERO DUP1 ISZERO PUSH2 0xE4B JUMPI POP DUP3 JUMPDEST SWAP1 POP PUSH0 DUP3 PUSH8 0xFFFFFFFFFFFFFFFF AND PUSH1 0x1 EQ DUP1 ISZERO PUSH2 0xE67 JUMPI POP ADDRESS EXTCODESIZE ISZERO JUMPDEST SWAP1 POP DUP2 ISZERO DUP1 ISZERO PUSH2 0xE75 JUMPI POP DUP1 ISZERO JUMPDEST ISZERO PUSH2 0xE93 JUMPI PUSH1 0x40 MLOAD PUSH4 0xF92EE8A9 PUSH1 0xE0 SHL DUP2 MSTORE PUSH1 0x4 ADD PUSH1 0x40 MLOAD DUP1 SWAP2 SUB SWAP1 REVERT JUMPDEST DUP5 SLOAD PUSH8 0xFFFFFFFFFFFFFFFF NOT AND PUSH1 0x1 OR DUP6 SSTORE DUP4 ISZERO PUSH2 0xEBD JUMPI DUP5 SLOAD PUSH1 0xFF PUSH1 0x40 SHL NOT AND PUSH1 0x1 PUSH1 0x40 SHL OR DUP6 SSTORE JUMPDEST PUSH2 0xEC6 CALLER PUSH2 0x1CFD JUMP JUMPDEST PUSH2 0xECE PUSH2 0x1D0E JUMP JUMPDEST PUSH2 0xF26 PUSH1 0x40 MLOAD DUP1 PUSH1 0x40 ADD PUSH1 0x40 MSTORE DUP1 PUSH1 0x18 DUP2 MSTORE PUSH1 0x20 ADD PUSH32 0x4D594150505F414D4F595F455343524F575F4F52444552530000000000000000 DUP2 MSTORE POP PUSH1 0x40 MLOAD DUP1 PUSH1 0x40 ADD PUSH1 0x40 MSTORE DUP1 PUSH1 0x1 DUP2 MSTORE PUSH1 0x20 ADD PUSH1 0x31 PUSH1 0xF8 SHL DUP2 MSTORE POP PUSH2 0x1D1E JUMP JUMPDEST PUSH1 0x1 PUSH1 0x1 PUSH1 0xA0 SHL SUB DUP10 AND PUSH2 0xF74 JUMPI PUSH1 0x40 MLOAD PUSH3 0x461BCD PUSH1 0xE5 SHL DUP2 MSTORE PUSH1 0x20 PUSH1 0x4 DUP3 ADD MSTORE PUSH1 0x15 PUSH1 0x24 DUP3 ADD MSTORE PUSH21 0x24B73B30B634B21039B2B93B32B91039B4B3B732B9 PUSH1 0x59 SHL PUSH1 0x44 DUP3 ADD MSTORE PUSH1 0x64 ADD PUSH2 0x49A JUMP JUMPDEST PUSH1 0x1 PUSH1 0x1 PUSH1 0xA0 SHL SUB DUP9 AND PUSH2 0xFC2 JUMPI PUSH1 0x40 MLOAD PUSH3 0x461BCD PUSH1 0xE5 SHL DUP2 MSTORE PUSH1 0x20 PUSH1 0x4 DUP3 ADD MSTORE PUSH1 0x15 PUSH1 0x24 DUP3 ADD MSTORE PUSH21 0x496E76616C69642074617865732061646472657373 PUSH1 0x58 SHL PUSH1 0x44 DUP3 ADD MSTORE PUSH1 0x64 ADD PUSH2 0x49A JUMP JUMPDEST PUSH1 0x1 PUSH1 0x1 PUSH1 0xA0 SHL SUB DUP8 AND PUSH2 0x100F JUMPI PUSH1 0x40 MLOAD PUSH3 0x461BCD PUSH1 0xE5 SHL DUP2 MSTORE PUSH1 0x20 PUSH1 0x4 DUP3 ADD MSTORE PUSH1 0x14 PUSH1 0x24 DUP3 ADD MSTORE PUSH20 0x496E76616C696420666565732061646472657373 PUSH1 0x60 SHL PUSH1 0x44 DUP3 ADD MSTORE PUSH1 0x64 ADD PUSH2 0x49A JUMP JUMPDEST PUSH1 0x3 DUP1 SLOAD PUSH1 0x1 PUSH1 0x1 PUSH1 0xA0 SHL SUB NOT SWAP1 DUP2 AND PUSH1 0x1 PUSH1 0x1 PUSH1 0xA0 SHL SUB DUP13 DUP2 AND SWAP2 SWAP1 SWAP2 OR SWAP1 SWAP3 SSTORE PUSH1 0x4 DUP1 SLOAD SWAP1 SWAP2 AND DUP11 DUP4 AND OR SWAP1 SSTORE PUSH1 0x5 DUP1 SLOAD SWAP2 DUP10 AND PUSH1 0x1 PUSH1 0x1 PUSH1 0xB8 SHL SUB NOT SWAP1 SWAP3 AND SWAP2 SWAP1 SWAP2 OR PUSH1 0x1 PUSH1 0xA0 SHL PUSH3 0xFFFFFF DUP10 AND MUL OR PUSH1 0xFF PUSH1 0xB8 SHL NOT AND SWAP1 SSTORE DUP4 ISZERO PUSH2 0x10B1 JUMPI DUP5 SLOAD PUSH1 0xFF PUSH1 0x40 SHL NOT AND DUP6 SSTORE PUSH1 0x40 MLOAD PUSH1 0x1 DUP2 MSTORE PUSH32 0xC7F505B2F371AE2175EE4913F4499E1F2633A7B5936321EED1CDAEB6115181D2 SWAP1 PUSH1 0x20 ADD PUSH1 0x40 MLOAD DUP1 SWAP2 SUB SWAP1 LOG1 JUMPDEST POP POP POP POP POP POP POP POP POP JUMP JUMPDEST PUSH2 0x10C4 PUSH2 0x15CB JUMP JUMPDEST PUSH0 PUSH1 0x5 SLOAD PUSH1 0x1 PUSH1 0xB8 SHL SWAP1 DIV PUSH1 0xFF AND PUSH1 0x1 DUP2 GT ISZERO PUSH2 0x10E3 JUMPI PUSH2 0x10E3 PUSH2 0x2307 JUMP JUMPDEST EQ PUSH2 0x1100 JUMPI PUSH1 0x40 MLOAD PUSH3 0x461BCD PUSH1 0xE5 SHL DUP2 MSTORE PUSH1 0x4 ADD PUSH2 0x49A SWAP1 PUSH2 0x243C JUMP JUMPDEST PUSH0 CALLVALUE GT PUSH2 0x1140 JUMPI PUSH1 0x40 MLOAD PUSH3 0x461BCD PUSH1 0xE5 SHL DUP2 MSTORE PUSH1 0x20 PUSH1 0x4 DUP3 ADD MSTORE PUSH1 0xE PUSH1 0x24 DUP3 ADD MSTORE PUSH14 0x125B9D985B1A5908185B5BDD5B9D PUSH1 0x92 SHL PUSH1 0x44 DUP3 ADD MSTORE PUSH1 0x64 ADD PUSH2 0x49A JUMP JUMPDEST PUSH0 PUSH2 0x114D PUSH2 0x6F4 DUP6 PUSH2 0x19B2 JUMP JUMPDEST SWAP1 POP PUSH0 PUSH2 0x1191 DUP5 DUP5 DUP1 DUP1 PUSH1 0x1F ADD PUSH1 0x20 DUP1 SWAP2 DIV MUL PUSH1 0x20 ADD PUSH1 0x40 MLOAD SWAP1 DUP2 ADD PUSH1 0x40 MSTORE DUP1 SWAP4 SWAP3 SWAP2 SWAP1 DUP2 DUP2 MSTORE PUSH1 0x20 ADD DUP4 DUP4 DUP1 DUP3 DUP5 CALLDATACOPY PUSH0 SWAP3 ADD SWAP2 SWAP1 SWAP2 MSTORE POP DUP7 SWAP4 SWAP3 POP POP PUSH2 0x1ADF SWAP1 POP JUMP JUMPDEST PUSH1 0x3 SLOAD SWAP1 SWAP2 POP PUSH1 0x1 PUSH1 0x1 PUSH1 0xA0 SHL SUB DUP1 DUP4 AND SWAP2 AND EQ PUSH2 0x11E5 JUMPI PUSH1 0x40 MLOAD PUSH3 0x461BCD PUSH1 0xE5 SHL DUP2 MSTORE PUSH1 0x20 PUSH1 0x4 DUP3 ADD MSTORE PUSH1 0x11 PUSH1 0x24 DUP3 ADD MSTORE PUSH17 0x496E76616C6964207369676E6174757265 PUSH1 0x78 SHL PUSH1 0x44 DUP3 ADD MSTORE PUSH1 0x64 ADD PUSH2 0x49A JUMP JUMPDEST DUP5 PUSH1 0xE0 ADD CALLDATALOAD TIMESTAMP GT ISZERO PUSH2 0x1229 JUMPI PUSH1 0x40 MLOAD PUSH3 0x461BCD PUSH1 0xE5 SHL DUP2 MSTORE PUSH1 0x20 PUSH1 0x4 DUP3 ADD MSTORE PUSH1 0xD PUSH1 0x24 DUP3 ADD MSTORE PUSH13 0x13DC99195C88195E1C1A5C9959 PUSH1 0x9A SHL PUSH1 0x44 DUP3 ADD MSTORE PUSH1 0x64 ADD PUSH2 0x49A JUMP JUMPDEST PUSH1 0x1 PUSH0 PUSH2 0x1239 PUSH1 0x20 DUP9 ADD DUP9 PUSH2 0x2159 JUMP JUMPDEST PUSH1 0x1 PUSH1 0x1 PUSH1 0x80 SHL SUB NOT AND DUP2 MSTORE PUSH1 0x20 DUP2 ADD SWAP2 SWAP1 SWAP2 MSTORE PUSH1 0x40 ADD PUSH0 KECCAK256 SLOAD PUSH1 0xFF AND ISZERO PUSH2 0x129E JUMPI PUSH1 0x40 MLOAD PUSH3 0x461BCD PUSH1 0xE5 SHL DUP2 MSTORE PUSH1 0x20 PUSH1 0x4 DUP3 ADD MSTORE PUSH1 0x18 PUSH1 0x24 DUP3 ADD MSTORE PUSH24 0x13DC99195C88185B1C9958591E481C9959DA5CDD195C9959 PUSH1 0x42 SHL PUSH1 0x44 DUP3 ADD MSTORE PUSH1 0x64 ADD PUSH2 0x49A JUMP JUMPDEST PUSH1 0x1 DUP1 PUSH0 PUSH2 0x12AF PUSH1 0x20 DUP10 ADD DUP10 PUSH2 0x2159 JUMP JUMPDEST PUSH1 0x1 PUSH1 0x1 PUSH1 0x80 SHL SUB NOT AND DUP2 MSTORE PUSH1 0x20 DUP2 ADD SWAP2 SWAP1 SWAP2 MSTORE PUSH1 0x40 ADD PUSH0 KECCAK256 DUP1 SLOAD PUSH1 0xFF NOT AND SWAP2 ISZERO ISZERO SWAP2 SWAP1 SWAP2 OR SWAP1 SSTORE PUSH1 0x80 DUP6 ADD CALLDATALOAD CALLVALUE EQ PUSH2 0x131F JUMPI PUSH1 0x40 MLOAD PUSH3 0x461BCD PUSH1 0xE5 SHL DUP2 MSTORE PUSH1 0x20 PUSH1 0x4 DUP3 ADD MSTORE PUSH1 0x12 PUSH1 0x24 DUP3 ADD MSTORE PUSH18 0x5061792056616C75652069732077726F6E67 PUSH1 0x70 SHL PUSH1 0x44 DUP3 ADD MSTORE PUSH1 0x64 ADD PUSH2 0x49A JUMP JUMPDEST PUSH1 0x40 MLOAD DUP1 PUSH2 0x100 ADD PUSH1 0x40 MSTORE DUP1 DUP7 PUSH1 0x20 ADD PUSH1 0x20 DUP2 ADD SWAP1 PUSH2 0x133E SWAP2 SWAP1 PUSH2 0x2405 JUMP JUMPDEST PUSH1 0x1 PUSH1 0x1 PUSH1 0xA0 SHL SUB AND DUP2 MSTORE PUSH1 0x20 ADD PUSH2 0x135C PUSH1 0x60 DUP9 ADD PUSH1 0x40 DUP10 ADD PUSH2 0x2405 JUMP JUMPDEST PUSH1 0x1 PUSH1 0x1 PUSH1 0xA0 SHL SUB AND DUP2 MSTORE PUSH1 0x20 ADD PUSH2 0x137A PUSH1 0x80 DUP9 ADD PUSH1 0x60 DUP10 ADD PUSH2 0x2405 JUMP JUMPDEST PUSH1 0x1 PUSH1 0x1 PUSH1 0xA0 SHL SUB AND DUP2 MSTORE PUSH1 0x20 ADD DUP7 PUSH1 0x80 ADD CALLDATALOAD DUP2 MSTORE PUSH1 0x20 ADD DUP7 PUSH1 0xA0 ADD CALLDATALOAD DUP2 MSTORE PUSH1 0x20 ADD DUP7 PUSH1 0xC0 ADD CALLDATALOAD DUP2 MSTORE PUSH1 0x20 ADD TIMESTAMP DUP2 MSTORE PUSH1 0x20 ADD PUSH1 0x1 PUSH1 0x4 DUP2 GT ISZERO PUSH2 0x13BF JUMPI PUSH2 0x13BF PUSH2 0x2307 JUMP JUMPDEST SWAP1 MSTORE PUSH0 DUP1 PUSH2 0x13D0 PUSH1 0x20 DUP10 ADD DUP10 PUSH2 0x2159 JUMP JUMPDEST PUSH1 0x1 PUSH1 0x1 PUSH1 0x80 SHL SUB NOT AND DUP2 MSTORE PUSH1 0x20 DUP1 DUP3 ADD SWAP3 SWAP1 SWAP3 MSTORE PUSH1 0x40 SWAP1 DUP2 ADD PUSH0 KECCAK256 DUP4 MLOAD DUP2 SLOAD PUSH1 0x1 PUSH1 0x1 PUSH1 0xA0 SHL SUB NOT SWAP1 DUP2 AND PUSH1 0x1 PUSH1 0x1 PUSH1 0xA0 SHL SUB SWAP3 DUP4 AND OR DUP4 SSTORE SWAP4 DUP6 ADD MLOAD PUSH1 0x1 DUP1 DUP5 ADD DUP1 SLOAD DUP8 AND SWAP3 DUP5 AND SWAP3 SWAP1 SWAP3 OR SWAP1 SWAP2 SSTORE SWAP3 DUP6 ADD MLOAD PUSH1 0x2 DUP4 ADD DUP1 SLOAD SWAP1 SWAP6 AND SWAP2 AND OR SWAP1 SWAP3 SSTORE PUSH1 0x60 DUP4 ADD MLOAD PUSH1 0x3 DUP4 ADD SSTORE PUSH1 0x80 DUP4 ADD MLOAD PUSH1 0x4 DUP1 DUP5 ADD SWAP2 SWAP1 SWAP2 SSTORE PUSH1 0xA0 DUP5 ADD MLOAD PUSH1 0x5 DUP5 ADD SSTORE PUSH1 0xC0 DUP5 ADD MLOAD PUSH1 0x6 DUP5 ADD SSTORE PUSH1 0xE0 DUP5 ADD MLOAD PUSH1 0x7 DUP5 ADD DUP1 SLOAD SWAP2 SWAP4 SWAP1 SWAP3 PUSH1 0xFF NOT SWAP1 SWAP3 AND SWAP2 DUP5 SWAP1 DUP2 GT ISZERO PUSH2 0x1487 JUMPI PUSH2 0x1487 PUSH2 0x2307 JUMP JUMPDEST MUL OR SWAP1 SSTORE POP SWAP1 POP POP PUSH1 0x1 PUSH1 0x2 PUSH0 DUP3 DUP3 SLOAD PUSH2 0x14A1 SWAP2 SWAP1 PUSH2 0x24A5 JUMP JUMPDEST SWAP1 SWAP2 SSTORE POP PUSH1 0x1 SWAP1 POP CALLER PUSH2 0x14B7 PUSH1 0x20 DUP9 ADD DUP9 PUSH2 0x2159 JUMP JUMPDEST PUSH1 0x1 PUSH1 0x1 PUSH1 0x80 SHL SUB NOT AND PUSH32 0xCBE7FF8E0A8E9F1BA9FB95B23B654905E70F0C53D8A889472A60F00D25042228 PUSH2 0x14F2 PUSH1 0x60 DUP11 ADD PUSH1 0x40 DUP12 ADD PUSH2 0x2405 JUMP JUMPDEST PUSH1 0x40 MLOAD PUSH1 0x1 PUSH1 0x1 PUSH1 0xA0 SHL SUB SWAP1 SWAP2 AND DUP2 MSTORE PUSH1 0x20 ADD PUSH1 0x40 MLOAD DUP1 SWAP2 SUB SWAP1 LOG4 POP POP PUSH2 0xB70 PUSH1 0x1 PUSH0 MLOAD PUSH1 0x20 PUSH2 0x2659 PUSH0 CODECOPY PUSH0 MLOAD SWAP1 PUSH0 MSTORE SSTORE JUMP JUMPDEST PUSH2 0x152D PUSH2 0x1957 JUMP JUMPDEST PUSH1 0x1 PUSH1 0x1 PUSH1 0xA0 SHL SUB DUP2 AND PUSH2 0x1556 JUMPI PUSH1 0x40 MLOAD PUSH4 0x1E4FBDF7 PUSH1 0xE0 SHL DUP2 MSTORE PUSH0 PUSH1 0x4 DUP3 ADD MSTORE PUSH1 0x24 ADD PUSH2 0x49A JUMP JUMPDEST PUSH2 0x558 DUP2 PUSH2 0x1B67 JUMP JUMPDEST PUSH2 0x1567 PUSH2 0x1957 JUMP JUMPDEST PUSH1 0x5 DUP1 SLOAD DUP3 SWAP2 SWAP1 PUSH1 0xFF PUSH1 0xB8 SHL NOT AND PUSH1 0x1 PUSH1 0xB8 SHL DUP4 PUSH1 0x1 DUP2 GT ISZERO PUSH2 0x158C JUMPI PUSH2 0x158C PUSH2 0x2307 JUMP JUMPDEST MUL OR SWAP1 SSTORE POP PUSH32 0xAB540C1B3DEFD38D975E65AA0E06EEEE132A55DD082BE87B73F505AB57BED48C DUP2 PUSH1 0x40 MLOAD PUSH2 0x15C0 SWAP2 SWAP1 PUSH2 0x231B JUMP JUMPDEST PUSH1 0x40 MLOAD DUP1 SWAP2 SUB SWAP1 LOG1 POP JUMP JUMPDEST PUSH0 MLOAD PUSH1 0x20 PUSH2 0x2659 PUSH0 CODECOPY PUSH0 MLOAD SWAP1 PUSH0 MSTORE DUP1 SLOAD PUSH1 0x1 NOT ADD PUSH2 0x15FC JUMPI PUSH1 0x40 MLOAD PUSH4 0x3EE5AEB5 PUSH1 0xE0 SHL DUP2 MSTORE PUSH1 0x4 ADD PUSH1 0x40 MLOAD DUP1 SWAP2 SUB SWAP1 REVERT JUMPDEST PUSH1 0x2 SWAP1 SSTORE JUMP JUMPDEST PUSH1 0x1 PUSH1 0x1 PUSH1 0x80 SHL SUB NOT DUP2 AND PUSH0 SWAP1 DUP2 MSTORE PUSH1 0x20 DUP2 SWAP1 MSTORE PUSH1 0x40 SWAP1 KECCAK256 PUSH1 0x1 PUSH1 0x7 DUP3 ADD SLOAD PUSH1 0xFF AND PUSH1 0x4 DUP2 GT ISZERO PUSH2 0x1635 JUMPI PUSH2 0x1635 PUSH2 0x2307 JUMP JUMPDEST EQ DUP1 PUSH2 0x1659 JUMPI POP PUSH1 0x3 PUSH1 0x7 DUP3 ADD SLOAD PUSH1 0xFF AND PUSH1 0x4 DUP2 GT ISZERO PUSH2 0x1657 JUMPI PUSH2 0x1657 PUSH2 0x2307 JUMP JUMPDEST EQ JUMPDEST PUSH2 0x1675 JUMPI PUSH1 0x40 MLOAD PUSH3 0x461BCD PUSH1 0xE5 SHL DUP2 MSTORE PUSH1 0x4 ADD PUSH2 0x49A SWAP1 PUSH2 0x2469 JUMP JUMPDEST PUSH1 0x7 DUP2 ADD DUP1 SLOAD PUSH1 0xFF NOT AND PUSH1 0x2 OR SWAP1 SSTORE PUSH1 0x5 DUP2 ADD SLOAD PUSH1 0x4 DUP3 ADD SLOAD PUSH1 0x3 DUP4 ADD SLOAD PUSH0 SWAP3 SWAP2 PUSH2 0x169F SWAP2 PUSH2 0x24CC JUMP JUMPDEST PUSH2 0x16A9 SWAP2 SWAP1 PUSH2 0x24CC JUMP JUMPDEST PUSH1 0x2 DUP4 ADD SLOAD SWAP1 SWAP2 POP PUSH1 0x1 PUSH1 0x1 PUSH1 0xA0 SHL SUB AND PUSH2 0x1775 JUMPI PUSH1 0x4 DUP1 SLOAD SWAP1 DUP4 ADD SLOAD PUSH1 0x40 MLOAD PUSH1 0x1 PUSH1 0x1 PUSH1 0xA0 SHL SUB SWAP1 SWAP3 AND SWAP2 DUP2 ISZERO PUSH2 0x8FC MUL SWAP2 SWAP1 PUSH0 DUP2 DUP2 DUP2 DUP6 DUP9 DUP9 CALL SWAP4 POP POP POP POP ISZERO DUP1 ISZERO PUSH2 0x16F9 JUMPI RETURNDATASIZE PUSH0 PUSH0 RETURNDATACOPY RETURNDATASIZE PUSH0 REVERT JUMPDEST POP PUSH1 0x5 DUP1 SLOAD SWAP1 DUP4 ADD SLOAD PUSH1 0x40 MLOAD PUSH1 0x1 PUSH1 0x1 PUSH1 0xA0 SHL SUB SWAP1 SWAP3 AND SWAP2 DUP2 ISZERO PUSH2 0x8FC MUL SWAP2 SWAP1 PUSH0 DUP2 DUP2 DUP2 DUP6 DUP9 DUP9 CALL SWAP4 POP POP POP POP ISZERO DUP1 ISZERO PUSH2 0x1735 JUMPI RETURNDATASIZE PUSH0 PUSH0 RETURNDATACOPY RETURNDATASIZE PUSH0 REVERT JUMPDEST POP PUSH1 0x1 DUP3 ADD SLOAD PUSH1 0x40 MLOAD PUSH1 0x1 PUSH1 0x1 PUSH1 0xA0 SHL SUB SWAP1 SWAP2 AND SWAP1 DUP3 ISZERO PUSH2 0x8FC MUL SWAP1 DUP4 SWAP1 PUSH0 DUP2 DUP2 DUP2 DUP6 DUP9 DUP9 CALL SWAP4 POP POP POP POP ISZERO DUP1 ISZERO PUSH2 0x176F JUMPI RETURNDATASIZE PUSH0 PUSH0 RETURNDATACOPY RETURNDATASIZE PUSH0 REVERT JUMPDEST POP PUSH2 0x18EF JUMP JUMPDEST PUSH1 0x2 DUP3 ADD SLOAD PUSH1 0x4 DUP1 SLOAD DUP2 DUP6 ADD SLOAD PUSH1 0x40 MLOAD PUSH4 0xA9059CBB PUSH1 0xE0 SHL DUP2 MSTORE PUSH1 0x1 PUSH1 0x1 PUSH1 0xA0 SHL SUB SWAP3 DUP4 AND SWAP4 DUP2 ADD SWAP4 SWAP1 SWAP4 MSTORE PUSH1 0x24 DUP4 ADD MSTORE SWAP1 SWAP2 AND SWAP1 PUSH4 0xA9059CBB SWAP1 PUSH1 0x44 ADD PUSH1 0x20 PUSH1 0x40 MLOAD DUP1 DUP4 SUB DUP2 PUSH0 DUP8 GAS CALL ISZERO DUP1 ISZERO PUSH2 0x17CF JUMPI RETURNDATASIZE PUSH0 PUSH0 RETURNDATACOPY RETURNDATASIZE PUSH0 REVERT JUMPDEST POP POP POP POP PUSH1 0x40 MLOAD RETURNDATASIZE PUSH1 0x1F NOT PUSH1 0x1F DUP3 ADD AND DUP3 ADD DUP1 PUSH1 0x40 MSTORE POP DUP2 ADD SWAP1 PUSH2 0x17F3 SWAP2 SWAP1 PUSH2 0x24DF JUMP JUMPDEST POP PUSH1 0x2 DUP3 ADD SLOAD PUSH1 0x5 DUP1 SLOAD SWAP1 DUP5 ADD SLOAD PUSH1 0x40 MLOAD PUSH4 0xA9059CBB PUSH1 0xE0 SHL DUP2 MSTORE PUSH1 0x1 PUSH1 0x1 PUSH1 0xA0 SHL SUB SWAP3 DUP4 AND PUSH1 0x4 DUP3 ADD MSTORE PUSH1 0x24 DUP2 ADD SWAP2 SWAP1 SWAP2 MSTORE SWAP2 AND SWAP1 PUSH4 0xA9059CBB SWAP1 PUSH1 0x44 ADD PUSH1 0x20 PUSH1 0x40 MLOAD DUP1 DUP4 SUB DUP2 PUSH0 DUP8 GAS CALL ISZERO DUP1 ISZERO PUSH2 0x184E JUMPI RETURNDATASIZE PUSH0 PUSH0 RETURNDATACOPY RETURNDATASIZE PUSH0 REVERT JUMPDEST POP POP POP POP PUSH1 0x40 MLOAD RETURNDATASIZE PUSH1 0x1F NOT PUSH1 0x1F DUP3 ADD AND DUP3 ADD DUP1 PUSH1 0x40 MSTORE POP DUP2 ADD SWAP1 PUSH2 0x1872 SWAP2 SWAP1 PUSH2 0x24DF JUMP JUMPDEST POP PUSH1 0x2 DUP3 ADD SLOAD PUSH1 0x1 DUP4 ADD SLOAD PUSH1 0x40 MLOAD PUSH4 0xA9059CBB PUSH1 0xE0 SHL DUP2 MSTORE PUSH1 0x1 PUSH1 0x1 PUSH1 0xA0 SHL SUB SWAP2 DUP3 AND PUSH1 0x4 DUP3 ADD MSTORE PUSH1 0x24 DUP2 ADD DUP5 SWAP1 MSTORE SWAP2 AND SWAP1 PUSH4 0xA9059CBB SWAP1 PUSH1 0x44 ADD PUSH1 0x20 PUSH1 0x40 MLOAD DUP1 DUP4 SUB DUP2 PUSH0 DUP8 GAS CALL ISZERO DUP1 ISZERO PUSH2 0x18C9 JUMPI RETURNDATASIZE PUSH0 PUSH0 RETURNDATACOPY RETURNDATASIZE PUSH0 REVERT JUMPDEST POP POP POP POP PUSH1 0x40 MLOAD RETURNDATASIZE PUSH1 0x1F NOT PUSH1 0x1F DUP3 ADD AND DUP3 ADD DUP1 PUSH1 0x40 MSTORE POP DUP2 ADD SWAP1 PUSH2 0x18ED SWAP2 SWAP1 PUSH2 0x24DF JUMP JUMPDEST POP JUMPDEST PUSH1 0x1 DUP3 ADD SLOAD PUSH1 0x40 MLOAD DUP3 DUP2 MSTORE PUSH1 0x1 PUSH1 0x1 PUSH1 0xA0 SHL SUB SWAP1 SWAP2 AND SWAP1 PUSH1 0x1 PUSH1 0x1 PUSH1 0x80 SHL SUB NOT DUP6 AND SWAP1 PUSH32 0xE60F924809AD7A86A6789604BDD4B0E09D0F5585DDE8E7290B4A37759CA77D0B SWAP1 PUSH1 0x20 ADD PUSH1 0x40 MLOAD DUP1 SWAP2 SUB SWAP1 LOG3 POP POP POP JUMP JUMPDEST PUSH1 0x1 PUSH0 MLOAD PUSH1 0x20 PUSH2 0x2659 PUSH0 CODECOPY PUSH0 MLOAD SWAP1 PUSH0 MSTORE SSTORE JUMP JUMPDEST CALLER PUSH2 0x1989 PUSH32 0x9016D09D72D40FDAE2FD8CEAC6B6234C7706214FD39C1CD1E609A0528C199300 SLOAD PUSH1 0x1 PUSH1 0x1 PUSH1 0xA0 SHL SUB AND SWAP1 JUMP JUMPDEST PUSH1 0x1 PUSH1 0x1 PUSH1 0xA0 SHL SUB AND EQ PUSH2 0xCBF JUMPI PUSH1 0x40 MLOAD PUSH4 0x118CDAA7 PUSH1 0xE0 SHL DUP2 MSTORE CALLER PUSH1 0x4 DUP3 ADD MSTORE PUSH1 0x24 ADD PUSH2 0x49A JUMP JUMPDEST PUSH0 PUSH32 0xF832F8ED29EF6F26AAA79D65FF922FD572AEDFA6DBD05BF3275AA667FE75650 PUSH2 0x19E1 PUSH1 0x20 DUP5 ADD DUP5 PUSH2 0x2159 JUMP JUMPDEST PUSH2 0x19F1 PUSH1 0x40 DUP6 ADD PUSH1 0x20 DUP7 ADD PUSH2 0x2405 JUMP JUMPDEST PUSH2 0x1A01 PUSH1 0x60 DUP7 ADD PUSH1 0x40 DUP8 ADD PUSH2 0x2405 JUMP JUMPDEST PUSH2 0x1A11 PUSH1 0x80 DUP8 ADD PUSH1 0x60 DUP9 ADD PUSH2 0x2405 JUMP JUMPDEST DUP7 PUSH1 0x80 ADD CALLDATALOAD DUP8 PUSH1 0xA0 ADD CALLDATALOAD DUP9 PUSH1 0xC0 ADD CALLDATALOAD DUP10 PUSH1 0xE0 ADD CALLDATALOAD PUSH1 0x40 MLOAD PUSH1 0x20 ADD PUSH2 0x1A90 SWAP10 SWAP9 SWAP8 SWAP7 SWAP6 SWAP5 SWAP4 SWAP3 SWAP2 SWAP1 SWAP9 DUP10 MSTORE PUSH1 0x1 PUSH1 0x1 PUSH1 0x80 SHL SUB NOT SWAP8 SWAP1 SWAP8 AND PUSH1 0x20 DUP10 ADD MSTORE PUSH1 0x1 PUSH1 0x1 PUSH1 0xA0 SHL SUB SWAP6 DUP7 AND PUSH1 0x40 DUP10 ADD MSTORE SWAP4 DUP6 AND PUSH1 0x60 DUP9 ADD MSTORE SWAP2 SWAP1 SWAP4 AND PUSH1 0x80 DUP7 ADD MSTORE PUSH1 0xA0 DUP6 ADD SWAP3 SWAP1 SWAP3 MSTORE PUSH1 0xC0 DUP5 ADD SWAP2 SWAP1 SWAP2 MSTORE PUSH1 0xE0 DUP4 ADD MSTORE PUSH2 0x100 DUP3 ADD MSTORE PUSH2 0x120 ADD SWAP1 JUMP JUMPDEST PUSH1 0x40 MLOAD PUSH1 0x20 DUP2 DUP4 SUB SUB DUP2 MSTORE SWAP1 PUSH1 0x40 MSTORE DUP1 MLOAD SWAP1 PUSH1 0x20 ADD KECCAK256 SWAP1 POP SWAP2 SWAP1 POP JUMP JUMPDEST PUSH0 PUSH2 0x1AD9 PUSH2 0x1AB9 PUSH2 0x1D30 JUMP JUMPDEST DUP4 PUSH1 0x40 MLOAD PUSH2 0x1901 PUSH1 0xF0 SHL DUP2 MSTORE PUSH1 0x2 DUP2 ADD SWAP3 SWAP1 SWAP3 MSTORE PUSH1 0x22 DUP3 ADD MSTORE PUSH1 0x42 SWAP1 KECCAK256 SWAP1 JUMP JUMPDEST SWAP3 SWAP2 POP POP JUMP JUMPDEST PUSH0 PUSH0 PUSH0 PUSH0 PUSH2 0x1AED DUP7 DUP7 PUSH2 0x1D3E JUMP JUMPDEST SWAP3 POP SWAP3 POP SWAP3 POP PUSH2 0x1AFD DUP3 DUP3 PUSH2 0x1D87 JUMP JUMPDEST POP SWAP1 SWAP5 SWAP4 POP POP POP POP JUMP JUMPDEST PUSH1 0x40 DUP1 MLOAD PUSH1 0x1 PUSH1 0x1 PUSH1 0xA0 SHL SUB DUP6 DUP2 AND PUSH1 0x24 DUP4 ADD MSTORE DUP5 AND PUSH1 0x44 DUP3 ADD MSTORE PUSH1 0x64 DUP1 DUP3 ADD DUP5 SWAP1 MSTORE DUP3 MLOAD DUP1 DUP4 SUB SWAP1 SWAP2 ADD DUP2 MSTORE PUSH1 0x84 SWAP1 SWAP2 ADD SWAP1 SWAP2 MSTORE PUSH1 0x20 DUP2 ADD DUP1 MLOAD PUSH1 0x1 PUSH1 0x1 PUSH1 0xE0 SHL SUB AND PUSH4 0x23B872DD PUSH1 0xE0 SHL OR SWAP1 MSTORE PUSH2 0x1B61 SWAP1 DUP6 SWAP1 PUSH2 0x1E3F JUMP JUMPDEST POP POP POP POP JUMP JUMPDEST PUSH32 0x9016D09D72D40FDAE2FD8CEAC6B6234C7706214FD39C1CD1E609A0528C199300 DUP1 SLOAD PUSH1 0x1 PUSH1 0x1 PUSH1 0xA0 SHL SUB NOT DUP2 AND PUSH1 0x1 PUSH1 0x1 PUSH1 0xA0 SHL SUB DUP5 DUP2 AND SWAP2 DUP3 OR DUP5 SSTORE PUSH1 0x40 MLOAD SWAP3 AND SWAP2 DUP3 SWAP1 PUSH32 0x8BE0079C531659141344CD1FD0A4F28419497F9722A3DAAFE3B4186F6B6457E0 SWAP1 PUSH0 SWAP1 LOG3 POP POP POP JUMP JUMPDEST PUSH32 0xA16A46D94261C7517CC8FF89F61C0CE93598E3C849801011DEE649A6A557D102 DUP1 SLOAD PUSH1 0x60 SWAP2 PUSH0 MLOAD PUSH1 0x20 PUSH2 0x2639 PUSH0 CODECOPY PUSH0 MLOAD SWAP1 PUSH0 MSTORE SWAP2 PUSH2 0x1C15 SWAP1 PUSH2 0x24FA JUMP JUMPDEST DUP1 PUSH1 0x1F ADD PUSH1 0x20 DUP1 SWAP2 DIV MUL PUSH1 0x20 ADD PUSH1 0x40 MLOAD SWAP1 DUP2 ADD PUSH1 0x40 MSTORE DUP1 SWAP3 SWAP2 SWAP1 DUP2 DUP2 MSTORE PUSH1 0x20 ADD DUP3 DUP1 SLOAD PUSH2 0x1C41 SWAP1 PUSH2 0x24FA JUMP JUMPDEST DUP1 ISZERO PUSH2 0x1C8C JUMPI DUP1 PUSH1 0x1F LT PUSH2 0x1C63 JUMPI PUSH2 0x100 DUP1 DUP4 SLOAD DIV MUL DUP4 MSTORE SWAP2 PUSH1 0x20 ADD SWAP2 PUSH2 0x1C8C JUMP JUMPDEST DUP3 ADD SWAP2 SWAP1 PUSH0 MSTORE PUSH1 0x20 PUSH0 KECCAK256 SWAP1 JUMPDEST DUP2 SLOAD DUP2 MSTORE SWAP1 PUSH1 0x1 ADD SWAP1 PUSH1 0x20 ADD DUP1 DUP4 GT PUSH2 0x1C6F JUMPI DUP3 SWAP1 SUB PUSH1 0x1F AND DUP3 ADD SWAP2 JUMPDEST POP POP POP POP POP SWAP2 POP POP SWAP1 JUMP JUMPDEST PUSH32 0xA16A46D94261C7517CC8FF89F61C0CE93598E3C849801011DEE649A6A557D103 DUP1 SLOAD PUSH1 0x60 SWAP2 PUSH0 MLOAD PUSH1 0x20 PUSH2 0x2639 PUSH0 CODECOPY PUSH0 MLOAD SWAP1 PUSH0 MSTORE SWAP2 PUSH2 0x1C15 SWAP1 PUSH2 0x24FA JUMP JUMPDEST PUSH0 DUP1 PUSH32 0xF0C57E16840DF040F15088DC2F81FE391C3923BEC73E23A9662EFC9C229C6A00 PUSH2 0x1AD9 JUMP JUMPDEST PUSH2 0x1D05 PUSH2 0x1EAB JUMP JUMPDEST PUSH2 0x558 DUP2 PUSH2 0x1ED0 JUMP JUMPDEST PUSH2 0x1D16 PUSH2 0x1EAB JUMP JUMPDEST PUSH2 0xCBF PUSH2 0x1ED8 JUMP JUMPDEST PUSH2 0x1D26 PUSH2 0x1EAB JUMP JUMPDEST PUSH2 0x69F DUP3 DUP3 PUSH2 0x1EE0 JUMP JUMPDEST PUSH0 PUSH2 0x1D39 PUSH2 0x1F3F JUMP JUMPDEST SWAP1 POP SWAP1 JUMP JUMPDEST PUSH0 PUSH0 PUSH0 DUP4 MLOAD PUSH1 0x41 SUB PUSH2 0x1D75 JUMPI PUSH1 0x20 DUP5 ADD MLOAD PUSH1 0x40 DUP6 ADD MLOAD PUSH1 0x60 DUP7 ADD MLOAD PUSH0 BYTE PUSH2 0x1D67 DUP9 DUP3 DUP6 DUP6 PUSH2 0x1FB2 JUMP JUMPDEST SWAP6 POP SWAP6 POP SWAP6 POP POP POP POP PUSH2 0x1D80 JUMP JUMPDEST POP POP DUP2 MLOAD PUSH0 SWAP2 POP PUSH1 0x2 SWAP1 JUMPDEST SWAP3 POP SWAP3 POP SWAP3 JUMP JUMPDEST PUSH0 DUP3 PUSH1 0x3 DUP2 GT ISZERO PUSH2 0x1D9A JUMPI PUSH2 0x1D9A PUSH2 0x2307 JUMP JUMPDEST SUB PUSH2 0x1DA3 JUMPI POP POP JUMP JUMPDEST PUSH1 0x1 DUP3 PUSH1 0x3 DUP2 GT ISZERO PUSH2 0x1DB7 JUMPI PUSH2 0x1DB7 PUSH2 0x2307 JUMP JUMPDEST SUB PUSH2 0x1DD5 JUMPI PUSH1 0x40 MLOAD PUSH4 0xF645EEDF PUSH1 0xE0 SHL DUP2 MSTORE PUSH1 0x4 ADD PUSH1 0x40 MLOAD DUP1 SWAP2 SUB SWAP1 REVERT JUMPDEST PUSH1 0x2 DUP3 PUSH1 0x3 DUP2 GT ISZERO PUSH2 0x1DE9 JUMPI PUSH2 0x1DE9 PUSH2 0x2307 JUMP JUMPDEST SUB PUSH2 0x1E0A JUMPI PUSH1 0x40 MLOAD PUSH4 0xFCE698F7 PUSH1 0xE0 SHL DUP2 MSTORE PUSH1 0x4 DUP2 ADD DUP3 SWAP1 MSTORE PUSH1 0x24 ADD PUSH2 0x49A JUMP JUMPDEST PUSH1 0x3 DUP3 PUSH1 0x3 DUP2 GT ISZERO PUSH2 0x1E1E JUMPI PUSH2 0x1E1E PUSH2 0x2307 JUMP JUMPDEST SUB PUSH2 0x69F JUMPI PUSH1 0x40 MLOAD PUSH4 0x35E2F383 PUSH1 0xE2 SHL DUP2 MSTORE PUSH1 0x4 DUP2 ADD DUP3 SWAP1 MSTORE PUSH1 0x24 ADD PUSH2 0x49A JUMP JUMPDEST PUSH0 PUSH0 PUSH1 0x20 PUSH0 DUP5 MLOAD PUSH1 0x20 DUP7 ADD PUSH0 DUP9 GAS CALL DUP1 PUSH2 0x1E5E JUMPI PUSH1 0x40 MLOAD RETURNDATASIZE PUSH0 DUP3 RETURNDATACOPY RETURNDATASIZE DUP2 REVERT JUMPDEST POP POP PUSH0 MLOAD RETURNDATASIZE SWAP2 POP DUP2 ISZERO PUSH2 0x1E75 JUMPI DUP1 PUSH1 0x1 EQ ISZERO PUSH2 0x1E82 JUMP JUMPDEST PUSH1 0x1 PUSH1 0x1 PUSH1 0xA0 SHL SUB DUP5 AND EXTCODESIZE ISZERO JUMPDEST ISZERO PUSH2 0x1B61 JUMPI PUSH1 0x40 MLOAD PUSH4 0x5274AFE7 PUSH1 0xE0 SHL DUP2 MSTORE PUSH1 0x1 PUSH1 0x1 PUSH1 0xA0 SHL SUB DUP6 AND PUSH1 0x4 DUP3 ADD MSTORE PUSH1 0x24 ADD PUSH2 0x49A JUMP JUMPDEST PUSH2 0x1EB3 PUSH2 0x207A JUMP JUMPDEST PUSH2 0xCBF JUMPI PUSH1 0x40 MLOAD PUSH4 0x1AFCD79F PUSH1 0xE3 SHL DUP2 MSTORE PUSH1 0x4 ADD PUSH1 0x40 MLOAD DUP1 SWAP2 SUB SWAP1 REVERT JUMPDEST PUSH2 0x152D PUSH2 0x1EAB JUMP JUMPDEST PUSH2 0x1944 PUSH2 0x1EAB JUMP JUMPDEST PUSH2 0x1EE8 PUSH2 0x1EAB JUMP JUMPDEST PUSH0 MLOAD PUSH1 0x20 PUSH2 0x2639 PUSH0 CODECOPY PUSH0 MLOAD SWAP1 PUSH0 MSTORE PUSH32 0xA16A46D94261C7517CC8FF89F61C0CE93598E3C849801011DEE649A6A557D102 PUSH2 0x1F21 DUP5 DUP3 PUSH2 0x257D JUMP JUMPDEST POP PUSH1 0x3 DUP2 ADD PUSH2 0x1F30 DUP4 DUP3 PUSH2 0x257D JUMP JUMPDEST POP PUSH0 DUP1 DUP3 SSTORE PUSH1 0x1 SWAP1 SWAP2 ADD SSTORE POP POP JUMP JUMPDEST PUSH0 PUSH32 0x8B73C3C69BB8FE3D512ECC4CF759CC79239F7B179B0FFACAA9A75D522B39400F PUSH2 0x1F69 PUSH2 0x2093 JUMP JUMPDEST PUSH2 0x1F71 PUSH2 0x20FB JUMP JUMPDEST PUSH1 0x40 DUP1 MLOAD PUSH1 0x20 DUP2 ADD SWAP5 SWAP1 SWAP5 MSTORE DUP4 ADD SWAP2 SWAP1 SWAP2 MSTORE PUSH1 0x60 DUP3 ADD MSTORE CHAINID PUSH1 0x80 DUP3 ADD MSTORE ADDRESS PUSH1 0xA0 DUP3 ADD MSTORE PUSH1 0xC0 ADD PUSH1 0x40 MLOAD PUSH1 0x20 DUP2 DUP4 SUB SUB DUP2 MSTORE SWAP1 PUSH1 0x40 MSTORE DUP1 MLOAD SWAP1 PUSH1 0x20 ADD KECCAK256 SWAP1 POP SWAP1 JUMP JUMPDEST PUSH0 DUP1 DUP1 PUSH32 0x7FFFFFFFFFFFFFFFFFFFFFFFFFFFFFFF5D576E7357A4501DDFE92F46681B20A0 DUP5 GT ISZERO PUSH2 0x1FEB JUMPI POP PUSH0 SWAP2 POP PUSH1 0x3 SWAP1 POP DUP3 PUSH2 0x2070 JUMP JUMPDEST PUSH1 0x40 DUP1 MLOAD PUSH0 DUP1 DUP3 MSTORE PUSH1 0x20 DUP3 ADD DUP1 DUP5 MSTORE DUP11 SWAP1 MSTORE PUSH1 0xFF DUP10 AND SWAP3 DUP3 ADD SWAP3 SWAP1 SWAP3 MSTORE PUSH1 0x60 DUP2 ADD DUP8 SWAP1 MSTORE PUSH1 0x80 DUP2 ADD DUP7 SWAP1 MSTORE PUSH1 0x1 SWAP1 PUSH1 0xA0 ADD PUSH1 0x20 PUSH1 0x40 MLOAD PUSH1 0x20 DUP2 SUB SWAP1 DUP1 DUP5 SUB SWAP1 DUP6 GAS STATICCALL ISZERO DUP1 ISZERO PUSH2 0x203C JUMPI RETURNDATASIZE PUSH0 PUSH0 RETURNDATACOPY RETURNDATASIZE PUSH0 REVERT JUMPDEST POP POP PUSH1 0x40 MLOAD PUSH1 0x1F NOT ADD MLOAD SWAP2 POP POP PUSH1 0x1 PUSH1 0x1 PUSH1 0xA0 SHL SUB DUP2 AND PUSH2 0x2067 JUMPI POP PUSH0 SWAP3 POP PUSH1 0x1 SWAP2 POP DUP3 SWAP1 POP PUSH2 0x2070 JUMP JUMPDEST SWAP3 POP PUSH0 SWAP2 POP DUP2 SWAP1 POP JUMPDEST SWAP5 POP SWAP5 POP SWAP5 SWAP2 POP POP JUMP JUMPDEST PUSH0 PUSH2 0x2083 PUSH2 0x1CD5 JUMP JUMPDEST SLOAD PUSH1 0x1 PUSH1 0x40 SHL SWAP1 DIV PUSH1 0xFF AND SWAP2 SWAP1 POP JUMP JUMPDEST PUSH0 PUSH0 MLOAD PUSH1 0x20 PUSH2 0x2639 PUSH0 CODECOPY PUSH0 MLOAD SWAP1 PUSH0 MSTORE DUP2 PUSH2 0x20AB PUSH2 0x1BD7 JUMP JUMPDEST DUP1 MLOAD SWAP1 SWAP2 POP ISZERO PUSH2 0x20C3 JUMPI DUP1 MLOAD PUSH1 0x20 SWAP1 SWAP2 ADD KECCAK256 SWAP3 SWAP2 POP POP JUMP JUMPDEST DUP2 SLOAD DUP1 ISZERO PUSH2 0x20D2 JUMPI SWAP4 SWAP3 POP POP POP JUMP JUMPDEST PUSH32 0xC5D2460186F7233C927E7DB2DCC703C0E500B653CA82273B7BFAD8045D85A470 SWAP4 POP POP POP POP SWAP1 JUMP JUMPDEST PUSH0 PUSH0 MLOAD PUSH1 0x20 PUSH2 0x2639 PUSH0 CODECOPY PUSH0 MLOAD SWAP1 PUSH0 MSTORE DUP2 PUSH2 0x2113 PUSH2 0x1C97 JUMP JUMPDEST DUP1 MLOAD SWAP1 SWAP2 POP ISZERO PUSH2 0x212B JUMPI DUP1 MLOAD PUSH1 0x20 SWAP1 SWAP2 ADD KECCAK256 SWAP3 SWAP2 POP POP JUMP JUMPDEST PUSH1 0x1 DUP3 ADD SLOAD DUP1 ISZERO PUSH2 0x20D2 JUMPI SWAP4 SWAP3 POP POP POP JUMP JUMPDEST DUP1 CALLDATALOAD PUSH1 0x1 PUSH1 0x1 PUSH1 0x80 SHL SUB NOT DUP2 AND DUP2 EQ PUSH2 0x2154 JUMPI PUSH0 PUSH0 REVERT JUMPDEST SWAP2 SWAP1 POP JUMP JUMPDEST PUSH0 PUSH1 0x20 DUP3 DUP5 SUB SLT ISZERO PUSH2 0x2169 JUMPI PUSH0 PUSH0 REVERT JUMPDEST PUSH2 0x2172 DUP3 PUSH2 0x213D JUMP JUMPDEST SWAP4 SWAP3 POP POP POP JUMP JUMPDEST DUP1 ISZERO ISZERO DUP2 EQ PUSH2 0x558 JUMPI PUSH0 PUSH0 REVERT JUMPDEST PUSH0 PUSH0 PUSH1 0x40 DUP4 DUP6 SUB SLT ISZERO PUSH2 0x2197 JUMPI PUSH0 PUSH0 REVERT JUMPDEST PUSH2 0x21A0 DUP4 PUSH2 0x213D JUMP JUMPDEST SWAP2 POP PUSH1 0x20 DUP4 ADD CALLDATALOAD PUSH2 0x21B0 DUP2 PUSH2 0x2179 JUMP JUMPDEST DUP1 SWAP2 POP POP SWAP3 POP SWAP3 SWAP1 POP JUMP JUMPDEST PUSH0 PUSH0 PUSH0 DUP4 DUP6 SUB PUSH2 0x120 DUP2 SLT ISZERO PUSH2 0x21CF JUMPI PUSH0 PUSH0 REVERT JUMPDEST PUSH2 0x100 DUP2 SLT ISZERO PUSH2 0x21DD JUMPI PUSH0 PUSH0 REVERT JUMPDEST POP DUP4 SWAP3 POP PUSH2 0x100 DUP5 ADD CALLDATALOAD PUSH8 0xFFFFFFFFFFFFFFFF DUP2 GT ISZERO PUSH2 0x21FB JUMPI PUSH0 PUSH0 REVERT JUMPDEST DUP5 ADD PUSH1 0x1F DUP2 ADD DUP7 SGT PUSH2 0x220B JUMPI PUSH0 PUSH0 REVERT JUMPDEST DUP1 CALLDATALOAD PUSH8 0xFFFFFFFFFFFFFFFF DUP2 GT ISZERO PUSH2 0x2221 JUMPI PUSH0 PUSH0 REVERT JUMPDEST DUP7 PUSH1 0x20 DUP3 DUP5 ADD ADD GT ISZERO PUSH2 0x2232 JUMPI PUSH0 PUSH0 REVERT JUMPDEST SWAP4 SWAP7 PUSH1 0x20 SWAP2 SWAP1 SWAP2 ADD SWAP6 POP SWAP3 SWAP4 POP POP POP JUMP JUMPDEST PUSH0 DUP2 MLOAD DUP1 DUP5 MSTORE DUP1 PUSH1 0x20 DUP5 ADD PUSH1 0x20 DUP7 ADD MCOPY PUSH0 PUSH1 0x20 DUP3 DUP7 ADD ADD MSTORE PUSH1 0x20 PUSH1 0x1F NOT PUSH1 0x1F DUP4 ADD AND DUP6 ADD ADD SWAP2 POP POP SWAP3 SWAP2 POP POP JUMP JUMPDEST PUSH1 0xFF PUSH1 0xF8 SHL DUP9 AND DUP2 MSTORE PUSH1 0xE0 PUSH1 0x20 DUP3 ADD MSTORE PUSH0 PUSH2 0x228F PUSH1 0xE0 DUP4 ADD DUP10 PUSH2 0x2243 JUMP JUMPDEST DUP3 DUP2 SUB PUSH1 0x40 DUP5 ADD MSTORE PUSH2 0x22A1 DUP2 DUP10 PUSH2 0x2243 JUMP JUMPDEST PUSH1 0x60 DUP5 ADD DUP9 SWAP1 MSTORE PUSH1 0x1 PUSH1 0x1 PUSH1 0xA0 SHL SUB DUP8 AND PUSH1 0x80 DUP6 ADD MSTORE PUSH1 0xA0 DUP5 ADD DUP7 SWAP1 MSTORE DUP4 DUP2 SUB PUSH1 0xC0 DUP6 ADD MSTORE DUP5 MLOAD DUP1 DUP3 MSTORE PUSH1 0x20 DUP1 DUP8 ADD SWAP4 POP SWAP1 SWAP2 ADD SWAP1 PUSH0 JUMPDEST DUP2 DUP2 LT ISZERO PUSH2 0x22F6 JUMPI DUP4 MLOAD DUP4 MSTORE PUSH1 0x20 SWAP4 DUP5 ADD SWAP4 SWAP1 SWAP3 ADD SWAP2 PUSH1 0x1 ADD PUSH2 0x22D8 JUMP JUMPDEST POP SWAP1 SWAP12 SWAP11 POP POP POP POP POP POP POP POP POP POP POP JUMP JUMPDEST PUSH4 0x4E487B71 PUSH1 0xE0 SHL PUSH0 MSTORE PUSH1 0x21 PUSH1 0x4 MSTORE PUSH1 0x24 PUSH0 REVERT JUMPDEST PUSH1 0x20 DUP2 ADD PUSH1 0x2 DUP4 LT PUSH2 0x232F JUMPI PUSH2 0x232F PUSH2 0x2307 JUMP JUMPDEST SWAP2 SWAP1 MSTORE SWAP1 JUMP JUMPDEST DUP1 CALLDATALOAD PUSH1 0x1 PUSH1 0x1 PUSH1 0xA0 SHL SUB DUP2 AND DUP2 EQ PUSH2 0x2154 JUMPI PUSH0 PUSH0 REVERT JUMPDEST PUSH0 PUSH0 PUSH0 PUSH0 PUSH1 0x80 DUP6 DUP8 SUB SLT ISZERO PUSH2 0x235E JUMPI PUSH0 PUSH0 REVERT JUMPDEST PUSH2 0x2367 DUP6 PUSH2 0x2335 JUMP JUMPDEST SWAP4 POP PUSH2 0x2375 PUSH1 0x20 DUP7 ADD PUSH2 0x2335 JUMP JUMPDEST SWAP3 POP PUSH2 0x2383 PUSH1 0x40 DUP7 ADD PUSH2 0x2335 JUMP JUMPDEST SWAP2 POP PUSH1 0x60 DUP6 ADD CALLDATALOAD PUSH3 0xFFFFFF DUP2 AND DUP2 EQ PUSH2 0x239A JUMPI PUSH0 PUSH0 REVERT JUMPDEST SWAP4 SWAP7 SWAP3 SWAP6 POP SWAP1 SWAP4 POP POP JUMP JUMPDEST PUSH1 0x1 PUSH1 0x1 PUSH1 0xA0 SHL SUB DUP10 DUP2 AND DUP3 MSTORE DUP9 DUP2 AND PUSH1 0x20 DUP4 ADD MSTORE DUP8 AND PUSH1 0x40 DUP3 ADD MSTORE PUSH1 0x60 DUP2 ADD DUP7 SWAP1 MSTORE PUSH1 0x80 DUP2 ADD DUP6 SWAP1 MSTORE PUSH1 0xA0 DUP2 ADD DUP5 SWAP1 MSTORE PUSH1 0xC0 DUP2 ADD DUP4 SWAP1 MSTORE PUSH2 0x100 DUP2 ADD PUSH1 0x5 DUP4 LT PUSH2 0x23F2 JUMPI PUSH2 0x23F2 PUSH2 0x2307 JUMP JUMPDEST DUP3 PUSH1 0xE0 DUP4 ADD MSTORE SWAP10 SWAP9 POP POP POP POP POP POP POP POP POP JUMP JUMPDEST PUSH0 PUSH1 0x20 DUP3 DUP5 SUB SLT ISZERO PUSH2 0x2415 JUMPI PUSH0 PUSH0 REVERT JUMPDEST PUSH2 0x2172 DUP3 PUSH2 0x2335 JUMP JUMPDEST PUSH0 PUSH1 0x20 DUP3 DUP5 SUB SLT ISZERO PUSH2 0x242E JUMPI PUSH0 PUSH0 REVERT JUMPDEST DUP2 CALLDATALOAD PUSH1 0x2 DUP2 LT PUSH2 0x2172 JUMPI PUSH0 PUSH0 REVERT JUMPDEST PUSH1 0x20 DUP1 DUP3 MSTORE PUSH1 0x13 SWAP1 DUP3 ADD MSTORE PUSH19 0x10DBDB9D1C9858DD0819195C1C9958D85D1959 PUSH1 0x6A SHL PUSH1 0x40 DUP3 ADD MSTORE PUSH1 0x60 ADD SWAP1 JUMP JUMPDEST PUSH1 0x20 DUP1 DUP3 MSTORE PUSH1 0xE SWAP1 DUP3 ADD MSTORE PUSH14 0x43616E6E6F742072656C65617365 PUSH1 0x90 SHL PUSH1 0x40 DUP3 ADD MSTORE PUSH1 0x60 ADD SWAP1 JUMP JUMPDEST PUSH4 0x4E487B71 PUSH1 0xE0 SHL PUSH0 MSTORE PUSH1 0x11 PUSH1 0x4 MSTORE PUSH1 0x24 PUSH0 REVERT JUMPDEST DUP1 DUP3 ADD DUP1 DUP3 GT ISZERO PUSH2 0x1AD9 JUMPI PUSH2 0x1AD9 PUSH2 0x2491 JUMP JUMPDEST PUSH4 0x4E487B71 PUSH1 0xE0 SHL PUSH0 MSTORE PUSH1 0x41 PUSH1 0x4 MSTORE PUSH1 0x24 PUSH0 REVERT JUMPDEST DUP2 DUP2 SUB DUP2 DUP2 GT ISZERO PUSH2 0x1AD9 JUMPI PUSH2 0x1AD9 PUSH2 0x2491 JUMP JUMPDEST PUSH0 PUSH1 0x20 DUP3 DUP5 SUB SLT ISZERO PUSH2 0x24EF JUMPI PUSH0 PUSH0 REVERT JUMPDEST DUP2 MLOAD PUSH2 0x2172 DUP2 PUSH2 0x2179 JUMP JUMPDEST PUSH1 0x1 DUP2 DUP2 SHR SWAP1 DUP3 AND DUP1 PUSH2 0x250E JUMPI PUSH1 0x7F DUP3 AND SWAP2 POP JUMPDEST PUSH1 0x20 DUP3 LT DUP2 SUB PUSH2 0x252C JUMPI PUSH4 0x4E487B71 PUSH1 0xE0 SHL PUSH0 MSTORE PUSH1 0x22 PUSH1 0x4 MSTORE PUSH1 0x24 PUSH0 REVERT JUMPDEST POP SWAP2 SWAP1 POP JUMP JUMPDEST PUSH1 0x1F DUP3 GT ISZERO PUSH2 0xB70 JUMPI DUP1 PUSH0 MSTORE PUSH1 0x20 PUSH0 KECCAK256 PUSH1 0x1F DUP5 ADD PUSH1 0x5 SHR DUP2 ADD PUSH1 0x20 DUP6 LT ISZERO PUSH2 0x2557 JUMPI POP DUP1 JUMPDEST PUSH1 0x1F DUP5 ADD PUSH1 0x5 SHR DUP3 ADD SWAP2 POP JUMPDEST DUP2 DUP2 LT ISZERO PUSH2 0x2576 JUMPI PUSH0 DUP2 SSTORE PUSH1 0x1 ADD PUSH2 0x2563 JUMP JUMPDEST POP POP POP POP POP JUMP JUMPDEST DUP2 MLOAD PUSH8 0xFFFFFFFFFFFFFFFF DUP2 GT ISZERO PUSH2 0x2597 JUMPI PUSH2 0x2597 PUSH2 0x24B8 JUMP JUMPDEST PUSH2 0x25AB DUP2 PUSH2 0x25A5 DUP5 SLOAD PUSH2 0x24FA JUMP JUMPDEST DUP5 PUSH2 0x2532 JUMP JUMPDEST PUSH1 0x20 PUSH1 0x1F DUP3 GT PUSH1 0x1 DUP2 EQ PUSH2 0x25DD JUMPI PUSH0 DUP4 ISZERO PUSH2 0x25C6 JUMPI POP DUP5 DUP3 ADD MLOAD JUMPDEST PUSH0 NOT PUSH1 0x3 DUP6 SWAP1 SHL SHR NOT AND PUSH1 0x1 DUP5 SWAP1 SHL OR DUP5 SSTORE PUSH2 0x2576 JUMP JUMPDEST PUSH0 DUP5 DUP2 MSTORE PUSH1 0x20 DUP2 KECCAK256 PUSH1 0x1F NOT DUP6 AND SWAP2 JUMPDEST DUP3 DUP2 LT ISZERO PUSH2 0x260C JUMPI DUP8 DUP6 ADD MLOAD DUP3 SSTORE PUSH1 0x20 SWAP5 DUP6 ADD SWAP5 PUSH1 0x1 SWAP1 SWAP3 ADD SWAP2 ADD PUSH2 0x25EC JUMP JUMPDEST POP DUP5 DUP3 LT ISZERO PUSH2 0x2629 JUMPI DUP7 DUP5 ADD MLOAD PUSH0 NOT PUSH1 0x3 DUP8 SWAP1 SHL PUSH1 0xF8 AND SHR NOT AND DUP2 SSTORE JUMPDEST POP POP POP POP PUSH1 0x1 SWAP1 DUP2 SHL ADD SWAP1 SSTORE POP JUMP INVALID LOG1 PUSH11 0x46D94261C7517CC8FF89F6 SHR 0xC 0xE9 CALLDATALOAD SWAP9 0xE3 0xC8 BLOBHASH DUP1 LT GT 0xDE 0xE6 BLOBHASH 0xA6 0xA5 JUMPI 0xD1 STOP SWAP12 PUSH24 0x9B17422D0DF92223018B32B4D1FA46E071723D6817E2486D STOP EXTCODESIZE 0xEC 0xC5 PUSH0 STOP LOG2 PUSH5 0x6970667358 0x22 SLT KECCAK256 0xF7 SWAP16 0xD6 0xB0 0xCB LOG1 CALLDATALOAD 0xD8 0xEE 0x4D 0xB2 GASLIMIT 0x2E 0xA8 0xC7 0xDB LT PUSH3 0x360C0D 0xD8 EXP PUSH16 0x546D3186DA5B017364736F6C63430008 SHR STOP CALLER "},"methodIdentifiers":{"confirmDelivery(bytes16)":"11594e29","contractState()":"85209ee0","eip712Domain()":"84b0196e","initialize(address,address,address,uint24)":"c4627023","openDispute(bytes16)":"5ff93a75","orders(bytes16)":"c5c73124","ordersCount()":"35daa731","owner()":"8da5cb5b","platformFeeTreasury()":"9a0b79e5","platformTaxTreasury()":"187a4bba","registerEscrow((bytes16,address,address,address,uint256,uint256,uint256,uint256),bytes)":"c75f396a","registerEscrowOrder((bytes16,address,address,address,uint256,uint256,uint256,uint256),bytes)":"50a4f0fe","releaseAfterTimeout(bytes16)":"97c163a0","releaseDelay()":"7195bf23","renounceOwnership()":"715018a6","resolveDispute(bytes16,bool)":"50515d5a","serverSigner()":"31af1908","setContractState(uint8)":"f7b4c187","transferOwnership(address)":"f2fde38b","usedOrderIds(bytes16)":"72907e9d"}}}}}