{"project/contracts/EscrowV1.sol":{"EscrowV1":{"abi":[{"inputs":[],"stateMutability":"nonpayable","type":"constructor"},{"inputs":[],"name":"ECDSAInvalidSignature","type":"error"},{"inputs":[{"internalType":"uint256","name":"length","type":"uint256"}],"name":"ECDSAInvalidSignatureLength","type":"error"},{"inputs":[{"internalType":"bytes32","name":"s","type":"bytes32"}],"name":"ECDSAInvalidSignatureS","type":"error"},{"inputs":[],"name":"InvalidInitialization","type":"error"},{"inputs":[],"name":"NotInitializing","type":"error"},{"inputs":[{"internalType":"address","name":"owner","type":"address"}],"name":"OwnableInvalidOwner","type":"error"},{"inputs":[{"internalType":"address","name":"account","type":"address"}],"name":"OwnableUnauthorizedAccount","type":"error"},{"inputs":[],"name":"ReentrancyGuardReentrantCall","type":"error"},{"anonymous":false,"inputs":[{"indexed":false,"internalType":"enum EscrowV1.ContractState","name":"newState","type":"uint8"}],"name":"ContractStateChanged","type":"event"},{"anonymous":false,"inputs":[],"name":"EIP712DomainChanged","type":"event"},{"anonymous":false,"inputs":[{"indexed":true,"internalType":"bytes16","name":"orderId","type":"bytes16"},{"indexed":true,"internalType":"address","name":"buyer","type":"address"},{"indexed":true,"internalType":"enum EscrowV1.OrderState","name":"state","type":"uint8"},{"indexed":false,"internalType":"address","name":"seller","type":"address"}],"name":"EscrowRegistered","type":"event"},{"anonymous":false,"inputs":[{"indexed":false,"internalType":"uint64","name":"version","type":"uint64"}],"name":"Initialized","type":"event"},{"anonymous":false,"inputs":[{"indexed":true,"internalType":"bytes16","name":"orderId","type":"bytes16"}],"name":"OrderDisputed","type":"event"},{"anonymous":false,"inputs":[{"indexed":true,"internalType":"bytes16","name":"orderId","type":"bytes16"},{"indexed":true,"internalType":"address","name":"buyer","type":"address"},{"indexed":false,"internalType":"uint256","name":"amount","type":"uint256"}],"name":"OrderRefunded","type":"event"},{"anonymous":false,"inputs":[{"indexed":true,"internalType":"bytes16","name":"orderId","type":"bytes16"},{"indexed":true,"internalType":"address","name":"seller","type":"address"},{"indexed":false,"internalType":"uint256","name":"sellerAmount","type":"uint256"}],"name":"OrderReleased","type":"event"},{"anonymous":false,"inputs":[{"indexed":true,"internalType":"address","name":"previousOwner","type":"address"},{"indexed":true,"internalType":"address","name":"newOwner","type":"address"}],"name":"OwnershipTransferred","type":"event"},{"inputs":[{"internalType":"bytes16","name":"orderId","type":"bytes16"}],"name":"confirmDelivery","outputs":[],"stateMutability":"nonpayable","type":"function"},{"inputs":[],"name":"contractState","outputs":[{"internalType":"enum EscrowV1.ContractState","name":"","type":"uint8"}],"stateMutability":"view","type":"function"},{"inputs":[],"name":"eip712Domain","outputs":[{"internalType":"bytes1","name":"fields","type":"bytes1"},{"internalType":"string","name":"name","type":"string"},{"internalType":"string","name":"version","type":"string"},{"internalType":"uint256","name":"chainId","type":"uint256"},{"internalType":"address","name":"verifyingContract","type":"address"},{"internalType":"bytes32","name":"salt","type":"bytes32"},{"internalType":"uint256[]","name":"extensions","type":"uint256[]"}],"stateMutability":"view","type":"function"},{"inputs":[{"internalType":"address","name":"_serverSigner","type":"address"},{"internalType":"address","name":"_platformTaxTreasury","type":"address"},{"internalType":"address","name":"_platformFeeTreasury","type":"address"},{"internalType":"uint24","name":"_releaseDelay","type":"uint24"}],"name":"initialize","outputs":[],"stateMutability":"nonpayable","type":"function"},{"inputs":[{"internalType":"bytes16","name":"orderId","type":"bytes16"}],"name":"openDispute","outputs":[],"stateMutability":"nonpayable","type":"function"},{"inputs":[{"internalType":"bytes16","name":"","type":"bytes16"}],"name":"orders","outputs":[{"internalType":"address","name":"buyer","type":"address"},{"internalType":"address","name":"seller","type":"address"},{"internalType":"address","name":"paymentToken","type":"address"},{"internalType":"uint256","name":"total","type":"uint256"},{"internalType":"uint256","name":"taxes","type":"uint256"},{"internalType":"uint256","name":"platformFee","type":"uint256"},{"internalType":"uint256","name":"createdAt","type":"uint256"},{"internalType":"enum EscrowV1.OrderState","name":"state","type":"uint8"}],"stateMutability":"view","type":"function"},{"inputs":[],"name":"owner","outputs":[{"internalType":"address","name":"","type":"address"}],"stateMutability":"view","type":"function"},{"inputs":[],"name":"platformFeeTreasury","outputs":[{"internalType":"address","name":"","type":"address"}],"stateMutability":"view","type":"function"},{"inputs":[],"name":"platformTaxTreasury","outputs":[{"internalType":"address","name":"","type":"address"}],"stateMutability":"view","type":"function"},{"inputs":[{"components":[{"internalType":"bytes16","name":"orderId","type":"bytes16"},{"internalType":"address","name":"buyer","type":"address"},{"internalType":"address","name":"seller","type":"address"},{"internalType":"address","name":"paymentToken","type":"address"},{"internalType":"uint256","name":"total","type":"uint256"},{"internalType":"uint256","name":"taxes","type":"uint256"},{"internalType":"uint256","name":"platformFee","type":"uint256"},{"internalType":"uint256","name":"deadline","type":"uint256"}],"internalType":"struct EscrowV1.OrderPayload","name":"orderPayload","type":"tuple"},{"internalType":"bytes","name":"signature","type":"bytes"}],"name":"registerEscrow","outputs":[],"stateMutability":"payable","type":"function"},{"inputs":[{"internalType":"bytes16","name":"orderId","type":"bytes16"}],"name":"releaseAfterTimeout","outputs":[],"stateMutability":"nonpayable","type":"function"},{"inputs":[],"name":"releaseDelay","outputs":[{"internalType":"uint24","name":"","type":"uint24"}],"stateMutability":"view","type":"function"},{"inputs":[],"name":"renounceOwnership","outputs":[],"stateMutability":"nonpayable","type":"function"},{"inputs":[{"internalType":"bytes16","name":"orderId","type":"bytes16"},{"internalType":"bool","name":"refundBuyer","type":"bool"}],"name":"resolveDispute","outputs":[],"stateMutability":"nonpayable","type":"function"},{"inputs":[],"name":"serverSigner","outputs":[{"internalType":"address","name":"","type":"address"}],"stateMutability":"view","type":"function"},{"inputs":[{"internalType":"enum EscrowV1.ContractState","name":"newState","type":"uint8"}],"name":"setContractState","outputs":[],"stateMutability":"nonpayable","type":"function"},{"inputs":[{"internalType":"address","name":"newOwner","type":"address"}],"name":"transferOwnership","outputs":[],"stateMutability":"nonpayable","type":"function"},{"inputs":[{"internalType":"bytes16","name":"","type":"bytes16"}],"name":"usedOrderIds","outputs":[{"internalType":"bool","name":"","type":"bool"}],"stateMutability":"view","type":"function"}],"evm":{"bytecode":{"linkReferences":{},"object":"608060405234801561000f575f5ffd5b5061001e61002360201b60201c565b61019e565b5f61003261012160201b60201c565b9050805f0160089054906101000a900460ff161561007c576040517ff92ee8a900000000000000000000000000000000000000000000000000000000815260040160405180910390fd5b67ffffffffffffffff8016815f015f9054906101000a900467ffffffffffffffff1667ffffffffffffffff161461011e5767ffffffffffffffff815f015f6101000a81548167ffffffffffffffff021916908367ffffffffffffffff1602179055507fc7f505b2f371ae2175ee4913f4499e1f2633a7b5936321eed1cdaeb6115181d267ffffffffffffffff6040516101159190610185565b60405180910390a15b50565b5f5f61013161013a60201b60201c565b90508091505090565b5f7ff0c57e16840df040f15088dc2f81fe391c3923bec73e23a9662efc9c229c6a005f1b905090565b5f67ffffffffffffffff82169050919050565b61017f81610163565b82525050565b5f6020820190506101985f830184610176565b92915050565b613c03806101ab5f395ff3fe608060405260043610610108575f3560e01c806385209ee011610094578063c462702311610063578063c46270231461032a578063c5c7312414610352578063c75f396a14610395578063f2fde38b146103b1578063f7b4c187146103d957610108565b806385209ee0146102845780638da5cb5b146102ae57806397c163a0146102d85780639a0b79e51461030057610108565b80635ff93a75116100db5780635ff93a75146101b0578063715018a6146101d85780637195bf23146101ee57806372907e9d1461021857806384b0196e1461025457610108565b806311594e291461010c578063187a4bba1461013457806331af19081461015e57806350515d5a14610188575b5f5ffd5b348015610117575f5ffd5b50610132600480360381019061012d9190612982565b610401565b005b34801561013f575f5ffd5b506101486105d3565b60405161015591906129ec565b60405180910390f35b348015610169575f5ffd5b506101726105f8565b60405161017f91906129ec565b60405180910390f35b348015610193575f5ffd5b506101ae60048036038101906101a99190612a3a565b61061d565b005b3480156101bb575f5ffd5b506101d660048036038101906101d19190612982565b61081d565b005b3480156101e3575f5ffd5b506101ec610a42565b005b3480156101f9575f5ffd5b50610202610a55565b60405161020f9190612a95565b60405180910390f35b348015610223575f5ffd5b5061023e60048036038101906102399190612982565b610a6a565b60405161024b9190612abd565b60405180910390f35b34801561025f575f5ffd5b50610268610a87565b60405161027b9796959493929190612c67565b60405180910390f35b34801561028f575f5ffd5b50610298610b90565b6040516102a59190612d5c565b60405180910390f35b3480156102b9575f5ffd5b506102c2610ba3565b6040516102cf91906129ec565b60405180910390f35b3480156102e3575f5ffd5b506102fe60048036038101906102f99190612982565b610bd8565b005b34801561030b575f5ffd5b50610314610d0d565b60405161032191906129ec565b60405180910390f35b348015610335575f5ffd5b50610350600480360381019061034b9190612dc9565b610d32565b005b34801561035d575f5ffd5b5061037860048036038101906103739190612982565b611185565b60405161038c989796959493929190612e73565b60405180910390f35b6103af60048036038101906103aa9190612f73565b611231565b005b3480156103bc575f5ffd5b506103d760048036038101906103d29190612fd2565b611811565b005b3480156103e4575f5ffd5b506103ff60048036038101906103fa9190613020565b611895565b005b610409611901565b5f600181111561041c5761041b612ce9565b5b600460179054906101000a900460ff16600181111561043e5761043d612ce9565b5b1461047e576040517f08c379a000000000000000000000000000000000000000000000000000000000815260040161047590613095565b60405180910390fd5b5f5f5f836fffffffffffffffffffffffffffffffff19166fffffffffffffffffffffffffffffffff191681526020019081526020015f209050805f015f9054906101000a900473ffffffffffffffffffffffffffffffffffffffff1673ffffffffffffffffffffffffffffffffffffffff163373ffffffffffffffffffffffffffffffffffffffff1614610547576040517f08c379a000000000000000000000000000000000000000000000000000000000815260040161053e906130fd565b60405180910390fd5b6001600481111561055b5761055a612ce9565b5b816007015f9054906101000a900460ff16600481111561057e5761057d612ce9565b5b146105be576040517f08c379a00000000000000000000000000000000000000000000000000000000081526004016105b590613165565b60405180910390fd5b6105c782611955565b506105d0611eff565b50565b60035f9054906101000a900473ffffffffffffffffffffffffffffffffffffffff1681565b60025f9054906101000a900473ffffffffffffffffffffffffffffffffffffffff1681565b610625611f16565b61062d611901565b5f5f5f846fffffffffffffffffffffffffffffffff19166fffffffffffffffffffffffffffffffff191681526020019081526020015f2090506003600481111561067a57610679612ce9565b5b816007015f9054906101000a900460ff16600481111561069d5761069c612ce9565b5b146106dd576040517f08c379a00000000000000000000000000000000000000000000000000000000081526004016106d4906131cd565b60405180910390fd5b8115610806576004816007015f6101000a81548160ff0219169083600481111561070a57610709612ce9565b5b0217905550805f015f9054906101000a900473ffffffffffffffffffffffffffffffffffffffff1673ffffffffffffffffffffffffffffffffffffffff166108fc826003015490811502906040515f60405180830381858888f19350505050158015610778573d5f5f3e3d5ffd5b50805f015f9054906101000a900473ffffffffffffffffffffffffffffffffffffffff1673ffffffffffffffffffffffffffffffffffffffff16836fffffffffffffffffffffffffffffffff19167fafab81c7cff0515ab993a1cf55536d90f68cf5ec75deab830fd758b2a7f296ed83600301546040516107f991906131eb565b60405180910390a3610810565b61080f83611955565b5b50610819611eff565b5050565b5f60018111156108305761082f612ce9565b5b600460179054906101000a900460ff16600181111561085257610851612ce9565b5b14610892576040517f08c379a000000000000000000000000000000000000000000000000000000000815260040161088990613095565b60405180910390fd5b5f5f5f836fffffffffffffffffffffffffffffffff19166fffffffffffffffffffffffffffffffff191681526020019081526020015f209050805f015f9054906101000a900473ffffffffffffffffffffffffffffffffffffffff1673ffffffffffffffffffffffffffffffffffffffff163373ffffffffffffffffffffffffffffffffffffffff161461095b576040517f08c379a0000000000000000000000000000000000000000000000000000000008152600401610952906130fd565b60405180910390fd5b6001600481111561096f5761096e612ce9565b5b816007015f9054906101000a900460ff16600481111561099257610991612ce9565b5b146109d2576040517f08c379a00000000000000000000000000000000000000000000000000000000081526004016109c99061324e565b60405180910390fd5b6003816007015f6101000a81548160ff021916908360048111156109f9576109f8612ce9565b5b0217905550816fffffffffffffffffffffffffffffffff19167fdb1a1355b8cffea63b711aac689b380d6d3fa596333cf6a852d993988526e0ae60405160405180910390a25050565b610a4a611f16565b610a535f611f9d565b565b600460149054906101000a900462ffffff1681565b6001602052805f5260405f205f915054906101000a900460ff1681565b5f6060805f5f5f60605f610a9961206e565b90505f5f1b815f0154148015610ab457505f5f1b8160010154145b610af3576040517f08c379a0000000000000000000000000000000000000000000000000000000008152600401610aea906132b6565b60405180910390fd5b610afb612095565b610b03612133565b46305f5f1b5f67ffffffffffffffff811115610b2257610b216132d4565b5b604051908082528060200260200182016040528015610b505781602001602082028036833780820191505090505b507f0f0000000000000000000000000000000000000000000000000000000000000095949392919097509750975097509750975097505090919293949596565b600460179054906101000a900460ff1681565b5f5f610bad6121d1565b9050805f015f9054906101000a900473ffffffffffffffffffffffffffffffffffffffff1691505090565b610be0611901565b5f5f5f836fffffffffffffffffffffffffffffffff19166fffffffffffffffffffffffffffffffff191681526020019081526020015f20905060016004811115610c2d57610c2c612ce9565b5b816007015f9054906101000a900460ff166004811115610c5057610c4f612ce9565b5b14610c90576040517f08c379a0000000000000000000000000000000000000000000000000000000008152600401610c8790613165565b60405180910390fd5b600460149054906101000a900462ffffff1662ffffff168160060154610cb6919061332e565b421015610cf8576040517f08c379a0000000000000000000000000000000000000000000000000000000008152600401610cef906133ab565b60405180910390fd5b610d0182611955565b50610d0a611eff565b50565b60045f9054906101000a900473ffffffffffffffffffffffffffffffffffffffff1681565b5f610d3b6121f8565b90505f815f0160089054906101000a900460ff161590505f825f015f9054906101000a900467ffffffffffffffff1690505f5f8267ffffffffffffffff16148015610d835750825b90505f60018367ffffffffffffffff16148015610db657505f3073ffffffffffffffffffffffffffffffffffffffff163b145b905081158015610dc4575080155b15610dfb576040517ff92ee8a900000000000000000000000000000000000000000000000000000000815260040160405180910390fd5b6001855f015f6101000a81548167ffffffffffffffff021916908367ffffffffffffffff1602179055508315610e48576001855f0160086101000a81548160ff0219169083151502179055505b610e513361220b565b610e5961221f565b610ecd6040518060400160405280601881526020017f4d594150505f414d4f595f455343524f575f4f524445525300000000000000008152506040518060400160405280600181526020017f3100000000000000000000000000000000000000000000000000000000000000815250612231565b5f73ffffffffffffffffffffffffffffffffffffffff168973ffffffffffffffffffffffffffffffffffffffff1603610f3b576040517f08c379a0000000000000000000000000000000000000000000000000000000008152600401610f3290613413565b60405180910390fd5b5f73ffffffffffffffffffffffffffffffffffffffff168873ffffffffffffffffffffffffffffffffffffffff1603610fa9576040517f08c379a0000000000000000000000000000000000000000000000000000000008152600401610fa09061347b565b60405180910390fd5b5f73ffffffffffffffffffffffffffffffffffffffff168773ffffffffffffffffffffffffffffffffffffffff1603611017576040517f08c379a000000000000000000000000000000000000000000000000000000000815260040161100e906134e3565b60405180910390fd5b8860025f6101000a81548173ffffffffffffffffffffffffffffffffffffffff021916908373ffffffffffffffffffffffffffffffffffffffff1602179055508760035f6101000a81548173ffffffffffffffffffffffffffffffffffffffff021916908373ffffffffffffffffffffffffffffffffffffffff1602179055508660045f6101000a81548173ffffffffffffffffffffffffffffffffffffffff021916908373ffffffffffffffffffffffffffffffffffffffff16021790555085600460146101000a81548162ffffff021916908362ffffff1602179055505f600460176101000a81548160ff0219169083600181111561111b5761111a612ce9565b5b0217905550831561117a575f855f0160086101000a81548160ff0219169083151502179055507fc7f505b2f371ae2175ee4913f4499e1f2633a7b5936321eed1cdaeb6115181d260016040516111719190613556565b60405180910390a15b505050505050505050565b5f602052805f5260405f205f91509050805f015f9054906101000a900473ffffffffffffffffffffffffffffffffffffffff1690806001015f9054906101000a900473ffffffffffffffffffffffffffffffffffffffff1690806002015f9054906101000a900473ffffffffffffffffffffffffffffffffffffffff1690806003015490806004015490806005015490806006015490806007015f9054906101000a900460ff16905088565b611239611901565b5f600181111561124c5761124b612ce9565b5b600460179054906101000a900460ff16600181111561126e5761126d612ce9565b5b146112ae576040517f08c379a00000000000000000000000000000000000000000000000000000000081526004016112a590613095565b60405180910390fd5b5f34116112f0576040517f08c379a00000000000000000000000000000000000000000000000000000000081526004016112e7906135b9565b60405180910390fd5b5f6113026112fd85612247565b6122fd565b90505f61135b84848080601f0160208091040260200160405190810160405280939291908181526020018383808284375f81840152601f19601f820116905080830192505050505050508361231690919063ffffffff16565b905060025f9054906101000a900473ffffffffffffffffffffffffffffffffffffffff1673ffffffffffffffffffffffffffffffffffffffff168173ffffffffffffffffffffffffffffffffffffffff16146113ec576040517f08c379a00000000000000000000000000000000000000000000000000000000081526004016113e390613621565b60405180910390fd5b8460e00135421115611433576040517f08c379a000000000000000000000000000000000000000000000000000000000815260040161142a90613689565b60405180910390fd5b60015f865f0160208101906114489190612982565b6fffffffffffffffffffffffffffffffff19166fffffffffffffffffffffffffffffffff191681526020019081526020015f205f9054906101000a900460ff16156114c8576040517f08c379a00000000000000000000000000000000000000000000000000000000081526004016114bf906136f1565b60405180910390fd5b6001805f875f0160208101906114de9190612982565b6fffffffffffffffffffffffffffffffff19166fffffffffffffffffffffffffffffffff191681526020019081526020015f205f6101000a81548160ff0219169083151502179055506040518061010001604052808660200160208101906115469190612fd2565b73ffffffffffffffffffffffffffffffffffffffff1681526020018660400160208101906115749190612fd2565b73ffffffffffffffffffffffffffffffffffffffff1681526020018660600160208101906115a29190612fd2565b73ffffffffffffffffffffffffffffffffffffffff168152602001866080013581526020018660a0013581526020018660c001358152602001428152602001600160048111156115f5576115f4612ce9565b5b8152505f5f875f01602081019061160c9190612982565b6fffffffffffffffffffffffffffffffff19166fffffffffffffffffffffffffffffffff191681526020019081526020015f205f820151815f015f6101000a81548173ffffffffffffffffffffffffffffffffffffffff021916908373ffffffffffffffffffffffffffffffffffffffff1602179055506020820151816001015f6101000a81548173ffffffffffffffffffffffffffffffffffffffff021916908373ffffffffffffffffffffffffffffffffffffffff1602179055506040820151816002015f6101000a81548173ffffffffffffffffffffffffffffffffffffffff021916908373ffffffffffffffffffffffffffffffffffffffff160217905550606082015181600301556080820151816004015560a0820151816005015560c0820151816006015560e0820151816007015f6101000a81548160ff0219169083600481111561176157611760612ce9565b5b02179055509050506001600481111561177d5761177c612ce9565b5b3373ffffffffffffffffffffffffffffffffffffffff16865f0160208101906117a69190612982565b6fffffffffffffffffffffffffffffffff19167fcbe7ff8e0a8e9f1ba9fb95b23b654905e70f0c53d8a889472a60f00d250422288860400160208101906117ed9190612fd2565b6040516117fa91906129ec565b60405180910390a4505061180c611eff565b505050565b611819611f16565b5f73ffffffffffffffffffffffffffffffffffffffff168173ffffffffffffffffffffffffffffffffffffffff1603611889575f6040517f1e4fbdf700000000000000000000000000000000000000000000000000000000815260040161188091906129ec565b60405180910390fd5b61189281611f9d565b50565b61189d611f16565b80600460176101000a81548160ff021916908360018111156118c2576118c1612ce9565b5b02179055507fab540c1b3defd38d975e65aa0e06eeee132a55dd082be87b73f505ab57bed48c816040516118f69190612d5c565b60405180910390a150565b5f61190a612340565b90506002815f015403611949576040517f3ee5aeb500000000000000000000000000000000000000000000000000000000815260040160405180910390fd5b6002815f018190555050565b5f5f5f836fffffffffffffffffffffffffffffffff19166fffffffffffffffffffffffffffffffff191681526020019081526020015f209050600160048111156119a2576119a1612ce9565b5b816007015f9054906101000a900460ff1660048111156119c5576119c4612ce9565b5b1480611a055750600360048111156119e0576119df612ce9565b5b816007015f9054906101000a900460ff166004811115611a0357611a02612ce9565b5b145b611a44576040517f08c379a0000000000000000000000000000000000000000000000000000000008152600401611a3b90613165565b60405180910390fd5b6002816007015f6101000a81548160ff02191690836004811115611a6b57611a6a612ce9565b5b02179055505f816005015482600401548360030154611a8a919061370f565b611a94919061370f565b90505f73ffffffffffffffffffffffffffffffffffffffff16826002015f9054906101000a900473ffffffffffffffffffffffffffffffffffffffff1673ffffffffffffffffffffffffffffffffffffffff1603611c2a5760035f9054906101000a900473ffffffffffffffffffffffffffffffffffffffff1673ffffffffffffffffffffffffffffffffffffffff166108fc836004015490811502906040515f60405180830381858888f19350505050158015611b54573d5f5f3e3d5ffd5b5060045f9054906101000a900473ffffffffffffffffffffffffffffffffffffffff1673ffffffffffffffffffffffffffffffffffffffff166108fc836005015490811502906040515f60405180830381858888f19350505050158015611bbd573d5f5f3e3d5ffd5b50816001015f9054906101000a900473ffffffffffffffffffffffffffffffffffffffff1673ffffffffffffffffffffffffffffffffffffffff166108fc8290811502906040515f60405180830381858888f19350505050158015611c24573d5f5f3e3d5ffd5b50611e75565b816002015f9054906101000a900473ffffffffffffffffffffffffffffffffffffffff1673ffffffffffffffffffffffffffffffffffffffff1663a9059cbb60035f9054906101000a900473ffffffffffffffffffffffffffffffffffffffff1684600401546040518363ffffffff1660e01b8152600401611cad929190613742565b6020604051808303815f875af1158015611cc9573d5f5f3e3d5ffd5b505050506040513d601f19601f82011682018060405250810190611ced919061377d565b50816002015f9054906101000a900473ffffffffffffffffffffffffffffffffffffffff1673ffffffffffffffffffffffffffffffffffffffff1663a9059cbb60045f9054906101000a900473ffffffffffffffffffffffffffffffffffffffff1684600501546040518363ffffffff1660e01b8152600401611d71929190613742565b6020604051808303815f875af1158015611d8d573d5f5f3e3d5ffd5b505050506040513d601f19601f82011682018060405250810190611db1919061377d565b50816002015f9054906101000a900473ffffffffffffffffffffffffffffffffffffffff1673ffffffffffffffffffffffffffffffffffffffff1663a9059cbb836001015f9054906101000a900473ffffffffffffffffffffffffffffffffffffffff16836040518363ffffffff1660e01b8152600401611e33929190613742565b6020604051808303815f875af1158015611e4f573d5f5f3e3d5ffd5b505050506040513d601f19601f82011682018060405250810190611e73919061377d565b505b816001015f9054906101000a900473ffffffffffffffffffffffffffffffffffffffff1673ffffffffffffffffffffffffffffffffffffffff16836fffffffffffffffffffffffffffffffff19167fe60f924809ad7a86a6789604bdd4b0e09d0f5585dde8e7290b4a37759ca77d0b83604051611ef291906131eb565b60405180910390a3505050565b5f611f08612340565b90506001815f018190555050565b611f1e612367565b73ffffffffffffffffffffffffffffffffffffffff16611f3c610ba3565b73ffffffffffffffffffffffffffffffffffffffff1614611f9b57611f5f612367565b6040517f118cdaa7000000000000000000000000000000000000000000000000000000008152600401611f9291906129ec565b60405180910390fd5b565b5f611fa66121d1565b90505f815f015f9054906101000a900473ffffffffffffffffffffffffffffffffffffffff16905082825f015f6101000a81548173ffffffffffffffffffffffffffffffffffffffff021916908373ffffffffffffffffffffffffffffffffffffffff1602179055508273ffffffffffffffffffffffffffffffffffffffff168173ffffffffffffffffffffffffffffffffffffffff167f8be0079c531659141344cd1fd0a4f28419497f9722a3daafe3b4186f6b6457e060405160405180910390a3505050565b5f7fa16a46d94261c7517cc8ff89f61c0ce93598e3c849801011dee649a6a557d100905090565b60605f6120a061206e565b90508060020180546120b1906137d5565b80601f01602080910402602001604051908101604052809291908181526020018280546120dd906137d5565b80156121285780601f106120ff57610100808354040283529160200191612128565b820191905f5260205f20905b81548152906001019060200180831161210b57829003601f168201915b505050505091505090565b60605f61213e61206e565b905080600301805461214f906137d5565b80601f016020809104026020016040519081016040528092919081815260200182805461217b906137d5565b80156121c65780601f1061219d576101008083540402835291602001916121c6565b820191905f5260205f20905b8154815290600101906020018083116121a957829003601f168201915b505050505091505090565b5f7f9016d09d72d40fdae2fd8ceac6b6234c7706214fd39c1cd1e609a0528c199300905090565b5f5f61220261236e565b90508091505090565b612213612397565b61221c816123d7565b50565b612227612397565b61222f61245b565b565b612239612397565b612243828261247a565b5050565b5f7f0f832f8ed29ef6f26aaa79d65ff922fd572aedfa6dbd05bf3275aa667fe75650825f01602081019061227b9190612982565b83602001602081019061228e9190612fd2565b8460400160208101906122a19190612fd2565b8560600160208101906122b49190612fd2565b86608001358760a001358860c001358960e001356040516020016122e099989796959493929190613814565b604051602081830303815290604052805190602001209050919050565b5f61230f6123096124cb565b836124d9565b9050919050565b5f5f5f5f6123248686612519565b925092509250612334828261256e565b82935050505092915050565b5f7f9b779b17422d0df92223018b32b4d1fa46e071723d6817e2486d003becc55f00905090565b5f33905090565b5f7ff0c57e16840df040f15088dc2f81fe391c3923bec73e23a9662efc9c229c6a005f1b905090565b61239f6126d0565b6123d5576040517fd7e6bcf800000000000000000000000000000000000000000000000000000000815260040160405180910390fd5b565b6123df612397565b5f73ffffffffffffffffffffffffffffffffffffffff168173ffffffffffffffffffffffffffffffffffffffff160361244f575f6040517f1e4fbdf700000000000000000000000000000000000000000000000000000000815260040161244691906129ec565b60405180910390fd5b61245881611f9d565b50565b612463612397565b5f61246c612340565b90506001815f018190555050565b612482612397565b5f61248b61206e565b90508281600201908161249e9190613a36565b50818160030190816124b09190613a36565b505f5f1b815f01819055505f5f1b8160010181905550505050565b5f6124d46126ee565b905090565b5f6040517f190100000000000000000000000000000000000000000000000000000000000081528360028201528260228201526042812091505092915050565b5f5f5f6041845103612559575f5f5f602087015192506040870151915060608701515f1a905061254b88828585612751565b955095509550505050612567565b5f600285515f1b9250925092505b9250925092565b5f600381111561258157612580612ce9565b5b82600381111561259457612593612ce9565b5b03156126cc57600160038111156125ae576125ad612ce9565b5b8260038111156125c1576125c0612ce9565b5b036125f8576040517ff645eedf00000000000000000000000000000000000000000000000000000000815260040160405180910390fd5b6002600381111561260c5761260b612ce9565b5b82600381111561261f5761261e612ce9565b5b0361266357805f1c6040517ffce698f700000000000000000000000000000000000000000000000000000000815260040161265a91906131eb565b60405180910390fd5b60038081111561267657612675612ce9565b5b82600381111561268957612688612ce9565b5b036126cb57806040517fd78bce0c0000000000000000000000000000000000000000000000000000000081526004016126c29190613b05565b60405180910390fd5b5b5050565b5f6126d96121f8565b5f0160089054906101000a900460ff16905090565b5f7f8b73c3c69bb8fe3d512ecc4cf759cc79239f7b179b0ffacaa9a75d522b39400f612718612838565b6127206128ae565b4630604051602001612736959493929190613b1e565b60405160208183030381529060405280519060200120905090565b5f5f5f7f7fffffffffffffffffffffffffffffff5d576e7357a4501ddfe92f46681b20a0845f1c111561278d575f60038592509250925061282e565b5f6001888888886040515f81526020016040526040516127b09493929190613b8a565b6020604051602081039080840390855afa1580156127d0573d5f5f3e3d5ffd5b5050506020604051035190505f73ffffffffffffffffffffffffffffffffffffffff168173ffffffffffffffffffffffffffffffffffffffff1603612821575f60015f5f1b9350935093505061282e565b805f5f5f1b935093509350505b9450945094915050565b5f5f61284261206e565b90505f61284d612095565b90505f81511115612869578080519060200120925050506128ab565b5f825f015490505f5f1b8114612884578093505050506128ab565b7fc5d2460186f7233c927e7db2dcc703c0e500b653ca82273b7bfad8045d85a47093505050505b90565b5f5f6128b861206e565b90505f6128c3612133565b90505f815111156128df57808051906020012092505050612922565b5f826001015490505f5f1b81146128fb57809350505050612922565b7fc5d2460186f7233c927e7db2dcc703c0e500b653ca82273b7bfad8045d85a47093505050505b90565b5f5ffd5b5f5ffd5b5f7fffffffffffffffffffffffffffffffff0000000000000000000000000000000082169050919050565b6129618161292d565b811461296b575f5ffd5b50565b5f8135905061297c81612958565b92915050565b5f6020828403121561299757612996612925565b5b5f6129a48482850161296e565b91505092915050565b5f73ffffffffffffffffffffffffffffffffffffffff82169050919050565b5f6129d6826129ad565b9050919050565b6129e6816129cc565b82525050565b5f6020820190506129ff5f8301846129dd565b92915050565b5f8115159050919050565b612a1981612a05565b8114612a23575f5ffd5b50565b5f81359050612a3481612a10565b92915050565b5f5f60408385031215612a5057612a4f612925565b5b5f612a5d8582860161296e565b9250506020612a6e85828601612a26565b9150509250929050565b5f62ffffff82169050919050565b612a8f81612a78565b82525050565b5f602082019050612aa85f830184612a86565b92915050565b612ab781612a05565b82525050565b5f602082019050612ad05f830184612aae565b92915050565b5f7fff0000000000000000000000000000000000000000000000000000000000000082169050919050565b612b0a81612ad6565b82525050565b5f81519050919050565b5f82825260208201905092915050565b8281835e5f83830152505050565b5f601f19601f8301169050919050565b5f612b5282612b10565b612b5c8185612b1a565b9350612b6c818560208601612b2a565b612b7581612b38565b840191505092915050565b5f819050919050565b612b9281612b80565b82525050565b5f819050919050565b612baa81612b98565b82525050565b5f81519050919050565b5f82825260208201905092915050565b5f819050602082019050919050565b612be281612b80565b82525050565b5f612bf38383612bd9565b60208301905092915050565b5f602082019050919050565b5f612c1582612bb0565b612c1f8185612bba565b9350612c2a83612bca565b805f5b83811015612c5a578151612c418882612be8565b9750612c4c83612bff565b925050600181019050612c2d565b5085935050505092915050565b5f60e082019050612c7a5f83018a612b01565b8181036020830152612c8c8189612b48565b90508181036040830152612ca08188612b48565b9050612caf6060830187612b89565b612cbc60808301866129dd565b612cc960a0830185612ba1565b81810360c0830152612cdb8184612c0b565b905098975050505050505050565b7f4e487b71000000000000000000000000000000000000000000000000000000005f52602160045260245ffd5b60028110612d2757612d26612ce9565b5b50565b5f819050612d3782612d16565b919050565b5f612d4682612d2a565b9050919050565b612d5681612d3c565b82525050565b5f602082019050612d6f5f830184612d4d565b92915050565b612d7e816129cc565b8114612d88575f5ffd5b50565b5f81359050612d9981612d75565b92915050565b612da881612a78565b8114612db2575f5ffd5b50565b5f81359050612dc381612d9f565b92915050565b5f5f5f5f60808587031215612de157612de0612925565b5b5f612dee87828801612d8b565b9450506020612dff87828801612d8b565b9350506040612e1087828801612d8b565b9250506060612e2187828801612db5565b91505092959194509250565b60058110612e3e57612e3d612ce9565b5b50565b5f819050612e4e82612e2d565b919050565b5f612e5d82612e41565b9050919050565b612e6d81612e53565b82525050565b5f61010082019050612e875f83018b6129dd565b612e94602083018a6129dd565b612ea160408301896129dd565b612eae6060830188612b89565b612ebb6080830187612b89565b612ec860a0830186612b89565b612ed560c0830185612b89565b612ee260e0830184612e64565b9998505050505050505050565b5f5ffd5b5f6101008284031215612f0957612f08612eef565b5b81905092915050565b5f5ffd5b5f5ffd5b5f5ffd5b5f5f83601f840112612f3357612f32612f12565b5b8235905067ffffffffffffffff811115612f5057612f4f612f16565b5b602083019150836001820283011115612f6c57612f6b612f1a565b5b9250929050565b5f5f5f6101208486031215612f8b57612f8a612925565b5b5f612f9886828701612ef3565b93505061010084013567ffffffffffffffff811115612fba57612fb9612929565b5b612fc686828701612f1e565b92509250509250925092565b5f60208284031215612fe757612fe6612925565b5b5f612ff484828501612d8b565b91505092915050565b60028110613009575f5ffd5b50565b5f8135905061301a81612ffd565b92915050565b5f6020828403121561303557613034612925565b5b5f6130428482850161300c565b91505092915050565b7f436f6e74726163742064657072656361746564000000000000000000000000005f82015250565b5f61307f601383612b1a565b915061308a8261304b565b602082019050919050565b5f6020820190508181035f8301526130ac81613073565b9050919050565b7f4e6f7420627579657200000000000000000000000000000000000000000000005f82015250565b5f6130e7600983612b1a565b91506130f2826130b3565b602082019050919050565b5f6020820190508181035f830152613114816130db565b9050919050565b7f43616e6e6f742072656c656173650000000000000000000000000000000000005f82015250565b5f61314f600e83612b1a565b915061315a8261311b565b602082019050919050565b5f6020820190508181035f83015261317c81613143565b9050919050565b7f4e6f2064697370757465000000000000000000000000000000000000000000005f82015250565b5f6131b7600a83612b1a565b91506131c282613183565b602082019050919050565b5f6020820190508181035f8301526131e4816131ab565b9050919050565b5f6020820190506131fe5f830184612b89565b92915050565b7f43616e6e6f7420646973707574650000000000000000000000000000000000005f82015250565b5f613238600e83612b1a565b915061324382613204565b602082019050919050565b5f6020820190508181035f8301526132658161322c565b9050919050565b7f4549503731323a20556e696e697469616c697a656400000000000000000000005f82015250565b5f6132a0601583612b1a565b91506132ab8261326c565b602082019050919050565b5f6020820190508181035f8301526132cd81613294565b9050919050565b7f4e487b71000000000000000000000000000000000000000000000000000000005f52604160045260245ffd5b7f4e487b71000000000000000000000000000000000000000000000000000000005f52601160045260245ffd5b5f61333882612b80565b915061334383612b80565b925082820190508082111561335b5761335a613301565b5b92915050565b7f546f6f206561726c7900000000000000000000000000000000000000000000005f82015250565b5f613395600983612b1a565b91506133a082613361565b602082019050919050565b5f6020820190508181035f8301526133c281613389565b9050919050565b7f496e76616c696420736572766572207369676e657200000000000000000000005f82015250565b5f6133fd601583612b1a565b9150613408826133c9565b602082019050919050565b5f6020820190508181035f83015261342a816133f1565b9050919050565b7f496e76616c6964207461786573206164647265737300000000000000000000005f82015250565b5f613465601583612b1a565b915061347082613431565b602082019050919050565b5f6020820190508181035f83015261349281613459565b9050919050565b7f496e76616c6964206665657320616464726573730000000000000000000000005f82015250565b5f6134cd601483612b1a565b91506134d882613499565b602082019050919050565b5f6020820190508181035f8301526134fa816134c1565b9050919050565b5f819050919050565b5f67ffffffffffffffff82169050919050565b5f819050919050565b5f61354061353b61353684613501565b61351d565b61350a565b9050919050565b61355081613526565b82525050565b5f6020820190506135695f830184613547565b92915050565b7f496e76616c696420616d6f756e740000000000000000000000000000000000005f82015250565b5f6135a3600e83612b1a565b91506135ae8261356f565b602082019050919050565b5f6020820190508181035f8301526135d081613597565b9050919050565b7f496e76616c6964207369676e61747572650000000000000000000000000000005f82015250565b5f61360b601183612b1a565b9150613616826135d7565b602082019050919050565b5f6020820190508181035f830152613638816135ff565b9050919050565b7f4f726465722065787069726564000000000000000000000000000000000000005f82015250565b5f613673600d83612b1a565b915061367e8261363f565b602082019050919050565b5f6020820190508181035f8301526136a081613667565b9050919050565b7f4f7264657220616c7265616479207265676973746572656400000000000000005f82015250565b5f6136db601883612b1a565b91506136e6826136a7565b602082019050919050565b5f6020820190508181035f830152613708816136cf565b9050919050565b5f61371982612b80565b915061372483612b80565b925082820390508181111561373c5761373b613301565b5b92915050565b5f6040820190506137555f8301856129dd565b6137626020830184612b89565b9392505050565b5f8151905061377781612a10565b92915050565b5f6020828403121561379257613791612925565b5b5f61379f84828501613769565b91505092915050565b7f4e487b71000000000000000000000000000000000000000000000000000000005f52602260045260245ffd5b5f60028204905060018216806137ec57607f821691505b6020821081036137ff576137fe6137a8565b5b50919050565b61380e8161292d565b82525050565b5f610120820190506138285f83018c612ba1565b613835602083018b613805565b613842604083018a6129dd565b61384f60608301896129dd565b61385c60808301886129dd565b61386960a0830187612b89565b61387660c0830186612b89565b61388360e0830185612b89565b613891610100830184612b89565b9a9950505050505050505050565b5f819050815f5260205f209050919050565b5f6020601f8301049050919050565b5f82821b905092915050565b5f600883026138fb7fffffffffffffffffffffffffffffffffffffffffffffffffffffffffffffffff826138c0565b61390586836138c0565b95508019841693508086168417925050509392505050565b5f61393761393261392d84612b80565b61351d565b612b80565b9050919050565b5f819050919050565b6139508361391d565b61396461395c8261393e565b8484546138cc565b825550505050565b5f5f905090565b61397b61396c565b613986818484613947565b505050565b5b818110156139a95761399e5f82613973565b60018101905061398c565b5050565b601f8211156139ee576139bf8161389f565b6139c8846138b1565b810160208510156139d7578190505b6139eb6139e3856138b1565b83018261398b565b50505b505050565b5f82821c905092915050565b5f613a0e5f19846008026139f3565b1980831691505092915050565b5f613a2683836139ff565b9150826002028217905092915050565b613a3f82612b10565b67ffffffffffffffff811115613a5857613a576132d4565b5b613a6282546137d5565b613a6d8282856139ad565b5f60209050601f831160018114613a9e575f8415613a8c578287015190505b613a968582613a1b565b865550613afd565b601f198416613aac8661389f565b5f5b82811015613ad357848901518255600182019150602085019450602081019050613aae565b86831015613af05784890151613aec601f8916826139ff565b8355505b6001600288020188555050505b505050505050565b5f602082019050613b185f830184612ba1565b92915050565b5f60a082019050613b315f830188612ba1565b613b3e6020830187612ba1565b613b4b6040830186612ba1565b613b586060830185612b89565b613b6560808301846129dd565b9695505050505050565b5f60ff82169050919050565b613b8481613b6f565b82525050565b5f608082019050613b9d5f830187612ba1565b613baa6020830186613b7b565b613bb76040830185612ba1565b613bc46060830184612ba1565b9594505050505056fea2646970667358221220d430b927e0b68555ebdbe26690712415c76ed3af4dc5940812facaa25bbc488564736f6c634300081c0033","opcodes":"PUSH1 0x80 PUSH1 0x40 MSTORE CALLVALUE DUP1 ISZERO PUSH2 0xF JUMPI PUSH0 PUSH0 REVERT JUMPDEST POP PUSH2 0x1E PUSH2 0x23 PUSH1 0x20 SHL PUSH1 0x20 SHR JUMP JUMPDEST PUSH2 0x19E JUMP JUMPDEST PUSH0 PUSH2 0x32 PUSH2 0x121 PUSH1 0x20 SHL PUSH1 0x20 SHR JUMP JUMPDEST SWAP1 POP DUP1 PUSH0 ADD PUSH1 0x8 SWAP1 SLOAD SWAP1 PUSH2 0x100 EXP SWAP1 DIV PUSH1 0xFF AND ISZERO PUSH2 0x7C JUMPI PUSH1 0x40 MLOAD PUSH32 0xF92EE8A900000000000000000000000000000000000000000000000000000000 DUP2 MSTORE PUSH1 0x4 ADD PUSH1 0x40 MLOAD DUP1 SWAP2 SUB SWAP1 REVERT JUMPDEST PUSH8 0xFFFFFFFFFFFFFFFF DUP1 AND DUP2 PUSH0 ADD PUSH0 SWAP1 SLOAD SWAP1 PUSH2 0x100 EXP SWAP1 DIV PUSH8 0xFFFFFFFFFFFFFFFF AND PUSH8 0xFFFFFFFFFFFFFFFF AND EQ PUSH2 0x11E JUMPI PUSH8 0xFFFFFFFFFFFFFFFF DUP2 PUSH0 ADD PUSH0 PUSH2 0x100 EXP DUP2 SLOAD DUP2 PUSH8 0xFFFFFFFFFFFFFFFF MUL NOT AND SWAP1 DUP4 PUSH8 0xFFFFFFFFFFFFFFFF AND MUL OR SWAP1 SSTORE POP PUSH32 0xC7F505B2F371AE2175EE4913F4499E1F2633A7B5936321EED1CDAEB6115181D2 PUSH8 0xFFFFFFFFFFFFFFFF PUSH1 0x40 MLOAD PUSH2 0x115 SWAP2 SWAP1 PUSH2 0x185 JUMP JUMPDEST PUSH1 0x40 MLOAD DUP1 SWAP2 SUB SWAP1 LOG1 JUMPDEST POP JUMP JUMPDEST PUSH0 PUSH0 PUSH2 0x131 PUSH2 0x13A PUSH1 0x20 SHL PUSH1 0x20 SHR JUMP JUMPDEST SWAP1 POP DUP1 SWAP2 POP POP SWAP1 JUMP JUMPDEST PUSH0 PUSH32 0xF0C57E16840DF040F15088DC2F81FE391C3923BEC73E23A9662EFC9C229C6A00 PUSH0 SHL SWAP1 POP SWAP1 JUMP JUMPDEST PUSH0 PUSH8 0xFFFFFFFFFFFFFFFF DUP3 AND SWAP1 POP SWAP2 SWAP1 POP JUMP JUMPDEST PUSH2 0x17F DUP2 PUSH2 0x163 JUMP JUMPDEST DUP3 MSTORE POP POP JUMP JUMPDEST PUSH0 PUSH1 0x20 DUP3 ADD SWAP1 POP PUSH2 0x198 PUSH0 DUP4 ADD DUP5 PUSH2 0x176 JUMP JUMPDEST SWAP3 SWAP2 POP POP JUMP JUMPDEST PUSH2 0x3C03 DUP1 PUSH2 0x1AB PUSH0 CODECOPY PUSH0 RETURN INVALID PUSH1 0x80 PUSH1 0x40 MSTORE PUSH1 0x4 CALLDATASIZE LT PUSH2 0x108 JUMPI PUSH0 CALLDATALOAD PUSH1 0xE0 SHR DUP1 PUSH4 0x85209EE0 GT PUSH2 0x94 JUMPI DUP1 PUSH4 0xC4627023 GT PUSH2 0x63 JUMPI DUP1 PUSH4 0xC4627023 EQ PUSH2 0x32A JUMPI DUP1 PUSH4 0xC5C73124 EQ PUSH2 0x352 JUMPI DUP1 PUSH4 0xC75F396A EQ PUSH2 0x395 JUMPI DUP1 PUSH4 0xF2FDE38B EQ PUSH2 0x3B1 JUMPI DUP1 PUSH4 0xF7B4C187 EQ PUSH2 0x3D9 JUMPI PUSH2 0x108 JUMP JUMPDEST DUP1 PUSH4 0x85209EE0 EQ PUSH2 0x284 JUMPI DUP1 PUSH4 0x8DA5CB5B EQ PUSH2 0x2AE JUMPI DUP1 PUSH4 0x97C163A0 EQ PUSH2 0x2D8 JUMPI DUP1 PUSH4 0x9A0B79E5 EQ PUSH2 0x300 JUMPI PUSH2 0x108 JUMP JUMPDEST DUP1 PUSH4 0x5FF93A75 GT PUSH2 0xDB JUMPI DUP1 PUSH4 0x5FF93A75 EQ PUSH2 0x1B0 JUMPI DUP1 PUSH4 0x715018A6 EQ PUSH2 0x1D8 JUMPI DUP1 PUSH4 0x7195BF23 EQ PUSH2 0x1EE JUMPI DUP1 PUSH4 0x72907E9D EQ PUSH2 0x218 JUMPI DUP1 PUSH4 0x84B0196E EQ PUSH2 0x254 JUMPI PUSH2 0x108 JUMP JUMPDEST DUP1 PUSH4 0x11594E29 EQ PUSH2 0x10C JUMPI DUP1 PUSH4 0x187A4BBA EQ PUSH2 0x134 JUMPI DUP1 PUSH4 0x31AF1908 EQ PUSH2 0x15E JUMPI DUP1 PUSH4 0x50515D5A EQ PUSH2 0x188 JUMPI JUMPDEST PUSH0 PUSH0 REVERT JUMPDEST CALLVALUE DUP1 ISZERO PUSH2 0x117 JUMPI PUSH0 PUSH0 REVERT JUMPDEST POP PUSH2 0x132 PUSH1 0x4 DUP1 CALLDATASIZE SUB DUP2 ADD SWAP1 PUSH2 0x12D SWAP2 SWAP1 PUSH2 0x2982 JUMP JUMPDEST PUSH2 0x401 JUMP JUMPDEST STOP JUMPDEST CALLVALUE DUP1 ISZERO PUSH2 0x13F JUMPI PUSH0 PUSH0 REVERT JUMPDEST POP PUSH2 0x148 PUSH2 0x5D3 JUMP JUMPDEST PUSH1 0x40 MLOAD PUSH2 0x155 SWAP2 SWAP1 PUSH2 0x29EC JUMP JUMPDEST PUSH1 0x40 MLOAD DUP1 SWAP2 SUB SWAP1 RETURN JUMPDEST CALLVALUE DUP1 ISZERO PUSH2 0x169 JUMPI PUSH0 PUSH0 REVERT JUMPDEST POP PUSH2 0x172 PUSH2 0x5F8 JUMP JUMPDEST PUSH1 0x40 MLOAD PUSH2 0x17F SWAP2 SWAP1 PUSH2 0x29EC JUMP JUMPDEST PUSH1 0x40 MLOAD DUP1 SWAP2 SUB SWAP1 RETURN JUMPDEST CALLVALUE DUP1 ISZERO PUSH2 0x193 JUMPI PUSH0 PUSH0 REVERT JUMPDEST POP PUSH2 0x1AE PUSH1 0x4 DUP1 CALLDATASIZE SUB DUP2 ADD SWAP1 PUSH2 0x1A9 SWAP2 SWAP1 PUSH2 0x2A3A JUMP JUMPDEST PUSH2 0x61D JUMP JUMPDEST STOP JUMPDEST CALLVALUE DUP1 ISZERO PUSH2 0x1BB JUMPI PUSH0 PUSH0 REVERT JUMPDEST POP PUSH2 0x1D6 PUSH1 0x4 DUP1 CALLDATASIZE SUB DUP2 ADD SWAP1 PUSH2 0x1D1 SWAP2 SWAP1 PUSH2 0x2982 JUMP JUMPDEST PUSH2 0x81D JUMP JUMPDEST STOP JUMPDEST CALLVALUE DUP1 ISZERO PUSH2 0x1E3 JUMPI PUSH0 PUSH0 REVERT JUMPDEST POP PUSH2 0x1EC PUSH2 0xA42 JUMP JUMPDEST STOP JUMPDEST CALLVALUE DUP1 ISZERO PUSH2 0x1F9 JUMPI PUSH0 PUSH0 REVERT JUMPDEST POP PUSH2 0x202 PUSH2 0xA55 JUMP JUMPDEST PUSH1 0x40 MLOAD PUSH2 0x20F SWAP2 SWAP1 PUSH2 0x2A95 JUMP JUMPDEST PUSH1 0x40 MLOAD DUP1 SWAP2 SUB SWAP1 RETURN JUMPDEST CALLVALUE DUP1 ISZERO PUSH2 0x223 JUMPI PUSH0 PUSH0 REVERT JUMPDEST POP PUSH2 0x23E PUSH1 0x4 DUP1 CALLDATASIZE SUB DUP2 ADD SWAP1 PUSH2 0x239 SWAP2 SWAP1 PUSH2 0x2982 JUMP JUMPDEST PUSH2 0xA6A JUMP JUMPDEST PUSH1 0x40 MLOAD PUSH2 0x24B SWAP2 SWAP1 PUSH2 0x2ABD JUMP JUMPDEST PUSH1 0x40 MLOAD DUP1 SWAP2 SUB SWAP1 RETURN JUMPDEST CALLVALUE DUP1 ISZERO PUSH2 0x25F JUMPI PUSH0 PUSH0 REVERT JUMPDEST POP PUSH2 0x268 PUSH2 0xA87 JUMP JUMPDEST PUSH1 0x40 MLOAD PUSH2 0x27B SWAP8 SWAP7 SWAP6 SWAP5 SWAP4 SWAP3 SWAP2 SWAP1 PUSH2 0x2C67 JUMP JUMPDEST PUSH1 0x40 MLOAD DUP1 SWAP2 SUB SWAP1 RETURN JUMPDEST CALLVALUE DUP1 ISZERO PUSH2 0x28F JUMPI PUSH0 PUSH0 REVERT JUMPDEST POP PUSH2 0x298 PUSH2 0xB90 JUMP JUMPDEST PUSH1 0x40 MLOAD PUSH2 0x2A5 SWAP2 SWAP1 PUSH2 0x2D5C JUMP JUMPDEST PUSH1 0x40 MLOAD DUP1 SWAP2 SUB SWAP1 RETURN JUMPDEST CALLVALUE DUP1 ISZERO PUSH2 0x2B9 JUMPI PUSH0 PUSH0 REVERT JUMPDEST POP PUSH2 0x2C2 PUSH2 0xBA3 JUMP JUMPDEST PUSH1 0x40 MLOAD PUSH2 0x2CF SWAP2 SWAP1 PUSH2 0x29EC JUMP JUMPDEST PUSH1 0x40 MLOAD DUP1 SWAP2 SUB SWAP1 RETURN JUMPDEST CALLVALUE DUP1 ISZERO PUSH2 0x2E3 JUMPI PUSH0 PUSH0 REVERT JUMPDEST POP PUSH2 0x2FE PUSH1 0x4 DUP1 CALLDATASIZE SUB DUP2 ADD SWAP1 PUSH2 0x2F9 SWAP2 SWAP1 PUSH2 0x2982 JUMP JUMPDEST PUSH2 0xBD8 JUMP JUMPDEST STOP JUMPDEST CALLVALUE DUP1 ISZERO PUSH2 0x30B JUMPI PUSH0 PUSH0 REVERT JUMPDEST POP PUSH2 0x314 PUSH2 0xD0D JUMP JUMPDEST PUSH1 0x40 MLOAD PUSH2 0x321 SWAP2 SWAP1 PUSH2 0x29EC JUMP JUMPDEST PUSH1 0x40 MLOAD DUP1 SWAP2 SUB SWAP1 RETURN JUMPDEST CALLVALUE DUP1 ISZERO PUSH2 0x335 JUMPI PUSH0 PUSH0 REVERT JUMPDEST POP PUSH2 0x350 PUSH1 0x4 DUP1 CALLDATASIZE SUB DUP2 ADD SWAP1 PUSH2 0x34B SWAP2 SWAP1 PUSH2 0x2DC9 JUMP JUMPDEST PUSH2 0xD32 JUMP JUMPDEST STOP JUMPDEST CALLVALUE DUP1 ISZERO PUSH2 0x35D JUMPI PUSH0 PUSH0 REVERT JUMPDEST POP PUSH2 0x378 PUSH1 0x4 DUP1 CALLDATASIZE SUB DUP2 ADD SWAP1 PUSH2 0x373 SWAP2 SWAP1 PUSH2 0x2982 JUMP JUMPDEST PUSH2 0x1185 JUMP JUMPDEST PUSH1 0x40 MLOAD PUSH2 0x38C SWAP9 SWAP8 SWAP7 SWAP6 SWAP5 SWAP4 SWAP3 SWAP2 SWAP1 PUSH2 0x2E73 JUMP JUMPDEST PUSH1 0x40 MLOAD DUP1 SWAP2 SUB SWAP1 RETURN JUMPDEST PUSH2 0x3AF PUSH1 0x4 DUP1 CALLDATASIZE SUB DUP2 ADD SWAP1 PUSH2 0x3AA SWAP2 SWAP1 PUSH2 0x2F73 JUMP JUMPDEST PUSH2 0x1231 JUMP JUMPDEST STOP JUMPDEST CALLVALUE DUP1 ISZERO PUSH2 0x3BC JUMPI PUSH0 PUSH0 REVERT JUMPDEST POP PUSH2 0x3D7 PUSH1 0x4 DUP1 CALLDATASIZE SUB DUP2 ADD SWAP1 PUSH2 0x3D2 SWAP2 SWAP1 PUSH2 0x2FD2 JUMP JUMPDEST PUSH2 0x1811 JUMP JUMPDEST STOP JUMPDEST CALLVALUE DUP1 ISZERO PUSH2 0x3E4 JUMPI PUSH0 PUSH0 REVERT JUMPDEST POP PUSH2 0x3FF PUSH1 0x4 DUP1 CALLDATASIZE SUB DUP2 ADD SWAP1 PUSH2 0x3FA SWAP2 SWAP1 PUSH2 0x3020 JUMP JUMPDEST PUSH2 0x1895 JUMP JUMPDEST STOP JUMPDEST PUSH2 0x409 PUSH2 0x1901 JUMP JUMPDEST PUSH0 PUSH1 0x1 DUP2 GT ISZERO PUSH2 0x41C JUMPI PUSH2 0x41B PUSH2 0x2CE9 JUMP JUMPDEST JUMPDEST PUSH1 0x4 PUSH1 0x17 SWAP1 SLOAD SWAP1 PUSH2 0x100 EXP SWAP1 DIV PUSH1 0xFF AND PUSH1 0x1 DUP2 GT ISZERO PUSH2 0x43E JUMPI PUSH2 0x43D PUSH2 0x2CE9 JUMP JUMPDEST JUMPDEST EQ PUSH2 0x47E JUMPI PUSH1 0x40 MLOAD PUSH32 0x8C379A000000000000000000000000000000000000000000000000000000000 DUP2 MSTORE PUSH1 0x4 ADD PUSH2 0x475 SWAP1 PUSH2 0x3095 JUMP JUMPDEST PUSH1 0x40 MLOAD DUP1 SWAP2 SUB SWAP1 REVERT JUMPDEST PUSH0 PUSH0 PUSH0 DUP4 PUSH16 0xFFFFFFFFFFFFFFFFFFFFFFFFFFFFFFFF NOT AND PUSH16 0xFFFFFFFFFFFFFFFFFFFFFFFFFFFFFFFF NOT AND DUP2 MSTORE PUSH1 0x20 ADD SWAP1 DUP2 MSTORE PUSH1 0x20 ADD PUSH0 KECCAK256 SWAP1 POP DUP1 PUSH0 ADD PUSH0 SWAP1 SLOAD SWAP1 PUSH2 0x100 EXP SWAP1 DIV PUSH20 0xFFFFFFFFFFFFFFFFFFFFFFFFFFFFFFFFFFFFFFFF AND PUSH20 0xFFFFFFFFFFFFFFFFFFFFFFFFFFFFFFFFFFFFFFFF AND CALLER PUSH20 0xFFFFFFFFFFFFFFFFFFFFFFFFFFFFFFFFFFFFFFFF AND EQ PUSH2 0x547 JUMPI PUSH1 0x40 MLOAD PUSH32 0x8C379A000000000000000000000000000000000000000000000000000000000 DUP2 MSTORE PUSH1 0x4 ADD PUSH2 0x53E SWAP1 PUSH2 0x30FD JUMP JUMPDEST PUSH1 0x40 MLOAD DUP1 SWAP2 SUB SWAP1 REVERT JUMPDEST PUSH1 0x1 PUSH1 0x4 DUP2 GT ISZERO PUSH2 0x55B JUMPI PUSH2 0x55A PUSH2 0x2CE9 JUMP JUMPDEST JUMPDEST DUP2 PUSH1 0x7 ADD PUSH0 SWAP1 SLOAD SWAP1 PUSH2 0x100 EXP SWAP1 DIV PUSH1 0xFF AND PUSH1 0x4 DUP2 GT ISZERO PUSH2 0x57E JUMPI PUSH2 0x57D PUSH2 0x2CE9 JUMP JUMPDEST JUMPDEST EQ PUSH2 0x5BE JUMPI PUSH1 0x40 MLOAD PUSH32 0x8C379A000000000000000000000000000000000000000000000000000000000 DUP2 MSTORE PUSH1 0x4 ADD PUSH2 0x5B5 SWAP1 PUSH2 0x3165 JUMP JUMPDEST PUSH1 0x40 MLOAD DUP1 SWAP2 SUB SWAP1 REVERT JUMPDEST PUSH2 0x5C7 DUP3 PUSH2 0x1955 JUMP JUMPDEST POP PUSH2 0x5D0 PUSH2 0x1EFF JUMP JUMPDEST POP JUMP JUMPDEST PUSH1 0x3 PUSH0 SWAP1 SLOAD SWAP1 PUSH2 0x100 EXP SWAP1 DIV PUSH20 0xFFFFFFFFFFFFFFFFFFFFFFFFFFFFFFFFFFFFFFFF AND DUP2 JUMP JUMPDEST PUSH1 0x2 PUSH0 SWAP1 SLOAD SWAP1 PUSH2 0x100 EXP SWAP1 DIV PUSH20 0xFFFFFFFFFFFFFFFFFFFFFFFFFFFFFFFFFFFFFFFF AND DUP2 JUMP JUMPDEST PUSH2 0x625 PUSH2 0x1F16 JUMP JUMPDEST PUSH2 0x62D PUSH2 0x1901 JUMP JUMPDEST PUSH0 PUSH0 PUSH0 DUP5 PUSH16 0xFFFFFFFFFFFFFFFFFFFFFFFFFFFFFFFF NOT AND PUSH16 0xFFFFFFFFFFFFFFFFFFFFFFFFFFFFFFFF NOT AND DUP2 MSTORE PUSH1 0x20 ADD SWAP1 DUP2 MSTORE PUSH1 0x20 ADD PUSH0 KECCAK256 SWAP1 POP PUSH1 0x3 PUSH1 0x4 DUP2 GT ISZERO PUSH2 0x67A JUMPI PUSH2 0x679 PUSH2 0x2CE9 JUMP JUMPDEST JUMPDEST DUP2 PUSH1 0x7 ADD PUSH0 SWAP1 SLOAD SWAP1 PUSH2 0x100 EXP SWAP1 DIV PUSH1 0xFF AND PUSH1 0x4 DUP2 GT ISZERO PUSH2 0x69D JUMPI PUSH2 0x69C PUSH2 0x2CE9 JUMP JUMPDEST JUMPDEST EQ PUSH2 0x6DD JUMPI PUSH1 0x40 MLOAD PUSH32 0x8C379A000000000000000000000000000000000000000000000000000000000 DUP2 MSTORE PUSH1 0x4 ADD PUSH2 0x6D4 SWAP1 PUSH2 0x31CD JUMP JUMPDEST PUSH1 0x40 MLOAD DUP1 SWAP2 SUB SWAP1 REVERT JUMPDEST DUP2 ISZERO PUSH2 0x806 JUMPI PUSH1 0x4 DUP2 PUSH1 0x7 ADD PUSH0 PUSH2 0x100 EXP DUP2 SLOAD DUP2 PUSH1 0xFF MUL NOT AND SWAP1 DUP4 PUSH1 0x4 DUP2 GT ISZERO PUSH2 0x70A JUMPI PUSH2 0x709 PUSH2 0x2CE9 JUMP JUMPDEST JUMPDEST MUL OR SWAP1 SSTORE POP DUP1 PUSH0 ADD PUSH0 SWAP1 SLOAD SWAP1 PUSH2 0x100 EXP SWAP1 DIV PUSH20 0xFFFFFFFFFFFFFFFFFFFFFFFFFFFFFFFFFFFFFFFF AND PUSH20 0xFFFFFFFFFFFFFFFFFFFFFFFFFFFFFFFFFFFFFFFF AND PUSH2 0x8FC DUP3 PUSH1 0x3 ADD SLOAD SWAP1 DUP2 ISZERO MUL SWAP1 PUSH1 0x40 MLOAD PUSH0 PUSH1 0x40 MLOAD DUP1 DUP4 SUB DUP2 DUP6 DUP9 DUP9 CALL SWAP4 POP POP POP POP ISZERO DUP1 ISZERO PUSH2 0x778 JUMPI RETURNDATASIZE PUSH0 PUSH0 RETURNDATACOPY RETURNDATASIZE PUSH0 REVERT JUMPDEST POP DUP1 PUSH0 ADD PUSH0 SWAP1 SLOAD SWAP1 PUSH2 0x100 EXP SWAP1 DIV PUSH20 0xFFFFFFFFFFFFFFFFFFFFFFFFFFFFFFFFFFFFFFFF AND PUSH20 0xFFFFFFFFFFFFFFFFFFFFFFFFFFFFFFFFFFFFFFFF AND DUP4 PUSH16 0xFFFFFFFFFFFFFFFFFFFFFFFFFFFFFFFF NOT AND PUSH32 0xAFAB81C7CFF0515AB993A1CF55536D90F68CF5EC75DEAB830FD758B2A7F296ED DUP4 PUSH1 0x3 ADD SLOAD PUSH1 0x40 MLOAD PUSH2 0x7F9 SWAP2 SWAP1 PUSH2 0x31EB JUMP JUMPDEST PUSH1 0x40 MLOAD DUP1 SWAP2 SUB SWAP1 LOG3 PUSH2 0x810 JUMP JUMPDEST PUSH2 0x80F DUP4 PUSH2 0x1955 JUMP JUMPDEST JUMPDEST POP PUSH2 0x819 PUSH2 0x1EFF JUMP JUMPDEST POP POP JUMP JUMPDEST PUSH0 PUSH1 0x1 DUP2 GT ISZERO PUSH2 0x830 JUMPI PUSH2 0x82F PUSH2 0x2CE9 JUMP JUMPDEST JUMPDEST PUSH1 0x4 PUSH1 0x17 SWAP1 SLOAD SWAP1 PUSH2 0x100 EXP SWAP1 DIV PUSH1 0xFF AND PUSH1 0x1 DUP2 GT ISZERO PUSH2 0x852 JUMPI PUSH2 0x851 PUSH2 0x2CE9 JUMP JUMPDEST JUMPDEST EQ PUSH2 0x892 JUMPI PUSH1 0x40 MLOAD PUSH32 0x8C379A000000000000000000000000000000000000000000000000000000000 DUP2 MSTORE PUSH1 0x4 ADD PUSH2 0x889 SWAP1 PUSH2 0x3095 JUMP JUMPDEST PUSH1 0x40 MLOAD DUP1 SWAP2 SUB SWAP1 REVERT JUMPDEST PUSH0 PUSH0 PUSH0 DUP4 PUSH16 0xFFFFFFFFFFFFFFFFFFFFFFFFFFFFFFFF NOT AND PUSH16 0xFFFFFFFFFFFFFFFFFFFFFFFFFFFFFFFF NOT AND DUP2 MSTORE PUSH1 0x20 ADD SWAP1 DUP2 MSTORE PUSH1 0x20 ADD PUSH0 KECCAK256 SWAP1 POP DUP1 PUSH0 ADD PUSH0 SWAP1 SLOAD SWAP1 PUSH2 0x100 EXP SWAP1 DIV PUSH20 0xFFFFFFFFFFFFFFFFFFFFFFFFFFFFFFFFFFFFFFFF AND PUSH20 0xFFFFFFFFFFFFFFFFFFFFFFFFFFFFFFFFFFFFFFFF AND CALLER PUSH20 0xFFFFFFFFFFFFFFFFFFFFFFFFFFFFFFFFFFFFFFFF AND EQ PUSH2 0x95B JUMPI PUSH1 0x40 MLOAD PUSH32 0x8C379A000000000000000000000000000000000000000000000000000000000 DUP2 MSTORE PUSH1 0x4 ADD PUSH2 0x952 SWAP1 PUSH2 0x30FD JUMP JUMPDEST PUSH1 0x40 MLOAD DUP1 SWAP2 SUB SWAP1 REVERT JUMPDEST PUSH1 0x1 PUSH1 0x4 DUP2 GT ISZERO PUSH2 0x96F JUMPI PUSH2 0x96E PUSH2 0x2CE9 JUMP JUMPDEST JUMPDEST DUP2 PUSH1 0x7 ADD PUSH0 SWAP1 SLOAD SWAP1 PUSH2 0x100 EXP SWAP1 DIV PUSH1 0xFF AND PUSH1 0x4 DUP2 GT ISZERO PUSH2 0x992 JUMPI PUSH2 0x991 PUSH2 0x2CE9 JUMP JUMPDEST JUMPDEST EQ PUSH2 0x9D2 JUMPI PUSH1 0x40 MLOAD PUSH32 0x8C379A000000000000000000000000000000000000000000000000000000000 DUP2 MSTORE PUSH1 0x4 ADD PUSH2 0x9C9 SWAP1 PUSH2 0x324E JUMP JUMPDEST PUSH1 0x40 MLOAD DUP1 SWAP2 SUB SWAP1 REVERT JUMPDEST PUSH1 0x3 DUP2 PUSH1 0x7 ADD PUSH0 PUSH2 0x100 EXP DUP2 SLOAD DUP2 PUSH1 0xFF MUL NOT AND SWAP1 DUP4 PUSH1 0x4 DUP2 GT ISZERO PUSH2 0x9F9 JUMPI PUSH2 0x9F8 PUSH2 0x2CE9 JUMP JUMPDEST JUMPDEST MUL OR SWAP1 SSTORE POP DUP2 PUSH16 0xFFFFFFFFFFFFFFFFFFFFFFFFFFFFFFFF NOT AND PUSH32 0xDB1A1355B8CFFEA63B711AAC689B380D6D3FA596333CF6A852D993988526E0AE PUSH1 0x40 MLOAD PUSH1 0x40 MLOAD DUP1 SWAP2 SUB SWAP1 LOG2 POP POP JUMP JUMPDEST PUSH2 0xA4A PUSH2 0x1F16 JUMP JUMPDEST PUSH2 0xA53 PUSH0 PUSH2 0x1F9D JUMP JUMPDEST JUMP JUMPDEST PUSH1 0x4 PUSH1 0x14 SWAP1 SLOAD SWAP1 PUSH2 0x100 EXP SWAP1 DIV PUSH3 0xFFFFFF AND DUP2 JUMP JUMPDEST PUSH1 0x1 PUSH1 0x20 MSTORE DUP1 PUSH0 MSTORE PUSH1 0x40 PUSH0 KECCAK256 PUSH0 SWAP2 POP SLOAD SWAP1 PUSH2 0x100 EXP SWAP1 DIV PUSH1 0xFF AND DUP2 JUMP JUMPDEST PUSH0 PUSH1 0x60 DUP1 PUSH0 PUSH0 PUSH0 PUSH1 0x60 PUSH0 PUSH2 0xA99 PUSH2 0x206E JUMP JUMPDEST SWAP1 POP PUSH0 PUSH0 SHL DUP2 PUSH0 ADD SLOAD EQ DUP1 ISZERO PUSH2 0xAB4 JUMPI POP PUSH0 PUSH0 SHL DUP2 PUSH1 0x1 ADD SLOAD EQ JUMPDEST PUSH2 0xAF3 JUMPI PUSH1 0x40 MLOAD PUSH32 0x8C379A000000000000000000000000000000000000000000000000000000000 DUP2 MSTORE PUSH1 0x4 ADD PUSH2 0xAEA SWAP1 PUSH2 0x32B6 JUMP JUMPDEST PUSH1 0x40 MLOAD DUP1 SWAP2 SUB SWAP1 REVERT JUMPDEST PUSH2 0xAFB PUSH2 0x2095 JUMP JUMPDEST PUSH2 0xB03 PUSH2 0x2133 JUMP JUMPDEST CHAINID ADDRESS PUSH0 PUSH0 SHL PUSH0 PUSH8 0xFFFFFFFFFFFFFFFF DUP2 GT ISZERO PUSH2 0xB22 JUMPI PUSH2 0xB21 PUSH2 0x32D4 JUMP JUMPDEST JUMPDEST PUSH1 0x40 MLOAD SWAP1 DUP1 DUP3 MSTORE DUP1 PUSH1 0x20 MUL PUSH1 0x20 ADD DUP3 ADD PUSH1 0x40 MSTORE DUP1 ISZERO PUSH2 0xB50 JUMPI DUP2 PUSH1 0x20 ADD PUSH1 0x20 DUP3 MUL DUP1 CALLDATASIZE DUP4 CALLDATACOPY DUP1 DUP3 ADD SWAP2 POP POP SWAP1 POP JUMPDEST POP PUSH32 0xF00000000000000000000000000000000000000000000000000000000000000 SWAP6 SWAP5 SWAP4 SWAP3 SWAP2 SWAP1 SWAP8 POP SWAP8 POP SWAP8 POP SWAP8 POP SWAP8 POP SWAP8 POP SWAP8 POP POP SWAP1 SWAP2 SWAP3 SWAP4 SWAP5 SWAP6 SWAP7 JUMP JUMPDEST PUSH1 0x4 PUSH1 0x17 SWAP1 SLOAD SWAP1 PUSH2 0x100 EXP SWAP1 DIV PUSH1 0xFF AND DUP2 JUMP JUMPDEST PUSH0 PUSH0 PUSH2 0xBAD PUSH2 0x21D1 JUMP JUMPDEST SWAP1 POP DUP1 PUSH0 ADD PUSH0 SWAP1 SLOAD SWAP1 PUSH2 0x100 EXP SWAP1 DIV PUSH20 0xFFFFFFFFFFFFFFFFFFFFFFFFFFFFFFFFFFFFFFFF AND SWAP2 POP POP SWAP1 JUMP JUMPDEST PUSH2 0xBE0 PUSH2 0x1901 JUMP JUMPDEST PUSH0 PUSH0 PUSH0 DUP4 PUSH16 0xFFFFFFFFFFFFFFFFFFFFFFFFFFFFFFFF NOT AND PUSH16 0xFFFFFFFFFFFFFFFFFFFFFFFFFFFFFFFF NOT AND DUP2 MSTORE PUSH1 0x20 ADD SWAP1 DUP2 MSTORE PUSH1 0x20 ADD PUSH0 KECCAK256 SWAP1 POP PUSH1 0x1 PUSH1 0x4 DUP2 GT ISZERO PUSH2 0xC2D JUMPI PUSH2 0xC2C PUSH2 0x2CE9 JUMP JUMPDEST JUMPDEST DUP2 PUSH1 0x7 ADD PUSH0 SWAP1 SLOAD SWAP1 PUSH2 0x100 EXP SWAP1 DIV PUSH1 0xFF AND PUSH1 0x4 DUP2 GT ISZERO PUSH2 0xC50 JUMPI PUSH2 0xC4F PUSH2 0x2CE9 JUMP JUMPDEST JUMPDEST EQ PUSH2 0xC90 JUMPI PUSH1 0x40 MLOAD PUSH32 0x8C379A000000000000000000000000000000000000000000000000000000000 DUP2 MSTORE PUSH1 0x4 ADD PUSH2 0xC87 SWAP1 PUSH2 0x3165 JUMP JUMPDEST PUSH1 0x40 MLOAD DUP1 SWAP2 SUB SWAP1 REVERT JUMPDEST PUSH1 0x4 PUSH1 0x14 SWAP1 SLOAD SWAP1 PUSH2 0x100 EXP SWAP1 DIV PUSH3 0xFFFFFF AND PUSH3 0xFFFFFF AND DUP2 PUSH1 0x6 ADD SLOAD PUSH2 0xCB6 SWAP2 SWAP1 PUSH2 0x332E JUMP JUMPDEST TIMESTAMP LT ISZERO PUSH2 0xCF8 JUMPI PUSH1 0x40 MLOAD PUSH32 0x8C379A000000000000000000000000000000000000000000000000000000000 DUP2 MSTORE PUSH1 0x4 ADD PUSH2 0xCEF SWAP1 PUSH2 0x33AB JUMP JUMPDEST PUSH1 0x40 MLOAD DUP1 SWAP2 SUB SWAP1 REVERT JUMPDEST PUSH2 0xD01 DUP3 PUSH2 0x1955 JUMP JUMPDEST POP PUSH2 0xD0A PUSH2 0x1EFF JUMP JUMPDEST POP JUMP JUMPDEST PUSH1 0x4 PUSH0 SWAP1 SLOAD SWAP1 PUSH2 0x100 EXP SWAP1 DIV PUSH20 0xFFFFFFFFFFFFFFFFFFFFFFFFFFFFFFFFFFFFFFFF AND DUP2 JUMP JUMPDEST PUSH0 PUSH2 0xD3B PUSH2 0x21F8 JUMP JUMPDEST SWAP1 POP PUSH0 DUP2 PUSH0 ADD PUSH1 0x8 SWAP1 SLOAD SWAP1 PUSH2 0x100 EXP SWAP1 DIV PUSH1 0xFF AND ISZERO SWAP1 POP PUSH0 DUP3 PUSH0 ADD PUSH0 SWAP1 SLOAD SWAP1 PUSH2 0x100 EXP SWAP1 DIV PUSH8 0xFFFFFFFFFFFFFFFF AND SWAP1 POP PUSH0 PUSH0 DUP3 PUSH8 0xFFFFFFFFFFFFFFFF AND EQ DUP1 ISZERO PUSH2 0xD83 JUMPI POP DUP3 JUMPDEST SWAP1 POP PUSH0 PUSH1 0x1 DUP4 PUSH8 0xFFFFFFFFFFFFFFFF AND EQ DUP1 ISZERO PUSH2 0xDB6 JUMPI POP PUSH0 ADDRESS PUSH20 0xFFFFFFFFFFFFFFFFFFFFFFFFFFFFFFFFFFFFFFFF AND EXTCODESIZE EQ JUMPDEST SWAP1 POP DUP2 ISZERO DUP1 ISZERO PUSH2 0xDC4 JUMPI POP DUP1 ISZERO JUMPDEST ISZERO PUSH2 0xDFB JUMPI PUSH1 0x40 MLOAD PUSH32 0xF92EE8A900000000000000000000000000000000000000000000000000000000 DUP2 MSTORE PUSH1 0x4 ADD PUSH1 0x40 MLOAD DUP1 SWAP2 SUB SWAP1 REVERT JUMPDEST PUSH1 0x1 DUP6 PUSH0 ADD PUSH0 PUSH2 0x100 EXP DUP2 SLOAD DUP2 PUSH8 0xFFFFFFFFFFFFFFFF MUL NOT AND SWAP1 DUP4 PUSH8 0xFFFFFFFFFFFFFFFF AND MUL OR SWAP1 SSTORE POP DUP4 ISZERO PUSH2 0xE48 JUMPI PUSH1 0x1 DUP6 PUSH0 ADD PUSH1 0x8 PUSH2 0x100 EXP DUP2 SLOAD DUP2 PUSH1 0xFF MUL NOT AND SWAP1 DUP4 ISZERO ISZERO MUL OR SWAP1 SSTORE POP JUMPDEST PUSH2 0xE51 CALLER PUSH2 0x220B JUMP JUMPDEST PUSH2 0xE59 PUSH2 0x221F JUMP JUMPDEST PUSH2 0xECD PUSH1 0x40 MLOAD DUP1 PUSH1 0x40 ADD PUSH1 0x40 MSTORE DUP1 PUSH1 0x18 DUP2 MSTORE PUSH1 0x20 ADD PUSH32 0x4D594150505F414D4F595F455343524F575F4F52444552530000000000000000 DUP2 MSTORE POP PUSH1 0x40 MLOAD DUP1 PUSH1 0x40 ADD PUSH1 0x40 MSTORE DUP1 PUSH1 0x1 DUP2 MSTORE PUSH1 0x20 ADD PUSH32 0x3100000000000000000000000000000000000000000000000000000000000000 DUP2 MSTORE POP PUSH2 0x2231 JUMP JUMPDEST PUSH0 PUSH20 0xFFFFFFFFFFFFFFFFFFFFFFFFFFFFFFFFFFFFFFFF AND DUP10 PUSH20 0xFFFFFFFFFFFFFFFFFFFFFFFFFFFFFFFFFFFFFFFF AND SUB PUSH2 0xF3B JUMPI PUSH1 0x40 MLOAD PUSH32 0x8C379A000000000000000000000000000000000000000000000000000000000 DUP2 MSTORE PUSH1 0x4 ADD PUSH2 0xF32 SWAP1 PUSH2 0x3413 JUMP JUMPDEST PUSH1 0x40 MLOAD DUP1 SWAP2 SUB SWAP1 REVERT JUMPDEST PUSH0 PUSH20 0xFFFFFFFFFFFFFFFFFFFFFFFFFFFFFFFFFFFFFFFF AND DUP9 PUSH20 0xFFFFFFFFFFFFFFFFFFFFFFFFFFFFFFFFFFFFFFFF AND SUB PUSH2 0xFA9 JUMPI PUSH1 0x40 MLOAD PUSH32 0x8C379A000000000000000000000000000000000000000000000000000000000 DUP2 MSTORE PUSH1 0x4 ADD PUSH2 0xFA0 SWAP1 PUSH2 0x347B JUMP JUMPDEST PUSH1 0x40 MLOAD DUP1 SWAP2 SUB SWAP1 REVERT JUMPDEST PUSH0 PUSH20 0xFFFFFFFFFFFFFFFFFFFFFFFFFFFFFFFFFFFFFFFF AND DUP8 PUSH20 0xFFFFFFFFFFFFFFFFFFFFFFFFFFFFFFFFFFFFFFFF AND SUB PUSH2 0x1017 JUMPI PUSH1 0x40 MLOAD PUSH32 0x8C379A000000000000000000000000000000000000000000000000000000000 DUP2 MSTORE PUSH1 0x4 ADD PUSH2 0x100E SWAP1 PUSH2 0x34E3 JUMP JUMPDEST PUSH1 0x40 MLOAD DUP1 SWAP2 SUB SWAP1 REVERT JUMPDEST DUP9 PUSH1 0x2 PUSH0 PUSH2 0x100 EXP DUP2 SLOAD DUP2 PUSH20 0xFFFFFFFFFFFFFFFFFFFFFFFFFFFFFFFFFFFFFFFF MUL NOT AND SWAP1 DUP4 PUSH20 0xFFFFFFFFFFFFFFFFFFFFFFFFFFFFFFFFFFFFFFFF AND MUL OR SWAP1 SSTORE POP DUP8 PUSH1 0x3 PUSH0 PUSH2 0x100 EXP DUP2 SLOAD DUP2 PUSH20 0xFFFFFFFFFFFFFFFFFFFFFFFFFFFFFFFFFFFFFFFF MUL NOT AND SWAP1 DUP4 PUSH20 0xFFFFFFFFFFFFFFFFFFFFFFFFFFFFFFFFFFFFFFFF AND MUL OR SWAP1 SSTORE POP DUP7 PUSH1 0x4 PUSH0 PUSH2 0x100 EXP DUP2 SLOAD DUP2 PUSH20 0xFFFFFFFFFFFFFFFFFFFFFFFFFFFFFFFFFFFFFFFF MUL NOT AND SWAP1 DUP4 PUSH20 0xFFFFFFFFFFFFFFFFFFFFFFFFFFFFFFFFFFFFFFFF AND MUL OR SWAP1 SSTORE POP DUP6 PUSH1 0x4 PUSH1 0x14 PUSH2 0x100 EXP DUP2 SLOAD DUP2 PUSH3 0xFFFFFF MUL NOT AND SWAP1 DUP4 PUSH3 0xFFFFFF AND MUL OR SWAP1 SSTORE POP PUSH0 PUSH1 0x4 PUSH1 0x17 PUSH2 0x100 EXP DUP2 SLOAD DUP2 PUSH1 0xFF MUL NOT AND SWAP1 DUP4 PUSH1 0x1 DUP2 GT ISZERO PUSH2 0x111B JUMPI PUSH2 0x111A PUSH2 0x2CE9 JUMP JUMPDEST JUMPDEST MUL OR SWAP1 SSTORE POP DUP4 ISZERO PUSH2 0x117A JUMPI PUSH0 DUP6 PUSH0 ADD PUSH1 0x8 PUSH2 0x100 EXP DUP2 SLOAD DUP2 PUSH1 0xFF MUL NOT AND SWAP1 DUP4 ISZERO ISZERO MUL OR SWAP1 SSTORE POP PUSH32 0xC7F505B2F371AE2175EE4913F4499E1F2633A7B5936321EED1CDAEB6115181D2 PUSH1 0x1 PUSH1 0x40 MLOAD PUSH2 0x1171 SWAP2 SWAP1 PUSH2 0x3556 JUMP JUMPDEST PUSH1 0x40 MLOAD DUP1 SWAP2 SUB SWAP1 LOG1 JUMPDEST POP POP POP POP POP POP POP POP POP JUMP JUMPDEST PUSH0 PUSH1 0x20 MSTORE DUP1 PUSH0 MSTORE PUSH1 0x40 PUSH0 KECCAK256 PUSH0 SWAP2 POP SWAP1 POP DUP1 PUSH0 ADD PUSH0 SWAP1 SLOAD SWAP1 PUSH2 0x100 EXP SWAP1 DIV PUSH20 0xFFFFFFFFFFFFFFFFFFFFFFFFFFFFFFFFFFFFFFFF AND SWAP1 DUP1 PUSH1 0x1 ADD PUSH0 SWAP1 SLOAD SWAP1 PUSH2 0x100 EXP SWAP1 DIV PUSH20 0xFFFFFFFFFFFFFFFFFFFFFFFFFFFFFFFFFFFFFFFF AND SWAP1 DUP1 PUSH1 0x2 ADD PUSH0 SWAP1 SLOAD SWAP1 PUSH2 0x100 EXP SWAP1 DIV PUSH20 0xFFFFFFFFFFFFFFFFFFFFFFFFFFFFFFFFFFFFFFFF AND SWAP1 DUP1 PUSH1 0x3 ADD SLOAD SWAP1 DUP1 PUSH1 0x4 ADD SLOAD SWAP1 DUP1 PUSH1 0x5 ADD SLOAD SWAP1 DUP1 PUSH1 0x6 ADD SLOAD SWAP1 DUP1 PUSH1 0x7 ADD PUSH0 SWAP1 SLOAD SWAP1 PUSH2 0x100 EXP SWAP1 DIV PUSH1 0xFF AND SWAP1 POP DUP9 JUMP JUMPDEST PUSH2 0x1239 PUSH2 0x1901 JUMP JUMPDEST PUSH0 PUSH1 0x1 DUP2 GT ISZERO PUSH2 0x124C JUMPI PUSH2 0x124B PUSH2 0x2CE9 JUMP JUMPDEST JUMPDEST PUSH1 0x4 PUSH1 0x17 SWAP1 SLOAD SWAP1 PUSH2 0x100 EXP SWAP1 DIV PUSH1 0xFF AND PUSH1 0x1 DUP2 GT ISZERO PUSH2 0x126E JUMPI PUSH2 0x126D PUSH2 0x2CE9 JUMP JUMPDEST JUMPDEST EQ PUSH2 0x12AE JUMPI PUSH1 0x40 MLOAD PUSH32 0x8C379A000000000000000000000000000000000000000000000000000000000 DUP2 MSTORE PUSH1 0x4 ADD PUSH2 0x12A5 SWAP1 PUSH2 0x3095 JUMP JUMPDEST PUSH1 0x40 MLOAD DUP1 SWAP2 SUB SWAP1 REVERT JUMPDEST PUSH0 CALLVALUE GT PUSH2 0x12F0 JUMPI PUSH1 0x40 MLOAD PUSH32 0x8C379A000000000000000000000000000000000000000000000000000000000 DUP2 MSTORE PUSH1 0x4 ADD PUSH2 0x12E7 SWAP1 PUSH2 0x35B9 JUMP JUMPDEST PUSH1 0x40 MLOAD DUP1 SWAP2 SUB SWAP1 REVERT JUMPDEST PUSH0 PUSH2 0x1302 PUSH2 0x12FD DUP6 PUSH2 0x2247 JUMP JUMPDEST PUSH2 0x22FD JUMP JUMPDEST SWAP1 POP PUSH0 PUSH2 0x135B DUP5 DUP5 DUP1 DUP1 PUSH1 0x1F ADD PUSH1 0x20 DUP1 SWAP2 DIV MUL PUSH1 0x20 ADD PUSH1 0x40 MLOAD SWAP1 DUP2 ADD PUSH1 0x40 MSTORE DUP1 SWAP4 SWAP3 SWAP2 SWAP1 DUP2 DUP2 MSTORE PUSH1 0x20 ADD DUP4 DUP4 DUP1 DUP3 DUP5 CALLDATACOPY PUSH0 DUP2 DUP5 ADD MSTORE PUSH1 0x1F NOT PUSH1 0x1F DUP3 ADD AND SWAP1 POP DUP1 DUP4 ADD SWAP3 POP POP POP POP POP POP POP DUP4 PUSH2 0x2316 SWAP1 SWAP2 SWAP1 PUSH4 0xFFFFFFFF AND JUMP JUMPDEST SWAP1 POP PUSH1 0x2 PUSH0 SWAP1 SLOAD SWAP1 PUSH2 0x100 EXP SWAP1 DIV PUSH20 0xFFFFFFFFFFFFFFFFFFFFFFFFFFFFFFFFFFFFFFFF AND PUSH20 0xFFFFFFFFFFFFFFFFFFFFFFFFFFFFFFFFFFFFFFFF AND DUP2 PUSH20 0xFFFFFFFFFFFFFFFFFFFFFFFFFFFFFFFFFFFFFFFF AND EQ PUSH2 0x13EC JUMPI PUSH1 0x40 MLOAD PUSH32 0x8C379A000000000000000000000000000000000000000000000000000000000 DUP2 MSTORE PUSH1 0x4 ADD PUSH2 0x13E3 SWAP1 PUSH2 0x3621 JUMP JUMPDEST PUSH1 0x40 MLOAD DUP1 SWAP2 SUB SWAP1 REVERT JUMPDEST DUP5 PUSH1 0xE0 ADD CALLDATALOAD TIMESTAMP GT ISZERO PUSH2 0x1433 JUMPI PUSH1 0x40 MLOAD PUSH32 0x8C379A000000000000000000000000000000000000000000000000000000000 DUP2 MSTORE PUSH1 0x4 ADD PUSH2 0x142A SWAP1 PUSH2 0x3689 JUMP JUMPDEST PUSH1 0x40 MLOAD DUP1 SWAP2 SUB SWAP1 REVERT JUMPDEST PUSH1 0x1 PUSH0 DUP7 PUSH0 ADD PUSH1 0x20 DUP2 ADD SWAP1 PUSH2 0x1448 SWAP2 SWAP1 PUSH2 0x2982 JUMP JUMPDEST PUSH16 0xFFFFFFFFFFFFFFFFFFFFFFFFFFFFFFFF NOT AND PUSH16 0xFFFFFFFFFFFFFFFFFFFFFFFFFFFFFFFF NOT AND DUP2 MSTORE PUSH1 0x20 ADD SWAP1 DUP2 MSTORE PUSH1 0x20 ADD PUSH0 KECCAK256 PUSH0 SWAP1 SLOAD SWAP1 PUSH2 0x100 EXP SWAP1 DIV PUSH1 0xFF AND ISZERO PUSH2 0x14C8 JUMPI PUSH1 0x40 MLOAD PUSH32 0x8C379A000000000000000000000000000000000000000000000000000000000 DUP2 MSTORE PUSH1 0x4 ADD PUSH2 0x14BF SWAP1 PUSH2 0x36F1 JUMP JUMPDEST PUSH1 0x40 MLOAD DUP1 SWAP2 SUB SWAP1 REVERT JUMPDEST PUSH1 0x1 DUP1 PUSH0 DUP8 PUSH0 ADD PUSH1 0x20 DUP2 ADD SWAP1 PUSH2 0x14DE SWAP2 SWAP1 PUSH2 0x2982 JUMP JUMPDEST PUSH16 0xFFFFFFFFFFFFFFFFFFFFFFFFFFFFFFFF NOT AND PUSH16 0xFFFFFFFFFFFFFFFFFFFFFFFFFFFFFFFF NOT AND DUP2 MSTORE PUSH1 0x20 ADD SWAP1 DUP2 MSTORE PUSH1 0x20 ADD PUSH0 KECCAK256 PUSH0 PUSH2 0x100 EXP DUP2 SLOAD DUP2 PUSH1 0xFF MUL NOT AND SWAP1 DUP4 ISZERO ISZERO MUL OR SWAP1 SSTORE POP PUSH1 0x40 MLOAD DUP1 PUSH2 0x100 ADD PUSH1 0x40 MSTORE DUP1 DUP7 PUSH1 0x20 ADD PUSH1 0x20 DUP2 ADD SWAP1 PUSH2 0x1546 SWAP2 SWAP1 PUSH2 0x2FD2 JUMP JUMPDEST PUSH20 0xFFFFFFFFFFFFFFFFFFFFFFFFFFFFFFFFFFFFFFFF AND DUP2 MSTORE PUSH1 0x20 ADD DUP7 PUSH1 0x40 ADD PUSH1 0x20 DUP2 ADD SWAP1 PUSH2 0x1574 SWAP2 SWAP1 PUSH2 0x2FD2 JUMP JUMPDEST PUSH20 0xFFFFFFFFFFFFFFFFFFFFFFFFFFFFFFFFFFFFFFFF AND DUP2 MSTORE PUSH1 0x20 ADD DUP7 PUSH1 0x60 ADD PUSH1 0x20 DUP2 ADD SWAP1 PUSH2 0x15A2 SWAP2 SWAP1 PUSH2 0x2FD2 JUMP JUMPDEST PUSH20 0xFFFFFFFFFFFFFFFFFFFFFFFFFFFFFFFFFFFFFFFF AND DUP2 MSTORE PUSH1 0x20 ADD DUP7 PUSH1 0x80 ADD CALLDATALOAD DUP2 MSTORE PUSH1 0x20 ADD DUP7 PUSH1 0xA0 ADD CALLDATALOAD DUP2 MSTORE PUSH1 0x20 ADD DUP7 PUSH1 0xC0 ADD CALLDATALOAD DUP2 MSTORE PUSH1 0x20 ADD TIMESTAMP DUP2 MSTORE PUSH1 0x20 ADD PUSH1 0x1 PUSH1 0x4 DUP2 GT ISZERO PUSH2 0x15F5 JUMPI PUSH2 0x15F4 PUSH2 0x2CE9 JUMP JUMPDEST JUMPDEST DUP2 MSTORE POP PUSH0 PUSH0 DUP8 PUSH0 ADD PUSH1 0x20 DUP2 ADD SWAP1 PUSH2 0x160C SWAP2 SWAP1 PUSH2 0x2982 JUMP JUMPDEST PUSH16 0xFFFFFFFFFFFFFFFFFFFFFFFFFFFFFFFF NOT AND PUSH16 0xFFFFFFFFFFFFFFFFFFFFFFFFFFFFFFFF NOT AND DUP2 MSTORE PUSH1 0x20 ADD SWAP1 DUP2 MSTORE PUSH1 0x20 ADD PUSH0 KECCAK256 PUSH0 DUP3 ADD MLOAD DUP2 PUSH0 ADD PUSH0 PUSH2 0x100 EXP DUP2 SLOAD DUP2 PUSH20 0xFFFFFFFFFFFFFFFFFFFFFFFFFFFFFFFFFFFFFFFF MUL NOT AND SWAP1 DUP4 PUSH20 0xFFFFFFFFFFFFFFFFFFFFFFFFFFFFFFFFFFFFFFFF AND MUL OR SWAP1 SSTORE POP PUSH1 0x20 DUP3 ADD MLOAD DUP2 PUSH1 0x1 ADD PUSH0 PUSH2 0x100 EXP DUP2 SLOAD DUP2 PUSH20 0xFFFFFFFFFFFFFFFFFFFFFFFFFFFFFFFFFFFFFFFF MUL NOT AND SWAP1 DUP4 PUSH20 0xFFFFFFFFFFFFFFFFFFFFFFFFFFFFFFFFFFFFFFFF AND MUL OR SWAP1 SSTORE POP PUSH1 0x40 DUP3 ADD MLOAD DUP2 PUSH1 0x2 ADD PUSH0 PUSH2 0x100 EXP DUP2 SLOAD DUP2 PUSH20 0xFFFFFFFFFFFFFFFFFFFFFFFFFFFFFFFFFFFFFFFF MUL NOT AND SWAP1 DUP4 PUSH20 0xFFFFFFFFFFFFFFFFFFFFFFFFFFFFFFFFFFFFFFFF AND MUL OR SWAP1 SSTORE POP PUSH1 0x60 DUP3 ADD MLOAD DUP2 PUSH1 0x3 ADD SSTORE PUSH1 0x80 DUP3 ADD MLOAD DUP2 PUSH1 0x4 ADD SSTORE PUSH1 0xA0 DUP3 ADD MLOAD DUP2 PUSH1 0x5 ADD SSTORE PUSH1 0xC0 DUP3 ADD MLOAD DUP2 PUSH1 0x6 ADD SSTORE PUSH1 0xE0 DUP3 ADD MLOAD DUP2 PUSH1 0x7 ADD PUSH0 PUSH2 0x100 EXP DUP2 SLOAD DUP2 PUSH1 0xFF MUL NOT AND SWAP1 DUP4 PUSH1 0x4 DUP2 GT ISZERO PUSH2 0x1761 JUMPI PUSH2 0x1760 PUSH2 0x2CE9 JUMP JUMPDEST JUMPDEST MUL OR SWAP1 SSTORE POP SWAP1 POP POP PUSH1 0x1 PUSH1 0x4 DUP2 GT ISZERO PUSH2 0x177D JUMPI PUSH2 0x177C PUSH2 0x2CE9 JUMP JUMPDEST JUMPDEST CALLER PUSH20 0xFFFFFFFFFFFFFFFFFFFFFFFFFFFFFFFFFFFFFFFF AND DUP7 PUSH0 ADD PUSH1 0x20 DUP2 ADD SWAP1 PUSH2 0x17A6 SWAP2 SWAP1 PUSH2 0x2982 JUMP JUMPDEST PUSH16 0xFFFFFFFFFFFFFFFFFFFFFFFFFFFFFFFF NOT AND PUSH32 0xCBE7FF8E0A8E9F1BA9FB95B23B654905E70F0C53D8A889472A60F00D25042228 DUP9 PUSH1 0x40 ADD PUSH1 0x20 DUP2 ADD SWAP1 PUSH2 0x17ED SWAP2 SWAP1 PUSH2 0x2FD2 JUMP JUMPDEST PUSH1 0x40 MLOAD PUSH2 0x17FA SWAP2 SWAP1 PUSH2 0x29EC JUMP JUMPDEST PUSH1 0x40 MLOAD DUP1 SWAP2 SUB SWAP1 LOG4 POP POP PUSH2 0x180C PUSH2 0x1EFF JUMP JUMPDEST POP POP POP JUMP JUMPDEST PUSH2 0x1819 PUSH2 0x1F16 JUMP JUMPDEST PUSH0 PUSH20 0xFFFFFFFFFFFFFFFFFFFFFFFFFFFFFFFFFFFFFFFF AND DUP2 PUSH20 0xFFFFFFFFFFFFFFFFFFFFFFFFFFFFFFFFFFFFFFFF AND SUB PUSH2 0x1889 JUMPI PUSH0 PUSH1 0x40 MLOAD PUSH32 0x1E4FBDF700000000000000000000000000000000000000000000000000000000 DUP2 MSTORE PUSH1 0x4 ADD PUSH2 0x1880 SWAP2 SWAP1 PUSH2 0x29EC JUMP JUMPDEST PUSH1 0x40 MLOAD DUP1 SWAP2 SUB SWAP1 REVERT JUMPDEST PUSH2 0x1892 DUP2 PUSH2 0x1F9D JUMP JUMPDEST POP JUMP JUMPDEST PUSH2 0x189D PUSH2 0x1F16 JUMP JUMPDEST DUP1 PUSH1 0x4 PUSH1 0x17 PUSH2 0x100 EXP DUP2 SLOAD DUP2 PUSH1 0xFF MUL NOT AND SWAP1 DUP4 PUSH1 0x1 DUP2 GT ISZERO PUSH2 0x18C2 JUMPI PUSH2 0x18C1 PUSH2 0x2CE9 JUMP JUMPDEST JUMPDEST MUL OR SWAP1 SSTORE POP PUSH32 0xAB540C1B3DEFD38D975E65AA0E06EEEE132A55DD082BE87B73F505AB57BED48C DUP2 PUSH1 0x40 MLOAD PUSH2 0x18F6 SWAP2 SWAP1 PUSH2 0x2D5C JUMP JUMPDEST PUSH1 0x40 MLOAD DUP1 SWAP2 SUB SWAP1 LOG1 POP JUMP JUMPDEST PUSH0 PUSH2 0x190A PUSH2 0x2340 JUMP JUMPDEST SWAP1 POP PUSH1 0x2 DUP2 PUSH0 ADD SLOAD SUB PUSH2 0x1949 JUMPI PUSH1 0x40 MLOAD PUSH32 0x3EE5AEB500000000000000000000000000000000000000000000000000000000 DUP2 MSTORE PUSH1 0x4 ADD PUSH1 0x40 MLOAD DUP1 SWAP2 SUB SWAP1 REVERT JUMPDEST PUSH1 0x2 DUP2 PUSH0 ADD DUP2 SWAP1 SSTORE POP POP JUMP JUMPDEST PUSH0 PUSH0 PUSH0 DUP4 PUSH16 0xFFFFFFFFFFFFFFFFFFFFFFFFFFFFFFFF NOT AND PUSH16 0xFFFFFFFFFFFFFFFFFFFFFFFFFFFFFFFF NOT AND DUP2 MSTORE PUSH1 0x20 ADD SWAP1 DUP2 MSTORE PUSH1 0x20 ADD PUSH0 KECCAK256 SWAP1 POP PUSH1 0x1 PUSH1 0x4 DUP2 GT ISZERO PUSH2 0x19A2 JUMPI PUSH2 0x19A1 PUSH2 0x2CE9 JUMP JUMPDEST JUMPDEST DUP2 PUSH1 0x7 ADD PUSH0 SWAP1 SLOAD SWAP1 PUSH2 0x100 EXP SWAP1 DIV PUSH1 0xFF AND PUSH1 0x4 DUP2 GT ISZERO PUSH2 0x19C5 JUMPI PUSH2 0x19C4 PUSH2 0x2CE9 JUMP JUMPDEST JUMPDEST EQ DUP1 PUSH2 0x1A05 JUMPI POP PUSH1 0x3 PUSH1 0x4 DUP2 GT ISZERO PUSH2 0x19E0 JUMPI PUSH2 0x19DF PUSH2 0x2CE9 JUMP JUMPDEST JUMPDEST DUP2 PUSH1 0x7 ADD PUSH0 SWAP1 SLOAD SWAP1 PUSH2 0x100 EXP SWAP1 DIV PUSH1 0xFF AND PUSH1 0x4 DUP2 GT ISZERO PUSH2 0x1A03 JUMPI PUSH2 0x1A02 PUSH2 0x2CE9 JUMP JUMPDEST JUMPDEST EQ JUMPDEST PUSH2 0x1A44 JUMPI PUSH1 0x40 MLOAD PUSH32 0x8C379A000000000000000000000000000000000000000000000000000000000 DUP2 MSTORE PUSH1 0x4 ADD PUSH2 0x1A3B SWAP1 PUSH2 0x3165 JUMP JUMPDEST PUSH1 0x40 MLOAD DUP1 SWAP2 SUB SWAP1 REVERT JUMPDEST PUSH1 0x2 DUP2 PUSH1 0x7 ADD PUSH0 PUSH2 0x100 EXP DUP2 SLOAD DUP2 PUSH1 0xFF MUL NOT AND SWAP1 DUP4 PUSH1 0x4 DUP2 GT ISZERO PUSH2 0x1A6B JUMPI PUSH2 0x1A6A PUSH2 0x2CE9 JUMP JUMPDEST JUMPDEST MUL OR SWAP1 SSTORE POP PUSH0 DUP2 PUSH1 0x5 ADD SLOAD DUP3 PUSH1 0x4 ADD SLOAD DUP4 PUSH1 0x3 ADD SLOAD PUSH2 0x1A8A SWAP2 SWAP1 PUSH2 0x370F JUMP JUMPDEST PUSH2 0x1A94 SWAP2 SWAP1 PUSH2 0x370F JUMP JUMPDEST SWAP1 POP PUSH0 PUSH20 0xFFFFFFFFFFFFFFFFFFFFFFFFFFFFFFFFFFFFFFFF AND DUP3 PUSH1 0x2 ADD PUSH0 SWAP1 SLOAD SWAP1 PUSH2 0x100 EXP SWAP1 DIV PUSH20 0xFFFFFFFFFFFFFFFFFFFFFFFFFFFFFFFFFFFFFFFF AND PUSH20 0xFFFFFFFFFFFFFFFFFFFFFFFFFFFFFFFFFFFFFFFF AND SUB PUSH2 0x1C2A JUMPI PUSH1 0x3 PUSH0 SWAP1 SLOAD SWAP1 PUSH2 0x100 EXP SWAP1 DIV PUSH20 0xFFFFFFFFFFFFFFFFFFFFFFFFFFFFFFFFFFFFFFFF AND PUSH20 0xFFFFFFFFFFFFFFFFFFFFFFFFFFFFFFFFFFFFFFFF AND PUSH2 0x8FC DUP4 PUSH1 0x4 ADD SLOAD SWAP1 DUP2 ISZERO MUL SWAP1 PUSH1 0x40 MLOAD PUSH0 PUSH1 0x40 MLOAD DUP1 DUP4 SUB DUP2 DUP6 DUP9 DUP9 CALL SWAP4 POP POP POP POP ISZERO DUP1 ISZERO PUSH2 0x1B54 JUMPI RETURNDATASIZE PUSH0 PUSH0 RETURNDATACOPY RETURNDATASIZE PUSH0 REVERT JUMPDEST POP PUSH1 0x4 PUSH0 SWAP1 SLOAD SWAP1 PUSH2 0x100 EXP SWAP1 DIV PUSH20 0xFFFFFFFFFFFFFFFFFFFFFFFFFFFFFFFFFFFFFFFF AND PUSH20 0xFFFFFFFFFFFFFFFFFFFFFFFFFFFFFFFFFFFFFFFF AND PUSH2 0x8FC DUP4 PUSH1 0x5 ADD SLOAD SWAP1 DUP2 ISZERO MUL SWAP1 PUSH1 0x40 MLOAD PUSH0 PUSH1 0x40 MLOAD DUP1 DUP4 SUB DUP2 DUP6 DUP9 DUP9 CALL SWAP4 POP POP POP POP ISZERO DUP1 ISZERO PUSH2 0x1BBD JUMPI RETURNDATASIZE PUSH0 PUSH0 RETURNDATACOPY RETURNDATASIZE PUSH0 REVERT JUMPDEST POP DUP2 PUSH1 0x1 ADD PUSH0 SWAP1 SLOAD SWAP1 PUSH2 0x100 EXP SWAP1 DIV PUSH20 0xFFFFFFFFFFFFFFFFFFFFFFFFFFFFFFFFFFFFFFFF AND PUSH20 0xFFFFFFFFFFFFFFFFFFFFFFFFFFFFFFFFFFFFFFFF AND PUSH2 0x8FC DUP3 SWAP1 DUP2 ISZERO MUL SWAP1 PUSH1 0x40 MLOAD PUSH0 PUSH1 0x40 MLOAD DUP1 DUP4 SUB DUP2 DUP6 DUP9 DUP9 CALL SWAP4 POP POP POP POP ISZERO DUP1 ISZERO PUSH2 0x1C24 JUMPI RETURNDATASIZE PUSH0 PUSH0 RETURNDATACOPY RETURNDATASIZE PUSH0 REVERT JUMPDEST POP PUSH2 0x1E75 JUMP JUMPDEST DUP2 PUSH1 0x2 ADD PUSH0 SWAP1 SLOAD SWAP1 PUSH2 0x100 EXP SWAP1 DIV PUSH20 0xFFFFFFFFFFFFFFFFFFFFFFFFFFFFFFFFFFFFFFFF AND PUSH20 0xFFFFFFFFFFFFFFFFFFFFFFFFFFFFFFFFFFFFFFFF AND PUSH4 0xA9059CBB PUSH1 0x3 PUSH0 SWAP1 SLOAD SWAP1 PUSH2 0x100 EXP SWAP1 DIV PUSH20 0xFFFFFFFFFFFFFFFFFFFFFFFFFFFFFFFFFFFFFFFF AND DUP5 PUSH1 0x4 ADD SLOAD PUSH1 0x40 MLOAD DUP4 PUSH4 0xFFFFFFFF AND PUSH1 0xE0 SHL DUP2 MSTORE PUSH1 0x4 ADD PUSH2 0x1CAD SWAP3 SWAP2 SWAP1 PUSH2 0x3742 JUMP JUMPDEST PUSH1 0x20 PUSH1 0x40 MLOAD DUP1 DUP4 SUB DUP2 PUSH0 DUP8 GAS CALL ISZERO DUP1 ISZERO PUSH2 0x1CC9 JUMPI RETURNDATASIZE PUSH0 PUSH0 RETURNDATACOPY RETURNDATASIZE PUSH0 REVERT JUMPDEST POP POP POP POP PUSH1 0x40 MLOAD RETURNDATASIZE PUSH1 0x1F NOT PUSH1 0x1F DUP3 ADD AND DUP3 ADD DUP1 PUSH1 0x40 MSTORE POP DUP2 ADD SWAP1 PUSH2 0x1CED SWAP2 SWAP1 PUSH2 0x377D JUMP JUMPDEST POP DUP2 PUSH1 0x2 ADD PUSH0 SWAP1 SLOAD SWAP1 PUSH2 0x100 EXP SWAP1 DIV PUSH20 0xFFFFFFFFFFFFFFFFFFFFFFFFFFFFFFFFFFFFFFFF AND PUSH20 0xFFFFFFFFFFFFFFFFFFFFFFFFFFFFFFFFFFFFFFFF AND PUSH4 0xA9059CBB PUSH1 0x4 PUSH0 SWAP1 SLOAD SWAP1 PUSH2 0x100 EXP SWAP1 DIV PUSH20 0xFFFFFFFFFFFFFFFFFFFFFFFFFFFFFFFFFFFFFFFF AND DUP5 PUSH1 0x5 ADD SLOAD PUSH1 0x40 MLOAD DUP4 PUSH4 0xFFFFFFFF AND PUSH1 0xE0 SHL DUP2 MSTORE PUSH1 0x4 ADD PUSH2 0x1D71 SWAP3 SWAP2 SWAP1 PUSH2 0x3742 JUMP JUMPDEST PUSH1 0x20 PUSH1 0x40 MLOAD DUP1 DUP4 SUB DUP2 PUSH0 DUP8 GAS CALL ISZERO DUP1 ISZERO PUSH2 0x1D8D JUMPI RETURNDATASIZE PUSH0 PUSH0 RETURNDATACOPY RETURNDATASIZE PUSH0 REVERT JUMPDEST POP POP POP POP PUSH1 0x40 MLOAD RETURNDATASIZE PUSH1 0x1F NOT PUSH1 0x1F DUP3 ADD AND DUP3 ADD DUP1 PUSH1 0x40 MSTORE POP DUP2 ADD SWAP1 PUSH2 0x1DB1 SWAP2 SWAP1 PUSH2 0x377D JUMP JUMPDEST POP DUP2 PUSH1 0x2 ADD PUSH0 SWAP1 SLOAD SWAP1 PUSH2 0x100 EXP SWAP1 DIV PUSH20 0xFFFFFFFFFFFFFFFFFFFFFFFFFFFFFFFFFFFFFFFF AND PUSH20 0xFFFFFFFFFFFFFFFFFFFFFFFFFFFFFFFFFFFFFFFF AND PUSH4 0xA9059CBB DUP4 PUSH1 0x1 ADD PUSH0 SWAP1 SLOAD SWAP1 PUSH2 0x100 EXP SWAP1 DIV PUSH20 0xFFFFFFFFFFFFFFFFFFFFFFFFFFFFFFFFFFFFFFFF AND DUP4 PUSH1 0x40 MLOAD DUP4 PUSH4 0xFFFFFFFF AND PUSH1 0xE0 SHL DUP2 MSTORE PUSH1 0x4 ADD PUSH2 0x1E33 SWAP3 SWAP2 SWAP1 PUSH2 0x3742 JUMP JUMPDEST PUSH1 0x20 PUSH1 0x40 MLOAD DUP1 DUP4 SUB DUP2 PUSH0 DUP8 GAS CALL ISZERO DUP1 ISZERO PUSH2 0x1E4F JUMPI RETURNDATASIZE PUSH0 PUSH0 RETURNDATACOPY RETURNDATASIZE PUSH0 REVERT JUMPDEST POP POP POP POP PUSH1 0x40 MLOAD RETURNDATASIZE PUSH1 0x1F NOT PUSH1 0x1F DUP3 ADD AND DUP3 ADD DUP1 PUSH1 0x40 MSTORE POP DUP2 ADD SWAP1 PUSH2 0x1E73 SWAP2 SWAP1 PUSH2 0x377D JUMP JUMPDEST POP JUMPDEST DUP2 PUSH1 0x1 ADD PUSH0 SWAP1 SLOAD SWAP1 PUSH2 0x100 EXP SWAP1 DIV PUSH20 0xFFFFFFFFFFFFFFFFFFFFFFFFFFFFFFFFFFFFFFFF AND PUSH20 0xFFFFFFFFFFFFFFFFFFFFFFFFFFFFFFFFFFFFFFFF AND DUP4 PUSH16 0xFFFFFFFFFFFFFFFFFFFFFFFFFFFFFFFF NOT AND PUSH32 0xE60F924809AD7A86A6789604BDD4B0E09D0F5585DDE8E7290B4A37759CA77D0B DUP4 PUSH1 0x40 MLOAD PUSH2 0x1EF2 SWAP2 SWAP1 PUSH2 0x31EB JUMP JUMPDEST PUSH1 0x40 MLOAD DUP1 SWAP2 SUB SWAP1 LOG3 POP POP POP JUMP JUMPDEST PUSH0 PUSH2 0x1F08 PUSH2 0x2340 JUMP JUMPDEST SWAP1 POP PUSH1 0x1 DUP2 PUSH0 ADD DUP2 SWAP1 SSTORE POP POP JUMP JUMPDEST PUSH2 0x1F1E PUSH2 0x2367 JUMP JUMPDEST PUSH20 0xFFFFFFFFFFFFFFFFFFFFFFFFFFFFFFFFFFFFFFFF AND PUSH2 0x1F3C PUSH2 0xBA3 JUMP JUMPDEST PUSH20 0xFFFFFFFFFFFFFFFFFFFFFFFFFFFFFFFFFFFFFFFF AND EQ PUSH2 0x1F9B JUMPI PUSH2 0x1F5F PUSH2 0x2367 JUMP JUMPDEST PUSH1 0x40 MLOAD PUSH32 0x118CDAA700000000000000000000000000000000000000000000000000000000 DUP2 MSTORE PUSH1 0x4 ADD PUSH2 0x1F92 SWAP2 SWAP1 PUSH2 0x29EC JUMP JUMPDEST PUSH1 0x40 MLOAD DUP1 SWAP2 SUB SWAP1 REVERT JUMPDEST JUMP JUMPDEST PUSH0 PUSH2 0x1FA6 PUSH2 0x21D1 JUMP JUMPDEST SWAP1 POP PUSH0 DUP2 PUSH0 ADD PUSH0 SWAP1 SLOAD SWAP1 PUSH2 0x100 EXP SWAP1 DIV PUSH20 0xFFFFFFFFFFFFFFFFFFFFFFFFFFFFFFFFFFFFFFFF AND SWAP1 POP DUP3 DUP3 PUSH0 ADD PUSH0 PUSH2 0x100 EXP DUP2 SLOAD DUP2 PUSH20 0xFFFFFFFFFFFFFFFFFFFFFFFFFFFFFFFFFFFFFFFF MUL NOT AND SWAP1 DUP4 PUSH20 0xFFFFFFFFFFFFFFFFFFFFFFFFFFFFFFFFFFFFFFFF AND MUL OR SWAP1 SSTORE POP DUP3 PUSH20 0xFFFFFFFFFFFFFFFFFFFFFFFFFFFFFFFFFFFFFFFF AND DUP2 PUSH20 0xFFFFFFFFFFFFFFFFFFFFFFFFFFFFFFFFFFFFFFFF AND PUSH32 0x8BE0079C531659141344CD1FD0A4F28419497F9722A3DAAFE3B4186F6B6457E0 PUSH1 0x40 MLOAD PUSH1 0x40 MLOAD DUP1 SWAP2 SUB SWAP1 LOG3 POP POP POP JUMP JUMPDEST PUSH0 PUSH32 0xA16A46D94261C7517CC8FF89F61C0CE93598E3C849801011DEE649A6A557D100 SWAP1 POP SWAP1 JUMP JUMPDEST PUSH1 0x60 PUSH0 PUSH2 0x20A0 PUSH2 0x206E JUMP JUMPDEST SWAP1 POP DUP1 PUSH1 0x2 ADD DUP1 SLOAD PUSH2 0x20B1 SWAP1 PUSH2 0x37D5 JUMP JUMPDEST DUP1 PUSH1 0x1F ADD PUSH1 0x20 DUP1 SWAP2 DIV MUL PUSH1 0x20 ADD PUSH1 0x40 MLOAD SWAP1 DUP2 ADD PUSH1 0x40 MSTORE DUP1 SWAP3 SWAP2 SWAP1 DUP2 DUP2 MSTORE PUSH1 0x20 ADD DUP3 DUP1 SLOAD PUSH2 0x20DD SWAP1 PUSH2 0x37D5 JUMP JUMPDEST DUP1 ISZERO PUSH2 0x2128 JUMPI DUP1 PUSH1 0x1F LT PUSH2 0x20FF JUMPI PUSH2 0x100 DUP1 DUP4 SLOAD DIV MUL DUP4 MSTORE SWAP2 PUSH1 0x20 ADD SWAP2 PUSH2 0x2128 JUMP JUMPDEST DUP3 ADD SWAP2 SWAP1 PUSH0 MSTORE PUSH1 0x20 PUSH0 KECCAK256 SWAP1 JUMPDEST DUP2 SLOAD DUP2 MSTORE SWAP1 PUSH1 0x1 ADD SWAP1 PUSH1 0x20 ADD DUP1 DUP4 GT PUSH2 0x210B JUMPI DUP3 SWAP1 SUB PUSH1 0x1F AND DUP3 ADD SWAP2 JUMPDEST POP POP POP POP POP SWAP2 POP POP SWAP1 JUMP JUMPDEST PUSH1 0x60 PUSH0 PUSH2 0x213E PUSH2 0x206E JUMP JUMPDEST SWAP1 POP DUP1 PUSH1 0x3 ADD DUP1 SLOAD PUSH2 0x214F SWAP1 PUSH2 0x37D5 JUMP JUMPDEST DUP1 PUSH1 0x1F ADD PUSH1 0x20 DUP1 SWAP2 DIV MUL PUSH1 0x20 ADD PUSH1 0x40 MLOAD SWAP1 DUP2 ADD PUSH1 0x40 MSTORE DUP1 SWAP3 SWAP2 SWAP1 DUP2 DUP2 MSTORE PUSH1 0x20 ADD DUP3 DUP1 SLOAD PUSH2 0x217B SWAP1 PUSH2 0x37D5 JUMP JUMPDEST DUP1 ISZERO PUSH2 0x21C6 JUMPI DUP1 PUSH1 0x1F LT PUSH2 0x219D JUMPI PUSH2 0x100 DUP1 DUP4 SLOAD DIV MUL DUP4 MSTORE SWAP2 PUSH1 0x20 ADD SWAP2 PUSH2 0x21C6 JUMP JUMPDEST DUP3 ADD SWAP2 SWAP1 PUSH0 MSTORE PUSH1 0x20 PUSH0 KECCAK256 SWAP1 JUMPDEST DUP2 SLOAD DUP2 MSTORE SWAP1 PUSH1 0x1 ADD SWAP1 PUSH1 0x20 ADD DUP1 DUP4 GT PUSH2 0x21A9 JUMPI DUP3 SWAP1 SUB PUSH1 0x1F AND DUP3 ADD SWAP2 JUMPDEST POP POP POP POP POP SWAP2 POP POP SWAP1 JUMP JUMPDEST PUSH0 PUSH32 0x9016D09D72D40FDAE2FD8CEAC6B6234C7706214FD39C1CD1E609A0528C199300 SWAP1 POP SWAP1 JUMP JUMPDEST PUSH0 PUSH0 PUSH2 0x2202 PUSH2 0x236E JUMP JUMPDEST SWAP1 POP DUP1 SWAP2 POP POP SWAP1 JUMP JUMPDEST PUSH2 0x2213 PUSH2 0x2397 JUMP JUMPDEST PUSH2 0x221C DUP2 PUSH2 0x23D7 JUMP JUMPDEST POP JUMP JUMPDEST PUSH2 0x2227 PUSH2 0x2397 JUMP JUMPDEST PUSH2 0x222F PUSH2 0x245B JUMP JUMPDEST JUMP JUMPDEST PUSH2 0x2239 PUSH2 0x2397 JUMP JUMPDEST PUSH2 0x2243 DUP3 DUP3 PUSH2 0x247A JUMP JUMPDEST POP POP JUMP JUMPDEST PUSH0 PUSH32 0xF832F8ED29EF6F26AAA79D65FF922FD572AEDFA6DBD05BF3275AA667FE75650 DUP3 PUSH0 ADD PUSH1 0x20 DUP2 ADD SWAP1 PUSH2 0x227B SWAP2 SWAP1 PUSH2 0x2982 JUMP JUMPDEST DUP4 PUSH1 0x20 ADD PUSH1 0x20 DUP2 ADD SWAP1 PUSH2 0x228E SWAP2 SWAP1 PUSH2 0x2FD2 JUMP JUMPDEST DUP5 PUSH1 0x40 ADD PUSH1 0x20 DUP2 ADD SWAP1 PUSH2 0x22A1 SWAP2 SWAP1 PUSH2 0x2FD2 JUMP JUMPDEST DUP6 PUSH1 0x60 ADD PUSH1 0x20 DUP2 ADD SWAP1 PUSH2 0x22B4 SWAP2 SWAP1 PUSH2 0x2FD2 JUMP JUMPDEST DUP7 PUSH1 0x80 ADD CALLDATALOAD DUP8 PUSH1 0xA0 ADD CALLDATALOAD DUP9 PUSH1 0xC0 ADD CALLDATALOAD DUP10 PUSH1 0xE0 ADD CALLDATALOAD PUSH1 0x40 MLOAD PUSH1 0x20 ADD PUSH2 0x22E0 SWAP10 SWAP9 SWAP8 SWAP7 SWAP6 SWAP5 SWAP4 SWAP3 SWAP2 SWAP1 PUSH2 0x3814 JUMP JUMPDEST PUSH1 0x40 MLOAD PUSH1 0x20 DUP2 DUP4 SUB SUB DUP2 MSTORE SWAP1 PUSH1 0x40 MSTORE DUP1 MLOAD SWAP1 PUSH1 0x20 ADD KECCAK256 SWAP1 POP SWAP2 SWAP1 POP JUMP JUMPDEST PUSH0 PUSH2 0x230F PUSH2 0x2309 PUSH2 0x24CB JUMP JUMPDEST DUP4 PUSH2 0x24D9 JUMP JUMPDEST SWAP1 POP SWAP2 SWAP1 POP JUMP JUMPDEST PUSH0 PUSH0 PUSH0 PUSH0 PUSH2 0x2324 DUP7 DUP7 PUSH2 0x2519 JUMP JUMPDEST SWAP3 POP SWAP3 POP SWAP3 POP PUSH2 0x2334 DUP3 DUP3 PUSH2 0x256E JUMP JUMPDEST DUP3 SWAP4 POP POP POP POP SWAP3 SWAP2 POP POP JUMP JUMPDEST PUSH0 PUSH32 0x9B779B17422D0DF92223018B32B4D1FA46E071723D6817E2486D003BECC55F00 SWAP1 POP SWAP1 JUMP JUMPDEST PUSH0 CALLER SWAP1 POP SWAP1 JUMP JUMPDEST PUSH0 PUSH32 0xF0C57E16840DF040F15088DC2F81FE391C3923BEC73E23A9662EFC9C229C6A00 PUSH0 SHL SWAP1 POP SWAP1 JUMP JUMPDEST PUSH2 0x239F PUSH2 0x26D0 JUMP JUMPDEST PUSH2 0x23D5 JUMPI PUSH1 0x40 MLOAD PUSH32 0xD7E6BCF800000000000000000000000000000000000000000000000000000000 DUP2 MSTORE PUSH1 0x4 ADD PUSH1 0x40 MLOAD DUP1 SWAP2 SUB SWAP1 REVERT JUMPDEST JUMP JUMPDEST PUSH2 0x23DF PUSH2 0x2397 JUMP JUMPDEST PUSH0 PUSH20 0xFFFFFFFFFFFFFFFFFFFFFFFFFFFFFFFFFFFFFFFF AND DUP2 PUSH20 0xFFFFFFFFFFFFFFFFFFFFFFFFFFFFFFFFFFFFFFFF AND SUB PUSH2 0x244F JUMPI PUSH0 PUSH1 0x40 MLOAD PUSH32 0x1E4FBDF700000000000000000000000000000000000000000000000000000000 DUP2 MSTORE PUSH1 0x4 ADD PUSH2 0x2446 SWAP2 SWAP1 PUSH2 0x29EC JUMP JUMPDEST PUSH1 0x40 MLOAD DUP1 SWAP2 SUB SWAP1 REVERT JUMPDEST PUSH2 0x2458 DUP2 PUSH2 0x1F9D JUMP JUMPDEST POP JUMP JUMPDEST PUSH2 0x2463 PUSH2 0x2397 JUMP JUMPDEST PUSH0 PUSH2 0x246C PUSH2 0x2340 JUMP JUMPDEST SWAP1 POP PUSH1 0x1 DUP2 PUSH0 ADD DUP2 SWAP1 SSTORE POP POP JUMP JUMPDEST PUSH2 0x2482 PUSH2 0x2397 JUMP JUMPDEST PUSH0 PUSH2 0x248B PUSH2 0x206E JUMP JUMPDEST SWAP1 POP DUP3 DUP2 PUSH1 0x2 ADD SWAP1 DUP2 PUSH2 0x249E SWAP2 SWAP1 PUSH2 0x3A36 JUMP JUMPDEST POP DUP2 DUP2 PUSH1 0x3 ADD SWAP1 DUP2 PUSH2 0x24B0 SWAP2 SWAP1 PUSH2 0x3A36 JUMP JUMPDEST POP PUSH0 PUSH0 SHL DUP2 PUSH0 ADD DUP2 SWAP1 SSTORE POP PUSH0 PUSH0 SHL DUP2 PUSH1 0x1 ADD DUP2 SWAP1 SSTORE POP POP POP POP JUMP JUMPDEST PUSH0 PUSH2 0x24D4 PUSH2 0x26EE JUMP JUMPDEST SWAP1 POP SWAP1 JUMP JUMPDEST PUSH0 PUSH1 0x40 MLOAD PUSH32 0x1901000000000000000000000000000000000000000000000000000000000000 DUP2 MSTORE DUP4 PUSH1 0x2 DUP3 ADD MSTORE DUP3 PUSH1 0x22 DUP3 ADD MSTORE PUSH1 0x42 DUP2 KECCAK256 SWAP2 POP POP SWAP3 SWAP2 POP POP JUMP JUMPDEST PUSH0 PUSH0 PUSH0 PUSH1 0x41 DUP5 MLOAD SUB PUSH2 0x2559 JUMPI PUSH0 PUSH0 PUSH0 PUSH1 0x20 DUP8 ADD MLOAD SWAP3 POP PUSH1 0x40 DUP8 ADD MLOAD SWAP2 POP PUSH1 0x60 DUP8 ADD MLOAD PUSH0 BYTE SWAP1 POP PUSH2 0x254B DUP9 DUP3 DUP6 DUP6 PUSH2 0x2751 JUMP JUMPDEST SWAP6 POP SWAP6 POP SWAP6 POP POP POP POP PUSH2 0x2567 JUMP JUMPDEST PUSH0 PUSH1 0x2 DUP6 MLOAD PUSH0 SHL SWAP3 POP SWAP3 POP SWAP3 POP JUMPDEST SWAP3 POP SWAP3 POP SWAP3 JUMP JUMPDEST PUSH0 PUSH1 0x3 DUP2 GT ISZERO PUSH2 0x2581 JUMPI PUSH2 0x2580 PUSH2 0x2CE9 JUMP JUMPDEST JUMPDEST DUP3 PUSH1 0x3 DUP2 GT ISZERO PUSH2 0x2594 JUMPI PUSH2 0x2593 PUSH2 0x2CE9 JUMP JUMPDEST JUMPDEST SUB ISZERO PUSH2 0x26CC JUMPI PUSH1 0x1 PUSH1 0x3 DUP2 GT ISZERO PUSH2 0x25AE JUMPI PUSH2 0x25AD PUSH2 0x2CE9 JUMP JUMPDEST JUMPDEST DUP3 PUSH1 0x3 DUP2 GT ISZERO PUSH2 0x25C1 JUMPI PUSH2 0x25C0 PUSH2 0x2CE9 JUMP JUMPDEST JUMPDEST SUB PUSH2 0x25F8 JUMPI PUSH1 0x40 MLOAD PUSH32 0xF645EEDF00000000000000000000000000000000000000000000000000000000 DUP2 MSTORE PUSH1 0x4 ADD PUSH1 0x40 MLOAD DUP1 SWAP2 SUB SWAP1 REVERT JUMPDEST PUSH1 0x2 PUSH1 0x3 DUP2 GT ISZERO PUSH2 0x260C JUMPI PUSH2 0x260B PUSH2 0x2CE9 JUMP JUMPDEST JUMPDEST DUP3 PUSH1 0x3 DUP2 GT ISZERO PUSH2 0x261F JUMPI PUSH2 0x261E PUSH2 0x2CE9 JUMP JUMPDEST JUMPDEST SUB PUSH2 0x2663 JUMPI DUP1 PUSH0 SHR PUSH1 0x40 MLOAD PUSH32 0xFCE698F700000000000000000000000000000000000000000000000000000000 DUP2 MSTORE PUSH1 0x4 ADD PUSH2 0x265A SWAP2 SWAP1 PUSH2 0x31EB JUMP JUMPDEST PUSH1 0x40 MLOAD DUP1 SWAP2 SUB SWAP1 REVERT JUMPDEST PUSH1 0x3 DUP1 DUP2 GT ISZERO PUSH2 0x2676 JUMPI PUSH2 0x2675 PUSH2 0x2CE9 JUMP JUMPDEST JUMPDEST DUP3 PUSH1 0x3 DUP2 GT ISZERO PUSH2 0x2689 JUMPI PUSH2 0x2688 PUSH2 0x2CE9 JUMP JUMPDEST JUMPDEST SUB PUSH2 0x26CB JUMPI DUP1 PUSH1 0x40 MLOAD PUSH32 0xD78BCE0C00000000000000000000000000000000000000000000000000000000 DUP2 MSTORE PUSH1 0x4 ADD PUSH2 0x26C2 SWAP2 SWAP1 PUSH2 0x3B05 JUMP JUMPDEST PUSH1 0x40 MLOAD DUP1 SWAP2 SUB SWAP1 REVERT JUMPDEST JUMPDEST POP POP JUMP JUMPDEST PUSH0 PUSH2 0x26D9 PUSH2 0x21F8 JUMP JUMPDEST PUSH0 ADD PUSH1 0x8 SWAP1 SLOAD SWAP1 PUSH2 0x100 EXP SWAP1 DIV PUSH1 0xFF AND SWAP1 POP SWAP1 JUMP JUMPDEST PUSH0 PUSH32 0x8B73C3C69BB8FE3D512ECC4CF759CC79239F7B179B0FFACAA9A75D522B39400F PUSH2 0x2718 PUSH2 0x2838 JUMP JUMPDEST PUSH2 0x2720 PUSH2 0x28AE JUMP JUMPDEST CHAINID ADDRESS PUSH1 0x40 MLOAD PUSH1 0x20 ADD PUSH2 0x2736 SWAP6 SWAP5 SWAP4 SWAP3 SWAP2 SWAP1 PUSH2 0x3B1E JUMP JUMPDEST PUSH1 0x40 MLOAD PUSH1 0x20 DUP2 DUP4 SUB SUB DUP2 MSTORE SWAP1 PUSH1 0x40 MSTORE DUP1 MLOAD SWAP1 PUSH1 0x20 ADD KECCAK256 SWAP1 POP SWAP1 JUMP JUMPDEST PUSH0 PUSH0 PUSH0 PUSH32 0x7FFFFFFFFFFFFFFFFFFFFFFFFFFFFFFF5D576E7357A4501DDFE92F46681B20A0 DUP5 PUSH0 SHR GT ISZERO PUSH2 0x278D JUMPI PUSH0 PUSH1 0x3 DUP6 SWAP3 POP SWAP3 POP SWAP3 POP PUSH2 0x282E JUMP JUMPDEST PUSH0 PUSH1 0x1 DUP9 DUP9 DUP9 DUP9 PUSH1 0x40 MLOAD PUSH0 DUP2 MSTORE PUSH1 0x20 ADD PUSH1 0x40 MSTORE PUSH1 0x40 MLOAD PUSH2 0x27B0 SWAP5 SWAP4 SWAP3 SWAP2 SWAP1 PUSH2 0x3B8A JUMP JUMPDEST PUSH1 0x20 PUSH1 0x40 MLOAD PUSH1 0x20 DUP2 SUB SWAP1 DUP1 DUP5 SUB SWAP1 DUP6 GAS STATICCALL ISZERO DUP1 ISZERO PUSH2 0x27D0 JUMPI RETURNDATASIZE PUSH0 PUSH0 RETURNDATACOPY RETURNDATASIZE PUSH0 REVERT JUMPDEST POP POP POP PUSH1 0x20 PUSH1 0x40 MLOAD SUB MLOAD SWAP1 POP PUSH0 PUSH20 0xFFFFFFFFFFFFFFFFFFFFFFFFFFFFFFFFFFFFFFFF AND DUP2 PUSH20 0xFFFFFFFFFFFFFFFFFFFFFFFFFFFFFFFFFFFFFFFF AND SUB PUSH2 0x2821 JUMPI PUSH0 PUSH1 0x1 PUSH0 PUSH0 SHL SWAP4 POP SWAP4 POP SWAP4 POP POP PUSH2 0x282E JUMP JUMPDEST DUP1 PUSH0 PUSH0 PUSH0 SHL SWAP4 POP SWAP4 POP SWAP4 POP POP JUMPDEST SWAP5 POP SWAP5 POP SWAP5 SWAP2 POP POP JUMP JUMPDEST PUSH0 PUSH0 PUSH2 0x2842 PUSH2 0x206E JUMP JUMPDEST SWAP1 POP PUSH0 PUSH2 0x284D PUSH2 0x2095 JUMP JUMPDEST SWAP1 POP PUSH0 DUP2 MLOAD GT ISZERO PUSH2 0x2869 JUMPI DUP1 DUP1 MLOAD SWAP1 PUSH1 0x20 ADD KECCAK256 SWAP3 POP POP POP PUSH2 0x28AB JUMP JUMPDEST PUSH0 DUP3 PUSH0 ADD SLOAD SWAP1 POP PUSH0 PUSH0 SHL DUP2 EQ PUSH2 0x2884 JUMPI DUP1 SWAP4 POP POP POP POP PUSH2 0x28AB JUMP JUMPDEST PUSH32 0xC5D2460186F7233C927E7DB2DCC703C0E500B653CA82273B7BFAD8045D85A470 SWAP4 POP POP POP POP JUMPDEST SWAP1 JUMP JUMPDEST PUSH0 PUSH0 PUSH2 0x28B8 PUSH2 0x206E JUMP JUMPDEST SWAP1 POP PUSH0 PUSH2 0x28C3 PUSH2 0x2133 JUMP JUMPDEST SWAP1 POP PUSH0 DUP2 MLOAD GT ISZERO PUSH2 0x28DF JUMPI DUP1 DUP1 MLOAD SWAP1 PUSH1 0x20 ADD KECCAK256 SWAP3 POP POP POP PUSH2 0x2922 JUMP JUMPDEST PUSH0 DUP3 PUSH1 0x1 ADD SLOAD SWAP1 POP PUSH0 PUSH0 SHL DUP2 EQ PUSH2 0x28FB JUMPI DUP1 SWAP4 POP POP POP POP PUSH2 0x2922 JUMP JUMPDEST PUSH32 0xC5D2460186F7233C927E7DB2DCC703C0E500B653CA82273B7BFAD8045D85A470 SWAP4 POP POP POP POP JUMPDEST SWAP1 JUMP JUMPDEST PUSH0 PUSH0 REVERT JUMPDEST PUSH0 PUSH0 REVERT JUMPDEST PUSH0 PUSH32 0xFFFFFFFFFFFFFFFFFFFFFFFFFFFFFFFF00000000000000000000000000000000 DUP3 AND SWAP1 POP SWAP2 SWAP1 POP JUMP JUMPDEST PUSH2 0x2961 DUP2 PUSH2 0x292D JUMP JUMPDEST DUP2 EQ PUSH2 0x296B JUMPI PUSH0 PUSH0 REVERT JUMPDEST POP JUMP JUMPDEST PUSH0 DUP2 CALLDATALOAD SWAP1 POP PUSH2 0x297C DUP2 PUSH2 0x2958 JUMP JUMPDEST SWAP3 SWAP2 POP POP JUMP JUMPDEST PUSH0 PUSH1 0x20 DUP3 DUP5 SUB SLT ISZERO PUSH2 0x2997 JUMPI PUSH2 0x2996 PUSH2 0x2925 JUMP JUMPDEST JUMPDEST PUSH0 PUSH2 0x29A4 DUP5 DUP3 DUP6 ADD PUSH2 0x296E JUMP JUMPDEST SWAP2 POP POP SWAP3 SWAP2 POP POP JUMP JUMPDEST PUSH0 PUSH20 0xFFFFFFFFFFFFFFFFFFFFFFFFFFFFFFFFFFFFFFFF DUP3 AND SWAP1 POP SWAP2 SWAP1 POP JUMP JUMPDEST PUSH0 PUSH2 0x29D6 DUP3 PUSH2 0x29AD JUMP JUMPDEST SWAP1 POP SWAP2 SWAP1 POP JUMP JUMPDEST PUSH2 0x29E6 DUP2 PUSH2 0x29CC JUMP JUMPDEST DUP3 MSTORE POP POP JUMP JUMPDEST PUSH0 PUSH1 0x20 DUP3 ADD SWAP1 POP PUSH2 0x29FF PUSH0 DUP4 ADD DUP5 PUSH2 0x29DD JUMP JUMPDEST SWAP3 SWAP2 POP POP JUMP JUMPDEST PUSH0 DUP2 ISZERO ISZERO SWAP1 POP SWAP2 SWAP1 POP JUMP JUMPDEST PUSH2 0x2A19 DUP2 PUSH2 0x2A05 JUMP JUMPDEST DUP2 EQ PUSH2 0x2A23 JUMPI PUSH0 PUSH0 REVERT JUMPDEST POP JUMP JUMPDEST PUSH0 DUP2 CALLDATALOAD SWAP1 POP PUSH2 0x2A34 DUP2 PUSH2 0x2A10 JUMP JUMPDEST SWAP3 SWAP2 POP POP JUMP JUMPDEST PUSH0 PUSH0 PUSH1 0x40 DUP4 DUP6 SUB SLT ISZERO PUSH2 0x2A50 JUMPI PUSH2 0x2A4F PUSH2 0x2925 JUMP JUMPDEST JUMPDEST PUSH0 PUSH2 0x2A5D DUP6 DUP3 DUP7 ADD PUSH2 0x296E JUMP JUMPDEST SWAP3 POP POP PUSH1 0x20 PUSH2 0x2A6E DUP6 DUP3 DUP7 ADD PUSH2 0x2A26 JUMP JUMPDEST SWAP2 POP POP SWAP3 POP SWAP3 SWAP1 POP JUMP JUMPDEST PUSH0 PUSH3 0xFFFFFF DUP3 AND SWAP1 POP SWAP2 SWAP1 POP JUMP JUMPDEST PUSH2 0x2A8F DUP2 PUSH2 0x2A78 JUMP JUMPDEST DUP3 MSTORE POP POP JUMP JUMPDEST PUSH0 PUSH1 0x20 DUP3 ADD SWAP1 POP PUSH2 0x2AA8 PUSH0 DUP4 ADD DUP5 PUSH2 0x2A86 JUMP JUMPDEST SWAP3 SWAP2 POP POP JUMP JUMPDEST PUSH2 0x2AB7 DUP2 PUSH2 0x2A05 JUMP JUMPDEST DUP3 MSTORE POP POP JUMP JUMPDEST PUSH0 PUSH1 0x20 DUP3 ADD SWAP1 POP PUSH2 0x2AD0 PUSH0 DUP4 ADD DUP5 PUSH2 0x2AAE JUMP JUMPDEST SWAP3 SWAP2 POP POP JUMP JUMPDEST PUSH0 PUSH32 0xFF00000000000000000000000000000000000000000000000000000000000000 DUP3 AND SWAP1 POP SWAP2 SWAP1 POP JUMP JUMPDEST PUSH2 0x2B0A DUP2 PUSH2 0x2AD6 JUMP JUMPDEST DUP3 MSTORE POP POP JUMP JUMPDEST PUSH0 DUP2 MLOAD SWAP1 POP SWAP2 SWAP1 POP JUMP JUMPDEST PUSH0 DUP3 DUP3 MSTORE PUSH1 0x20 DUP3 ADD SWAP1 POP SWAP3 SWAP2 POP POP JUMP JUMPDEST DUP3 DUP2 DUP4 MCOPY PUSH0 DUP4 DUP4 ADD MSTORE POP POP POP JUMP JUMPDEST PUSH0 PUSH1 0x1F NOT PUSH1 0x1F DUP4 ADD AND SWAP1 POP SWAP2 SWAP1 POP JUMP JUMPDEST PUSH0 PUSH2 0x2B52 DUP3 PUSH2 0x2B10 JUMP JUMPDEST PUSH2 0x2B5C DUP2 DUP6 PUSH2 0x2B1A JUMP JUMPDEST SWAP4 POP PUSH2 0x2B6C DUP2 DUP6 PUSH1 0x20 DUP7 ADD PUSH2 0x2B2A JUMP JUMPDEST PUSH2 0x2B75 DUP2 PUSH2 0x2B38 JUMP JUMPDEST DUP5 ADD SWAP2 POP POP SWAP3 SWAP2 POP POP JUMP JUMPDEST PUSH0 DUP2 SWAP1 POP SWAP2 SWAP1 POP JUMP JUMPDEST PUSH2 0x2B92 DUP2 PUSH2 0x2B80 JUMP JUMPDEST DUP3 MSTORE POP POP JUMP JUMPDEST PUSH0 DUP2 SWAP1 POP SWAP2 SWAP1 POP JUMP JUMPDEST PUSH2 0x2BAA DUP2 PUSH2 0x2B98 JUMP JUMPDEST DUP3 MSTORE POP POP JUMP JUMPDEST PUSH0 DUP2 MLOAD SWAP1 POP SWAP2 SWAP1 POP JUMP JUMPDEST PUSH0 DUP3 DUP3 MSTORE PUSH1 0x20 DUP3 ADD SWAP1 POP SWAP3 SWAP2 POP POP JUMP JUMPDEST PUSH0 DUP2 SWAP1 POP PUSH1 0x20 DUP3 ADD SWAP1 POP SWAP2 SWAP1 POP JUMP JUMPDEST PUSH2 0x2BE2 DUP2 PUSH2 0x2B80 JUMP JUMPDEST DUP3 MSTORE POP POP JUMP JUMPDEST PUSH0 PUSH2 0x2BF3 DUP4 DUP4 PUSH2 0x2BD9 JUMP JUMPDEST PUSH1 0x20 DUP4 ADD SWAP1 POP SWAP3 SWAP2 POP POP JUMP JUMPDEST PUSH0 PUSH1 0x20 DUP3 ADD SWAP1 POP SWAP2 SWAP1 POP JUMP JUMPDEST PUSH0 PUSH2 0x2C15 DUP3 PUSH2 0x2BB0 JUMP JUMPDEST PUSH2 0x2C1F DUP2 DUP6 PUSH2 0x2BBA JUMP JUMPDEST SWAP4 POP PUSH2 0x2C2A DUP4 PUSH2 0x2BCA JUMP JUMPDEST DUP1 PUSH0 JUMPDEST DUP4 DUP2 LT ISZERO PUSH2 0x2C5A JUMPI DUP2 MLOAD PUSH2 0x2C41 DUP9 DUP3 PUSH2 0x2BE8 JUMP JUMPDEST SWAP8 POP PUSH2 0x2C4C DUP4 PUSH2 0x2BFF JUMP JUMPDEST SWAP3 POP POP PUSH1 0x1 DUP2 ADD SWAP1 POP PUSH2 0x2C2D JUMP JUMPDEST POP DUP6 SWAP4 POP POP POP POP SWAP3 SWAP2 POP POP JUMP JUMPDEST PUSH0 PUSH1 0xE0 DUP3 ADD SWAP1 POP PUSH2 0x2C7A PUSH0 DUP4 ADD DUP11 PUSH2 0x2B01 JUMP JUMPDEST DUP2 DUP2 SUB PUSH1 0x20 DUP4 ADD MSTORE PUSH2 0x2C8C DUP2 DUP10 PUSH2 0x2B48 JUMP JUMPDEST SWAP1 POP DUP2 DUP2 SUB PUSH1 0x40 DUP4 ADD MSTORE PUSH2 0x2CA0 DUP2 DUP9 PUSH2 0x2B48 JUMP JUMPDEST SWAP1 POP PUSH2 0x2CAF PUSH1 0x60 DUP4 ADD DUP8 PUSH2 0x2B89 JUMP JUMPDEST PUSH2 0x2CBC PUSH1 0x80 DUP4 ADD DUP7 PUSH2 0x29DD JUMP JUMPDEST PUSH2 0x2CC9 PUSH1 0xA0 DUP4 ADD DUP6 PUSH2 0x2BA1 JUMP JUMPDEST DUP2 DUP2 SUB PUSH1 0xC0 DUP4 ADD MSTORE PUSH2 0x2CDB DUP2 DUP5 PUSH2 0x2C0B JUMP JUMPDEST SWAP1 POP SWAP9 SWAP8 POP POP POP POP POP POP POP POP JUMP JUMPDEST PUSH32 0x4E487B7100000000000000000000000000000000000000000000000000000000 PUSH0 MSTORE PUSH1 0x21 PUSH1 0x4 MSTORE PUSH1 0x24 PUSH0 REVERT JUMPDEST PUSH1 0x2 DUP2 LT PUSH2 0x2D27 JUMPI PUSH2 0x2D26 PUSH2 0x2CE9 JUMP JUMPDEST JUMPDEST POP JUMP JUMPDEST PUSH0 DUP2 SWAP1 POP PUSH2 0x2D37 DUP3 PUSH2 0x2D16 JUMP JUMPDEST SWAP2 SWAP1 POP JUMP JUMPDEST PUSH0 PUSH2 0x2D46 DUP3 PUSH2 0x2D2A JUMP JUMPDEST SWAP1 POP SWAP2 SWAP1 POP JUMP JUMPDEST PUSH2 0x2D56 DUP2 PUSH2 0x2D3C JUMP JUMPDEST DUP3 MSTORE POP POP JUMP JUMPDEST PUSH0 PUSH1 0x20 DUP3 ADD SWAP1 POP PUSH2 0x2D6F PUSH0 DUP4 ADD DUP5 PUSH2 0x2D4D JUMP JUMPDEST SWAP3 SWAP2 POP POP JUMP JUMPDEST PUSH2 0x2D7E DUP2 PUSH2 0x29CC JUMP JUMPDEST DUP2 EQ PUSH2 0x2D88 JUMPI PUSH0 PUSH0 REVERT JUMPDEST POP JUMP JUMPDEST PUSH0 DUP2 CALLDATALOAD SWAP1 POP PUSH2 0x2D99 DUP2 PUSH2 0x2D75 JUMP JUMPDEST SWAP3 SWAP2 POP POP JUMP JUMPDEST PUSH2 0x2DA8 DUP2 PUSH2 0x2A78 JUMP JUMPDEST DUP2 EQ PUSH2 0x2DB2 JUMPI PUSH0 PUSH0 REVERT JUMPDEST POP JUMP JUMPDEST PUSH0 DUP2 CALLDATALOAD SWAP1 POP PUSH2 0x2DC3 DUP2 PUSH2 0x2D9F JUMP JUMPDEST SWAP3 SWAP2 POP POP JUMP JUMPDEST PUSH0 PUSH0 PUSH0 PUSH0 PUSH1 0x80 DUP6 DUP8 SUB SLT ISZERO PUSH2 0x2DE1 JUMPI PUSH2 0x2DE0 PUSH2 0x2925 JUMP JUMPDEST JUMPDEST PUSH0 PUSH2 0x2DEE DUP8 DUP3 DUP9 ADD PUSH2 0x2D8B JUMP JUMPDEST SWAP5 POP POP PUSH1 0x20 PUSH2 0x2DFF DUP8 DUP3 DUP9 ADD PUSH2 0x2D8B JUMP JUMPDEST SWAP4 POP POP PUSH1 0x40 PUSH2 0x2E10 DUP8 DUP3 DUP9 ADD PUSH2 0x2D8B JUMP JUMPDEST SWAP3 POP POP PUSH1 0x60 PUSH2 0x2E21 DUP8 DUP3 DUP9 ADD PUSH2 0x2DB5 JUMP JUMPDEST SWAP2 POP POP SWAP3 SWAP6 SWAP2 SWAP5 POP SWAP3 POP JUMP JUMPDEST PUSH1 0x5 DUP2 LT PUSH2 0x2E3E JUMPI PUSH2 0x2E3D PUSH2 0x2CE9 JUMP JUMPDEST JUMPDEST POP JUMP JUMPDEST PUSH0 DUP2 SWAP1 POP PUSH2 0x2E4E DUP3 PUSH2 0x2E2D JUMP JUMPDEST SWAP2 SWAP1 POP JUMP JUMPDEST PUSH0 PUSH2 0x2E5D DUP3 PUSH2 0x2E41 JUMP JUMPDEST SWAP1 POP SWAP2 SWAP1 POP JUMP JUMPDEST PUSH2 0x2E6D DUP2 PUSH2 0x2E53 JUMP JUMPDEST DUP3 MSTORE POP POP JUMP JUMPDEST PUSH0 PUSH2 0x100 DUP3 ADD SWAP1 POP PUSH2 0x2E87 PUSH0 DUP4 ADD DUP12 PUSH2 0x29DD JUMP JUMPDEST PUSH2 0x2E94 PUSH1 0x20 DUP4 ADD DUP11 PUSH2 0x29DD JUMP JUMPDEST PUSH2 0x2EA1 PUSH1 0x40 DUP4 ADD DUP10 PUSH2 0x29DD JUMP JUMPDEST PUSH2 0x2EAE PUSH1 0x60 DUP4 ADD DUP9 PUSH2 0x2B89 JUMP JUMPDEST PUSH2 0x2EBB PUSH1 0x80 DUP4 ADD DUP8 PUSH2 0x2B89 JUMP JUMPDEST PUSH2 0x2EC8 PUSH1 0xA0 DUP4 ADD DUP7 PUSH2 0x2B89 JUMP JUMPDEST PUSH2 0x2ED5 PUSH1 0xC0 DUP4 ADD DUP6 PUSH2 0x2B89 JUMP JUMPDEST PUSH2 0x2EE2 PUSH1 0xE0 DUP4 ADD DUP5 PUSH2 0x2E64 JUMP JUMPDEST SWAP10 SWAP9 POP POP POP POP POP POP POP POP POP JUMP JUMPDEST PUSH0 PUSH0 REVERT JUMPDEST PUSH0 PUSH2 0x100 DUP3 DUP5 SUB SLT ISZERO PUSH2 0x2F09 JUMPI PUSH2 0x2F08 PUSH2 0x2EEF JUMP JUMPDEST JUMPDEST DUP2 SWAP1 POP SWAP3 SWAP2 POP POP JUMP JUMPDEST PUSH0 PUSH0 REVERT JUMPDEST PUSH0 PUSH0 REVERT JUMPDEST PUSH0 PUSH0 REVERT JUMPDEST PUSH0 PUSH0 DUP4 PUSH1 0x1F DUP5 ADD SLT PUSH2 0x2F33 JUMPI PUSH2 0x2F32 PUSH2 0x2F12 JUMP JUMPDEST JUMPDEST DUP3 CALLDATALOAD SWAP1 POP PUSH8 0xFFFFFFFFFFFFFFFF DUP2 GT ISZERO PUSH2 0x2F50 JUMPI PUSH2 0x2F4F PUSH2 0x2F16 JUMP JUMPDEST JUMPDEST PUSH1 0x20 DUP4 ADD SWAP2 POP DUP4 PUSH1 0x1 DUP3 MUL DUP4 ADD GT ISZERO PUSH2 0x2F6C JUMPI PUSH2 0x2F6B PUSH2 0x2F1A JUMP JUMPDEST JUMPDEST SWAP3 POP SWAP3 SWAP1 POP JUMP JUMPDEST PUSH0 PUSH0 PUSH0 PUSH2 0x120 DUP5 DUP7 SUB SLT ISZERO PUSH2 0x2F8B JUMPI PUSH2 0x2F8A PUSH2 0x2925 JUMP JUMPDEST JUMPDEST PUSH0 PUSH2 0x2F98 DUP7 DUP3 DUP8 ADD PUSH2 0x2EF3 JUMP JUMPDEST SWAP4 POP POP PUSH2 0x100 DUP5 ADD CALLDATALOAD PUSH8 0xFFFFFFFFFFFFFFFF DUP2 GT ISZERO PUSH2 0x2FBA JUMPI PUSH2 0x2FB9 PUSH2 0x2929 JUMP JUMPDEST JUMPDEST PUSH2 0x2FC6 DUP7 DUP3 DUP8 ADD PUSH2 0x2F1E JUMP JUMPDEST SWAP3 POP SWAP3 POP POP SWAP3 POP SWAP3 POP SWAP3 JUMP JUMPDEST PUSH0 PUSH1 0x20 DUP3 DUP5 SUB SLT ISZERO PUSH2 0x2FE7 JUMPI PUSH2 0x2FE6 PUSH2 0x2925 JUMP JUMPDEST JUMPDEST PUSH0 PUSH2 0x2FF4 DUP5 DUP3 DUP6 ADD PUSH2 0x2D8B JUMP JUMPDEST SWAP2 POP POP SWAP3 SWAP2 POP POP JUMP JUMPDEST PUSH1 0x2 DUP2 LT PUSH2 0x3009 JUMPI PUSH0 PUSH0 REVERT JUMPDEST POP JUMP JUMPDEST PUSH0 DUP2 CALLDATALOAD SWAP1 POP PUSH2 0x301A DUP2 PUSH2 0x2FFD JUMP JUMPDEST SWAP3 SWAP2 POP POP JUMP JUMPDEST PUSH0 PUSH1 0x20 DUP3 DUP5 SUB SLT ISZERO PUSH2 0x3035 JUMPI PUSH2 0x3034 PUSH2 0x2925 JUMP JUMPDEST JUMPDEST PUSH0 PUSH2 0x3042 DUP5 DUP3 DUP6 ADD PUSH2 0x300C JUMP JUMPDEST SWAP2 POP POP SWAP3 SWAP2 POP POP JUMP JUMPDEST PUSH32 0x436F6E7472616374206465707265636174656400000000000000000000000000 PUSH0 DUP3 ADD MSTORE POP JUMP JUMPDEST PUSH0 PUSH2 0x307F PUSH1 0x13 DUP4 PUSH2 0x2B1A JUMP JUMPDEST SWAP2 POP PUSH2 0x308A DUP3 PUSH2 0x304B JUMP JUMPDEST PUSH1 0x20 DUP3 ADD SWAP1 POP SWAP2 SWAP1 POP JUMP JUMPDEST PUSH0 PUSH1 0x20 DUP3 ADD SWAP1 POP DUP2 DUP2 SUB PUSH0 DUP4 ADD MSTORE PUSH2 0x30AC DUP2 PUSH2 0x3073 JUMP JUMPDEST SWAP1 POP SWAP2 SWAP1 POP JUMP JUMPDEST PUSH32 0x4E6F742062757965720000000000000000000000000000000000000000000000 PUSH0 DUP3 ADD MSTORE POP JUMP JUMPDEST PUSH0 PUSH2 0x30E7 PUSH1 0x9 DUP4 PUSH2 0x2B1A JUMP JUMPDEST SWAP2 POP PUSH2 0x30F2 DUP3 PUSH2 0x30B3 JUMP JUMPDEST PUSH1 0x20 DUP3 ADD SWAP1 POP SWAP2 SWAP1 POP JUMP JUMPDEST PUSH0 PUSH1 0x20 DUP3 ADD SWAP1 POP DUP2 DUP2 SUB PUSH0 DUP4 ADD MSTORE PUSH2 0x3114 DUP2 PUSH2 0x30DB JUMP JUMPDEST SWAP1 POP SWAP2 SWAP1 POP JUMP JUMPDEST PUSH32 0x43616E6E6F742072656C65617365000000000000000000000000000000000000 PUSH0 DUP3 ADD MSTORE POP JUMP JUMPDEST PUSH0 PUSH2 0x314F PUSH1 0xE DUP4 PUSH2 0x2B1A JUMP JUMPDEST SWAP2 POP PUSH2 0x315A DUP3 PUSH2 0x311B JUMP JUMPDEST PUSH1 0x20 DUP3 ADD SWAP1 POP SWAP2 SWAP1 POP JUMP JUMPDEST PUSH0 PUSH1 0x20 DUP3 ADD SWAP1 POP DUP2 DUP2 SUB PUSH0 DUP4 ADD MSTORE PUSH2 0x317C DUP2 PUSH2 0x3143 JUMP JUMPDEST SWAP1 POP SWAP2 SWAP1 POP JUMP JUMPDEST PUSH32 0x4E6F206469737075746500000000000000000000000000000000000000000000 PUSH0 DUP3 ADD MSTORE POP JUMP JUMPDEST PUSH0 PUSH2 0x31B7 PUSH1 0xA DUP4 PUSH2 0x2B1A JUMP JUMPDEST SWAP2 POP PUSH2 0x31C2 DUP3 PUSH2 0x3183 JUMP JUMPDEST PUSH1 0x20 DUP3 ADD SWAP1 POP SWAP2 SWAP1 POP JUMP JUMPDEST PUSH0 PUSH1 0x20 DUP3 ADD SWAP1 POP DUP2 DUP2 SUB PUSH0 DUP4 ADD MSTORE PUSH2 0x31E4 DUP2 PUSH2 0x31AB JUMP JUMPDEST SWAP1 POP SWAP2 SWAP1 POP JUMP JUMPDEST PUSH0 PUSH1 0x20 DUP3 ADD SWAP1 POP PUSH2 0x31FE PUSH0 DUP4 ADD DUP5 PUSH2 0x2B89 JUMP JUMPDEST SWAP3 SWAP2 POP POP JUMP JUMPDEST PUSH32 0x43616E6E6F742064697370757465000000000000000000000000000000000000 PUSH0 DUP3 ADD MSTORE POP JUMP JUMPDEST PUSH0 PUSH2 0x3238 PUSH1 0xE DUP4 PUSH2 0x2B1A JUMP JUMPDEST SWAP2 POP PUSH2 0x3243 DUP3 PUSH2 0x3204 JUMP JUMPDEST PUSH1 0x20 DUP3 ADD SWAP1 POP SWAP2 SWAP1 POP JUMP JUMPDEST PUSH0 PUSH1 0x20 DUP3 ADD SWAP1 POP DUP2 DUP2 SUB PUSH0 DUP4 ADD MSTORE PUSH2 0x3265 DUP2 PUSH2 0x322C JUMP JUMPDEST SWAP1 POP SWAP2 SWAP1 POP JUMP JUMPDEST PUSH32 0x4549503731323A20556E696E697469616C697A65640000000000000000000000 PUSH0 DUP3 ADD MSTORE POP JUMP JUMPDEST PUSH0 PUSH2 0x32A0 PUSH1 0x15 DUP4 PUSH2 0x2B1A JUMP JUMPDEST SWAP2 POP PUSH2 0x32AB DUP3 PUSH2 0x326C JUMP JUMPDEST PUSH1 0x20 DUP3 ADD SWAP1 POP SWAP2 SWAP1 POP JUMP JUMPDEST PUSH0 PUSH1 0x20 DUP3 ADD SWAP1 POP DUP2 DUP2 SUB PUSH0 DUP4 ADD MSTORE PUSH2 0x32CD DUP2 PUSH2 0x3294 JUMP JUMPDEST SWAP1 POP SWAP2 SWAP1 POP JUMP JUMPDEST PUSH32 0x4E487B7100000000000000000000000000000000000000000000000000000000 PUSH0 MSTORE PUSH1 0x41 PUSH1 0x4 MSTORE PUSH1 0x24 PUSH0 REVERT JUMPDEST PUSH32 0x4E487B7100000000000000000000000000000000000000000000000000000000 PUSH0 MSTORE PUSH1 0x11 PUSH1 0x4 MSTORE PUSH1 0x24 PUSH0 REVERT JUMPDEST PUSH0 PUSH2 0x3338 DUP3 PUSH2 0x2B80 JUMP JUMPDEST SWAP2 POP PUSH2 0x3343 DUP4 PUSH2 0x2B80 JUMP JUMPDEST SWAP3 POP DUP3 DUP3 ADD SWAP1 POP DUP1 DUP3 GT ISZERO PUSH2 0x335B JUMPI PUSH2 0x335A PUSH2 0x3301 JUMP JUMPDEST JUMPDEST SWAP3 SWAP2 POP POP JUMP JUMPDEST PUSH32 0x546F6F206561726C790000000000000000000000000000000000000000000000 PUSH0 DUP3 ADD MSTORE POP JUMP JUMPDEST PUSH0 PUSH2 0x3395 PUSH1 0x9 DUP4 PUSH2 0x2B1A JUMP JUMPDEST SWAP2 POP PUSH2 0x33A0 DUP3 PUSH2 0x3361 JUMP JUMPDEST PUSH1 0x20 DUP3 ADD SWAP1 POP SWAP2 SWAP1 POP JUMP JUMPDEST PUSH0 PUSH1 0x20 DUP3 ADD SWAP1 POP DUP2 DUP2 SUB PUSH0 DUP4 ADD MSTORE PUSH2 0x33C2 DUP2 PUSH2 0x3389 JUMP JUMPDEST SWAP1 POP SWAP2 SWAP1 POP JUMP JUMPDEST PUSH32 0x496E76616C696420736572766572207369676E65720000000000000000000000 PUSH0 DUP3 ADD MSTORE POP JUMP JUMPDEST PUSH0 PUSH2 0x33FD PUSH1 0x15 DUP4 PUSH2 0x2B1A JUMP JUMPDEST SWAP2 POP PUSH2 0x3408 DUP3 PUSH2 0x33C9 JUMP JUMPDEST PUSH1 0x20 DUP3 ADD SWAP1 POP SWAP2 SWAP1 POP JUMP JUMPDEST PUSH0 PUSH1 0x20 DUP3 ADD SWAP1 POP DUP2 DUP2 SUB PUSH0 DUP4 ADD MSTORE PUSH2 0x342A DUP2 PUSH2 0x33F1 JUMP JUMPDEST SWAP1 POP SWAP2 SWAP1 POP JUMP JUMPDEST PUSH32 0x496E76616C696420746178657320616464726573730000000000000000000000 PUSH0 DUP3 ADD MSTORE POP JUMP JUMPDEST PUSH0 PUSH2 0x3465 PUSH1 0x15 DUP4 PUSH2 0x2B1A JUMP JUMPDEST SWAP2 POP PUSH2 0x3470 DUP3 PUSH2 0x3431 JUMP JUMPDEST PUSH1 0x20 DUP3 ADD SWAP1 POP SWAP2 SWAP1 POP JUMP JUMPDEST PUSH0 PUSH1 0x20 DUP3 ADD SWAP1 POP DUP2 DUP2 SUB PUSH0 DUP4 ADD MSTORE PUSH2 0x3492 DUP2 PUSH2 0x3459 JUMP JUMPDEST SWAP1 POP SWAP2 SWAP1 POP JUMP JUMPDEST PUSH32 0x496E76616C696420666565732061646472657373000000000000000000000000 PUSH0 DUP3 ADD MSTORE POP JUMP JUMPDEST PUSH0 PUSH2 0x34CD PUSH1 0x14 DUP4 PUSH2 0x2B1A JUMP JUMPDEST SWAP2 POP PUSH2 0x34D8 DUP3 PUSH2 0x3499 JUMP JUMPDEST PUSH1 0x20 DUP3 ADD SWAP1 POP SWAP2 SWAP1 POP JUMP JUMPDEST PUSH0 PUSH1 0x20 DUP3 ADD SWAP1 POP DUP2 DUP2 SUB PUSH0 DUP4 ADD MSTORE PUSH2 0x34FA DUP2 PUSH2 0x34C1 JUMP JUMPDEST SWAP1 POP SWAP2 SWAP1 POP JUMP JUMPDEST PUSH0 DUP2 SWAP1 POP SWAP2 SWAP1 POP JUMP JUMPDEST PUSH0 PUSH8 0xFFFFFFFFFFFFFFFF DUP3 AND SWAP1 POP SWAP2 SWAP1 POP JUMP JUMPDEST PUSH0 DUP2 SWAP1 POP SWAP2 SWAP1 POP JUMP JUMPDEST PUSH0 PUSH2 0x3540 PUSH2 0x353B PUSH2 0x3536 DUP5 PUSH2 0x3501 JUMP JUMPDEST PUSH2 0x351D JUMP JUMPDEST PUSH2 0x350A JUMP JUMPDEST SWAP1 POP SWAP2 SWAP1 POP JUMP JUMPDEST PUSH2 0x3550 DUP2 PUSH2 0x3526 JUMP JUMPDEST DUP3 MSTORE POP POP JUMP JUMPDEST PUSH0 PUSH1 0x20 DUP3 ADD SWAP1 POP PUSH2 0x3569 PUSH0 DUP4 ADD DUP5 PUSH2 0x3547 JUMP JUMPDEST SWAP3 SWAP2 POP POP JUMP JUMPDEST PUSH32 0x496E76616C696420616D6F756E74000000000000000000000000000000000000 PUSH0 DUP3 ADD MSTORE POP JUMP JUMPDEST PUSH0 PUSH2 0x35A3 PUSH1 0xE DUP4 PUSH2 0x2B1A JUMP JUMPDEST SWAP2 POP PUSH2 0x35AE DUP3 PUSH2 0x356F JUMP JUMPDEST PUSH1 0x20 DUP3 ADD SWAP1 POP SWAP2 SWAP1 POP JUMP JUMPDEST PUSH0 PUSH1 0x20 DUP3 ADD SWAP1 POP DUP2 DUP2 SUB PUSH0 DUP4 ADD MSTORE PUSH2 0x35D0 DUP2 PUSH2 0x3597 JUMP JUMPDEST SWAP1 POP SWAP2 SWAP1 POP JUMP JUMPDEST PUSH32 0x496E76616C6964207369676E6174757265000000000000000000000000000000 PUSH0 DUP3 ADD MSTORE POP JUMP JUMPDEST PUSH0 PUSH2 0x360B PUSH1 0x11 DUP4 PUSH2 0x2B1A JUMP JUMPDEST SWAP2 POP PUSH2 0x3616 DUP3 PUSH2 0x35D7 JUMP JUMPDEST PUSH1 0x20 DUP3 ADD SWAP1 POP SWAP2 SWAP1 POP JUMP JUMPDEST PUSH0 PUSH1 0x20 DUP3 ADD SWAP1 POP DUP2 DUP2 SUB PUSH0 DUP4 ADD MSTORE PUSH2 0x3638 DUP2 PUSH2 0x35FF JUMP JUMPDEST SWAP1 POP SWAP2 SWAP1 POP JUMP JUMPDEST PUSH32 0x4F72646572206578706972656400000000000000000000000000000000000000 PUSH0 DUP3 ADD MSTORE POP JUMP JUMPDEST PUSH0 PUSH2 0x3673 PUSH1 0xD DUP4 PUSH2 0x2B1A JUMP JUMPDEST SWAP2 POP PUSH2 0x367E DUP3 PUSH2 0x363F JUMP JUMPDEST PUSH1 0x20 DUP3 ADD SWAP1 POP SWAP2 SWAP1 POP JUMP JUMPDEST PUSH0 PUSH1 0x20 DUP3 ADD SWAP1 POP DUP2 DUP2 SUB PUSH0 DUP4 ADD MSTORE PUSH2 0x36A0 DUP2 PUSH2 0x3667 JUMP JUMPDEST SWAP1 POP SWAP2 SWAP1 POP JUMP JUMPDEST PUSH32 0x4F7264657220616C726561647920726567697374657265640000000000000000 PUSH0 DUP3 ADD MSTORE POP JUMP JUMPDEST PUSH0 PUSH2 0x36DB PUSH1 0x18 DUP4 PUSH2 0x2B1A JUMP JUMPDEST SWAP2 POP PUSH2 0x36E6 DUP3 PUSH2 0x36A7 JUMP JUMPDEST PUSH1 0x20 DUP3 ADD SWAP1 POP SWAP2 SWAP1 POP JUMP JUMPDEST PUSH0 PUSH1 0x20 DUP3 ADD SWAP1 POP DUP2 DUP2 SUB PUSH0 DUP4 ADD MSTORE PUSH2 0x3708 DUP2 PUSH2 0x36CF JUMP JUMPDEST SWAP1 POP SWAP2 SWAP1 POP JUMP JUMPDEST PUSH0 PUSH2 0x3719 DUP3 PUSH2 0x2B80 JUMP JUMPDEST SWAP2 POP PUSH2 0x3724 DUP4 PUSH2 0x2B80 JUMP JUMPDEST SWAP3 POP DUP3 DUP3 SUB SWAP1 POP DUP2 DUP2 GT ISZERO PUSH2 0x373C JUMPI PUSH2 0x373B PUSH2 0x3301 JUMP JUMPDEST JUMPDEST SWAP3 SWAP2 POP POP JUMP JUMPDEST PUSH0 PUSH1 0x40 DUP3 ADD SWAP1 POP PUSH2 0x3755 PUSH0 DUP4 ADD DUP6 PUSH2 0x29DD JUMP JUMPDEST PUSH2 0x3762 PUSH1 0x20 DUP4 ADD DUP5 PUSH2 0x2B89 JUMP JUMPDEST SWAP4 SWAP3 POP POP POP JUMP JUMPDEST PUSH0 DUP2 MLOAD SWAP1 POP PUSH2 0x3777 DUP2 PUSH2 0x2A10 JUMP JUMPDEST SWAP3 SWAP2 POP POP JUMP JUMPDEST PUSH0 PUSH1 0x20 DUP3 DUP5 SUB SLT ISZERO PUSH2 0x3792 JUMPI PUSH2 0x3791 PUSH2 0x2925 JUMP JUMPDEST JUMPDEST PUSH0 PUSH2 0x379F DUP5 DUP3 DUP6 ADD PUSH2 0x3769 JUMP JUMPDEST SWAP2 POP POP SWAP3 SWAP2 POP POP JUMP JUMPDEST PUSH32 0x4E487B7100000000000000000000000000000000000000000000000000000000 PUSH0 MSTORE PUSH1 0x22 PUSH1 0x4 MSTORE PUSH1 0x24 PUSH0 REVERT JUMPDEST PUSH0 PUSH1 0x2 DUP3 DIV SWAP1 POP PUSH1 0x1 DUP3 AND DUP1 PUSH2 0x37EC JUMPI PUSH1 0x7F DUP3 AND SWAP2 POP JUMPDEST PUSH1 0x20 DUP3 LT DUP2 SUB PUSH2 0x37FF JUMPI PUSH2 0x37FE PUSH2 0x37A8 JUMP JUMPDEST JUMPDEST POP SWAP2 SWAP1 POP JUMP JUMPDEST PUSH2 0x380E DUP2 PUSH2 0x292D JUMP JUMPDEST DUP3 MSTORE POP POP JUMP JUMPDEST PUSH0 PUSH2 0x120 DUP3 ADD SWAP1 POP PUSH2 0x3828 PUSH0 DUP4 ADD DUP13 PUSH2 0x2BA1 JUMP JUMPDEST PUSH2 0x3835 PUSH1 0x20 DUP4 ADD DUP12 PUSH2 0x3805 JUMP JUMPDEST PUSH2 0x3842 PUSH1 0x40 DUP4 ADD DUP11 PUSH2 0x29DD JUMP JUMPDEST PUSH2 0x384F PUSH1 0x60 DUP4 ADD DUP10 PUSH2 0x29DD JUMP JUMPDEST PUSH2 0x385C PUSH1 0x80 DUP4 ADD DUP9 PUSH2 0x29DD JUMP JUMPDEST PUSH2 0x3869 PUSH1 0xA0 DUP4 ADD DUP8 PUSH2 0x2B89 JUMP JUMPDEST PUSH2 0x3876 PUSH1 0xC0 DUP4 ADD DUP7 PUSH2 0x2B89 JUMP JUMPDEST PUSH2 0x3883 PUSH1 0xE0 DUP4 ADD DUP6 PUSH2 0x2B89 JUMP JUMPDEST PUSH2 0x3891 PUSH2 0x100 DUP4 ADD DUP5 PUSH2 0x2B89 JUMP JUMPDEST SWAP11 SWAP10 POP POP POP POP POP POP POP POP POP POP JUMP JUMPDEST PUSH0 DUP2 SWAP1 POP DUP2 PUSH0 MSTORE PUSH1 0x20 PUSH0 KECCAK256 SWAP1 POP SWAP2 SWAP1 POP JUMP JUMPDEST PUSH0 PUSH1 0x20 PUSH1 0x1F DUP4 ADD DIV SWAP1 POP SWAP2 SWAP1 POP JUMP JUMPDEST PUSH0 DUP3 DUP3 SHL SWAP1 POP SWAP3 SWAP2 POP POP JUMP JUMPDEST PUSH0 PUSH1 0x8 DUP4 MUL PUSH2 0x38FB PUSH32 0xFFFFFFFFFFFFFFFFFFFFFFFFFFFFFFFFFFFFFFFFFFFFFFFFFFFFFFFFFFFFFFFF DUP3 PUSH2 0x38C0 JUMP JUMPDEST PUSH2 0x3905 DUP7 DUP4 PUSH2 0x38C0 JUMP JUMPDEST SWAP6 POP DUP1 NOT DUP5 AND SWAP4 POP DUP1 DUP7 AND DUP5 OR SWAP3 POP POP POP SWAP4 SWAP3 POP POP POP JUMP JUMPDEST PUSH0 PUSH2 0x3937 PUSH2 0x3932 PUSH2 0x392D DUP5 PUSH2 0x2B80 JUMP JUMPDEST PUSH2 0x351D JUMP JUMPDEST PUSH2 0x2B80 JUMP JUMPDEST SWAP1 POP SWAP2 SWAP1 POP JUMP JUMPDEST PUSH0 DUP2 SWAP1 POP SWAP2 SWAP1 POP JUMP JUMPDEST PUSH2 0x3950 DUP4 PUSH2 0x391D JUMP JUMPDEST PUSH2 0x3964 PUSH2 0x395C DUP3 PUSH2 0x393E JUMP JUMPDEST DUP5 DUP5 SLOAD PUSH2 0x38CC JUMP JUMPDEST DUP3 SSTORE POP POP POP POP JUMP JUMPDEST PUSH0 PUSH0 SWAP1 POP SWAP1 JUMP JUMPDEST PUSH2 0x397B PUSH2 0x396C JUMP JUMPDEST PUSH2 0x3986 DUP2 DUP5 DUP5 PUSH2 0x3947 JUMP JUMPDEST POP POP POP JUMP JUMPDEST JUMPDEST DUP2 DUP2 LT ISZERO PUSH2 0x39A9 JUMPI PUSH2 0x399E PUSH0 DUP3 PUSH2 0x3973 JUMP JUMPDEST PUSH1 0x1 DUP2 ADD SWAP1 POP PUSH2 0x398C JUMP JUMPDEST POP POP JUMP JUMPDEST PUSH1 0x1F DUP3 GT ISZERO PUSH2 0x39EE JUMPI PUSH2 0x39BF DUP2 PUSH2 0x389F JUMP JUMPDEST PUSH2 0x39C8 DUP5 PUSH2 0x38B1 JUMP JUMPDEST DUP2 ADD PUSH1 0x20 DUP6 LT ISZERO PUSH2 0x39D7 JUMPI DUP2 SWAP1 POP JUMPDEST PUSH2 0x39EB PUSH2 0x39E3 DUP6 PUSH2 0x38B1 JUMP JUMPDEST DUP4 ADD DUP3 PUSH2 0x398B JUMP JUMPDEST POP POP JUMPDEST POP POP POP JUMP JUMPDEST PUSH0 DUP3 DUP3 SHR SWAP1 POP SWAP3 SWAP2 POP POP JUMP JUMPDEST PUSH0 PUSH2 0x3A0E PUSH0 NOT DUP5 PUSH1 0x8 MUL PUSH2 0x39F3 JUMP JUMPDEST NOT DUP1 DUP4 AND SWAP2 POP POP SWAP3 SWAP2 POP POP JUMP JUMPDEST PUSH0 PUSH2 0x3A26 DUP4 DUP4 PUSH2 0x39FF JUMP JUMPDEST SWAP2 POP DUP3 PUSH1 0x2 MUL DUP3 OR SWAP1 POP SWAP3 SWAP2 POP POP JUMP JUMPDEST PUSH2 0x3A3F DUP3 PUSH2 0x2B10 JUMP JUMPDEST PUSH8 0xFFFFFFFFFFFFFFFF DUP2 GT ISZERO PUSH2 0x3A58 JUMPI PUSH2 0x3A57 PUSH2 0x32D4 JUMP JUMPDEST JUMPDEST PUSH2 0x3A62 DUP3 SLOAD PUSH2 0x37D5 JUMP JUMPDEST PUSH2 0x3A6D DUP3 DUP3 DUP6 PUSH2 0x39AD JUMP JUMPDEST PUSH0 PUSH1 0x20 SWAP1 POP PUSH1 0x1F DUP4 GT PUSH1 0x1 DUP2 EQ PUSH2 0x3A9E JUMPI PUSH0 DUP5 ISZERO PUSH2 0x3A8C JUMPI DUP3 DUP8 ADD MLOAD SWAP1 POP JUMPDEST PUSH2 0x3A96 DUP6 DUP3 PUSH2 0x3A1B JUMP JUMPDEST DUP7 SSTORE POP PUSH2 0x3AFD JUMP JUMPDEST PUSH1 0x1F NOT DUP5 AND PUSH2 0x3AAC DUP7 PUSH2 0x389F JUMP JUMPDEST PUSH0 JUMPDEST DUP3 DUP2 LT ISZERO PUSH2 0x3AD3 JUMPI DUP5 DUP10 ADD MLOAD DUP3 SSTORE PUSH1 0x1 DUP3 ADD SWAP2 POP PUSH1 0x20 DUP6 ADD SWAP5 POP PUSH1 0x20 DUP2 ADD SWAP1 POP PUSH2 0x3AAE JUMP JUMPDEST DUP7 DUP4 LT ISZERO PUSH2 0x3AF0 JUMPI DUP5 DUP10 ADD MLOAD PUSH2 0x3AEC PUSH1 0x1F DUP10 AND DUP3 PUSH2 0x39FF JUMP JUMPDEST DUP4 SSTORE POP JUMPDEST PUSH1 0x1 PUSH1 0x2 DUP9 MUL ADD DUP9 SSTORE POP POP POP JUMPDEST POP POP POP POP POP POP JUMP JUMPDEST PUSH0 PUSH1 0x20 DUP3 ADD SWAP1 POP PUSH2 0x3B18 PUSH0 DUP4 ADD DUP5 PUSH2 0x2BA1 JUMP JUMPDEST SWAP3 SWAP2 POP POP JUMP JUMPDEST PUSH0 PUSH1 0xA0 DUP3 ADD SWAP1 POP PUSH2 0x3B31 PUSH0 DUP4 ADD DUP9 PUSH2 0x2BA1 JUMP JUMPDEST PUSH2 0x3B3E PUSH1 0x20 DUP4 ADD DUP8 PUSH2 0x2BA1 JUMP JUMPDEST PUSH2 0x3B4B PUSH1 0x40 DUP4 ADD DUP7 PUSH2 0x2BA1 JUMP JUMPDEST PUSH2 0x3B58 PUSH1 0x60 DUP4 ADD DUP6 PUSH2 0x2B89 JUMP JUMPDEST PUSH2 0x3B65 PUSH1 0x80 DUP4 ADD DUP5 PUSH2 0x29DD JUMP JUMPDEST SWAP7 SWAP6 POP POP POP POP POP POP JUMP JUMPDEST PUSH0 PUSH1 0xFF DUP3 AND SWAP1 POP SWAP2 SWAP1 POP JUMP JUMPDEST PUSH2 0x3B84 DUP2 PUSH2 0x3B6F JUMP JUMPDEST DUP3 MSTORE POP POP JUMP JUMPDEST PUSH0 PUSH1 0x80 DUP3 ADD SWAP1 POP PUSH2 0x3B9D PUSH0 DUP4 ADD DUP8 PUSH2 0x2BA1 JUMP JUMPDEST PUSH2 0x3BAA PUSH1 0x20 DUP4 ADD DUP7 PUSH2 0x3B7B JUMP JUMPDEST PUSH2 0x3BB7 PUSH1 0x40 DUP4 ADD DUP6 PUSH2 0x2BA1 JUMP JUMPDEST PUSH2 0x3BC4 PUSH1 0x60 DUP4 ADD DUP5 PUSH2 0x2BA1 JUMP JUMPDEST SWAP6 SWAP5 POP POP POP POP POP JUMP INVALID LOG2 PUSH5 0x6970667358 0x22 SLT KECCAK256 0xD4 ADDRESS 0xB9 0x27 0xE0 0xB6 DUP6 SSTORE 0xEB 0xDB 0xE2 PUSH7 0x90712415C76ED3 0xAF 0x4D 0xC5 SWAP5 ADDMOD SLT STATICCALL 0xCA LOG2 JUMPDEST 0xBC BASEFEE DUP6 PUSH5 0x736F6C6343 STOP ADDMOD SHR STOP CALLER "},"methodIdentifiers":{"confirmDelivery(bytes16)":"11594e29","contractState()":"85209ee0","eip712Domain()":"84b0196e","initialize(address,address,address,uint24)":"c4627023","openDispute(bytes16)":"5ff93a75","orders(bytes16)":"c5c73124","owner()":"8da5cb5b","platformFeeTreasury()":"9a0b79e5","platformTaxTreasury()":"187a4bba","registerEscrow((bytes16,address,address,address,uint256,uint256,uint256,uint256),bytes)":"c75f396a","releaseAfterTimeout(bytes16)":"97c163a0","releaseDelay()":"7195bf23","renounceOwnership()":"715018a6","resolveDispute(bytes16,bool)":"50515d5a","serverSigner()":"31af1908","setContractState(uint8)":"f7b4c187","transferOwnership(address)":"f2fde38b","usedOrderIds(bytes16)":"72907e9d"}}}}}