{
  "_format": "hh3-artifact-1",
  "contractName": "EscrowV1",
  "sourceName": "contracts/EscrowV1.sol",
  "abi": [
    {
      "inputs": [],
      "stateMutability": "nonpayable",
      "type": "constructor"
    },
    {
      "inputs": [],
      "name": "InvalidInitialization",
      "type": "error"
    },
    {
      "inputs": [],
      "name": "NotInitializing",
      "type": "error"
    },
    {
      "inputs": [
        {
          "internalType": "address",
          "name": "owner",
          "type": "address"
        }
      ],
      "name": "OwnableInvalidOwner",
      "type": "error"
    },
    {
      "inputs": [
        {
          "internalType": "address",
          "name": "account",
          "type": "address"
        }
      ],
      "name": "OwnableUnauthorizedAccount",
      "type": "error"
    },
    {
      "inputs": [],
      "name": "ReentrancyGuardReentrantCall",
      "type": "error"
    },
    {
      "anonymous": false,
      "inputs": [
        {
          "indexed": false,
          "internalType": "enum EscrowV1.ContractState",
          "name": "newState",
          "type": "uint8"
        }
      ],
      "name": "ContractStateChanged",
      "type": "event"
    },
    {
      "anonymous": false,
      "inputs": [
        {
          "indexed": true,
          "internalType": "bytes16",
          "name": "orderId",
          "type": "bytes16"
        },
        {
          "indexed": true,
          "internalType": "address",
          "name": "buyer",
          "type": "address"
        },
        {
          "indexed": true,
          "internalType": "address",
          "name": "seller",
          "type": "address"
        },
        {
          "indexed": false,
          "internalType": "uint256",
          "name": "amount",
          "type": "uint256"
        },
        {
          "indexed": false,
          "internalType": "uint16",
          "name": "taxBps",
          "type": "uint16"
        }
      ],
      "name": "EscrowCreated",
      "type": "event"
    },
    {
      "anonymous": false,
      "inputs": [
        {
          "indexed": false,
          "internalType": "uint64",
          "name": "version",
          "type": "uint64"
        }
      ],
      "name": "Initialized",
      "type": "event"
    },
    {
      "anonymous": false,
      "inputs": [
        {
          "indexed": true,
          "internalType": "bytes16",
          "name": "orderId",
          "type": "bytes16"
        }
      ],
      "name": "OrderDisputed",
      "type": "event"
    },
    {
      "anonymous": false,
      "inputs": [
        {
          "indexed": true,
          "internalType": "bytes16",
          "name": "orderId",
          "type": "bytes16"
        },
        {
          "indexed": true,
          "internalType": "address",
          "name": "buyer",
          "type": "address"
        },
        {
          "indexed": false,
          "internalType": "uint256",
          "name": "amount",
          "type": "uint256"
        }
      ],
      "name": "OrderRefunded",
      "type": "event"
    },
    {
      "anonymous": false,
      "inputs": [
        {
          "indexed": true,
          "internalType": "bytes16",
          "name": "orderId",
          "type": "bytes16"
        },
        {
          "indexed": true,
          "internalType": "address",
          "name": "seller",
          "type": "address"
        },
        {
          "indexed": false,
          "internalType": "uint256",
          "name": "sellerAmount",
          "type": "uint256"
        }
      ],
      "name": "OrderReleased",
      "type": "event"
    },
    {
      "anonymous": false,
      "inputs": [
        {
          "indexed": true,
          "internalType": "address",
          "name": "previousOwner",
          "type": "address"
        },
        {
          "indexed": true,
          "internalType": "address",
          "name": "newOwner",
          "type": "address"
        }
      ],
      "name": "OwnershipTransferred",
      "type": "event"
    },
    {
      "inputs": [
        {
          "internalType": "bytes16",
          "name": "orderId",
          "type": "bytes16"
        }
      ],
      "name": "confirmDelivery",
      "outputs": [],
      "stateMutability": "nonpayable",
      "type": "function"
    },
    {
      "inputs": [],
      "name": "contractState",
      "outputs": [
        {
          "internalType": "enum EscrowV1.ContractState",
          "name": "",
          "type": "uint8"
        }
      ],
      "stateMutability": "view",
      "type": "function"
    },
    {
      "inputs": [
        {
          "internalType": "bytes16",
          "name": "orderId",
          "type": "bytes16"
        },
        {
          "internalType": "address",
          "name": "seller",
          "type": "address"
        },
        {
          "internalType": "uint16",
          "name": "taxBps",
          "type": "uint16"
        }
      ],
      "name": "createEscrow",
      "outputs": [],
      "stateMutability": "payable",
      "type": "function"
    },
    {
      "inputs": [
        {
          "internalType": "address",
          "name": "_platformTreasury",
          "type": "address"
        },
        {
          "internalType": "uint16",
          "name": "_feeBps",
          "type": "uint16"
        },
        {
          "internalType": "uint24",
          "name": "_releaseDelay",
          "type": "uint24"
        }
      ],
      "name": "initialize",
      "outputs": [],
      "stateMutability": "nonpayable",
      "type": "function"
    },
    {
      "inputs": [
        {
          "internalType": "bytes16",
          "name": "orderId",
          "type": "bytes16"
        }
      ],
      "name": "openDispute",
      "outputs": [],
      "stateMutability": "nonpayable",
      "type": "function"
    },
    {
      "inputs": [
        {
          "internalType": "bytes16",
          "name": "",
          "type": "bytes16"
        }
      ],
      "name": "orders",
      "outputs": [
        {
          "internalType": "address",
          "name": "buyer",
          "type": "address"
        },
        {
          "internalType": "address",
          "name": "seller",
          "type": "address"
        },
        {
          "internalType": "uint256",
          "name": "amount",
          "type": "uint256"
        },
        {
          "internalType": "uint16",
          "name": "taxBps",
          "type": "uint16"
        },
        {
          "internalType": "uint256",
          "name": "createdAt",
          "type": "uint256"
        },
        {
          "internalType": "enum EscrowV1.OrderState",
          "name": "state",
          "type": "uint8"
        }
      ],
      "stateMutability": "view",
      "type": "function"
    },
    {
      "inputs": [],
      "name": "owner",
      "outputs": [
        {
          "internalType": "address",
          "name": "",
          "type": "address"
        }
      ],
      "stateMutability": "view",
      "type": "function"
    },
    {
      "inputs": [],
      "name": "platformFeeBps",
      "outputs": [
        {
          "internalType": "uint16",
          "name": "",
          "type": "uint16"
        }
      ],
      "stateMutability": "view",
      "type": "function"
    },
    {
      "inputs": [],
      "name": "platformTreasury",
      "outputs": [
        {
          "internalType": "address",
          "name": "",
          "type": "address"
        }
      ],
      "stateMutability": "view",
      "type": "function"
    },
    {
      "inputs": [
        {
          "internalType": "bytes16",
          "name": "orderId",
          "type": "bytes16"
        }
      ],
      "name": "releaseAfterTimeout",
      "outputs": [],
      "stateMutability": "nonpayable",
      "type": "function"
    },
    {
      "inputs": [],
      "name": "releaseDelay",
      "outputs": [
        {
          "internalType": "uint24",
          "name": "",
          "type": "uint24"
        }
      ],
      "stateMutability": "view",
      "type": "function"
    },
    {
      "inputs": [],
      "name": "renounceOwnership",
      "outputs": [],
      "stateMutability": "nonpayable",
      "type": "function"
    },
    {
      "inputs": [
        {
          "internalType": "bytes16",
          "name": "orderId",
          "type": "bytes16"
        },
        {
          "internalType": "bool",
          "name": "refundBuyer",
          "type": "bool"
        }
      ],
      "name": "resolveDispute",
      "outputs": [],
      "stateMutability": "nonpayable",
      "type": "function"
    },
    {
      "inputs": [
        {
          "internalType": "enum EscrowV1.ContractState",
          "name": "newState",
          "type": "uint8"
        }
      ],
      "name": "setContractState",
      "outputs": [],
      "stateMutability": "nonpayable",
      "type": "function"
    },
    {
      "inputs": [
        {
          "internalType": "address",
          "name": "newOwner",
          "type": "address"
        }
      ],
      "name": "transferOwnership",
      "outputs": [],
      "stateMutability": "nonpayable",
      "type": "function"
    }
  ],
  "bytecode": "0x608060405234801561000f575f5ffd5b5061001e61002360201b60201c565b61019e565b5f61003261012160201b60201c565b9050805f0160089054906101000a900460ff161561007c576040517ff92ee8a900000000000000000000000000000000000000000000000000000000815260040160405180910390fd5b67ffffffffffffffff8016815f015f9054906101000a900467ffffffffffffffff1667ffffffffffffffff161461011e5767ffffffffffffffff815f015f6101000a81548167ffffffffffffffff021916908367ffffffffffffffff1602179055507fc7f505b2f371ae2175ee4913f4499e1f2633a7b5936321eed1cdaeb6115181d267ffffffffffffffff6040516101159190610185565b60405180910390a15b50565b5f5f61013161013a60201b60201c565b90508091505090565b5f7ff0c57e16840df040f15088dc2f81fe391c3923bec73e23a9662efc9c229c6a005f1b905090565b5f67ffffffffffffffff82169050919050565b61017f81610163565b82525050565b5f6020820190506101985f830184610176565b92915050565b612543806101ab5f395ff3fe6080604052600436106100e7575f3560e01c80638da5cb5b11610089578063c619725b11610058578063c619725b146102a6578063e138818c146102ce578063f2fde38b146102f8578063f7b4c18714610320576100e7565b80638da5cb5b146101f757806397c163a014610221578063b91c051f14610249578063c5c7312414610265576100e7565b80635ff93a75116100c55780635ff93a7514610165578063715018a61461018d5780637195bf23146101a357806385209ee0146101cd576100e7565b806311594e29146100eb57806322dcd13e1461011357806350515d5a1461013d575b5f5ffd5b3480156100f6575f5ffd5b50610111600480360381019061010c9190611a30565b610348565b005b34801561011e575f5ffd5b5061012761051a565b6040516101349190611a77565b60405180910390f35b348015610148575f5ffd5b50610163600480360381019061015e9190611ac5565b61052e565b005b348015610170575f5ffd5b5061018b60048036038101906101869190611a30565b61072e565b005b348015610198575f5ffd5b506101a1610953565b005b3480156101ae575f5ffd5b506101b7610966565b6040516101c49190611b20565b60405180910390f35b3480156101d8575f5ffd5b506101e161097b565b6040516101ee9190611bac565b60405180910390f35b348015610202575f5ffd5b5061020b61098e565b6040516102189190611c04565b60405180910390f35b34801561022c575f5ffd5b5061024760048036038101906102429190611a30565b6109c3565b005b610263600480360381019061025e9190611c71565b610af8565b005b348015610270575f5ffd5b5061028b60048036038101906102869190611a30565b610e82565b60405161029d96959493929190611d1f565b60405180910390f35b3480156102b1575f5ffd5b506102cc60048036038101906102c79190611da8565b610f10565b005b3480156102d9575f5ffd5b506102e261121f565b6040516102ef9190611c04565b60405180910390f35b348015610303575f5ffd5b5061031e60048036038101906103199190611df8565b611244565b005b34801561032b575f5ffd5b5061034660048036038101906103419190611e46565b6112c8565b005b610350611334565b5f600181111561036357610362611b39565b5b600160199054906101000a900460ff16600181111561038557610384611b39565b5b146103c5576040517f08c379a00000000000000000000000000000000000000000000000000000000081526004016103bc90611ecb565b60405180910390fd5b5f5f5f836fffffffffffffffffffffffffffffffff19166fffffffffffffffffffffffffffffffff191681526020019081526020015f209050805f015f9054906101000a900473ffffffffffffffffffffffffffffffffffffffff1673ffffffffffffffffffffffffffffffffffffffff163373ffffffffffffffffffffffffffffffffffffffff161461048e576040517f08c379a000000000000000000000000000000000000000000000000000000000815260040161048590611f33565b60405180910390fd5b600160048111156104a2576104a1611b39565b5b816005015f9054906101000a900460ff1660048111156104c5576104c4611b39565b5b14610505576040517f08c379a00000000000000000000000000000000000000000000000000000000081526004016104fc90611f9b565b60405180910390fd5b61050e82611388565b50610517611620565b50565b600160149054906101000a900461ffff1681565b610536611637565b61053e611334565b5f5f5f846fffffffffffffffffffffffffffffffff19166fffffffffffffffffffffffffffffffff191681526020019081526020015f2090506003600481111561058b5761058a611b39565b5b816005015f9054906101000a900460ff1660048111156105ae576105ad611b39565b5b146105ee576040517f08c379a00000000000000000000000000000000000000000000000000000000081526004016105e590612003565b60405180910390fd5b8115610717576004816005015f6101000a81548160ff0219169083600481111561061b5761061a611b39565b5b0217905550805f015f9054906101000a900473ffffffffffffffffffffffffffffffffffffffff1673ffffffffffffffffffffffffffffffffffffffff166108fc826002015490811502906040515f60405180830381858888f19350505050158015610689573d5f5f3e3d5ffd5b50805f015f9054906101000a900473ffffffffffffffffffffffffffffffffffffffff1673ffffffffffffffffffffffffffffffffffffffff16836fffffffffffffffffffffffffffffffff19167fafab81c7cff0515ab993a1cf55536d90f68cf5ec75deab830fd758b2a7f296ed836002015460405161070a9190612021565b60405180910390a3610721565b61072083611388565b5b5061072a611620565b5050565b5f600181111561074157610740611b39565b5b600160199054906101000a900460ff16600181111561076357610762611b39565b5b146107a3576040517f08c379a000000000000000000000000000000000000000000000000000000000815260040161079a90611ecb565b60405180910390fd5b5f5f5f836fffffffffffffffffffffffffffffffff19166fffffffffffffffffffffffffffffffff191681526020019081526020015f209050805f015f9054906101000a900473ffffffffffffffffffffffffffffffffffffffff1673ffffffffffffffffffffffffffffffffffffffff163373ffffffffffffffffffffffffffffffffffffffff161461086c576040517f08c379a000000000000000000000000000000000000000000000000000000000815260040161086390611f33565b60405180910390fd5b600160048111156108805761087f611b39565b5b816005015f9054906101000a900460ff1660048111156108a3576108a2611b39565b5b146108e3576040517f08c379a00000000000000000000000000000000000000000000000000000000081526004016108da90612084565b60405180910390fd5b6003816005015f6101000a81548160ff0219169083600481111561090a57610909611b39565b5b0217905550816fffffffffffffffffffffffffffffffff19167fdb1a1355b8cffea63b711aac689b380d6d3fa596333cf6a852d993988526e0ae60405160405180910390a25050565b61095b611637565b6109645f6116be565b565b600160169054906101000a900462ffffff1681565b600160199054906101000a900460ff1681565b5f5f61099861178f565b9050805f015f9054906101000a900473ffffffffffffffffffffffffffffffffffffffff1691505090565b6109cb611334565b5f5f5f836fffffffffffffffffffffffffffffffff19166fffffffffffffffffffffffffffffffff191681526020019081526020015f20905060016004811115610a1857610a17611b39565b5b816005015f9054906101000a900460ff166004811115610a3b57610a3a611b39565b5b14610a7b576040517f08c379a0000000000000000000000000000000000000000000000000000000008152600401610a7290611f9b565b60405180910390fd5b600160169054906101000a900462ffffff1662ffffff168160040154610aa191906120cf565b421015610ae3576040517f08c379a0000000000000000000000000000000000000000000000000000000008152600401610ada9061214c565b60405180910390fd5b610aec82611388565b50610af5611620565b50565b610b00611334565b5f6001811115610b1357610b12611b39565b5b600160199054906101000a900460ff166001811115610b3557610b34611b39565b5b14610b75576040517f08c379a0000000000000000000000000000000000000000000000000000000008152600401610b6c90611ecb565b60405180910390fd5b5f3411610bb7576040517f08c379a0000000000000000000000000000000000000000000000000000000008152600401610bae906121b4565b60405180910390fd5b5f6004811115610bca57610bc9611b39565b5b5f5f856fffffffffffffffffffffffffffffffff19166fffffffffffffffffffffffffffffffff191681526020019081526020015f206005015f9054906101000a900460ff166004811115610c2257610c21611b39565b5b14610c62576040517f08c379a0000000000000000000000000000000000000000000000000000000008152600401610c599061221c565b60405180910390fd5b6040518060c001604052803373ffffffffffffffffffffffffffffffffffffffff1681526020018373ffffffffffffffffffffffffffffffffffffffff1681526020013481526020018261ffff16815260200142815260200160016004811115610ccf57610cce611b39565b5b8152505f5f856fffffffffffffffffffffffffffffffff19166fffffffffffffffffffffffffffffffff191681526020019081526020015f205f820151815f015f6101000a81548173ffffffffffffffffffffffffffffffffffffffff021916908373ffffffffffffffffffffffffffffffffffffffff1602179055506020820151816001015f6101000a81548173ffffffffffffffffffffffffffffffffffffffff021916908373ffffffffffffffffffffffffffffffffffffffff160217905550604082015181600201556060820151816003015f6101000a81548161ffff021916908361ffff1602179055506080820151816004015560a0820151816005015f6101000a81548160ff02191690836004811115610df257610df1611b39565b5b02179055509050508173ffffffffffffffffffffffffffffffffffffffff163373ffffffffffffffffffffffffffffffffffffffff16846fffffffffffffffffffffffffffffffff19167f14a657caf142c33a17ca3679b94eae3a656328ac085d3cebd578dee6ab96e1b83485604051610e6d92919061223a565b60405180910390a4610e7d611620565b505050565b5f602052805f5260405f205f91509050805f015f9054906101000a900473ffffffffffffffffffffffffffffffffffffffff1690806001015f9054906101000a900473ffffffffffffffffffffffffffffffffffffffff1690806002015490806003015f9054906101000a900461ffff1690806004015490806005015f9054906101000a900460ff16905086565b5f610f196117b6565b90505f815f0160089054906101000a900460ff161590505f825f015f9054906101000a900467ffffffffffffffff1690505f5f8267ffffffffffffffff16148015610f615750825b90505f60018367ffffffffffffffff16148015610f9457505f3073ffffffffffffffffffffffffffffffffffffffff163b145b905081158015610fa2575080155b15610fd9576040517ff92ee8a900000000000000000000000000000000000000000000000000000000815260040160405180910390fd5b6001855f015f6101000a81548167ffffffffffffffff021916908367ffffffffffffffff1602179055508315611026576001855f0160086101000a81548160ff0219169083151502179055505b61102f336117c9565b6110376117dd565b6103e88761ffff161115611080576040517f08c379a0000000000000000000000000000000000000000000000000000000008152600401611077906122ab565b60405180910390fd5b610e108662ffffff1610156110ca576040517f08c379a00000000000000000000000000000000000000000000000000000000081526004016110c190612313565b60405180910390fd5b62093a808662ffffff161115611115576040517f08c379a000000000000000000000000000000000000000000000000000000000815260040161110c9061237b565b60405180910390fd5b8760015f6101000a81548173ffffffffffffffffffffffffffffffffffffffff021916908373ffffffffffffffffffffffffffffffffffffffff16021790555086600160146101000a81548161ffff021916908361ffff16021790555085600160166101000a81548162ffffff021916908362ffffff1602179055505f600160196101000a81548160ff021916908360018111156111b6576111b5611b39565b5b02179055508315611215575f855f0160086101000a81548160ff0219169083151502179055507fc7f505b2f371ae2175ee4913f4499e1f2633a7b5936321eed1cdaeb6115181d2600160405161120c91906123ee565b60405180910390a15b5050505050505050565b60015f9054906101000a900473ffffffffffffffffffffffffffffffffffffffff1681565b61124c611637565b5f73ffffffffffffffffffffffffffffffffffffffff168173ffffffffffffffffffffffffffffffffffffffff16036112bc575f6040517f1e4fbdf70000000000000000000000000000000000000000000000000000000081526004016112b39190611c04565b60405180910390fd5b6112c5816116be565b50565b6112d0611637565b80600160196101000a81548160ff021916908360018111156112f5576112f4611b39565b5b02179055507fab540c1b3defd38d975e65aa0e06eeee132a55dd082be87b73f505ab57bed48c816040516113299190611bac565b60405180910390a150565b5f61133d6117ef565b90506002815f01540361137c576040517f3ee5aeb500000000000000000000000000000000000000000000000000000000815260040160405180910390fd5b6002815f018190555050565b5f5f5f836fffffffffffffffffffffffffffffffff19166fffffffffffffffffffffffffffffffff191681526020019081526020015f209050600160048111156113d5576113d4611b39565b5b816005015f9054906101000a900460ff1660048111156113f8576113f7611b39565b5b148061143857506003600481111561141357611412611b39565b5b816005015f9054906101000a900460ff16600481111561143657611435611b39565b5b145b611477576040517f08c379a000000000000000000000000000000000000000000000000000000000815260040161146e90611f9b565b60405180910390fd5b6002816005015f6101000a81548160ff0219169083600481111561149e5761149d611b39565b5b02179055505f5f6114c48360020154846003015f9054906101000a900461ffff16611816565b925092505060015f9054906101000a900473ffffffffffffffffffffffffffffffffffffffff1673ffffffffffffffffffffffffffffffffffffffff166108fc8390811502906040515f60405180830381858888f1935050505015801561152d573d5f5f3e3d5ffd5b50826001015f9054906101000a900473ffffffffffffffffffffffffffffffffffffffff1673ffffffffffffffffffffffffffffffffffffffff166108fc8290811502906040515f60405180830381858888f19350505050158015611594573d5f5f3e3d5ffd5b50826001015f9054906101000a900473ffffffffffffffffffffffffffffffffffffffff1673ffffffffffffffffffffffffffffffffffffffff16846fffffffffffffffffffffffffffffffff19167fe60f924809ad7a86a6789604bdd4b0e09d0f5585dde8e7290b4a37759ca77d0b836040516116129190612021565b60405180910390a350505050565b5f6116296117ef565b90506001815f018190555050565b61163f6118a6565b73ffffffffffffffffffffffffffffffffffffffff1661165d61098e565b73ffffffffffffffffffffffffffffffffffffffff16146116bc576116806118a6565b6040517f118cdaa70000000000000000000000000000000000000000000000000000000081526004016116b39190611c04565b60405180910390fd5b565b5f6116c761178f565b90505f815f015f9054906101000a900473ffffffffffffffffffffffffffffffffffffffff16905082825f015f6101000a81548173ffffffffffffffffffffffffffffffffffffffff021916908373ffffffffffffffffffffffffffffffffffffffff1602179055508273ffffffffffffffffffffffffffffffffffffffff168173ffffffffffffffffffffffffffffffffffffffff167f8be0079c531659141344cd1fd0a4f28419497f9722a3daafe3b4186f6b6457e060405160405180910390a3505050565b5f7f9016d09d72d40fdae2fd8ceac6b6234c7706214fd39c1cd1e609a0528c199300905090565b5f5f6117c06118ad565b90508091505090565b6117d16118d6565b6117da81611916565b50565b6117e56118d6565b6117ed61199a565b565b5f7f9b779b17422d0df92223018b32b4d1fa46e071723d6817e2486d003becc55f00905090565b5f5f5f836127106118279190612407565b61ffff168461ffff168661183b919061243c565b61184591906124aa565b92505f838661185491906124da565b9050612710600160149054906101000a900461ffff1661ffff1682611879919061243c565b61188391906124aa565b925083838261189291906124da565b61189c91906120cf565b9150509250925092565b5f33905090565b5f7ff0c57e16840df040f15088dc2f81fe391c3923bec73e23a9662efc9c229c6a005f1b905090565b6118de6119b9565b611914576040517fd7e6bcf800000000000000000000000000000000000000000000000000000000815260040160405180910390fd5b565b61191e6118d6565b5f73ffffffffffffffffffffffffffffffffffffffff168173ffffffffffffffffffffffffffffffffffffffff160361198e575f6040517f1e4fbdf70000000000000000000000000000000000000000000000000000000081526004016119859190611c04565b60405180910390fd5b611997816116be565b50565b6119a26118d6565b5f6119ab6117ef565b90506001815f018190555050565b5f6119c26117b6565b5f0160089054906101000a900460ff16905090565b5f5ffd5b5f7fffffffffffffffffffffffffffffffff0000000000000000000000000000000082169050919050565b611a0f816119db565b8114611a19575f5ffd5b50565b5f81359050611a2a81611a06565b92915050565b5f60208284031215611a4557611a446119d7565b5b5f611a5284828501611a1c565b91505092915050565b5f61ffff82169050919050565b611a7181611a5b565b82525050565b5f602082019050611a8a5f830184611a68565b92915050565b5f8115159050919050565b611aa481611a90565b8114611aae575f5ffd5b50565b5f81359050611abf81611a9b565b92915050565b5f5f60408385031215611adb57611ada6119d7565b5b5f611ae885828601611a1c565b9250506020611af985828601611ab1565b9150509250929050565b5f62ffffff82169050919050565b611b1a81611b03565b82525050565b5f602082019050611b335f830184611b11565b92915050565b7f4e487b71000000000000000000000000000000000000000000000000000000005f52602160045260245ffd5b60028110611b7757611b76611b39565b5b50565b5f819050611b8782611b66565b919050565b5f611b9682611b7a565b9050919050565b611ba681611b8c565b82525050565b5f602082019050611bbf5f830184611b9d565b92915050565b5f73ffffffffffffffffffffffffffffffffffffffff82169050919050565b5f611bee82611bc5565b9050919050565b611bfe81611be4565b82525050565b5f602082019050611c175f830184611bf5565b92915050565b611c2681611be4565b8114611c30575f5ffd5b50565b5f81359050611c4181611c1d565b92915050565b611c5081611a5b565b8114611c5a575f5ffd5b50565b5f81359050611c6b81611c47565b92915050565b5f5f5f60608486031215611c8857611c876119d7565b5b5f611c9586828701611a1c565b9350506020611ca686828701611c33565b9250506040611cb786828701611c5d565b9150509250925092565b5f819050919050565b611cd381611cc1565b82525050565b60058110611cea57611ce9611b39565b5b50565b5f819050611cfa82611cd9565b919050565b5f611d0982611ced565b9050919050565b611d1981611cff565b82525050565b5f60c082019050611d325f830189611bf5565b611d3f6020830188611bf5565b611d4c6040830187611cca565b611d596060830186611a68565b611d666080830185611cca565b611d7360a0830184611d10565b979650505050505050565b611d8781611b03565b8114611d91575f5ffd5b50565b5f81359050611da281611d7e565b92915050565b5f5f5f60608486031215611dbf57611dbe6119d7565b5b5f611dcc86828701611c33565b9350506020611ddd86828701611c5d565b9250506040611dee86828701611d94565b9150509250925092565b5f60208284031215611e0d57611e0c6119d7565b5b5f611e1a84828501611c33565b91505092915050565b60028110611e2f575f5ffd5b50565b5f81359050611e4081611e23565b92915050565b5f60208284031215611e5b57611e5a6119d7565b5b5f611e6884828501611e32565b91505092915050565b5f82825260208201905092915050565b7f436f6e74726163742064657072656361746564000000000000000000000000005f82015250565b5f611eb5601383611e71565b9150611ec082611e81565b602082019050919050565b5f6020820190508181035f830152611ee281611ea9565b9050919050565b7f4e6f7420627579657200000000000000000000000000000000000000000000005f82015250565b5f611f1d600983611e71565b9150611f2882611ee9565b602082019050919050565b5f6020820190508181035f830152611f4a81611f11565b9050919050565b7f43616e6e6f742072656c656173650000000000000000000000000000000000005f82015250565b5f611f85600e83611e71565b9150611f9082611f51565b602082019050919050565b5f6020820190508181035f830152611fb281611f79565b9050919050565b7f4e6f2064697370757465000000000000000000000000000000000000000000005f82015250565b5f611fed600a83611e71565b9150611ff882611fb9565b602082019050919050565b5f6020820190508181035f83015261201a81611fe1565b9050919050565b5f6020820190506120345f830184611cca565b92915050565b7f43616e6e6f7420646973707574650000000000000000000000000000000000005f82015250565b5f61206e600e83611e71565b91506120798261203a565b602082019050919050565b5f6020820190508181035f83015261209b81612062565b9050919050565b7f4e487b71000000000000000000000000000000000000000000000000000000005f52601160045260245ffd5b5f6120d982611cc1565b91506120e483611cc1565b92508282019050808211156120fc576120fb6120a2565b5b92915050565b7f546f6f206561726c7900000000000000000000000000000000000000000000005f82015250565b5f612136600983611e71565b915061214182612102565b602082019050919050565b5f6020820190508181035f8301526121638161212a565b9050919050565b7f496e76616c696420616d6f756e740000000000000000000000000000000000005f82015250565b5f61219e600e83611e71565b91506121a98261216a565b602082019050919050565b5f6020820190508181035f8301526121cb81612192565b9050919050565b7f4f726465722065786973747300000000000000000000000000000000000000005f82015250565b5f612206600c83611e71565b9150612211826121d2565b602082019050919050565b5f6020820190508181035f830152612233816121fa565b9050919050565b5f60408201905061224d5f830185611cca565b61225a6020830184611a68565b9392505050565b7f46656520746f6f206869676800000000000000000000000000000000000000005f82015250565b5f612295600c83611e71565b91506122a082612261565b602082019050919050565b5f6020820190508181035f8301526122c281612289565b9050919050565b7f44656c617920746f6f2073686f727400000000000000000000000000000000005f82015250565b5f6122fd600f83611e71565b9150612308826122c9565b602082019050919050565b5f6020820190508181035f83015261232a816122f1565b9050919050565b7f44656c617920746f6f206c6f6e670000000000000000000000000000000000005f82015250565b5f612365600e83611e71565b915061237082612331565b602082019050919050565b5f6020820190508181035f83015261239281612359565b9050919050565b5f819050919050565b5f67ffffffffffffffff82169050919050565b5f819050919050565b5f6123d86123d36123ce84612399565b6123b5565b6123a2565b9050919050565b6123e8816123be565b82525050565b5f6020820190506124015f8301846123df565b92915050565b5f61241182611a5b565b915061241c83611a5b565b9250828201905061ffff811115612436576124356120a2565b5b92915050565b5f61244682611cc1565b915061245183611cc1565b925082820261245f81611cc1565b91508282048414831517612476576124756120a2565b5b5092915050565b7f4e487b71000000000000000000000000000000000000000000000000000000005f52601260045260245ffd5b5f6124b482611cc1565b91506124bf83611cc1565b9250826124cf576124ce61247d565b5b828204905092915050565b5f6124e482611cc1565b91506124ef83611cc1565b9250828203905081811115612507576125066120a2565b5b9291505056fea26469706673582212200ecc37bb7b14e6a8705b2f2f77a395fea744c3c762da6d3dc09034e93139f37e64736f6c634300081c0033",
  "linkReferences": {},
  "deployedLinkReferences": {},
  "immutableReferences": {},
  "inputSourceName": "project/contracts/EscrowV1.sol",
  "buildInfoId": "solc-0_8_28-40eaf8629c03ed55856d25c7925fc36381640fe0"
}